:020000021000EC
:1020000000000120392201009122010093220100E9
:102010009522010097220100992201000000000092
:102020000000000000000000000000009B220100F2
:102030009D220100000000009F220100A12201005A
:10204000AD270100A7220100C5390100AB22010024
:10205000AD220100AF220100B1220100352E0100A6
:10206000B5220100B7220100B9220100952C010020
:10207000BD220100BF220100C1220100C3220100D4
:10208000C5220100C7220100C9220100CB220100A4
:10209000CD220100CF220100113D0100D322010019
:1020A000D5220100D7220100D9220100DB22010044
:1020B000DD220100DF220100A3220100A322010092
:1020C000E1220100E3220100E5220100E7220100F4
:0C20D000E9220100EB220100ED220100DA
:1020DC00354936480A1A02D0072291438D463449B5
:1020EC0034480A1A06D00722914381F30988022248
:1020FC0082F3148830483149314A00F044F83148B1
:10210C003149324A00F03FF831483249324A00F046
:10211C003AF832483249334A00F035F832483349FC
:10212C00334A00F030F833483349344A00F02BF886
:10213C0033483449344A00F026F8344834490022F4
:10214C0000F02CF833483449002200F027F83348CB
:10215C003349091A082902DB002202604160314A26
:10216C0090471F481F49884205D00268043003B4C9
:10217C00904703BCF7E700208646EC460020002180
:10218C00294A9047FEE7884207D0521A05D00378B7
:10219C0001300B700131013AF9D17047884202D0FD
:1021AC0002700130FAE770470000012000F80020AF
:1021BC00000001200000012038570100800B002096
:1021CC00940B0020F0220100F02201004A51010082
:1021DC0038570100800B0020800B00205C5101005F
:1021EC005C5101005C5101005C5101005C5101002B
:1021FC005C5101005C5101005C510100365701003B
:10220C004C570100940B0020940B0020940B0020E1
:10221C00C80C0020C80C0020C80C0020C80C0020E2
:10222C00C80E00205D220100F14701000F484FF05D
:10223C000701884385460E4880470E48016841F4E3
:10224C0070010160BFF34F8FBFF36F8FFFF740BF7B
:10225C0009480A490A4A884207D0521A05D003781D
:10226C0001300B700131013AF9D1704700000120A7
:10227C007548010088ED00E05C510100800B0020E6
:10228C00800B0020FEE7FEE7FEE7FEE7FEE7FEE739
:10229C00FEE7FEE7FEE7FEE7FEE7FEE7FEE7FEE70A
:1022AC00FEE7FEE7FEE7FEE7FEE7FEE7FEE7FEE7FA
:1022BC00FEE7FEE7FEE7FEE7FEE7FEE7FEE7FEE7EA
:1022CC00FEE7FEE7FEE7FEE7FEE7FEE7FEE7FEE7DA
:1022DC00FEE7FEE7FEE7FEE7FEE7FEE7FEE7FEE7CA
:0422EC00FEE700BF4A
:1022F00000B589B0039002910192029B9BB2ADF8A8
:102300001430019B0693039B079305AB1A460021EB
:1023100044F2010000F052F800BF09B05DF804FB80
:1023200086B003900291019201238DF817309DF839
:102330001730214A039B13601F4A029B53601E4AB9
:10234000019B9360039B44F20102934213D0039BD1
:1023500044F20202934222D1019B174AD360164BEA
:10236000DB681B881A46144B9A61134BDB685B6869
:10237000114AD36113E0019B0F4A13610E4B1B6995
:102380009B680D4A53610C4B1B691B881A460A4B0C
:102390009A61094B1B695B68074AD36100BF72B63B
:1023A00000BF00BF9DF81730DBB2002BFAD162B638
:1023B00000BF00BF06B07047940B002000B587B087
:1023C000039002910192039B44F20102934207D0D1
:1023D000039B44F20202934205D1019B059303E063
:1023E000019B049300E000BF074B1B6803F001034F
:1023F000002B00D0FFDE019A02990398FFF790FFAF
:1024000000BF07B05DF804FBF0ED00E072B600BF5E
:10241000034B1B680133024A136000BF704700BFC3
:10242000B40B0020064B1B68013B054A1360044BAC
:102430001B68002B01D162B600BF00BF704700BF10
:10244000B40B002000B583B0019000F025F80346DE
:10245000012B03D00449432000F03BF8FFF7D6FFDF
:1024600000BF03B05DF804FB5C51010000B583B010
:1024700003468DF8073000F00FF80346012B03D018
:102480000449512000F025F8FFF7CCFF00BF03B04E
:102490005DF804FB5C51010084B0EFF30583019308
:1024A000019BC3F308030393039B002B0DD1EFF3B0
:1024B00014830093009B0293029B03F00103002B03
:1024C0000CBF01230023DBB200E00123184604B057
:1024D000704700B585B003460091ADF80630BDF8F1
:1024E0000630ADF80830009B039302AB1A4600217A
:1024F00044F20200FFF762FF00BF05B05DF804FB85
:1025000082B001904FF08042019BC2F8043300BFBB
:1025100002B0704782B001904FF08042019BC2F838
:10252000083300BF02B0704782B003468DF8073011
:102530009DF8073003F1804301221A6000BF02B00A
:10254000704784B00346ADF80630BDF8063003F19D
:10255000804300221A60BDF8063003F180431B68F7
:102560000393039B00BF04B0704782B00346ADF8ED
:102570000630BDF8063003F180431B68002B14BF02
:1025800001230023DBB2184602B0704782B0034635
:102590008DF807309DF807304FF0804203F00303B9
:1025A000C2F8183500BF02B07047000082B0034681
:1025B0008DF807300A4A9DF907305B0952F823204D
:1025C0009DF8073003F01F03012101FA03F31340C4
:1025D000002B14BF01230023DBB2184602B0704762
:1025E00000E100E008B50020FFF7E0FF034683F0BC
:1025F0000103DBB2002B03D00721002000F05AF9C1
:1026000000BF08BD08B54FF48270FFF79AFF0220A3
:10261000FFF776FF0820FFF787FF00BF08BD000027
:1026200000B583B0002301930F4B1B78002B02D021
:102630008523019313E00C4B00229A600A4B002281
:102640005A60094B00221A61074B0022DA60FFF73B
:10265000C9FF0120FFF79AFF034B01221A70019B6B
:10266000184603B05DF804FBB80B002084B001905D
:102670000091019B1B68039306E0039A009B9A421A
:102680000DD0039B1B680393039B002BF5D1019B8B
:102690001A68009B1A60019B009A1A6000E000BF54
:1026A00004B0704784B00190019B1B680393039BA7
:1026B000002B03D0039B1A68019B1A60039B1846EA
:1026C00004B0704700B583B00190224B1B78002BFB
:1026D00003D12149FB20FFF7FCFE1E4B9B78DBB2A8
:1026E000002B12D0019B002B03D0019B5B680120C3
:1026F00098470020FFF7A6FE164BDB680133154A0A
:10270000D3600020FFF7B2FE17E00020FFF79AFE2B
:10271000019B002B03D001991048FFF7A7FF0D4B39
:10272000DB68002B01D1FFF76DFF0A4BDB6801333B
:10273000084AD3600020FFF799FE064BDB68002BA8
:1027400004D1054940F21710FFF7C3FE00BF03B0E4
:102750005DF804FBB80B0020A8510100C80B002055
:1027600000B585B003468DF807309DF80730002B83
:1027700002D10C4B039301E00B4B03930398FFF73B
:1027800091FF0290029B002B06D0029B5B689DF894
:10279000072010469847F1E700BF00BF05B05DF87D
:1027A00004FB00BFC00B0020C80B002008B54FF48D
:1027B0008070FFF7DAFE0346002B0CD04FF48070D8
:1027C000FFF7BFFE0120FFF7A5FE0E4B01225A7056
:1027D0000020FFF7C5FF4FF48270FFF7C6FE0346E7
:1027E000002B0CD04FF48270FFF7ABFE0220FFF7F6
:1027F00091FE044B01229A700120FFF7B1FF00BF48
:1028000008BD00BFB80B002082B003468DF807302A
:102810009DF8073003F01F0205499DF907305B0959
:10282000012000FA02F241F8232000BF02B07047F5
:1028300000E100E082B003468DF807309DF80730D4
:1028400003F01F0206499DF907305B09012000FAD9
:1028500002F2603341F8232000BF02B0704700BF8E
:1028600000E100E082B0034600918DF807309DF949
:102870000730002B0CDA009BDAB20C499DF80730C8
:1028800003F00F03043B5201D2B20B441A7609E065
:10289000009BDAB206499DF907305201D2B20B44CF
:1028A00083F8002300BF02B0704700BF00ED00E0D6
:1028B00000E100E000B583B003460A468DF807301A
:1028C00013468DF806309DF80630072B04D90D49C4
:1028D0004FF49270FFF7FDFD9DF806209DF907303B
:1028E00011461846FFF7BEFF9DF907301846FFF75F
:1028F000A1FF9DF907301846FFF786FF00BF03B020
:102900005DF804FBF051010082B001900091019B41
:10291000009AC3F8042300BF02B0704782B0019050
:102920000091019B009AC3F8082300BF02B07047D2
:1029300082B001900091019BD3F80423009B1340C7
:10294000184602B0704782B001900B46ADF80230D5
:10295000BDF80230019A13441B68184602B0704754
:1029600084B001900B46ADF80230BDF80230019AF8
:10297000134400221A60BDF80230019A13441B6808
:102980000393039B00BF04B07047000000B583B001
:1029900001900091009BB3F5805F04D3064940F29B
:1029A0003110FFF796FD019B009AC3F8082500BF80
:1029B00003B05DF804FB00BF3C52010082B00190FF
:1029C0000B468DF803309DF80320019B13441A46F3
:1029D0000123136000BF02B0704782B001900091E4
:1029E000019B009AC3F8442300BF02B0704782B035
:1029F00001900091019B009AC3F8482300BF02B0E8
:102A00007047000000B587B0039002910192029BCD
:102A1000002B03D12E495520FFF75BFD019B002BB6
:102A200012D0039B5B7919462A4A019B42F8213058
:102A3000039B5B791946284A0B465B000B44134401
:102A40001B78002B08D003E007230593059B3BE090
:102A500008230593059B37E0039B93F90420029B11
:102A60009B7819461046FFF725FF039B1A68029BC7
:102A70001B8819461046FFF789FF039B5B791946AF
:102A8000029B1879144A0B465B000B441344013334
:102A900002461A70039B5B791946029BD8780E4A4E
:102AA0000B465B000B441344023302461A70039B2F
:102AB0005B791946084A0B465B000B44134401221C
:102AC0001A7000230593059B184607B05DF804FBB8
:102AD00074520100CC0B0020D00B002000B583B055
:102AE0000190019B5B7919460F4A0B465B000B4432
:102AF00013441B78012B03D00C498C20FFF7E9FC11
:102B0000019B1B6800211846FFF758FF019B5B796A
:102B10001946054A0B465B000B44134402221A7007
:102B200000BF03B05DF804FBD00B0020745201001D
:102B300000B585B001900B468DF803304FF48073DB
:102B4000ADF80E3001230293019B1B68BDF80E20E7
:102B500011461846FFF704FF019B1B6802991846AF
:102B6000FFF73BFF9DF80330002B05D0019B1B684E
:102B700002991846FFF7C8FE00BF05B05DF804FBD8
:102B800000B589B00390029101924FF4803306930F
:102B90004FF4A073ADF816300023079330E0069988
:102BA0000398FFF7C5FE0346002B1ED0BDF8163074
:102BB00019460398FFF7C7FE0346002B15D0069968
:102BC0000398FFF714FF06990398FFF7A7FEBDF8D7
:102BD000163019460398FFF7C3FE2D4A029B52F8A0
:102BE0002330079AD2B210469847069B5B000693A3
:102BF000BDF816300433ADF81630079B0133079348
:102C0000079A019B9A42CAD34FF48073ADF81630ED
:102C100001210398FFF78CFE0346002B14D0BDF86A
:102C2000163019460398FFF78EFE0346002B0BD093
:102C3000BDF8163019460398FFF792FE144A029B1E
:102C400052F82330042098474FF48273ADF81630C1
:102C500002210398FFF76CFE0346002B14D0BDF849
:102C6000163019460398FFF76EFE0346002B0BD073
:102C7000BDF8163019460398FFF772FE044A029B0E
:102C800052F823300520984700BF09B05DF804FBD7
:102C9000CC0B002008B5032200210248FFF770FF8B
:102CA00000BF08BD00B0004082B003468DF8073079
:102CB0009DF8073003F1804303F5E04301221A60D9
:102CC00000BF02B0704782B003468DF807309DF810
:102CD000073003F1804303F5E043184602B0704724
:102CE00082B00346ADF80630BDF8063003F18043EC
:102CF00003F5E0431B68002B14BF01230023DBB264
:102D0000184602B0704784B00346ADF80630BDF8EF
:102D1000063003F1804303F5E04300221A60BDF85A
:102D2000063003F1804303F5E0431B680393039BE4
:102D300000BF04B07047000082B003468DF8073032
:102D40000B468DF8063013468DF805300A499DF87C
:102D500007309DF8052051331B010B4404331A60E2
:102D600005499DF807309DF8062051331B010B449F
:102D70001A6000BF02B070470070004082B001903E
:102D8000034A019BC2F8043300BF02B0704700BF82
:102D90000070004082B00190034A019BC2F80833E2
:102DA00000BF02B0704700BF00700040024B01221C
:102DB000C3F8002500BF704700700040024B00229E
:102DC000C3F8002500BF70470070004082B001903A
:102DD0000091054A019BC2F82C36034A009BC2F8B9
:102DE000303600BF02B070470070004082B003462A
:102DF0008DF80730034A9DF80730C2F8F03500BF60
:102E000002B070470070004082B003468DF8073072
:102E1000034A9DF80730C2F8F43500BF02B070478E
:102E200000700040024BD3F8F435DBB2184670470F
:102E30000070004000B58DB04FF48270FFF750FF76
:102E40000346002B46D04FF48270FFF75CFF8C4B9B
:102E500093F82E3083F00103DBB2002B04D1884BB2
:102E600093F82F30002B35D000238DF81830844B89
:102E70005B680793824B1B899BB2ADF82030804B77
:102E8000DB68002B03D17E4B00221A7419E07C4BC7
:102E90001A8B7B4B5A837A4BDB68794A5360784BA9
:102EA0001A8B774B1A81764B0022DA60744B93F8B9
:102EB0002E3083F00103DBB2002B02D00020FFF79D
:102EC000F3FE6F4B1B6806AA104698476C4B002216
:102ED00083F82F206A4B93F82E30002B62D04FF4EA
:102EE0008070FFF7FDFE0346002B5BD04FF480702F
:102EF000FFF709FF624B5A8B614B93F82D309BB261
:102F00009A421CD95E4B5A8B5D4B93F82D309BB285
:102F1000D31A9AB25A4B5A83594B5A68584B1B8949
:102F20009BB21946564B5B8BCB1A5B001344544A39
:102F300092F82D2011461846FFF748FF2BE0504B22
:102F40005A8B4F4B93F82D309BB29A4214D14C4B75
:102F5000DB68002B10D04A4B012283F82F20484B0E
:102F600000225A83464BDB68454A92F82D201146D1
:102F70001846FFF72BFF0EE0414B5A8B404B93F85E
:102F80002D309BB29A4206D13D4B012283F82F206F
:102F90003B4B00225A834FF48270FFF7B4FE0420AB
:102FA000FFF782FE4FF48870FFF79AFE0346002B6E
:102FB0000ED04FF48870FFF7A6FE314B00221A7432
:102FC00002238DF80C302E4B1B6803AA104698473D
:102FD0004FF48A70FFF784FE0346002B07D04FF4AE
:102FE0008A70FFF790FE264B00221A7444E0244BAF
:102FF0005B690B933DE00B9BB3FA83F30A934FF0AD
:1030000000420A9B22FA03F3DB430B9A13400B9313
:103010000A9B9BB246339BB29B00ADF82630BDF8AD
:1030200026301846FFF75CFE0346002B21D0BDF882
:1030300026301846FFF767FE01238DF80030BDF8F3
:103040002630A3F58C73DB08DBB28DF80430BDF8B5
:103050002630A3F58C7303F00403002B0CBF01236F
:103060000023DBB28DF80530054B1B686A4610461D
:1030700098470B9B002BBED100BF0DB05DF804FB41
:10308000D40B002000B585B0019000912F4B93F830
:103090002C30002B03D008230393039B51E0009BAB
:1030A000002B03D107230393039B4AE0019B002BD2
:1030B00001D1274B0193254A009B1360019B1B788C
:1030C0001846FFF793FE019B5B781846FFF79CFEBE
:1030D000019BDA781D4B83F82E201C4B012283F8CC
:1030E0002C201A4B00221A74184B002283F82D2032
:1030F000164B00225A61154B002283F82F206FF0E7
:103100000040FFF747FE4FF48270FFF7FCFD4FF4DD
:103110008070FFF7F8FD019B9B7819460720FFF7A9
:10312000C9FB0220FFF72AFE084B93F82E30002B34
:1031300002D00120FFF722FEFFF738FE00230393A1
:10314000039B184605B05DF804FB00BFD40B0020BC
:103150003C53010000B585B0034600918DF807305F
:10316000474B93F82C30002B04D146494FF49C7008
:10317000FFF7AFF99DF80730072B04D9414940F21A
:103180003910FFF7A6F9FFF74DFE0346002B09D0D3
:103190003B4B93F82D30002B04D03A4940F23B10C2
:1031A000FFF797F9009BDB79092B03D8009BDB79AC
:1031B000002B04D1334940F23D10FFF78AF9009B00
:1031C0001B7A092B04D92F4940F23F10FFF781F9F0
:1031D0002B4B1B7CDBB2002B03D011230393039BEF
:1031E0004AE0009B1B79002B03D0009B1B79012B2D
:1031F00001D1FFF7E3FD9DF80730214A0C335B0056
:1032000013441B79002B07D11D4B93F82D3001334C
:10321000DAB21B4B83F82D209DF80730009AD17944
:10322000174A0C335B0013440A461A719DF80730A5
:10323000009A117A124A0C335B0013440A465A7101
:103240009DF807300099184600F056FE009BD9798A
:10325000009B1A7A9DF807301846FFF76DFD009B1A
:103260001B79002B03D0009B1B79012B01D1FFF7A9
:103270009DFD00230393039B184605B05DF804FBF6
:10328000D40B0020F452010008B5074B93F82E3000
:10329000002B01D0002300E004231846FFF713FDA4
:1032A0000346184608BD00BFD40B002000B585B00A
:1032B00001900B46ADF802304C4B93F82C30002BAC
:1032C00004D14B4940F2D110FFF703F9BDF80230A9
:1032D000464A92F82D2093FBF2F101FB02F29B1A71
:1032E000002B04D042494FF4E970FFF7F2F81220A6
:1032F000FFF750FD3D4B1B7CDBB2022B06D11220A9
:10330000FFF73CFD11230393039B6BE0374B1B7CC2
:10331000DBB2012B35D1354BDB68002B06D0022008
:10332000FFF72CFD11230393039B5BE02F4A019BC6
:10333000D3602E4ABDF8023013832C4B93F82E3005
:1033400083F00103DBB2002B14D000BF4FF4807078
:10335000FFF7C6FC034683F00103DBB2002BF5D177
:103360004FF48070FFF7CFFCBDF80230194601988A
:10337000FFF72CFD0220FFF701FD00230393039BC1
:1033800030E00220FFF7FAFC184B01221A74174AAA
:10339000019B5360154ABDF802301381134B002284
:1033A000DA60124B93F82E30002B0BD00F4ABDF889
:1033B000023053830D4B93F82D3019460198FFF7D7
:1033C00005FD0CE0BDF8023019460198FFF7FEFC40
:1033D0004FF48070FFF797FC0020FFF765FC002397
:1033E0000393039B184605B05DF804FBD40B002043
:1033F000F452010084B001900B46ADF80230BDF8E4
:103400000230019A134400221A60BDF80230019A7A
:1034100013441B680393039B00BF04B0704782B042
:1034200001900B46ADF80230BDF80230019A13440A
:103430001B68002B14BF01230023DBB2184602B027
:10344000704782B001900091019BD3F80423009B48
:103450001340002B14BF01230023DBB2184602B037
:10346000704782B001900091019B009AC3F8082335
:1034700000BF02B0704784B00190019BD3F8803444
:103480000393019B039AC3F88024039B184604B05E
:10349000704782B00190019BD3F81835DBB2184613
:1034A00002B0704782B001900B468DF803309DF852
:1034B0000320019BC3F81C2500BF02B0704782B0F7
:1034C00001900B468DF803309DF80330019A1344A8
:1034D00001221A6000BF02B0704784B001900B4611
:1034E000ADF80230BDF80230019A134400221A6090
:1034F000BDF80230019A13441B680393039B00BF7D
:1035000004B0704782B001900B46ADF80230BDF8B0
:103510000230019A13441B68002B14BF01230023BF
:10352000DBB2184602B0704782B001900091019B57
:10353000D3F80022009BDB431A40019BC3F8002212
:1035400000BF02B0704784B00190019BD3F8803473
:103550000393019B039AC3F88024039B184604B08D
:10356000704782B00190019BD3F84C35184602B0E9
:10357000704782B00190019BD3F83C35184602B0E9
:10358000704700B585B0019000914FF48E7101989D
:10359000FFF730FF009B9B68009A928A92B2134417
:1035A0001B788DF80F30009B9B8A9BB201339AB237
:1035B000009B9A829DF80F3019460198FFF772FF21
:1035C00000BF05B05DF804FB10B582B0019000911A
:1035D000009BDB7D002B08D14FF484710198FFF72D
:1035E00009FF0198FFF755FF16E04FF48471019829
:1035F000FFF700FF009BDB68009A527ED2B29C1856
:103600000198FFF746FF03462370009B5B7EDBB209
:103610000133DAB2009B5A7602B010BD00B589B012
:1036200003900B4601928DF80B3001238DF810307A
:103630009DF80B308DF81830019B0593039B5B6858
:10364000039A116804AA1046984700BF09B05DF8B4
:1036500004FB00B587B001900B468DF803300023C2
:103660008DF808309DF803308DF81030019B9B6871
:103670000393019B00229A75019B5B68019A116874
:1036800002AA1046984700BF07B05DF804FB00B5DA
:1036900089B0019000914FF400710198FFF7D1FEBD
:1036A0000346002B39D04FF492710198FFF7B7FE13
:1036B0000346002B31D04FF492710198FFF79AFE28
:1036C0004FF401710198FFF7CCFE009B9B7E83F0C5
:1036D0000103DBB2002B03D004210198FFF7EFFEBA
:1036E00002238DF808300198FFF7C5FE03460593C5
:1036F000009BDB7D8DF81030009BDB680393009B03
:103700000022DA75009B00221A76009B5B68009A03
:10371000116802AA1046984756E004210198FFF765
:1037200090FE0346002B4FD04FF484710198FFF7B1
:1037300076FE0346002B47D000990198FFF744FF1F
:10374000009BDA7D009B5B7EDBB29A423CD1009B02
:103750001B7E002B1CD0009BDB680793009B5B7ECD
:103760008DF81B30009B1A7E009BDA75009B1A694E
:10377000009BDA60009B00221A76009B00225A769A
:103780009DF81B30079A19460098FFF747FF1BE08A
:10379000009B9B7E83F00103DBB2002B03D004214E
:1037A0000198FFF78CFE4FF401710198FFF759FE65
:1037B000009B0022DA75009B5B7ED9B2009BDB6820
:1037C0001A460098FFF72AFF4FF48E710198FFF711
:1037D00026FE0346002B1BD0009B9B8A9AB2009BBF
:1037E0009B7D9BB29A4204D200990198FFF7C9FED3
:1037F0000EE04FF48E710198FFF7FCFD009B9B7D5E
:10380000002B05D0009B9B7D19460098FFF721FFF8
:103810004FF4A2710198FFF702FE0346002B1CD063
:103820004FF4A2710198FFF7E5FD009B9B7E002BF2
:1038300003D000210198FFF742FE009BDB7D002BA7
:103840000BD0009B0022DA75009B5B7ED9B2009BF7
:10385000DB681A460098FFF7E1FE00BF09B05DF88B
:1038600004FB00B589B0019000914FF4927101986A
:10387000FFF748FE0346002B24D04FF492710198C5
:10388000FFF72BFE02238DF808300198FFF75BFE4F
:10389000034605930198FFF76CFE0346DBB28DF8F3
:1038A0001030009BDB680393009B0022DA75009BBD
:1038B00000221A76009B5B68009A116802AA1046E3
:1038C000984741E04FF488710198FFF71BFE0346CB
:1038D000002B39D04FF488710198FFF7FEFD019855
:1038E000FFF747FE03468DF81F30009BDB7D9DF8F8
:1038F0001F209A4228D1009B1B7E002B19D0009BD1
:10390000DB68069320210198FFF70EFE009B1A7ECC
:10391000009BDA75009B1A69009BDA60009B00220D
:103920001A769DF81F30069A19460098FFF776FE22
:103930000AE0009B0022DA75009BDA689DF81F30D0
:1039400019460098FFF76AFE4FF4A2710198FFF73D
:10395000D9FD0346002B16D04FF4A2710198FFF752
:10396000BCFD009BDB7D002B0DD0009B0022DA7597
:103970000198FFF7FEFD0346D9B2009BDB681A46AB
:103980000098FFF74BFE4FF490710198FFF7BAFDD6
:103990000346002B11D04FF490710198FFF79DFD65
:1039A000009B9B7D002B08D00198FFF7DAFD0346B2
:1039B000DBB219460098FFF74CFE00BF09B05DF876
:1039C00004FB000008B5074B1B7F002B04D0054902
:1039D0000548FFF746FF03E002490348FFF757FE9B
:1039E00000BF08BD040C002000200040C2DF70476B
:1039F00000BF1846CDDF704700BF1846D1DF7047C3
:103A000000BF1846D3DF704700BF184600B585B029
:103A10000190019B1878019B5978019B9A7A019B30
:103A20009B78FFF7E3FF0390039B002B01D0039BE0
:103A300031E0019B1878019BD988019B5A79019B41
:103A40001B79FFF7DFFF0390039B002B01D0039B43
:103A500021E0019B1A78019BDB7819461046FFF79D
:103A6000C9FF0390039B002B01D0039B13E0019B34
:103A70009B7803F00103002B0CD1019B1B89002BC9
:103A800008D0019B1A78019B1B8919461046FFF745
:103A9000B5FF0390039B184605B05DF804FB0000DA
:103AA00082B003468DF807309DF8073003F01F02FF
:103AB00005499DF907305B09012000FA02F241F83F
:103AC000232000BF02B0704700E100E082B003464F
:103AD00000918DF807309DF90730002B0CDA009B20
:103AE000DAB20C499DF8073003F00F03043B520192
:103AF000D2B20B441A7609E0009BDAB206499DF96E
:103B000007305201D2B20B4483F8002300BF02B049
:103B1000704700BF00ED00E000E100E000B583B0B9
:103B20000190019B002B03D10449C420FEF7D1FC76
:103B3000019B5B68184603B05DF804FB405301002D
:103B400010DF704700BF184600B587B003468DF8F8
:103B5000073002AB1449184600F050F917E002ABE9
:103B60001846FFF7DBFF0590059B1B680493059B38
:103B700059689DF80720049B104698470346002B80
:103B800001D111230BE002AB184600F061F902AB42
:103B90001846FFF7C3FF0346002BE0D10023184669
:103BA00007B05DF804FB00BFC053010000B587B04B
:103BB00003468DF8073002AB1149184600F01EF994
:103BC00012E002AB1846FFF7A9FF0590059B1B68A2
:103BD0000493059B59689DF80720049B104698475D
:103BE00002AB184600F034F902AB1846FFF796FF17
:103BF0000346002BE5D100BF00BF07B05DF804FB12
:103C0000CC53010008B51620FFF74AFF00BF08BDDE
:103C100008B507211620FFF759FF07211520FFF7E8
:103C200055FF00BF08BD000000B583B01B4B1B78DB
:103C3000002B01D008232DE0194B01221A7000201F
:103C4000FFF782FF0346112B01D1002322E0002061
:103C5000FFF7ACFF134B1B6800936B46124A1349E6
:103C60001846FFF76DFF0190019B002B01D0019BCF
:103C700010E00A4B01221A70094B00221A700C4BFB
:103C800000221A70FFF7C4FFFFF7BCFF0120FFF707
:103C90008DFF0023184603B05DF804FB240C0020C0
:103CA000260C0020BC53010094530100BD230100E9
:103CB000250C0020014B1B7818467047240C00206F
:103CC00000B585B06B461149184600F097F810E032
:103CD0006B461846FFF722FF0390039B1B68029375
:103CE000039B5A68029B104698476B46184600F0A3
:103CF000AFF86B461846FFF711FF0346002BE7D1DC
:103D000000BF00BF05B05DF804FB00BFD853010041
:103D100008B5FFF7D5FF00BF08BD000000B583B0B0
:103D20000190019B002B03D10449C420FEF7D1FB75
:103D3000019B5B68184603B05DF804FBE453010087
:103D4000C1DF704700BF1846FADF704700BF184652
:103D500000B585B0074A6B4607CA83E807006B4683
:103D60001846FFF7F1FF0390039B184605B05DF876
:103D700004FB00BF3854010000B595B0019003AAC0
:103D800003AB03F12D0103AB2C331846FFF7D8FF2B
:103D90001390139B002B03D0139B052B20D124E001
:103DA0000FAB1449184600F029F811E00FAB184684
:103DB000FFF7B4FF1290129B1B681193129B596876
:103DC00003AA119B104698470FAB184600F040F825
:103DD0000FAB1846FFF7A2FF0346002BE6D1CEE754
:103DE000054A81211398FEF783FA00BF15B05DF8EC
:103DF00004FB00BF8C5401004454010000B583B0A3
:103E000001900091019B002B03D110495020FEF737
:103E100060FB009B002B03D10C495120FEF759FB9E
:103E2000019B009A1A60019B1B681A68019B5A60EB
:103E3000019B5A68019B1B685B689A4202D1019BF7
:103E400000225A6000BF03B05DF804FB98540100E3
:103E500000B583B00190019B002B03D1144963206E
:103E6000FEF737FB019B1B68002B03D11049642030
:103E7000FEF72FFB019B5B68002B14D0019B5B6856
:103E80001A46019B1B689B6813441A46019B5A60A3
:103E9000019B5A68019B1B685B689A4204D1019B95
:103EA00000225A6000E000BF03B05DF804FB00BFD1
:103EB0009854010082B003468DF807300B468DF808
:103EC000063013468DF805300A499DF807309DF8F5
:103ED000052051331B010B4404331A6005499DF83A
:103EE00007309DF8062051331B010B441A6000BFB8
:103EF00002B070470070004000B583B003460091E7
:103F00008DF80730009B1B7803F00302009B5B7861
:103F10001B0103F030031A43009B9B781B0203F440
:103F2000E0631A43009BDB781B0303F480531A43BE
:103F3000009B1B791B0403F4E0231A43009B5B796D
:103F40001B0503F4801342EA0301009B9B791B06C7
:103F500003F080720A489DF807300A431B010344AE
:103F600003F5A3631A60009BD979009B1A7A9DF828
:103F700007301846FFF79EFF00BF03B05DF804FB53
:103F80000070004082B001900B46ADF80230BDF8E1
:103F90000220019B1344184602B0704700B583B05D
:103FA00001900B46ADF80230019B1B68BDF8022062
:103FB00011461846FFF7E6FF0346184603B05DF8C2
:103FC00004FB000000B589B00023079300F0B2FFA6
:103FD0000790079B0693069B002B04D0204A1121D3
:103FE0000698FEF785F91F4800F0B8FF0790079B79
:103FF0000593059B002B04D0194A16210598FEF75E
:1040000077F94FF480711848FFF7C8FF0490FFF765
:104010003BF90390134B1B78039A0499184600F060
:10402000F1FF0790079B0293029B002B04D00C4AE0
:1040300020210298FEF75CF90A4B1B78184601F024
:104040001CF80790079B0193019B002B04D0044AA6
:1040500024210198FEF74CF900BF09B05DF804FB7C
:10406000F8540100A80C0020800B002084B0034607
:10407000ADF80630BDF8063003F1804303F5E043A8
:1040800000221A60BDF8063003F1804303F5E043D7
:104090001B680393039B00BF04B0704782B001907C
:1040A000034A019BC2F8043300BF02B0704700BF4F
:1040B0000070004000B583B00190019B1B681F2B6E
:1040C00004D905494FF4E870FEF703FA4FF0A04316
:1040D000184603B05DF804FB4855010000B585B0F3
:1040E000019001AB1846FFF7E5FF0390039BD3F85F
:1040F00004350293029BDA43019B012101FA03F389
:104100001A40039BC3F80825019B01229A40029B99
:104110001A40039BC3F80C2500BF05B05DF804FBF3
:1041200000B587B00190019B1B78002B3BD1204B41
:104130001B88962B05D10720FFF7D0FF1C4B0022D0
:104140001A801B4B1B8801339AB2194B1A80019BB2
:104150005B6803211846FFF7A9F80490049B0393BA
:10416000039B002B04D0134A15210398FEF7C0F8D7
:10417000002305930EE0019B5A68059B5B001344E6
:10418000B3F9003099B20C4A059B22F81310059B35
:1041900001330593059B022BEDDD074800F02CF958
:1041A0000020FFF763FF00BF07B05DF804FB00BF0E
:1041B000B80C002080550100BC0C002000B589B06F
:1041C000244A6B4607CA03C31A7023490020FEF72E
:1041D00059FF0790079B0693069B002B04D01F4AAC
:1041E00033210698FEF784F86B4619460120FEF746
:1041F000B1FF0790079B0593059B002B04D0174A3E
:1042000036210598FEF774F803211548FFF74EF89C
:104210000790079B0493049B002B04D00F4A3B217B
:104220000498FEF765F803210E48FFF73FF8079062
:10423000079B0393039B002B04D0084A3F2103985C
:10424000FEF756F80420FFF729FF00BF09B05DF81C
:1042500004FB00BFD0550100214101008055010041
:10426000AC0C0020B20C002082B001900B468DF8FF
:1042700003309DF80320019B13441A460123136069
:1042800000BF02B0704782B003468DF8073000BF10
:1042900002B0704700B583B0FEF7C2F90190019BF0
:1042A0000093009B002B04D0054A14210098FEF7D0
:1042B0001FF80020FEF706FA00BF03B05DF804FB0C
:1042C000DC55010000B585B000230393134B1B6838
:1042D00004211846FFF7C8FF07238DF8023000239A
:1042E0008DF803304923ADF8003000238DF80430F9
:1042F0006B460B4A19460948FEF784FB0390039B63
:104300000293029B002B04D0064A24210298FDF759
:10431000EFFF00BF05B05DF804FB00BF880B002075
:1043200087420100DC55010008B500210348FEF773
:10433000FFFB0248FEF7D2FB00BF08BD880B002040
:10434000C4DF704700BF1846C7DF704700BF18467C
:10435000CADF704700BF184600B583B00190019BCB
:104360001B681F2B04D905494FF4E870FEF7B1F81C
:104370004FF0A043184603B05DF804FB2C56010033
:1043800000B585B0019001AB1846FFF7E5FF03903B
:10439000019B012202FA03F31946039800F018F872
:1043A00000BF05B05DF804FB00B585B0019001AB1E
:1043B0001846FFF7D1FF0390019B012202FA03F395
:1043C0001946039800F00EF800BF05B05DF804FB35
:1043D00082B001900091019B009AC3F8082500BFAC
:1043E00002B0704782B001900091019B009AC3F81F
:1043F0000C2500BF02B0704700B587B0019002AB3A
:1044000008220021184600F06DFE05238DF80830C3
:104410002A4B1B788DF80930019B1B881B0A9BB225
:10442000DBB28DF80A30019B1B88002B14BF0123DF
:104430000023DBB2DBB28DF80B30019B02331B880B
:104440001B0A9BB2DBB28DF80C30019B02331B8838
:10445000002B14BF01230023DBB2DBB28DF80D303B
:10446000019B04331B881B0A9BB2DBB28DF80E3014
:10447000019B04331B88002B14BF01230023DBB2F4
:10448000DBB28DF80F3002AB1A4608210120FFF78E
:104490005BFF0590059B0493049B002B04D0084A06
:1044A00014210498FDF724FF044B1B780133DAB282
:1044B000024B1A7000BF07B05DF804FBC20C00206D
:1044C0006456010000B587B0134A6B4607CA83E8FB
:1044D00007006B461846FFF799FA0590059B049371
:1044E000049B002B04D00D4A2C210498FDF700FFFB
:1044F00000210120FFF724FF0590059B0393039BF8
:10450000002B04D0054A30210398FDF7F1FE00BFCF
:1045100007B05DF804FB00BFB4560100645601000B
:1045200000B585B001900091019B93F82C30012BD0
:104530003CD1019B93F82D30012B27D0802B37D114
:10454000019B5B784E2B35D1019BDB78002B0AD188
:10455000019B9B7A802B06D10720FFF711FF0021DA
:104560000120FFF7F5FE019BDB78002B0AD1019BB0
:104570009B7A002B06D100210120FFF7E9FE0720DE
:10458000FFF712FF019BDB78002B13E000210120D5
:10459000FFF7D6FE0390039B0293029B002B0BD0E8
:1045A000084A59210298FDF7A3FE05E000BF04E088
:1045B00000BF02E000BF00E000BF00BF05B05DF833
:1045C00004FB00BF6456010000B583B00190019B5D
:1045D0001B681F2B04D905494FF4E870FDF779FFDC
:1045E0004FF0A043184603B05DF804FBC05601002D
:1045F00000B585B00190084611461A4603468DF86D
:1046000003300B468DF8023013468DF8013001ABB4
:104610001846FFF7D9FF03909DF803209DF802305C
:104620005B001A439DF801309B001A439DF8183037
:104630001B0242EA03019DF81C301B04019A194336
:10464000039B02F5E07243F8221000BF05B05DF84D
:1046500004FB00B585B00390002301930023009371
:104660000023012201210398FFF7C2FF00BF05B01C
:104670005DF804FB00B585B0019001AB1846FFF76B
:10468000A3FF0390019B012202FA03F3194603984A
:1046900000F004F800BF05B05DF804FB82B00190A3
:1046A0000091019B009AC3F8082500BF02B0704733
:1046B00084B00190244B0393019B002B40D0234BEB
:1046C0001A680399019B00BF00BF00BF00BF00BF75
:1046D00000BF00BF00BF8A422FD000BF00BF00BF95
:1046E00000BF00BF00BF00BF00BF00BF00BF00BFD2
:1046F00000BF00BF00BF00BF00BF00BF00BF00BFC2
:1047000000BF00BF00BF00BF00BF00BF00BF00BFB1
:1047100000BF00BF00BF00BF00BF00BF00BF00BFA1
:1047200000BF00BF00BF00BF00BF00BF00BF00BF91
:1047300000BF00BF00BF00BF00BF013BC3D101935A
:1047400000BF04B0704700BF0024F400900B0020AD
:1047500000B583B00190019B4FF47A7202FB03F322
:104760001846FFF7A5FF00BF03B05DF804FB00008B
:1047700000B583B000230193019B0093009B002BA5
:1047800004D0044A26210098FDF7B2FD00BF03B013
:104790005DF804FBF856010000B585B0FFF744FA58
:1047A0000390039B0293029B002B04D00F4A3A21F3
:1047B0000298FDF79DFDFFF77DFA0346002B03D11C
:1047C0000A493C20FDF785FEFFF7C2FA0390039BE0
:1047D0000193019B002B04D0044A3F210198FDF76F
:1047E00087FD00BF05B05DF804FB00BFF85601006F
:1047F00008B5FFF7BDFF0720FFF72BFF0720FFF7E6
:1048000039FFFFF7DFFBFFF7C7FF0520FFF7A0FF2A
:10481000FFF758FEFFF756FDFFF73CFDFFF784FD5D
:10482000FFF7CCFC20BF00BF40BF00BF20BF00BFD0
:10483000F8E70000BFF34F8F00BF074BDB6803F4BE
:10484000E0620549054B1343CB60BFF34F8F00BFB8
:1048500000BF00BFFCE700BF00ED00E00400FA0568
:10486000024B034A1A6000BF704700BF900B002044
:104870000090D00308B500F05DF90346002B06D088
:104880009B4B1B681B0A9B4A03F01F03136000F03D
:104890007DF90346002B02D0974B984A1A6000F02E
:1048A00091F90346002B06D0954B1B685B0B954A8C
:1048B00003F00703136000F0B1F90346002B05D0A5
:1048C000914BDB68904A23F08073D36000F0C2F90B
:1048D0000346002B0ED04FF080430022C3F80C217A
:1048E0004FF080430022C3F810214FF08043002294
:1048F000C3F8382500F0DAF90346002B02D0834BC9
:1049000003221A6000F0EEF90346002B0BD0804B17
:1049100005221A607F4B01221A607F4B00221A6029
:104920007E4B3F221A6000F0F9F90346002B76D047
:104930004FF080537A4AD3F80434C2F820354FF050
:104940008053774AD3F80834C2F824354FF08053A7
:10495000734AD3F80C34C2F828354FF08053704AAC
:10496000D3F81034C2F82C354FF080536C4AD3F88A
:104970001434C2F830354FF08053694AD3F81834F4
:10498000C2F834354FF08053654AD3F81C34C2F86E
:1049900040354FF08053624AD3F82034C2F8443592
:1049A0004FF080535E4AD3F82434C2F848354FF0B4
:1049B00080535B4AD3F82834C2F84C354FF080530B
:1049C000574AD3F82C34C2F850354FF08053544A2C
:1049D000D3F83034C2F854354FF08053504AD3F8EE
:1049E0003434C2F860354FF080534D4AD3F8383430
:1049F000C2F864354FF08053494AD3F83C34C2F8CA
:104A000068354FF08053464AD3F84034C2F86C35CD
:104A10004FF08053424AD3F84434C2F8703500F066
:104A200099F90346002B05D03E4B1B683E4A03F024
:104A30004F03136000F0BAF90346002B0DD04FF07E
:104A40008043D3F8003403F00103002B05D04FF06E
:104A500080436FF00102C3F80024344BD3F8883050
:104A6000324A43F47003C2F88830BFF34F8F00BF5F
:104A7000BFF36F8F00BF4FF01023D3F80032002B2D
:104A800005DB4FF01023D3F80432002B2BDA284B30
:104A90000122C3F8042500BF254BD3F80034002BB6
:104AA000FAD04FF010231522C3F8002200BF204B8C
:104AB000D3F80034002BFAD04FF010231522C3F89E
:104AC000042200BF1A4BD3F80034002BFAD0184B45
:104AD0000022C3F8042500BF154BD3F80034002B87
:104AE000FAD0FFF7A7FEFFF7BBFE00BF08BD00BF6F
:104AF000240300104035014074C007400DF0ADBAEA
:104B0000440200103C050040F0ED00E0A00500402C
:104B10001056004088560040185600401456004079
:104B200000C0004058020010E40E004000ED00E01C
:104B300000E00140124B1B68DBB2062B1DD1114B6C
:104B40001B6803F00F03002B17D10F4B1B6803F0FA
:104B5000F003302B01D1012310E00B4B1B6803F055
:104B6000F003402B01D1012308E0074B1B6803F041
:104B7000F003502B01D1012300E0002318467047B9
:104B8000E00F00F0E40F00F0E80F00F00A4B1B68A4
:104B9000DBB2062B0DD1094B1B6803F00F03002B72
:104BA00007D1074B1B6803F0F003302B01D1012321
:104BB00000E0002318467047E00F00F0E40F00F01B
:104BC000E80F00F0124B1B68DBB2062B1DD1114B16
:104BD0001B6803F00F03002B17D10F4B1B6803F06A
:104BE000F003302B01D1012310E00B4B1B6803F0C5
:104BF000F003402B01D1012308E0074B1B6803F0B1
:104C0000F003502B01D1012300E000231846704728
:104C1000E00F00F0E40F00F0E80F00F00A4B1B6813
:104C2000DBB2062B0DD1094B1B6803F00F03002BE1
:104C300007D1074B1B6803F0F003302B01D1012390
:104C400000E0002318467047E00F00F0E40F00F08A
:104C5000E80F00F0124B1B68DBB2062B1DD1114B85
:104C60001B6803F00F03002B17D10F4B1B6803F0D9
:104C7000F003302B01D1012310E00B4B1B6803F034
:104C8000F003402B01D1012308E0074B1B6803F020
:104C9000F003502B01D1012300E000231846704798
:104CA000E00F00F0E40F00F0E80F00F00A4B1B6883
:104CB000DBB2062B0DD1094B1B6803F00F03002B51
:104CC00007D1074B1B6803F0F003302B01D1012300
:104CD00000E0002318467047E00F00F0E40F00F0FA
:104CE000E80F00F00A4B1B68DBB2062B0DD1094B15
:104CF0001B6803F00F03002B07D1074B1B6803F061
:104D0000F003302B01D1012300E000231846704747
:104D1000E00F00F0E40F00F0E80F00F00A4B1B6812
:104D2000DBB2062B0DD1094B1B6803F00F03002BE0
:104D300007D1074B1B6803F0F003502B01D101236F
:104D400000E0002318467047E00F00F0E40F00F089
:104D5000E80F00F0124B1B68DBB2062B1DD1114B84
:104D60001B6803F00F03002B17D10F4B1B6803F0D8
:104D7000F003302B01D1012310E00B4B1B6803F033
:104D8000F003402B01D1012308E0074B1B6803F01F
:104D9000F003502B01D1012300E000231846704797
:104DA000E00F00F0E40F00F0E80F00F0124B1B687A
:104DB000DBB2062B1DD1114B1B6803F00F03002B38
:104DC00017D10F4B1B6803F0F003302B01D10123E7
:104DD00010E00B4B1B6803F0F003402B01D10123C3
:104DE00008E0074B1B6803F0F003502B01D10123AF
:104DF00000E0002318467047E00F00F0E40F00F0D9
:104E0000E80F00F082B003468DF807309DF80730B8
:104E1000044A012101FA03F3C2F8043500BF02B0CD
:104E2000704700BF00F0014084B003460291019238
:104E30008DF80F3008499DF80F30A233029A41F8DF
:104E40003320054A9DF80F30A233DB001344019A4A
:104E50005A6000BF04B0704700F0014082B00346C2
:104E60008DF807309DF80730012202FA03F3184647
:104E700002B0704700B583B003468DF807309DF847
:104E800007301846FFF7EAFF0346C3F31303002B6E
:104E900014BF01230023DBB2184603B05DF804FB06
:104EA00082B001900123184602B0704700B583B06C
:104EB00003468DF807309DF807301846FFF7CEFF00
:104EC00003461846FFF7ECFF0346184603B05DF8AB
:104ED00004FB000000B583B003468DF807309DF851
:104EE00007301846FFF7BAFF0246064B1B6813400F
:104EF000002B14BF01230023DBB2184603B05DF87A
:104F000004FB00BFC40C002000B583B003468DF83D
:104F100007309DF807301846FFF7A0FF0246044B04
:104F20001B681343024A136000BF03B05DF804FB23
:104F3000C40C002082B0084B1B78002B05D1064B17
:104F400001221A700023019301E085230193019B44
:104F5000184602B0704700BFC30C002000B587B0F0
:104F60000190002305930023039304230593244B0E
:104F7000039300238DF8133037E00020FDF762FA29
:104F80009DF813301846FFF769FF0246039B134054
:104F9000002B15D09DF813301846FFF79BFF0346F2
:104FA00083F00103DBB2002B0AD09DF813301846C2
:104FB000FFF7AAFF019B9DF813201A7000230593A9
:104FC0000020FDF753FA059B002B12D09DF81330FB
:104FD0001846FFF743FF0346DB43039A134003934E
:104FE0009DF8133001338DF81330039B002BC4D18F
:104FF00000E000BF059B184607B05DF804FB00BF4A
:10500000FFFF0F0000B587B00346029101928DF8B3
:105010000F30029B002B01D10E232AE0019B002BB5
:1050200001D10E2325E0002305939DF80F3018468B
:10503000FFF720FF034683F00103DBB2002B02D011
:105040000723059314E09DF80F301846FFF742FF41
:10505000034683F00103DBB2002B02D00823059343
:1050600006E09DF80F30019A02991846FFF7DCFE22
:10507000059B184607B05DF804FB00B585B00346F4
:105080008DF80730002303939DF807301846FFF78B
:105090000DFF034683F00103DBB2002B02D0072390
:1050A00003931AE09DF807301846FFF7E3FE034626
:1050B000002B0DD09DF807301846FFF70BFF034675
:1050C00083F00103DBB2002B02D00823039304E03A
:1050D0009DF807301846FFF795FE039B184605B06C
:1050E0005DF804FB8446002A2DD010F0030F04D095
:1050F00000F8011B013A26D0F7E7C9B241EA0121C5
:1051000041EA0141202A12D3A2F120022DE9F00345
:105110000B460C460D460E460F4688468946A0E8CB
:10512000FA03203AFBD2BDE8F00320320BD0042A68
:1051300005D340F8041B043A05D0042AF9D200F83C
:0A514000011B013AFBD160467047E5
:08514C002145010000000000F4
:08515400793D0100000000009C
:10515C00433A5C55736572735C74686572755C4434
:10516C0065736B746F705C6E52465C636F6D706FC1
:10517C006E656E74735C6C69627261726965735C86
:10518C007574696C5C6170705F7574696C5F706C60
:10519C006174666F726D2E6300000000433A5C55BB
:1051AC00736572735C74686572755C4465736B745B
:1051BC006F705C6E52465C636F6D706F6E656E7473
:1051CC00735C647269766572735F6E72665C636C35
:1051DC006F636B5C6E72665F6472765F636C6F6339
:1051EC006B2E6300433A5C55736572735C7468652F
:1051FC0072755C4465736B746F705C6E52465C6365
:10520C006F6D706F6E656E74735C647269766572C7
:10521C00735F6E72665C636F6D6D6F6E5C6E7266E3
:10522C005F6472765F636F6D6D6F6E2E630000004E
:10523C002E2E2F2E2E2F2E2E2F2E2E2F2E2E2F2E7D
:10524C002E2F636F6D706F6E656E74732F64726941
:10525C00766572735F6E72662F68616C2F6E726604
:10526C005F7274632E680000433A5C557365727309
:10527C005C74686572755C4465736B746F705C6E9E
:10528C0052465C636F6D706F6E656E74735C6472A6
:10529C0069766572735F6E72665C7274635C6E7253
:1052AC00665F6472765F7274632E63002E2E2F2EEF
:1052BC002E2F2E2E2F2E2E2F2E2E2F2E2E2F636F87
:1052CC006D706F6E656E74732F6472697665727330
:1052DC005F6E72662F68616C2F6E72665F736161B0
:1052EC0064632E6800000000433A5C55736572736A
:1052FC005C74686572755C4465736B746F705C6E1E
:10530C0052465C636F6D706F6E656E74735C647225
:10531C0069766572735F6E72665C73616164635CFF
:10532C006E72665F6472765F73616164632E630094
:10533C00030007002E2E2F2E2E2F2E2E2F2E2E2F2B
:10534C002E2E2F2E2E2F636F6D706F6E656E7473F5
:10535C002F6C69627261726965732F657870657202
:10536C00696D656E74616C5F73656374696F6E5F94
:10537C00766172732F6E72665F73656374696F6E9C
:10538C005F697465722E6800333833312D353231D4
:10539C00642D376466392D323464382D6566663376
:1053AC002D343637622D323235662D613030650042
:1053BC000100000654510100545101000800000086
:1053CC0054510100545101000800000054510100D7
:1053DC005C510100080000002E2E2F2E2E2F2E2E99
:1053EC002F2E2E2F2E2E2F2E2E2F636F6D706F6E55
:1053FC00656E74732F6C69627261726965732F6567
:10540C0078706572696D656E74616C5F73656374D9
:10541C00696F6E5F766172732F6E72665F73656310
:10542C0074696F6E5F697465722E680002002000EB
:10543C00280C002080000000433A5C5573657273A1
:10544C005C74686572755C4465736B746F705C6ECC
:10545C0052465C636F6D706F6E656E74735C736FC8
:10546C0066746465766963655C636F6D6D6F6E5CA5
:10547C006E72665F7364685F616E742E6300000009
:10548C004C5101005451010008000000433A5C5596
:10549C00736572735C74686572755C4465736B7468
:1054AC006F705C6E52465C636F6D706F6E656E7480
:1054BC00735C6C69627261726965735C6578706546
:1054CC0072696D656E74616C5F73656374696F6E20
:1054DC005F766172735C6E72665F73656374696F1D
:1054EC006E5F697465722E6300000000433A5C5570
:1054FC00736572735C74686572755C4465736B7408
:10550C006F705C6E52465C6578616D706C65735C37
:10551C00616E745C50726F676574746F2D31312ECF
:10552C0032315C70636131303034305C7332313223
:10553C005C7365735C7070692E6300002E2E2F2EC9
:10554C002E2F2E2E2F2E2E2F2E2E2F2E2E2F636FF4
:10555C006D706F6E656E74732F647269766572739D
:10556C005F6E72662F68616C2F6E72665F67706912
:10557C006F2E6800433A5C55736572735C74686592
:10558C0072755C4465736B746F705C6E52465C65CF
:10559C0078616D706C65735C616E745C50726F6772
:1055AC006574746F2D31312E32315C706361313022
:1055BC003034305C733231325C7365735C616463BC
:1055CC002E6300000000000002000001000000003B
:1055DC00433A5C55736572735C74686572755C44B0
:1055EC0065736B746F705C6E52465C6578616D7040
:1055FC006C65735C616E745C50726F676574746F0C
:10560C002D31312E32315C70636131303034305C8D
:10561C00733231325C7365735C7274632E63000099
:10562C002E2E2F2E2E2F2E2E2F2E2E2F2E2E2F2E89
:10563C002E2F636F6D706F6E656E74732F6472694D
:10564C00766572735F6E72662F68616C2F6E726610
:10565C005F6770696F2E6800433A5C5573657273AF
:10566C005C74686572755C4465736B746F705C6EAA
:10567C0052465C6578616D706C65735C616E745CD0
:10568C0050726F676574746F2D31312E32315C70CE
:10569C00636131303034305C733231325C7365733A
:1056AC005C616E742E630000011000420102050063
:1056BC00DB0000002E2E2F2E2E2F2E2E2F2E2E2FD7
:1056CC002E2E2F2E2E2F636F6D706F6E656E747372
:1056DC002F647269766572735F6E72662F68616C87
:1056EC002F6E72665F6770696F2E6800433A5C5567
:1056FC00736572735C74686572755C4465736B7406
:10570C006F705C6E52465C6578616D706C65735C35
:10571C00616E745C50726F676574746F2D31312ECD
:0A572C0032315C6D61696E2E63007E
:1057380000B000400B00030000B000400B00030065
:045748000090D003FA
:04000003100022398E
:00000001FF
