:10000000000001203902000091020000930200006C
:100010009502000097020000990200000000000015
:100020000000000000000000000000009B02000033
:100030009D020000000000009F020000A1020000DD
:1000400071130000A70200004D1E0000AB0200006B
:10005000AD020000AF020000B10200000D1600006A
:10006000B5020000B7020000B902000065150000EB
:10007000BD020000BF020000C1020000C302000078
:10008000C5020000C7020000C9020000CB02000048
:10009000CD020000CF020000D1020000D302000018
:1000A000D5020000D7020000D9020000DB020000E8
:1000B000DD020000DF020000A3020000A302000036
:1000C000E1020000E3020000E5020000E702000098
:0C00D000E9020000EB020000ED0200005D
:1000DC00354936480A1A02D0072291438D463449D5
:1000EC0034480A1A06D00722914381F30988022268
:1000FC0082F3148830483149314A00F044F83148D1
:10010C003149324A00F03FF831483249324A00F066
:10011C003AF832483249334A00F035F8324833491C
:10012C00334A00F030F833483349344A00F02BF8A6
:10013C0033483449344A00F026F834483449002214
:10014C0000F02CF833483449002200F027F83348EB
:10015C003349091A082902DB002202604160314A46
:10016C0090471F481F49884205D00268043003B4E9
:10017C00904703BCF7E700208646EC4600200021A0
:10018C00294A9047FEE7884207D0521A05D00378D7
:10019C0001300B700131013AF9D17047884202D01D
:1001AC0002700130FAE770470000012000F80020CF
:1001BC000000012000000120003100004800002058
:1001CC0050000020F0020000F00200008426000025
:1001DC00003100004800002048000020FC260000F0
:1001EC00FC260000FC260000FC260000FC2600007B
:1001FC00FC260000FC260000FC260000003100005C
:10020C000831000050000020500000205000002059
:10021C00CC050020CC050020CC050020CC0500200E
:10022C00CC0700205D020000F11F00000F484FF0CA
:10023C000701884385460E4880470E48016841F403
:10024C0070010160BFF34F8FBFF36F8FFFF740BF9B
:10025C0009480A490A4A884207D0521A05D003783D
:10026C0001300B700131013AF9D1704700000120C7
:10027C003D20000088ED00E0B426000000000020C6
:10028C0048000020FEE7FEE7FEE7FEE7FEE7FEE79C
:10029C00FEE7FEE7FEE7FEE7FEE7FEE7FEE7FEE72A
:1002AC00FEE7FEE7FEE7FEE7FEE7FEE7FEE7FEE71A
:1002BC00FEE7FEE7FEE7FEE7FEE7FEE7FEE7FEE70A
:1002CC00FEE7FEE7FEE7FEE7FEE7FEE7FEE7FEE7FA
:1002DC00FEE7FEE7FEE7FEE7FEE7FEE7FEE7FEE7EA
:0402EC00FEE700BF6A
:1002F00000B583B001900091019B1B681B680099B9
:100300000198984700BF03B05DF804FB00B583B0C7
:100310000190019B1B685B680198984700BF03B080
:100320005DF804FB82B00190019B01225A7200BF6C
:1003300002B0704782B00190019B5B7A184602B010
:10034000704710B487B001900091019B009A53E868
:10035000004F44EA020043E8000191F0000FF6D19B
:10036000059404900391049B184607B05DF8044B74
:10037000704710B487B001900091019B009A53E838
:10038000004F04EA020043E8000191F0000FF6D1AB
:10039000059404900391059B184607B05DF8044B43
:1003A000704700B583B0019001210198FFF7C9FFA4
:1003B0000346184603B05DF804FB00B583B0019016
:1003C00000210198FFF7D5FF0346184603B05DF8FA
:1003D00004FB0000024A034BD31ADB08184670479F
:1003E000B42600008426000000B589B04148FFF71C
:1003F000D8FF4148FFF7D5FF404B5B6807933F4B61
:100400009B680493079A049B134002339B003B4A6A
:100410001344043306931BE0079B01330793069BA9
:100420005B88C3F389139BB21A46069B1B88C3F3F0
:1004300089139BB213441A46079B13440793079AE8
:10044000049B134002339B002C4A1344043306934D
:10045000069B1B7803F00303DBB2002BDCD00023E8
:10046000059311E0079B5A1C0792049A1340059AC2
:10047000920069460A44214902339B000B445B68A1
:100480001360059B01330593059B012BEAD99DF869
:100490000030C3F30103DBB2012B0CD0022B14D1CB
:1004A000BDF80230C3F389139BB203339B08079A4C
:1004B000134407930FE0BDF80030C3F38313DBB29E
:1004C0001A46079B1344079305E00D4940F24D106F
:1004D00000F069FC00BF0848FFF76FFF0390039B23
:1004E000002B02D0054A079B536000BF09B05DF89E
:1004F00004FB00BF38050020340500202001002047
:100500002027000010B586B003900291019200935D
:10051000039B1B0CADF81630BDF81640FFF75AFFD1
:1005200003469C4204D323494FF4B27000F03BFCD5
:10053000009B5A1C089B1340BDF816201E4902332D
:100540009B000B445A60009A089B134002339B00A7
:10055000194A134404330493039B1B0903F001035A
:10056000D9B2049A137861F382031370039B03F0EA
:100570000703D9B2049A137861F3C5031370019B82
:1005800003F00F03D9B2049A138861F3891313801F
:10059000029BC3F31501049A136861F39F23136050
:1005A000049A1378012161F30103137000BF06B0B0
:1005B00010BD00BF202700002001002000B589B039
:1005C00001900091019B02330693022305930123BE
:1005D0008DF81330002000F09FFB214B1A68009B20
:1005E0001A601F4B9A681E4B59681D4B1B68CB1A2B
:1005F000134401330793069A059B134403930BE0BE
:10060000FFF7F2FE164B9A68154B5968144B1B689E
:10061000CB1A134401330793039A079B9A42EFD8EE
:100620000F4B1A680E4B9B68134002339B000C4A19
:10063000134404330293029A137843F003031370B4
:10064000074B1A68069B1344054A1360002000F00C
:1006500077FB9DF81330184609B05DF804FB00BF26
:100660002001002000B58BB0059004910392029305
:100670001F4B9B68079306AB19460298FFF79EFF36
:100680000346002B24D0069B0233099300230893D2
:1006900011E0089B9B00039A1A44099B591C09917D
:1006A00007990B401268124902339B000B445A60B1
:1006B000089B01330893089A029B9A42E9D3069A51
:1006C000079B00931346029A04990598FFF71AFFB7
:1006D000074B93F81C34002B05D000BF00F056F8F0
:1006E0000346002BFAD100BF0BB05DF804FB00BF3E
:1006F0002001002000B587B0039002910192019B78
:10070000059305AA012302990398FFF7ABFF00BFE9
:1007100007B05DF804FB00B587B003900291019229
:100720000093019B0493009B059304AA0223029962
:100730000398FFF797FF00BF07B05DF804FB00B513
:1007400089B00390029101920093019B0493009B56
:1007500005930A9B06930B9B079304AA0423029913
:100760000398FFF77FFF00BF09B05DF804FB0000AE
:10077000054B5A68044B1B689A420CBF01230023A7
:10078000DBB21846704700BF2001002000B597B0CB
:10079000FFF7EEFF0346002B01D00023ACE19C4B9A
:1007A0000022C3F81824BFF34F8F00BF984B5B683B
:1007B0001593974B9B680E93159A0E9B134002332B
:1007C0009B00934A13440433149300231393002390
:1007D000129300230D931BE0159B01331593149B7B
:1007E0005B88C3F389139BB21A46149B1B88C3F31F
:1007F00089139BB213441A46159B13441593159AFB
:100800000E9B134002339B00814A1344043314931C
:10081000149B1B7803F00303DBB2002BDCD0002316
:10082000119311E0159B5A1C15920E9A1340119AC0
:10083000920069460A44764902339B000B445B6888
:100840001360119B01331193119B012BEAD99DF881
:10085000003003F00303DBB2022B40F09C80BDF8B4
:100860000230C3F389139BB20B93BDF80230C3F37C
:1008700089139BB2502B28BF50239BB20A930A9B2B
:10088000C3F309039AB2BDF8023062F38F13ADF8D7
:1008900002300A9B083309939DF80030C3F3C2036A
:1008A000DBB20D9309995B4800F066FB1390139B34
:1008B000002B00F0E080139800F0EFFB6946129BDC
:1008C0000822139800F094FC129B08331293159B96
:1008D000DA430E9B134001339B0008930A9A089B4E
:1008E0009A4242D9089B002B08D0159A0E9B1340C0
:1008F00002339B00464A1344043300E0464B069300
:10090000089B002B02D0089BDBB201E00A9BDBB204
:100910008DF81730089B002B01D03F4B00E00023DF
:100920000493089B002B06D00A9BDAB2089BDBB22B
:10093000D31ADBB200E000238DF80F309DF81720AA
:10094000129B0699139800F053FC9DF81730129AE9
:1009500013441293049B002B16D09DF80F20129B7A
:100960000499139800F044FC0EE0159A0E9B134076
:1009700002339B00264A134404330793129B0A9ABE
:100980000799139800F034FC0B9B03339B08159ACE
:10099000134415936FE09DF8003003F00303DBB2BE
:1009A000012B5AD1BDF80030C3F38313DBB2062B01
:1009B00028BF0623DAB2BDF8003062F38913ADF820
:1009C0000030BDF80030C3F38313DBB202330C9365
:1009D0009DF80030C3F3C203DBB20D930C9B9B0068
:1009E00019460C4800F0C8FA1390139B002B42D014
:1009F000139800F052FB6946129B0822139800F0EE
:100A0000F7FB129B08331293002311931BE000BFE6
:100A100020010020FC2600002C010020159B5A1C00
:100A200015920E9A134002339B00354A1344191D48
:100A3000129B0422139800F0DBFB129B04331293E9
:100A4000119B01331193BDF80030C3F38313DBB264
:100A50001A46119B9342E1D30DE09DF8003003F05C
:100A60000303DBB2032B06D1254BD3F81834002B3C
:100A700001D1002340E0139B002B37D0204BD3F84B
:100A8000103410931E4BD3F81834002B1AD013983F
:100A900000F012FB2AE000238DF83F301098FFF79A
:100AA00049FC0346002B02D001238DF83F309DF80E
:100AB0003F30002B03D013991098FFF719FC109BBF
:100AC0005B681093109B002BE5D1139800F0F4FAAB
:100AD000002000F021F90A4BD3F81834002B02D182
:100AE000074A159B5360002000F02AF9FFF740FEEB
:100AF000034683F00103DBB2184617B05DF804FB30
:100B00002001002000B583B00C4BD3F810340193C2
:100B10000A4B012283F81C2408E00198FFF702FC2D
:100B20000198FFF7F3FB019B5B680193019B002B8E
:100B3000F3D100BF00BF03B05DF804FB200100202B
:100B400000B589B0039002910192029B9BB2ADF86F
:100B50001430019B0693039B079305AB1A460021B3
:100B600044F2010000F052F800BF09B05DF804FB48
:100B700086B003900291019201238DF817309DF801
:100B80001730214A039B13601F4A029B53601E4A81
:100B9000019B9360039B44F20102934213D0039B99
:100BA00044F20202934222D1019B174AD360164BB2
:100BB000DB681B881A46144B9A61134BDB685B6831
:100BC000114AD36113E0019B0F4A13610E4B1B695D
:100BD0009B680D4A53610C4B1B691B881A460A4BD4
:100BE0009A61094B1B695B68074AD36100BF72B603
:100BF00000BF00BF9DF81730DBB2002BFAD162B600
:100C000000BF00BF06B070474005002030B589B076
:100C1000059004910392FFF775FF00BFFFF7B6FD43
:100C20000346002BFAD1059B44F20102934214D0F3
:100C3000059B44F2020293422DD1039B0793234B61
:100C40001B881B0443F00100079B5B681A46079B47
:100C50001B881F49FFF75FFD28E0039B06931B4B92
:100C60001B881B0443F00104069B9D68069B9B6840
:100C7000184600F0CFFA03461946069B5B681A46F1
:100C8000069B1B88019300920B462A461149204679
:100C9000FFF755FD0AE00D4B1B881B0443F00103D1
:100CA000049A0D491846FFF725FD00BF0B4B1B6842
:100CB00003F00103002B00D0FFDE039A049905988E
:100CC000FFF756FF00BF09B030BD00BF0000002095
:100CD0007C27000098270000B0270000F0ED00E01E
:100CE00072B600BF034B1B680133024A136000BF9A
:100CF000704700BF60050020064B1B68013B054A9A
:100D00001360044B1B68002B01D162B600BF00BF0B
:100D1000704700BF6005002000B583B0019000F06F
:100D200025F80346012B03D00449432000F03BF88B
:100D3000FFF7D6FF00BF03B05DF804FBC827000033
:100D400000B583B003468DF8073000F00FF8034676
:100D5000012B03D00449512000F025F8FFF7CCFF08
:100D600000BF03B05DF804FBC827000084B0EFF3B8
:100D700005830193019BC3F308030393039B002B9B
:100D80000DD1EFF314830093009B0293029B03F0B9
:100D90000103002B0CBF01230023DBB200E0012381
:100DA000184604B0704700B585B003460091ADF811
:100DB0000630BDF80630ADF80830009B039302AB57
:100DC0001A46002144F20200FFF720FF00BF05B0E1
:100DD0005DF804FB00B583B001900B468DF803303D
:100DE000019B002B03D10849AF20FFF7DCFF019BDB
:100DF000DA689DF803300199098A01FB03F3134473
:100E0000184603B05DF804FB2028000000B583B04D
:100E100001900091019B002B03D10849BC20FFF7F2
:100E2000C2FF009B019AD2689B1A019A128AB3FBF7
:100E3000F2F3DBB2184603B05DF804FB2028000093
:100E400000B585B00190019B002B03D11B49EC201C
:100E5000FFF7A9FF002303930020FFF75DFF019B2D
:100E60001B681A68019B5B689A421FD9019B1B682B
:100E70001A68013A1A601B681B7819460198FFF737
:100E8000A9FF0390019B9A68019B1B681B68D31AFA
:100E90008DF80B30019B1B681B799DF80B209A4243
:100EA00004D9019B1B689DF80B201A710020FFF7E5
:100EB00047FF039B184605B05DF804FB202800009F
:100EC00010B584B001900091019B002B04D1114911
:100ED0004FF48870FFF767FF009B002B04D10D498A
:100EE00040F21110FFF75FFF009B03930020FFF714
:100EF00013FF019B1B681C68621C1A600399019810
:100F0000FFF784FF034623700020FFF719FF00BF9F
:100F100004B010BD2028000010B487B001900091EB
:100F2000019B009A53E8004F04EB020043E80001E4
:100F300091F0000FF6D1059404900391049B18469C
:100F400007B05DF8044B704710B487B00190009172
:100F5000019B009A53E8004FA4EB020043E8000114
:100F600091F0000FF6D1059404900391049B18466C
:100F700007B05DF8044B704700B58BB0019000914D
:100F8000019B1B8A043B0793009A079B1344DA1CBE
:100F9000079BB2FBF3F38DF81B300198FFF750FF6E
:100FA0000590059B002B01D1002338E0059B002212
:100FB0001A71059B01225A71079B9AB2059BDA8030
:100FC000059B09939DF81B30013B0493099B019AF3
:100FD0001A60002308931DE00198FFF731FF03908A
:100FE000039B002B0ED0059B5B790133DAB2059B86
:100FF0005A71099B039A1A60039B019A1A60039B1A
:10100000099304E0059800F00EF8002307E0089B20
:1010100001330893089A049B9A42DDD3059B184636
:101020000BB05DF804FB00B58BB00190019B0793FA
:10103000079B5B798DF81B30019B08939DF81B3053
:10104000013B05930023099305E0089B1B68089367
:10105000099B01330993099A059B9A42F5D3089B92
:101060001B680493019B0893002309930BE0089BE2
:101070001B68039308990498FFF722FF039B0893CA
:10108000099B013309939DF81B30099A9A42EED3CC
:1010900000BF00BF0BB05DF804FB00B585B0019048
:1010A000019B0393039B043301211846FFF734FF90
:1010B00000BF05B05DF804FB00B587B00190019B4F
:1010C0000593059B043301211846FFF73DFF0346B6
:1010D000039303AB0493049B1B78002B02D101986C
:1010E000FFF7A1FF00BF07B05DF804FB00B58DB0AE
:1010F0000390029101920093039B0693069BDB8869
:101100000593039B0B93009B1A1D059BB2FBF3F306
:101110000A93009B0433059AB3FBF2F2059901FB95
:1011200002F29B1A0993009A019B1A44059B1344EF
:10113000DA1C059BB2FBF3F38DF81330069B5B7949
:101140009DF813209A420AD92849BA20FFF72BFEAE
:1011500005E00B9B1B680B930A9B013B0A930A9BC0
:10116000002BF6D100230893059A099BD31A079305
:10117000079A019B934228BF134607932DE09DF8E1
:101180003830002B0BD0029A089BD0180B9A099B81
:1011900013440433079A194601F018FA0AE00B9A2F
:1011A000099B1344181D029A089B1344079A194679
:1011B00001F00CFA002309930B9B1B680B93019A17
:1011C000079BD31A0193089A079B13440893059A27
:1011D000019B934228BF13460793019B002BCED15E
:1011E00000BF00BF0DB05DF804FB00BF6828000021
:1011F00000B587B0059004910392029300230093F9
:10120000029B039A04990598FFF770FF00BF07B08F
:101210005DF804FB00B585B00190019800F00EF870
:101220000390039B002B01D0039B00E0024B184668
:1012300005B05DF804FB00BFC028000086B0019037
:10124000164B0593164B04931FE0049A059BD31A83
:10125000DB10DA0F13445B10DB00059A1344039391
:10126000039B1B680293029A019B9A4202D9039B3B
:1012700004930AE0029A019B9A4203D2039B08332B
:10128000059302E0039B5B6804E0059A049B9A4285
:10129000DBD30023184606B0704700BFDC2B0000EC
:1012A000CC2C000082B001904FF08042019BC2F82C
:1012B000083300BF02B0704784B00346ADF8063073
:1012C000BDF8063003F1804300221A60BDF80630F5
:1012D00003F180431B680393039B00BF04B0704776
:1012E00082B00346ADF80630BDF8063003F1804306
:1012F0001B68002B14BF01230023DBB2184602B089
:10130000704784B00190019B1B680393039B002BE3
:1013100003D0039B1A68019B1A60039B184604B014
:101320007047000000B585B003468DF807309DF882
:101330000730002B02D10C4B039301E00B4B0393BE
:101340000398FFF7DEFF0290029B002B06D0029B62
:101350005B689DF8072010469847F1E700BF00BF83
:1013600005B05DF804FB00BF6C050020740500208B
:1013700008B54FF48070FFF7B3FF0346002B0CD085
:101380004FF48070FFF798FF0120FFF78BFF0E4BA3
:1013900001225A700020FFF7C5FF4FF48270FFF75B
:1013A0009FFF0346002B0CD04FF48270FFF784FFA1
:1013B0000220FFF777FF044B01229A700120FFF70C
:1013C000B1FF00BF08BD00BF6405002082B00190DE
:1013D0000091019B009AC3F8082300BF02B0704738
:1013E00082B001900091019BD3F80423009B13402D
:1013F000184602B0704782B001900B46ADF802303B
:10140000BDF80230019A13441B68184602B07047B9
:1014100084B001900B46ADF80230BDF80230019A5D
:10142000134400221A60BDF80230019A13441B686D
:101430000393039B00BF04B0704782B001900091FA
:10144000019B009AC3F8482300BF02B07047000018
:1014500000B589B00390029101924FF48033069356
:101460004FF4A073ADF81E300023059330E00699C9
:101470000398FFF7B5FF0346002B1ED0BDF81E30C2
:1014800019460398FFF7B7FF0346002B15D00699BE
:101490000398FFF7D2FF06990398FFF797FFBDF86F
:1014A0001E3019460398FFF7B3FF2D4A029B52F8EE
:1014B0002330059AD2B210469847069B5B000693EC
:1014C000BDF81E300433ADF81E30059B0133059383
:1014D000059A019B9A42CAD34FF48073ADF81E302F
:1014E00001210398FFF77CFF0346002B14D0BDF8C1
:1014F0001E3019460398FFF77EFF0346002B0BD0E2
:10150000BDF81E3019460398FFF782FF144A029B6C
:1015100052F82330042098474FF48273ADF81E3000
:1015200002210398FFF75CFF0346002B14D0BDF89F
:101530001E3019460398FFF75EFF0346002B0BD0C1
:10154000BDF81E3019460398FFF762FF044A029B5C
:1015500052F823300520984700BF09B05DF804FB1E
:101560007805002008B5032200210248FFF770FF2C
:1015700000BF08BD00B0004082B003468DF80730C0
:101580009DF8073003F1804303F5E04301221A6020
:1015900000BF02B0704782B00346ADF80630BDF818
:1015A000063003F1804303F5E0431B68002B14BFB2
:1015B00001230023DBB2184602B0704784B0034613
:1015C000ADF80630BDF8063003F1804303F5E04383
:1015D00000221A60BDF8063003F1804303F5E043B2
:1015E0001B680393039B00BF04B0704782B0019057
:1015F0000091054A019BC2F82C36034A009BC2F8B1
:10160000303600BF02B070470070004000B58DB0AA
:101610004FF48270FFF7BFFF0346002B46D04FF414
:101620008270FFF7CBFF8C4B93F82E3083F00103D1
:10163000DBB2002B04D1884B93F82F30002B35D030
:1016400000238DF81830844B5B680793824B1B890D
:101650009BB2ADF82030804BDB68002B03D17E4B72
:1016600000221A7419E07C4B1A8B7B4B5A837A4BFD
:10167000DB68794A5360784B1A8B774B1A81764B2B
:101680000022DA60744B93F82E3083F00103DBB252
:10169000002B02D00020FFF76FFF6F4B1B6806AADC
:1016A000104698476C4B002283F82F206A4B93F822
:1016B0002E30002B62D04FF48070FFF76CFF034692
:1016C000002B5BD04FF48070FFF778FF624B5A8B92
:1016D000614B93F82D309BB29A421CD95E4B5A8BCA
:1016E0005D4B93F82D309BB2D31A9AB25A4B5A8362
:1016F000594B5A68584B1B899BB21946564B5B8B0A
:10170000CB1A5B001344544A92F82D201146184618
:10171000FFF76CFF2BE0504B5A8B4F4B93F82D305B
:101720009BB29A4214D14C4BDB68002B10D04A4B31
:10173000012283F82F20484B00225A83464BDB6856
:10174000454A92F82D2011461846FFF74FFF0EE04C
:10175000414B5A8B404B93F82D309BB29A4206D1A5
:101760003D4B012283F82F203B4B00225A834FF43C
:101770008270FFF723FF0420FFF7FEFE4FF488700E
:10178000FFF709FF0346002B0ED04FF48870FFF7D8
:1017900015FF314B00221A7402238DF80C302E4BAA
:1017A0001B6803AA104698474FF48A70FFF7F3FEB0
:1017B0000346002B07D04FF48A70FFF7FFFE264B3D
:1017C00000221A7444E0244B5B690B933DE00B9BB1
:1017D000B3FA83F30A934FF000420A9B22FA03F311
:1017E000DB430B9A13400B930A9B9BB246339BB28D
:1017F0009B00ADF82630BDF826301846FFF7CBFE2B
:101800000346002B21D0BDF826301846FFF7D6FE40
:1018100001238DF80030BDF82630A3F58C73DB086A
:10182000DBB28DF80430BDF82630A3F58C7303F0DD
:101830000403002B0CBF01230023DBB28DF805301D
:10184000054B1B686A46104698470B9B002BBED180
:1018500000BF0DB05DF804FB7C05002084B0019052
:101860000B46ADF80230BDF80230019A1344002255
:101870001A60BDF80230019A13441B680393039B5E
:1018800000BF04B0704782B001900B46ADF8023043
:10189000BDF80230019A13441B68002B14BF0123CA
:1018A0000023DBB2184602B0704782B0019000916D
:1018B000019BD3F80423009B1340002B14BF01238A
:1018C0000023DBB2184602B0704782B0019000914D
:1018D000019B009AC3F8082300BF02B0704784B090
:1018E0000190019BD3F880340393019B039AC3F8C2
:1018F0008024039B184604B0704782B00190019B7E
:10190000D3F81835DBB2184602B0704782B00190A8
:101910000B468DF803309DF80320019BC3F81C256E
:1019200000BF02B0704782B001900B468DF80330C3
:101930009DF80330019A134401221A6000BF02B0DF
:10194000704784B001900B46ADF80230BDF802300C
:10195000019A134400221A60BDF80230019A134420
:101960001B680393039B00BF04B0704782B00190D3
:101970000B46ADF80230BDF80230019A13441B68E3
:10198000002B14BF01230023DBB2184602B07047BE
:1019900082B001900091019BD3F80022009BDB43B1
:1019A0001A40019BC3F8002200BF02B0704784B008
:1019B0000190019BD3F880340393019B039AC3F8F1
:1019C0008024039B184604B0704782B00190019BAD
:1019D000D3F84C35184602B0704782B00190019B95
:1019E000D3F83C35184602B0704700B585B0019079
:1019F00000914FF48E710198FFF730FF009B9B68B8
:101A0000009A928A92B213441B788DF80F30009B93
:101A10009B8A9BB201339AB2009B9A829DF80F3049
:101A200019460198FFF772FF00BF05B05DF804FB8F
:101A300010B582B001900091009BDB7D002B08D196
:101A40004FF484710198FFF709FF0198FFF755FFE4
:101A500016E04FF484710198FFF700FF009BDB68EC
:101A6000009A527ED2B29C180198FFF746FF0346B7
:101A70002370009B5B7EDBB20133DAB2009B5A76A7
:101A800002B010BD00B589B003900B4601928DF8ED
:101A90000B3001238DF810309DF80B308DF8183085
:101AA000019B0593039B5B68039A116804AA104687
:101AB000984700BF09B05DF804FB000000B587B08F
:101AC00001900B468DF8033000238DF808309DF807
:101AD00003308DF81030019B9B680393019B00221B
:101AE0009A750B4B1B881B0443F003039DF80320DE
:101AF00008491846FEF7FEFD019B5B68019A1168D4
:101B000002AA1046984700BF07B05DF804FB00BF6B
:101B10003C0000207C30000000B589B001900091AD
:101B20004FF400710198FFF7C0FE0346002B39D037
:101B30004FF492710198FFF7A6FE0346002B31D0B7
:101B40004FF492710198FFF789FE4FF401710198EB
:101B5000FFF7BBFE009B9B7E83F00103DBB2002BF3
:101B600003D004210198FFF7DEFE02238DF8083030
:101B70000198FFF7B4FE03460593009BDB7D8DF8CB
:101B80001030009BDB680393009B0022DA75009BFA
:101B900000221A76009B5B68009A116802AA104620
:101BA000984756E004210198FFF77FFE0346002B7B
:101BB0004FD04FF484710198FFF765FE0346002B68
:101BC00047D000990198FFF733FF009BDA7D009B17
:101BD0005B7EDBB29A423CD1009B1B7E002B1CD06B
:101BE000009BDB680793009B5B7E8DF81B30009B9E
:101BF0001A7E009BDA75009B1A69009BDA60009BD5
:101C000000221A76009B00225A769DF81B30079A14
:101C100019460098FFF736FF1BE0009B9B7E83F080
:101C20000103DBB2002B03D004210198FFF77BFEF8
:101C30004FF401710198FFF748FE009B0022DA750E
:101C4000009B5B7ED9B2009BDB681A460098FFF7C9
:101C500019FF4FF48E710198FFF715FE0346002B14
:101C60001BD0009B9B8A9AB2009B9B7D9BB29A42A1
:101C700004D200990198FFF7B8FE0EE04FF48E7180
:101C80000198FFF7EBFD009B9B7D002B05D0009B8F
:101C90009B7D19460098FFF711FF4FF4A271019840
:101CA000FFF7F1FD0346002B1CD04FF4A271019801
:101CB000FFF7D4FD009B9B7E002B03D000210198F1
:101CC000FFF731FE009BDB7D002B0BD0009B002239
:101CD000DA75009B5B7ED9B2009BDB681A460098E0
:101CE000FFF7D0FE00BF09B05DF804FB00B589B076
:101CF000019000914FF492710198FFF737FE03466F
:101D0000002B24D04FF492710198FFF71AFE0223A2
:101D10008DF808300198FFF74AFE034605930198B5
:101D2000FFF75BFE0346DBB28DF81030009BDB68EB
:101D30000393009B0022DA75009B00221A76009B19
:101D40005B68009A116802AA1046984741E04FF478
:101D500088710198FFF70AFE0346002B39D04FF433
:101D600088710198FFF7EDFD0198FFF736FE0346F5
:101D70008DF81F30009BDB7D9DF81F209A4228D1F3
:101D8000009B1B7E002B19D0009BDB680693202153
:101D90000198FFF7FDFD009B1A7E009BDA75009B02
:101DA0001A69009BDA60009B00221A769DF81F30AA
:101DB000069A19460098FFF765FE0AE0009B00228C
:101DC000DA75009BDA689DF81F3019460098FFF716
:101DD00059FE4FF4A2710198FFF7C8FD0346002B8E
:101DE00016D04FF4A2710198FFF7ABFD009BDB7D8D
:101DF000002B0DD0009B0022DA750198FFF7EDFD56
:101E00000346D9B2009BDB681A460098FFF73AFEFA
:101E10004FF490710198FFF7A9FD0346002B11D0F4
:101E20004FF490710198FFF78CFD009B9B7D002B78
:101E300008D00198FFF7C9FD0346DBB219460098A8
:101E4000FFF73CFE00BF09B05DF804FB08B5074B87
:101E50001B7F002B04D005490548FFF747FF03E02F
:101E600002490348FFF758FE00BF08BDAC0500203B
:101E700000200040C2DF704700BF1846CDDF70472A
:101E800000BF1846D1DF704700BF1846D3DF704748
:101E900000BF184600B585B00190019B1878019BE2
:101EA0005978019B9A7A019B9B78FFF7E3FF039097
:101EB000039B002B01D0039B31E0019B1878019B11
:101EC000D988019B5A79019B1B79FFF7DFFF0390AB
:101ED000039B002B01D0039B21E0019B1A78019BFF
:101EE000DB7819461046FFF7C9FF0390039B002BD0
:101EF00001D0039B13E0019B9B7803F00103002BAF
:101F00000CD1019B1B89002B08D0019B1A78019BE7
:101F10001B8919461046FFF7B5FF0390039B18462F
:101F200005B05DF804FBC4DF704700BF1846C7DF8B
:101F3000704700BF1846000000B585B06B46082208
:101F40000021184600F06BFB0F4B1B788DF8073013
:101F50006B461A4608210020FFF7E9FF0390039B18
:101F60000293029B002B04D0084A2D210298FEF711
:101F7000E7FD054B1B780133DAB2034B1A7000BF43
:101F800005B05DF804FB00BF48000020AC30000045
:101F900000B587B0144A6B4607CA83E807006B4652
:101FA0001846FFF777FF0590059B0493049B002BD1
:101FB00004D00E4A43210498FEF7C2FDFFF7BCFF90
:101FC00000210020FFF7AFFF0590059B0393039BC3
:101FD000002B04D0054A4A210398FEF7B1FD00BF4B
:101FE00007B05DF804FB00BFF4300000AC30000027
:101FF00008B5FFF7CDFF00BF08BD0000BFF34F8F4E
:1020000000BF074BDB6803F4E0620549054B13434F
:10201000CB60BFF34F8F00BF00BF00BFFCE700BF26
:1020200000ED00E00400FA05024B034A1A6000BF0D
:10203000704700BF4C0000200090D00308B500F0AE
:102040005DF90346002B06D09B4B1B681B0A9B4A7D
:1020500003F01F03136000F07DF90346002B02D04C
:10206000974B984A1A6000F091F90346002B06D06E
:10207000954B1B685B0B954A03F00703136000F058
:10208000B1F90346002B05D0914BDB68904A23F051
:102090008073D36000F0C2F90346002B0ED04FF0DE
:1020A00080430022C3F80C214FF080430022C3F884
:1020B00010214FF080430022C3F8382500F0DAF9F0
:1020C0000346002B02D0834B03221A6000F0EEF986
:1020D0000346002B0BD0804B05221A607F4B012258
:1020E0001A607F4B00221A607E4B3F221A6000F07C
:1020F000F9F90346002B76D04FF080537A4AD3F893
:102100000434C2F820354FF08053774AD3F80834AE
:10211000C2F824354FF08053734AD3F80C34C2F818
:1021200028354FF08053704AD3F81034C2F82C355C
:102130004FF080536C4AD3F81434C2F830354FF066
:102140008053694AD3F81834C2F834354FF08053BD
:10215000654AD3F81C34C2F840354FF08053624AC8
:10216000D3F82034C2F844354FF080535E4AD3F898
:102170002434C2F848354FF080535B4AD3F82834F2
:10218000C2F84C354FF08053574AD3F82C34C2F87C
:1021900050354FF08053544AD3F83034C2F8543598
:1021A0004FF08053504AD3F83434C2F860354FF0C2
:1021B00080534D4AD3F83834C2F864354FF0805319
:1021C000494AD3F83C34C2F868354FF08053464A48
:1021D000D3F84034C2F86C354FF08053424AD3F8FC
:1021E0004434C2F8703500F099F90346002B05D04D
:1021F0003E4B1B683E4A03F04F03136000F0BAF9F0
:102200000346002B0DD04FF08043D3F8003403F089
:102210000103002B05D04FF080436FF00102C3F89B
:102220000024344BD3F88830324A43F47003C2F8A8
:102230008830BFF34F8F00BFBFF36F8F00BF4FF0E9
:102240001023D3F80032002B05DB4FF01023D3F816
:102250000432002B2BDA284B0122C3F8042500BFDF
:10226000254BD3F80034002BFAD04FF01023152261
:10227000C3F8002200BF204BD3F80034002BFAD063
:102280004FF010231522C3F8042200BF1A4BD3F8D5
:102290000034002BFAD0184B0022C3F8042500BFED
:1022A000154BD3F80034002BFAD0FFF7A7FEFFF749
:1022B000BBFE00BF08BD00BF240300104035014035
:1022C00074C007400DF0ADBA440200103C05004058
:1022D000F0ED00E0A0050040105600408856004098
:1022E000185600401456004000C00040580200102C
:1022F000E40E004000ED00E000E00140124B1B68DE
:10230000DBB2062B1DD1114B1B6803F00F03002B12
:1023100017D10F4B1B6803F0F003302B01D10123C1
:1023200010E00B4B1B6803F0F003402B01D101239D
:1023300008E0074B1B6803F0F003502B01D1012389
:1023400000E0002318467047E00F00F0E40F00F0B3
:10235000E80F00F00A4B1B68DBB2062B0DD1094BCE
:102360001B6803F00F03002B07D1074B1B6803F01A
:10237000F003302B01D1012300E000231846704701
:10238000E00F00F0E40F00F0E80F00F0124B1B68C4
:10239000DBB2062B1DD1114B1B6803F00F03002B82
:1023A00017D10F4B1B6803F0F003302B01D1012331
:1023B00010E00B4B1B6803F0F003402B01D101230D
:1023C00008E0074B1B6803F0F003502B01D10123F9
:1023D00000E0002318467047E00F00F0E40F00F023
:1023E000E80F00F00A4B1B68DBB2062B0DD1094B3E
:1023F0001B6803F00F03002B07D1074B1B6803F08A
:10240000F003302B01D1012300E000231846704770
:10241000E00F00F0E40F00F0E80F00F0124B1B6833
:10242000DBB2062B1DD1114B1B6803F00F03002BF1
:1024300017D10F4B1B6803F0F003302B01D10123A0
:1024400010E00B4B1B6803F0F003402B01D101237C
:1024500008E0074B1B6803F0F003502B01D1012368
:1024600000E0002318467047E00F00F0E40F00F092
:10247000E80F00F00A4B1B68DBB2062B0DD1094BAD
:102480001B6803F00F03002B07D1074B1B6803F0F9
:10249000F003302B01D1012300E0002318467047E0
:1024A000E00F00F0E40F00F0E80F00F00A4B1B68AB
:1024B000DBB2062B0DD1094B1B6803F00F03002B79
:1024C00007D1074B1B6803F0F003302B01D1012328
:1024D00000E0002318467047E00F00F0E40F00F022
:1024E000E80F00F00A4B1B68DBB2062B0DD1094B3D
:1024F0001B6803F00F03002B07D1074B1B6803F089
:10250000F003502B01D1012300E00023184670474F
:10251000E00F00F0E40F00F0E80F00F0124B1B6832
:10252000DBB2062B1DD1114B1B6803F00F03002BF0
:1025300017D10F4B1B6803F0F003302B01D101239F
:1025400010E00B4B1B6803F0F003402B01D101237B
:1025500008E0074B1B6803F0F003502B01D1012367
:1025600000E0002318467047E00F00F0E40F00F091
:10257000E80F00F0124B1B68DBB2062B1DD1114B8C
:102580001B6803F00F03002B17D10F4B1B6803F0E0
:10259000F003302B01D1012310E00B4B1B6803F03B
:1025A000F003402B01D1012308E0074B1B6803F027
:1025B000F003502B01D1012300E00023184670479F
:1025C000E00F00F0E40F00F0E80F00F0844640EA6E
:1025D000010313F0030F18D18446202A0BD32DE9F1
:1025E000F007B1E8F807A0E8F807A2F12002202AD6
:1025F000F7D2BDE8F007042A07D351F8043B40F8AE
:10260000043BA2F10402042AF7D2002A05D011F8F3
:10261000013B00F8013B013AF9D16046704784461E
:10262000002A2DD010F0030F04D000F8011B013A4E
:1026300026D0F7E7C9B241EA012141EA0141202A47
:1026400012D3A2F120022DE9F0030B460C460D46F1
:102650000E460F4688468946A0E8FA03203AFBD288
:10266000BDE8F00320320BD0042A05D340F8041B48
:10267000043A05D0042AF9D200F8011B013AFBD133
:0426800060467047F9
:102684001C270000000003001828000000000000C0
:10269400CC2C000000000000582D000000000000B9
:1026A400E02D000000000300542F00000000030090
:1026B4000000000000000000000000000000000016
:1026C4000000000000000000000000000000000006
:1026D40000000000000000000000000000000000F6
:1026E40000000000000000000000000000000000E6
:0826F4000000000000000000DE
:1026FC001801002050000020580000205800002035
:10270C00180000004F766572666C6F770000000051
:10271C0061707000433A5C55736572735C746865E4
:10272C0072755C4465736B746F705C6E52465C6E54
:10273C0052465C636F6D706F6E656E74735C6C6922
:10274C00627261726965735C6578706572696D65DA
:10275C006E74616C5F6C6F675C7372635C6E7266D7
:10276C005F6C6F675F66726F6E74656E642E63006C
:10277C00415353455254494F4E204641494C4544D0
:10278C002061742025733A25750000004552524F84
:10279C0052202575205B25735D2061742025733ACA
:1027AC0025750000554E4B4E4F574E204641554C0B
:1027BC00542061742030782530385800433A5C55E9
:1027CC00736572735C74686572755C4465736B7465
:1027DC006F705C6E52465C6E52465C636F6D706FD0
:1027EC006E656E74735C6C69627261726965735C40
:1027FC007574696C5C6170705F7574696C5F706C1A
:10280C006174666F726D2E630000000062616C6C07
:10281C006F630000433A5C55736572735C74686552
:10282C0072755C4465736B746F705C6E52465C6E53
:10283C0052465C636F6D706F6E656E74735C6C6921
:10284C00627261726965735C62616C6C6F635C6E01
:10285C0072665F62616C6C6F632E6300433A5C5509
:10286C00736572735C74686572755C4465736B74C4
:10287C006F705C6E52465C6E52465C636F6D706F2F
:10288C006E656E74735C6C69627261726965735C9F
:10289C006578706572696D656E74616C5F6D656D80
:1028AC006F626A5C6E72665F6D656D6F626A2E63D5
:1028BC0000000000556E6B6E6F776E206572726F44
:1028CC007220636F646500004E52465F535543435C
:1028DC00455353004E52465F4552524F525F53562A
:1028EC00435F48414E444C45525F4D495353494E0A
:1028FC00470000004E52465F4552524F525F534FB5
:10290C0046544445564943455F4E4F545F454E41EE
:10291C00424C4544000000004E52465F4552524F17
:10292C00525F494E5445524E414C00004E52465F48
:10293C004552524F525F4E4F5F4D454D00000000C7
:10294C004E52465F4552524F525F4E4F545F464F68
:10295C00554E44004E52465F4552524F525F4E4FB9
:10296C00545F535550504F52544544004E52465F9D
:10297C004552524F525F494E56414C49445F50416B
:10298C0052414D004E52465F4552524F525F494E96
:10299C0056414C49445F5354415445004E52465F96
:1029AC004552524F525F494E56414C49445F4C453B
:1029BC004E475448000000004E52465F4552524F5D
:1029CC00525F494E56414C49445F464C4147530077
:1029DC004E52465F4552524F525F494E56414C49FA
:1029EC00445F4441544100004E52465F4552524FA1
:1029FC00525F444154415F53495A45004E52465F21
:102A0C004552524F525F54494D454F5554000000AA
:102A1C004E52465F4552524F525F4E554C4C000041
:102A2C004E52465F4552524F525F464F52424944B6
:102A3C0044454E004E52465F4552524F525F494EEE
:102A4C0056414C49445F4144445200004E52465F4B
:102A5C004552524F525F4255535900004E52465FF9
:102A6C004552524F525F4D4F44554C455F4E4F545B
:102A7C005F494E495449414C5A4544004E52465FB9
:102A8C004552524F525F4D555445585F494E49542B
:102A9C005F4641494C4544004E52465F4552524FA9
:102AAC00525F4D555445585F4C4F434B5F4641491F
:102ABC004C4544004E52465F4552524F525F4D5565
:102ACC005445585F554E4C4F434B5F4641494C451E
:102ADC00440000004E52465F4552524F525F4D55D6
:102AEC005445585F434F4E445F494E49545F4641ED
:102AFC00494C4544000000004E52465F4552524F2F
:102B0C00525F4D4F44554C455F414C5245414459E1
:102B1C005F494E495449414C495A45440000000014
:102B2C004E52465F4552524F525F53544F5241479B
:102B3C00455F46554C4C00004E52465F4552524F35
:102B4C00525F4150495F4E4F545F494D504C454D7B
:102B5C00454E5445440000004E52465F4552524F7C
:102B6C00525F464541545552455F4E4F545F454E5A
:102B7C0041424C45440000004E52465F4552524F74
:102B8C00525F4452565F5457495F4552525F4F56FD
:102B9C00455252554E0000004E52465F4552524F20
:102BAC00525F4452565F5457495F4552525F414EF3
:102BBC0041434B004E52465F4552524F525F445276
:102BCC00565F5457495F4552525F444E41434B0048
:102BDC0000000000D428000001000000E0280000E4
:102BEC00020000000029000003000000242900005E
:102BFC000400000038290000050000004C290000EA
:102C0C000600000060290000070000007829000081
:102C1C00080000009029000009000000A82900000D
:102C2C000A000000C42900000B000000DC29000091
:102C3C000C000000F42900000D000000082A000020
:102C4C000E0000001C2A00000F0000002C2A0000BF
:102C5C0010000000402A000011000000582A00005B
:102C6C0080000000682A000081000000882A000013
:102C7C0082000000A42A000083000000C02A00008B
:102C8C0084000000E02A000085000000042B0000F6
:102C9C00860000002C2B000090000000442B00004C
:102CAC0091000000642B000000820000842B0000C7
:102CBC0001820000A42B000002820000C02B000047
:102CCC00636C6F636B000000433A5C557365727301
:102CDC005C74686572755C4465736B746F705C6E64
:102CEC0052465C6E52465C636F6D706F6E656E74AF
:102CFC00735C647269766572735F6E72665C636C2A
:102D0C006F636B5C6E72665F6472765F636C6F632D
:102D1C006B2E63002E2E2F2E2E2F2E2E2F2E2E2F7F
:102D2C002E2E2F2E2E2F636F6D706F6E656E74733B
:102D3C002F647269766572735F6E72662F68616C50
:102D4C002F6E72665F7274632E680000727463007B
:102D5C00433A5C55736572735C74686572755C4458
:102D6C0065736B746F705C6E52465C6E52465C633E
:102D7C006F6D706F6E656E74735C6472697665727C
:102D8C00735F6E72665C7274635C6E72665F6472A3
:102D9C00765F7274632E63002E2E2F2E2E2F2E2E06
:102DAC002F2E2E2F2E2E2F2E2E2F636F6D706F6EBB
:102DBC00656E74732F647269766572735F6E72667A
:102DCC002F68616C2F6E72665F73616164632E682D
:102DDC0000000000736161646300000046756E635F
:102DEC0074696F6E3A2025732C206572726F722095
:102DFC00636F64653A2025732E000000433A5C55DE
:102E0C00736572735C74686572755C4465736B741E
:102E1C006F705C6E52465C6E52465C636F6D706F89
:102E2C006E656E74735C647269766572735F6E72D4
:102E3C00665C73616164635C6E72665F6472765F1C
:102E4C0073616164632E63004368616E6E656C2010
:102E5C00696E697469616C697A65643A2025642EBF
:102E6C00000000004368616E6E656C2064656E69DD
:102E7C007469616C697A65643A2025642E000000DF
:102E8C0046756E6374696F6E3A2025732065727295
:102E9C006F7220636F64653A2025732E000000006A
:102EAC00436F6E76657273696F6E2076616C7565B3
:102EBC003A2025642C206368616E6E656C3A20257F
:102ECC00642E000046756E6374696F6E3A2025643B
:102EDC002C20627566666572206C656E6774683A44
:102EEC002025642C20616374697665206368616EAB
:102EFC006E656C733A2025642E000000436F6E766D
:102F0C00657273696F6E2061626F727465642E00F6
:102F1C002E2E2F2E2E2F2E2E2F2E2E2F2E2E2F2EC0
:102F2C002E2F636F6D706F6E656E74732F64726984
:102F3C00766572735F6E72662F68616C2F6E726647
:102F4C005F6770696F2E6800756172740000000015
:102F5C00433A5C55736572735C74686572755C4456
:102F6C0065736B746F705C6E52465C6E52465C633C
:102F7C006F6D706F6E656E74735C6472697665727A
:102F8C00735F6E72665C756172745C6E72665F64A0
:102F9C0072765F756172742E63000000496E6974FD
:102FAC00206661696C65642E2069643A2564206929
:102FBC006E2077726F6E6720737461746500000009
:102FCC00556E696E69742069643A2025642E000080
:102FDC0049643A25642C20456173792D444D412078
:102FEC00627566666572206E6F7420696E20524140
:102FFC004D3A20253038780049643A2564206275B2
:10300C00737900005458207265712069643A256404
:10301C00206C656E6774683A2025642E00000000F1
:10302C0052582049643A2025642C207472616E73C6
:10303C00666572206572726F722E000052582049BC
:10304C00643A2025642C2061626F727465642E00D2
:10305C0052582049643A25642C206275737900001B
:10306C0052582049643A2564206C656E3A256400F8
:10307C00545820646F6E65206C656E3A25640000B0
:10308C0054582061626F72742049643A25640000C0
:10309C0052582061626F72742049643A25640000B2
:1030AC00433A5C55736572735C74686572755C4405
:1030BC0065736B746F705C6E52465C6E52465C65E9
:1030CC0078616D706C65735C70657269706865723F
:1030DC00616C5C50726F6A6563742D31312E3231C4
:1030EC005C6D61696E2E63000020004201020200DB
:0430FC0000200000B0
:08310000010000000090D00363
:0400000300000239BE
:00000001FF
