:10000000000001203902000091020000930200006C
:100010009502000097020000990200000000000015
:100020000000000000000000000000009B02000033
:100030009D020000000000009F020000A1020000DD
:10004000690D0000A7020000A9020000AB02000039
:10005000AD020000AF020000B10200006D08000018
:10006000B5020000B7020000B9020000BB020000A8
:10007000BD020000BF020000C1020000C302000078
:10008000C5020000C7020000C9020000CB02000048
:10009000CD020000CF020000D1020000D302000018
:1000A000D5020000D7020000D9020000DB020000E8
:1000B000DD020000DF020000A3020000A302000036
:1000C000E1020000E3020000E5020000E702000098
:0C00D00051110000EB020000ED020000E6
:1000DC00354936480A1A02D0072291438D463449D5
:1000EC0034480A1A06D00722914381F30988022268
:1000FC0082F3148830483149314A00F044F83148D1
:10010C003149324A00F03FF831483249324A00F066
:10011C003AF832483249334A00F035F8324833491C
:10012C00334A00F030F833483349344A00F02BF8A6
:10013C0033483449344A00F026F834483449002214
:10014C0000F02CF833483449002200F027F83348EB
:10015C003349091A082902DB002202604160314A46
:10016C0090471F481F49884205D00268043003B4E9
:10017C00904703BCF7E700208646EC4600200021A0
:10018C00294A9047FEE7884207D0521A05D00378D7
:10019C0001300B700131013AF9D17047884202D01D
:1001AC0002700130FAE770470000012000F80020CF
:1001BC000000012000000120AC1B0000000000200A
:1001CC0004000020F0020000F0020000641800009F
:1001DC00AC1B000000000020000000206418000090
:1001EC006418000064180000641800006418000013
:1001FC00641800006418000064180000AC1B0000B8
:10020C00B01B0000040000200400002004000020AB
:10021C007300002074000020740000207400002083
:10022C00740200205D020000651100000F484FF0C1
:10023C000701884385460E4880470E48016841F403
:10024C0070010160BFF34F8FBFF36F8FFFF740BF9B
:10025C0009480A490A4A884207D0521A05D003783D
:10026C0001300B700131013AF9D1704700000120C7
:10027C00C111000088ED00E06418000000000020AF
:10028C0000000020FEE7FEE7FEE7FEE7FEE7FEE7E4
:10029C00FEE7FEE7FEE7FEE7FEE7FEE7FEE7FEE72A
:1002AC00FEE7FEE7FEE7FEE7FEE7FEE7FEE7FEE71A
:1002BC00FEE7FEE7FEE7FEE7FEE7FEE7FEE7FEE70A
:1002CC00FEE7FEE7FEE7FEE7FEE7FEE7FEE7FEE7FA
:1002DC00FEE7FEE7FEE7FEE7FEE7FEE7FEE7FEE7EA
:0402EC00FEE700BF6A
:1002F00000B583B00190019B1B681F2B04D90549F1
:100300004FF4E87000F0D1F94FF0A043184603B065
:100310005DF804FB6418000000B585B00190084644
:1003200011461A4603468DF803300B468DF802300D
:1003300013468DF8013001AB1846FFF7D9FF039043
:100340009DF803209DF802305B001A439DF80130B0
:100350009B001A439DF818301B0242EA03019DF8E6
:100360001C301B04019A1943039B02F5E07243F809
:10037000221000BF05B05DF804FB00B585B0039006
:1003800000230193002300930023012201210398FD
:10039000FFF7C2FF00BF05B05DF804FB00B585B0F4
:1003A000019001AB1846FFF7A3FF0390019B0122C8
:1003B00002FA03F31946039800F02AF800BF05B0CB
:1003C0005DF804FB00B585B0019001AB1846FFF75E
:1003D0008FFF0390019B012202FA03F31946039851
:1003E00000F020F800BF05B05DF804FB00B583B055
:1003F00001900091009B002B03D10198FFF7E2FFD1
:1004000002E00198FFF7CAFF00BF03B05DF804FBEC
:1004100082B001900091019B009AC3F8082500BFAB
:1004200002B0704782B001900091019B009AC3F81E
:100430000C2500BF02B0704700B583B00190019B4E
:10044000032B03D90749442000F02FF9064A019BEA
:1004500013441B7801211846FFF7C8FF00BF03B003
:100460005DF804FB9C180000F818000000B583B08C
:100470000023019305E00198FFF7DEFF019B0133A4
:100480000193019B032BF6D900BF00BF03B05DF8B9
:1004900004FB000000B583B00023019309E0094A82
:1004A000019B13441B781846FFF767FF019B01333C
:1004B0000193019B032BF2D9FFF7D8FF00BF03B0D4
:1004C0005DF804FBF818000000B589B003900291B4
:1004D0000192029B9BB2ADF81430019B0693039BE3
:1004E000079305AB1A46002144F2010000F052F8D0
:1004F00000BF09B05DF804FB86B003900291019241
:1005000001238DF817309DF81730214A039B1360A3
:100510001F4A029B53601E4A019B9360039B44F257
:100520000102934213D0039B44F20202934222D170
:10053000019B174AD360164BDB681B881A46144B85
:100540009A61134BDB685B68114AD36113E0019B2E
:100550000F4A13610E4B1B699B680D4A53610C4B8C
:100560001B691B881A460A4B9A61094B1B695B6819
:10057000074AD36100BF72B600BF00BF9DF81730B5
:10058000DBB2002BFAD162B600BF00BF06B07047E5
:100590000400002000B587B0039002910192039BF4
:1005A00044F20102934207D0039B44F202029342B9
:1005B00005D1019B059303E0019B049300E000BF7C
:1005C000074B1B6803F00103002B00D0FFDE019AEC
:1005D00002990398FFF790FF00BF07B05DF804FB96
:1005E000F0ED00E072B600BF034B1B680133024A16
:1005F000136000BF704700BF24000020064B1B683B
:10060000013B054A1360044B1B68002B01D162B605
:1006100000BF00BF704700BF2400002000B583B0BA
:10062000019000F025F80346012B03D00449432034
:1006300000F03BF8FFF7D6FF00BF03B05DF804FB06
:10064000FC18000000B583B003468DF8073000F0B9
:100650000FF80346012B03D00449512000F025F880
:10066000FFF7CCFF00BF03B05DF804FBFC180000EF
:1006700084B0EFF305830193019BC3F30803039355
:10068000039B002B0DD1EFF314830093009B029387
:10069000029B03F00103002B0CBF01230023DBB2FC
:1006A00000E00123184604B0704700B585B003464A
:1006B0000091ADF80630BDF80630ADF80830009B6B
:1006C000039302AB1A46002144F20200FFF762FFD7
:1006D00000BF05B05DF804FB82B003468DF807301B
:1006E0009DF8073003F01F0205499DF907305B09AB
:1006F000012000FA02F241F8232000BF02B0704747
:1007000000E100E082B003468DF807309DF8073025
:1007100003F01F0206499DF907305B09012000FA2A
:1007200002F2603341F8232000BF02B0704700BFDF
:1007300000E100E082B0034600918DF807309DF99A
:100740000730002B0CDA009BDAB20C499DF8073019
:1007500003F00F03043B5201D2B20B441A7609E0B6
:10076000009BDAB206499DF907305201D2B20B4420
:1007700083F8002300BF02B0704700BF00ED00E027
:1007800000E100E000B583B003460A468DF807306B
:1007900013468DF806309DF80630072B04D90D4915
:1007A0004FF49270FFF781FF9DF806209DF9073006
:1007B00011461846FFF7BEFF9DF907301846FFF7B0
:1007C000A1FF9DF907301846FFF786FF00BF03B071
:1007D0005DF804FB6C19000082B003468DF8073009
:1007E0009DF8073003F1804303F5E04301221A60CE
:1007F00000BF02B0704782B00346ADF80630BDF8C6
:10080000063003F1804303F5E0431B68002B14BF5F
:1008100001230023DBB2184602B0704784B00346C0
:10082000ADF80630BDF8063003F1804303F5E04330
:1008300000221A60BDF8063003F1804303F5E0435F
:100840001B680393039B00BF04B0704782B0019004
:100850000091054A019BC2F82C36034A009BC2F85E
:10086000303600BF02B070470070004000B58DB058
:100870004FF48270FFF7BFFF0346002B46D04FF4C2
:100880008270FFF7CBFF8C4B93F82E3083F001037F
:10089000DBB2002B04D1884B93F82F30002B35D0DE
:1008A00000238DF81830844B5B680793824B1B89BB
:1008B0009BB2ADF82030804BDB68002B03D17E4B20
:1008C00000221A7419E07C4B1A8B7B4B5A837A4BAB
:1008D000DB68794A5360784B1A8B774B1A81764BD9
:1008E0000022DA60744B93F82E3083F00103DBB200
:1008F000002B02D00020FFF76FFF6F4B1B6806AA8A
:10090000104698476C4B002283F82F206A4B93F8CF
:100910002E30002B62D04FF48070FFF76CFF03463F
:10092000002B5BD04FF48070FFF778FF624B5A8B3F
:10093000614B93F82D309BB29A421CD95E4B5A8B77
:100940005D4B93F82D309BB2D31A9AB25A4B5A830F
:10095000594B5A68584B1B899BB21946564B5B8BB7
:10096000CB1A5B001344544A92F82D2011461846C6
:10097000FFF76CFF2BE0504B5A8B4F4B93F82D3009
:100980009BB29A4214D14C4BDB68002B10D04A4BDF
:10099000012283F82F20484B00225A83464BDB6804
:1009A000454A92F82D2011461846FFF74FFF0EE0FA
:1009B000414B5A8B404B93F82D309BB29A4206D153
:1009C0003D4B012283F82F203B4B00225A834FF4EA
:1009D0008270FFF723FF0420FFF7FEFE4FF48870BC
:1009E000FFF709FF0346002B0ED04FF48870FFF786
:1009F00015FF314B00221A7402238DF80C302E4B58
:100A00001B6803AA104698474FF48A70FFF7F3FE5D
:100A10000346002B07D04FF48A70FFF7FFFE264BEA
:100A200000221A7444E0244B5B690B933DE00B9B5E
:100A3000B3FA83F30A934FF000420A9B22FA03F3BE
:100A4000DB430B9A13400B930A9B9BB246339BB23A
:100A50009B00ADF82630BDF826301846FFF7CBFED8
:100A60000346002B21D0BDF826301846FFF7D6FEEE
:100A700001238DF80030BDF82630A3F58C73DB0818
:100A8000DBB28DF80430BDF82630A3F58C7303F08B
:100A90000403002B0CBF01230023DBB28DF80530CB
:100AA000054B1B686A46104698470B9B002BBED12E
:100AB00000BF0DB05DF804FB2800002082B001905B
:100AC0004FF08042019BC2F8043300BF02B0704770
:100AD00082B001904FF08042019BC2F8083300BF02
:100AE00002B0704782B003468DF807309DF807309A
:100AF00003F1804301221A6000BF02B0704784B046
:100B00000346ADF80630BDF8063003F180430022FD
:100B10001A60BDF8063003F180431B680393039B02
:100B200000BF04B0704782B00346ADF80630BDF890
:100B3000063003F180431B68002B14BF0123002300
:100B4000DBB2184602B0704782B003468DF807301A
:100B50009DF807304FF0804203F00303C2F81835C8
:100B600000BF02B07047000082B003468DF8073026
:100B70000A4A9DF907305B0952F823209DF8073097
:100B800003F01F03012101FA03F31340002B14BFEC
:100B900001230023DBB2184602B0704700E100E0F9
:100BA00008B50020FFF7E0FF034683F00103DBB246
:100BB000002B03D007210020FFF7E4FD00BF08BD94
:100BC00008B54FF48270FFF79AFF0220FFF776FF17
:100BD0000820FFF787FF00BF08BD000000B583B005
:100BE000002301930F4B1B78002B02D08523019328
:100BF00013E00C4B00229A600A4B00225A60094B0A
:100C000000221A61074B0022DA60FFF7C9FF0120BA
:100C1000FFF79AFF034B01221A70019B184603B09D
:100C20005DF804FB5800002084B001900091019B06
:100C30001B68039306E0039A009B9A420DD0039B26
:100C40001B680393039B002BF5D1019B1A68009B43
:100C50001A60019B009A1A6000E000BF04B0704760
:100C600084B00190019B1B680393039B002B03D06E
:100C7000039B1A68019B1A60039B184604B07047D7
:100C800000B583B00190224B1B78002B03D1214982
:100C9000FB20FFF70AFD1E4B9B78DBB2002B12D026
:100CA000019B002B03D0019B5B680120984700202B
:100CB000FFF7B4FC164BDB680133154AD360002004
:100CC000FFF7C0FC17E00020FFF7A8FC019B002BFA
:100CD00003D001991048FFF7A7FF0D4BDB68002BED
:100CE00001D1FFF76DFF0A4BDB680133084AD3607F
:100CF0000020FFF7A7FC064BDB68002B04D1054959
:100D000040F21710FFF7D1FC00BF03B05DF804FB01
:100D100058000020DC1900006800002000B585B0F4
:100D200003468DF807309DF80730002B02D10C4B9D
:100D3000039301E00B4B03930398FFF791FF02909D
:100D4000029B002B06D0029B5B689DF80720104693
:100D50009847F1E700BF00BF05B05DF804FB00BF96
:100D6000600000206800002008B54FF48070FFF795
:100D7000DAFE0346002B0CD04FF48070FFF7BFFE65
:100D80000120FFF7A5FE0E4B01225A700020FFF74D
:100D9000C5FF4FF48270FFF7C6FE0346002B0CD050
:100DA0004FF48270FFF7ABFE0220FFF791FE044B79
:100DB00001229A700120FFF7B1FF00BF08BD00BFFC
:100DC0005800002082B001900091019B009AC3F866
:100DD000042300BF02B0704782B001900091019BD4
:100DE000009AC3F8082300BF02B0704782B0019098
:100DF0000091019BD3F80423009B1340184602B0D6
:100E0000704782B001900B46ADF80230BDF8023059
:100E1000019A13441B68184602B0704784B00190D1
:100E20000B46ADF80230BDF80230019A134400229F
:100E30001A60BDF80230019A13441B680393039BA8
:100E400000BF04B07047000000B583B0019000916E
:100E5000009BB3F5805F04D3064940F23110FFF7E1
:100E600024FC019B009AC3F8082500BF03B05DF87D
:100E700004FB00BF4C1A000082B001900B468DF8B5
:100E800003309DF80320019B13441A46012313608D
:100E900000BF02B0704782B001900091019B009AA0
:100EA000C3F8442300BF02B0704782B001900091A4
:100EB000019B009AC3F8482300BF02B070470000AE
:100EC00000B587B0039002910192029B002B03D1E1
:100ED0002E495520FFF7E9FB019B002B12D0039B05
:100EE0005B7919462A4A019B42F82130039B5B79C2
:100EF0001946284A0B465B000B4413441B78002B11
:100F000008D003E007230593059B3BE008230593E6
:100F1000059B37E0039B93F90420029B9B781946BD
:100F20001046FFF72FFC039B1A68029B1B8819468B
:100F30001046FFF789FF039B5B791946029B1879DE
:100F4000144A0B465B000B441344013302461A70EB
:100F5000039B5B791946029BD8780E4A0B465B00CF
:100F60000B441344023302461A70039B5B79194603
:100F7000084A0B465B000B44134401221A700023FD
:100F80000593059B184607B05DF804FB841A000022
:100F90006C0000207000002000B583B00190019B20
:100FA0005B7919460F4A0B465B000B4413441B78D0
:100FB000012B03D00C498C20FFF777FB019B1B68AA
:100FC00000211846FFF758FF019B5B791946054A37
:100FD0000B465B000B44134402221A7000BF03B09F
:100FE0005DF804FB70000020841A000000B585B095
:100FF00001900B468DF803304FF48073ADF80E303E
:1010000001230293019B1B68BDF80E201146184670
:10101000FFF704FF019B1B6802991846FFF73BFF8F
:101020009DF80330002B05D0019B1B6802991846E0
:10103000FFF7C8FE00BF05B05DF804FB00B589B03E
:101040000390029101924FF4803306934FF4A07302
:10105000ADF816300023079330E006990398FFF7A8
:10106000C5FE0346002B1ED0BDF816301946039866
:10107000FFF7C7FE0346002B15D006990398FFF72C
:1010800014FF06990398FFF7A7FEBDF8163019461E
:101090000398FFF7C3FE2D4A029B52F82330079AAC
:1010A000D2B210469847069B5B000693BDF81630F7
:1010B0000433ADF81630079B01330793079A019B61
:1010C0009A42CAD34FF48073ADF8163001210398C9
:1010D000FFF78CFE0346002B14D0BDF816301946DE
:1010E0000398FFF78EFE0346002B0BD0BDF8163099
:1010F00019460398FFF792FE144A029B52F82330D8
:10110000042098474FF48273ADF8163002210398FB
:10111000FFF76CFE0346002B14D0BDF816301946BD
:101120000398FFF76EFE0346002B0BD0BDF8163078
:1011300019460398FFF772FE044A029B52F82330C7
:101140000520984700BF09B05DF804FB6C00002043
:1011500008B5042200210248FFF770FF00BF08BD58
:101160000040024008B5FFF795F900F027FB00F0BA
:1011700049FB40BF00BF20BF00BF20BF00BFF8E752
:10118000BFF34F8F00BF074BDB6803F4E0620549F4
:10119000054B1343CB60BFF34F8F00BF00BF00BFB1
:1011A000FCE700BF00ED00E00400FA05024B034A33
:1011B0001A6000BF704700BF000000200090D003FD
:1011C00008B500F05DF90346002B06D09B4B1B6869
:1011D0001B0A9B4A03F01F03136000F07DF90346CE
:1011E000002B02D0974B984A1A6000F091F9034601
:1011F000002B06D0954B1B685B0B954A03F0070349
:10120000136000F0B1F90346002B05D0914BDB6869
:10121000904A23F08073D36000F0C2F90346002B9C
:101220000ED04FF080430022C3F80C214FF08043D2
:101230000022C3F810214FF080430022C3F8382564
:1012400000F0DAF90346002B02D0834B03221A6028
:1012500000F0EEF90346002B0BD0804B05221A60FC
:101260007F4B01221A607F4B00221A607E4B3F2287
:101270001A6000F0F9F90346002B76D04FF0805346
:101280007A4AD3F80434C2F820354FF08053774AB5
:10129000D3F80834C2F824354FF08053734AD3F89A
:1012A0000C34C2F828354FF08053704AD3F810340C
:1012B000C2F82C354FF080536C4AD3F81434C2F87E
:1012C00030354FF08053694AD3F81834C2F83435BA
:1012D0004FF08053654AD3F81C34C2F840354FF0C4
:1012E0008053624AD3F82034C2F844354FF080531B
:1012F0005E4AD3F82434C2F848354FF080535B4A35
:10130000D3F82834C2F84C354FF08053574AD3F8FD
:101310002C34C2F850354FF08053544AD3F830344F
:10132000C2F854354FF08053504AD3F83434C2F8E1
:1013300060354FF080534D4AD3F83834C2F86435E5
:101340004FF08053494AD3F83C34C2F868354FF027
:101350008053464AD3F84034C2F86C354FF080537E
:10136000424AD3F84434C2F8703500F099F9034684
:10137000002B05D03E4B1B683E4A03F04F03136021
:1013800000F0BAF90346002B0DD04FF08043D3F89C
:10139000003403F00103002B05D04FF080436FF0C1
:1013A0000102C3F80024344BD3F88830324A43F4A6
:1013B0007003C2F88830BFF34F8F00BFBFF36F8F49
:1013C00000BF4FF01023D3F80032002B05DB4FF0A5
:1013D0001023D3F80432002B2BDA284B0122C3F858
:1013E000042500BF254BD3F80034002BFAD04FF072
:1013F00010231522C3F8002200BF204BD3F800347D
:10140000002BFAD04FF010231522C3F8042200BF9E
:101410001A4BD3F80034002BFAD0184B0022C3F833
:10142000042500BF154BD3F80034002BFAD0FFF78A
:10143000A7FEFFF7BBFE00BF08BD00BF24030010DE
:101440004035014074C007400DF0ADBA44020010B1
:101450003C050040F0ED00E0A005004010560040C3
:1014600088560040185600401456004000C0004006
:1014700058020010E40E004000ED00E000E00140E2
:10148000124B1B68DBB2062B1DD1114B1B6803F0FE
:101490000F03002B17D10F4B1B6803F0F003302B09
:1014A00001D1012310E00B4B1B6803F0F003402B2C
:1014B00001D1012308E0074B1B6803F0F003502B18
:1014C00001D1012300E0002318467047E00F00F02F
:1014D000E40F00F0E80F00F00A4B1B68DBB2062BAC
:1014E0000DD1094B1B6803F00F03002B07D1074BED
:1014F0001B6803F0F003302B01D1012300E000232F
:1015000018467047E00F00F0E40F00F0E80F00F01D
:10151000124B1B68DBB2062B1DD1114B1B6803F06D
:101520000F03002B17D10F4B1B6803F0F003302B78
:1015300001D1012310E00B4B1B6803F0F003402B9B
:1015400001D1012308E0074B1B6803F0F003502B87
:1015500001D1012300E0002318467047E00F00F09E
:10156000E40F00F0E80F00F00A4B1B68DBB2062B1B
:101570000DD1094B1B6803F00F03002B07D1074B5C
:101580001B6803F0F003302B01D1012300E000239E
:1015900018467047E00F00F0E40F00F0E80F00F08D
:1015A000124B1B68DBB2062B1DD1114B1B6803F0DD
:1015B0000F03002B17D10F4B1B6803F0F003302BE8
:1015C00001D1012310E00B4B1B6803F0F003402B0B
:1015D00001D1012308E0074B1B6803F0F003502BF7
:1015E00001D1012300E0002318467047E00F00F00E
:1015F000E40F00F0E80F00F00A4B1B68DBB2062B8B
:101600000DD1094B1B6803F00F03002B07D1074BCB
:101610001B6803F0F003302B01D1012300E000230D
:1016200018467047E00F00F0E40F00F0E80F00F0FC
:101630000A4B1B68DBB2062B0DD1094B1B6803F06C
:101640000F03002B07D1074B1B6803F0F003302B6F
:1016500001D1012300E0002318467047E00F00F09D
:10166000E40F00F0E80F00F00A4B1B68DBB2062B1A
:101670000DD1094B1B6803F00F03002B07D1074B5B
:101680001B6803F0F003502B01D1012300E000237D
:1016900018467047E00F00F0E40F00F0E80F00F08C
:1016A000124B1B68DBB2062B1DD1114B1B6803F0DC
:1016B0000F03002B17D10F4B1B6803F0F003302BE7
:1016C00001D1012310E00B4B1B6803F0F003402B0A
:1016D00001D1012308E0074B1B6803F0F003502BF6
:1016E00001D1012300E0002318467047E00F00F00D
:1016F000E40F00F0E80F00F0124B1B68DBB2062B82
:101700001DD1114B1B6803F00F03002B17D10F4B9A
:101710001B6803F0F003302B01D1012310E00B4BC9
:101720001B6803F0F003402B01D1012308E0074BB5
:101730001B6803F0F003502B01D1012300E00023CC
:1017400018467047E00F00F0E40F00F0E80F00F0DB
:1017500000B583B00190019B1B681F2B04D905497C
:101760004FF4E870FEF7A1FF4FF0A043184603B016
:101770005DF804FBF01A000000B585B0019001ABE4
:101780001846FFF7E5FF0390039BD3F80435029357
:10179000029BDA43019B012101FA03F31A40039BE8
:1017A000C3F80825019B01229A40029B1A40039B23
:1017B000C3F80C2500BF05B05DF804FB00B583B08D
:1017C000FFF70CFA0190019B0093009B002B04D0C3
:1017D000054A1D210098FEF777FE0020FFF750FA1A
:1017E00000BF03B05DF804FB281B000000B583B008
:1017F00003468DF807301120FFF7BEFF00BF03B08E
:101800005DF804FB00B585B0124A6B4692E8030010
:101810001860043319805D23ADF800306B460E4A22
:1018200019460E48FFF74CFB0390039B0293029B63
:10183000002B04D00A4A2A210298FEF745FE012116
:101840000648FFF7D3FB0548FFF7A6FB00BF05B02E
:101850005DF804FB9C1B0000ED170000A41B0000BA
:04186000281B000041
:101864002E2E2F2E2E2F2E2E2F2E2E2F2E2E2F2E8F
:101874002E2F636F6D706F6E656E74732F64726953
:10188400766572735F6E72662F68616C2F6E726616
:101894005F6770696F2E6800433A5C5573657273B5
:1018A4005C74686572755C4465736B746F705C54CA
:1018B4006573695C46494C455F54455349535449E3
:1018C4005C6E5246355F53444B5F31342E322E30BA
:1018D4005F313762393438615C636F6D706F6E6588
:1018E4006E74735C626F617264735C626F61726464
:1018F400732E630011121314433A5C5573657273AB
:101904005C74686572755C4465736B746F705C5469
:101914006573695C46494C455F5445534953544982
:101924005C6E5246355F53444B5F31342E322E3059
:101934005F313762393438615C636F6D706F6E6527
:101944006E74735C6C69627261726965735C7574E0
:10195400696C5C6170705F7574696C5F706C6174E4
:10196400666F726D2E630000433A5C557365727343
:101974005C74686572755C4465736B746F705C54F9
:101984006573695C46494C455F5445534953544912
:101994005C6E5246355F53444B5F31342E322E30E9
:1019A4005F313762393438615C636F6D706F6E65B7
:1019B4006E74735C647269766572735F6E72665C72
:1019C400636F6D6D6F6E5C6E72665F6472765F637B
:1019D4006F6D6D6F6E2E6300433A5C557365727361
:1019E4005C74686572755C4465736B746F705C5489
:1019F4006573695C46494C455F54455349535449A2
:101A04005C6E5246355F53444B5F31342E322E3078
:101A14005F313762393438615C636F6D706F6E6546
:101A24006E74735C647269766572735F6E72665C01
:101A3400636C6F636B5C6E72665F6472765F636C1B
:101A44006F636B2E630000002E2E2F2E2E2F2E2E52
:101A54002F2E2E2F2E2E2F2E2E2F636F6D706F6E26
:101A6400656E74732F647269766572735F6E7266E5
:101A74002F68616C2F6E72665F7274632E6800004B
:101A8400433A5C55736572735C74686572755C4443
:101A940065736B746F705C546573695C46494C453F
:101AA4005F544553495354495C6E5246355F534421
:101AB4004B5F31342E322E305F3137623934386126
:101AC4005C636F6D706F6E656E74735C647269765F
:101AD4006572735F6E72665C7274635C6E72665F6D
:101AE4006472765F7274632E630000002E2E2F2EB4
:101AF4002E2F2E2E2F2E2E2F2E2E2F2E2E2F636F87
:101B04006D706F6E656E74732F647269766572732F
:101B14005F6E72662F68616C2F6E72665F677069A4
:101B24006F2E6800433A5C55736572735C74686524
:101B340072755C4465736B746F705C546573695C37
:101B440046494C455F544553495354495C6E52468B
:101B5400355F53444B5F31342E322E305F31376260
:101B6400393438615C6578616D706C65735C70657F
:101B7400726970686572616C5C73616164635C70E6
:101B8400636131303034305C626C616E6B5C736500
:101B9400735C7274632E6300000007410000000050
:081BA40000400240240004008F
:041BAC000090D003D2
:0400000300000239BE
:00000001FF
