:020000022000DC
:1030000000000120393202009132020093320200A6
:10301000953202009732020099320200000000004F
:103020000000000000000000000000009B320200D1
:103030009D320200000000009F320200A132020017
:10304000A5320200A7320200A9320200AB32020010
:10305000AD320200AF320200B1320200B3320200E0
:10306000B5320200B7320200B9320200BB320200B0
:10307000BD320200BF320200C1320200C332020080
:10308000C5320200C7320200C9320200CB32020050
:10309000CD320200CF320200A53E0200D332020040
:1030A000D5320200D7320200D9320200DB320200F0
:1030B000DD320200DF320200A3320200A33202003E
:1030C000E1320200E3320200E5320200E7320200A0
:0C30D000E9320200EB320200ED32020097
:1030DC00354936480A1A02D0072291438D463449A5
:1030EC0034480A1A06D00722914381F30988022238
:1030FC0082F3148830483149314A00F044F83148A1
:10310C003149324A00F03FF831483249324A00F036
:10311C003AF832483249334A00F035F832483349EC
:10312C00334A00F030F833483349344A00F02BF876
:10313C0033483449344A00F026F8344834490022E4
:10314C0000F02CF833483449002200F027F83348BB
:10315C003349091A082902DB002202604160314A16
:10316C0090471F481F49884205D00268043003B4B9
:10317C00904703BCF7E700208646EC460020002170
:10318C00294A9047FEE7884207D0521A05D00378A7
:10319C0001300B700131013AF9D17047884202D0ED
:1031AC0002700130FAE770470000012000F800209F
:1031BC000000012000000120804102006856002020
:1031CC006C560020F0320200F0320200543F020034
:1031DC008041020068560020685600205C3F0200C7
:1031EC005C3F02005C3F02005C3F02005C3F02005F
:1031FC005C3F02005C3F02005C3F02008041020029
:10320C00844102006C5600206C5600206C56002045
:10321C008C5600208C5600208C5600208C5600209A
:10322C008C5800205D3202007F3902000F484FF0AD
:10323C000701884385460E4880470E48016841F4D3
:10324C0070010160BFF34F8FBFF36F8FFFF740BF6B
:10325C0009480A490A4A884207D0521A05D003780D
:10326C0001300B700131013AF9D170470000012097
:10327C003133020088ED00E05C3F0200685600200C
:10328C0068560020FEE7FEE7FEE7FEE7FEE7FEE7F6
:10329C00FEE7FEE7FEE7FEE7FEE7FEE7FEE7FEE7FA
:1032AC00FEE7FEE7FEE7FEE7FEE7FEE7FEE7FEE7EA
:1032BC00FEE7FEE7FEE7FEE7FEE7FEE7FEE7FEE7DA
:1032CC00FEE7FEE7FEE7FEE7FEE7FEE7FEE7FEE7CA
:1032DC00FEE7FEE7FEE7FEE7FEE7FEE7FEE7FEE7BA
:0432EC00FEE700BF3A
:1032F000BFF34F8F00BF074BDB6803F4E062054963
:10330000054B1343CB60BFF34F8F00BF00BF00BF1F
:10331000FCE700BF00ED00E00400FA05024B034AA1
:103320001A6000BF704700BF685600200090D003AD
:1033300008B500F05DF90346002B06D09B4B1B68D7
:103340001B0A9B4A03F01F03136000F07DF903463C
:10335000002B02D0974B984A1A6000F091F903466F
:10336000002B06D0954B1B685B0B954A03F00703B7
:10337000136000F0B1F90346002B05D0914BDB68D8
:10338000904A23F08073D36000F0C2F90346002B0B
:103390000ED04FF080430022C3F80C214FF0804341
:1033A0000022C3F810214FF080430022C3F83825D3
:1033B00000F0DAF90346002B02D0834B03221A6097
:1033C00000F0EEF90346002B0BD0804B05221A606B
:1033D0007F4B01221A607F4B00221A607E4B3F22F6
:1033E0001A6000F0F9F90346002B76D04FF08053B5
:1033F0007A4AD3F80434C2F820354FF08053774A24
:10340000D3F80834C2F824354FF08053734AD3F808
:103410000C34C2F828354FF08053704AD3F810347A
:10342000C2F82C354FF080536C4AD3F81434C2F8EC
:1034300030354FF08053694AD3F81834C2F8343528
:103440004FF08053654AD3F81C34C2F840354FF032
:103450008053624AD3F82034C2F844354FF0805389
:103460005E4AD3F82434C2F848354FF080535B4AA3
:10347000D3F82834C2F84C354FF08053574AD3F86C
:103480002C34C2F850354FF08053544AD3F83034BE
:10349000C2F854354FF08053504AD3F83434C2F850
:1034A00060354FF080534D4AD3F83834C2F8643554
:1034B0004FF08053494AD3F83C34C2F868354FF096
:1034C0008053464AD3F84034C2F86C354FF08053ED
:1034D000424AD3F84434C2F8703500F099F90346F3
:1034E000002B05D03E4B1B683E4A03F04F03136090
:1034F00000F0BAF90346002B0DD04FF08043D3F80B
:10350000003403F00103002B05D04FF080436FF02F
:103510000102C3F80024344BD3F88830324A43F414
:103520007003C2F88830BFF34F8F00BFBFF36F8FB7
:1035300000BF4FF01023D3F80032002B05DB4FF013
:103540001023D3F80432002B2BDA284B0122C3F8C6
:10355000042500BF254BD3F80034002BFAD04FF0E0
:1035600010231522C3F8002200BF204BD3F80034EB
:10357000002BFAD04FF010231522C3F8042200BF0D
:103580001A4BD3F80034002BFAD0184B0022C3F8A2
:10359000042500BF154BD3F80034002BFAD0FFF7F9
:1035A000A7FEFFF7BBFE00BF08BD00BF240300104D
:1035B0004035014074C007400DF0ADBA4402001020
:1035C0003C050040F0ED00E0A00500401056004032
:1035D00088560040185600401456004000C0004075
:1035E00058020010E40E004000ED00E000E0014051
:1035F000124B1B68DBB2062B1DD1114B1B6803F06D
:103600000F03002B17D10F4B1B6803F0F003302B77
:1036100001D1012310E00B4B1B6803F0F003402B9A
:1036200001D1012308E0074B1B6803F0F003502B86
:1036300001D1012300E0002318467047E00F00F09D
:10364000E40F00F0E80F00F00A4B1B68DBB2062B1A
:103650000DD1094B1B6803F00F03002B07D1074B5B
:103660001B6803F0F003302B01D1012300E000239D
:1036700018467047E00F00F0E40F00F0E80F00F08C
:10368000124B1B68DBB2062B1DD1114B1B6803F0DC
:103690000F03002B17D10F4B1B6803F0F003302BE7
:1036A00001D1012310E00B4B1B6803F0F003402B0A
:1036B00001D1012308E0074B1B6803F0F003502BF6
:1036C00001D1012300E0002318467047E00F00F00D
:1036D000E40F00F0E80F00F00A4B1B68DBB2062B8A
:1036E0000DD1094B1B6803F00F03002B07D1074BCB
:1036F0001B6803F0F003302B01D1012300E000230D
:1037000018467047E00F00F0E40F00F0E80F00F0FB
:10371000124B1B68DBB2062B1DD1114B1B6803F04B
:103720000F03002B17D10F4B1B6803F0F003302B56
:1037300001D1012310E00B4B1B6803F0F003402B79
:1037400001D1012308E0074B1B6803F0F003502B65
:1037500001D1012300E0002318467047E00F00F07C
:10376000E40F00F0E80F00F00A4B1B68DBB2062BF9
:103770000DD1094B1B6803F00F03002B07D1074B3A
:103780001B6803F0F003302B01D1012300E000237C
:1037900018467047E00F00F0E40F00F0E80F00F06B
:1037A0000A4B1B68DBB2062B0DD1094B1B6803F0DB
:1037B0000F03002B07D1074B1B6803F0F003302BDE
:1037C00001D1012300E0002318467047E00F00F00C
:1037D000E40F00F0E80F00F00A4B1B68DBB2062B89
:1037E0000DD1094B1B6803F00F03002B07D1074BCA
:1037F0001B6803F0F003502B01D1012300E00023EC
:1038000018467047E00F00F0E40F00F0E80F00F0FA
:10381000124B1B68DBB2062B1DD1114B1B6803F04A
:103820000F03002B17D10F4B1B6803F0F003302B55
:1038300001D1012310E00B4B1B6803F0F003402B78
:1038400001D1012308E0074B1B6803F0F003502B64
:1038500001D1012300E0002318467047E00F00F07B
:10386000E40F00F0E80F00F0124B1B68DBB2062BF0
:103870001DD1114B1B6803F00F03002B17D10F4B09
:103880001B6803F0F003302B01D1012310E00B4B38
:103890001B6803F0F003402B01D1012308E0074B24
:1038A0001B6803F0F003502B01D1012300E000233B
:1038B00018467047E00F00F0E40F00F0E80F00F04A
:1038C00084B00190244B0393019B002B40D0234BE9
:1038D0001A680399019B00BF00BF00BF00BF00BF73
:1038E00000BF00BF00BF8A422FD000BF00BF00BF93
:1038F00000BF00BF00BF00BF00BF00BF00BF00BFD0
:1039000000BF00BF00BF00BF00BF00BF00BF00BFBF
:1039100000BF00BF00BF00BF00BF00BF00BF00BFAF
:1039200000BF00BF00BF00BF00BF00BF00BF00BF9F
:1039300000BF00BF00BF00BF00BF00BF00BF00BF8F
:1039400000BF00BF00BF00BF00BF013BC3D1019358
:1039500000BF04B0704700BF0024F4006856002088
:1039600000B583B00190019B4FF47A7202FB03F320
:103970001846FFF7A5FF00BF03B05DF804FB00B5D4
:1039800083B000F021F9002301930AE0019B18465F
:1039900000F000F94FF4FA70FFF7E2FF019B0133EA
:1039A0000193019B032BF1DDEDE7000000B583B02F
:1039B0000190019B1B681F2B04D905494FF4E87047
:1039C00000F0C2F94FF0A043184603B05DF804FBC5
:1039D0005C3F020000B585B00190084611461A46CA
:1039E00003468DF803300B468DF8023013468DF8F0
:1039F000013001AB1846FFF7D9FF03909DF8032073
:103A00009DF802305B001A439DF801309B001A4379
:103A10009DF818301B0242EA03019DF81C301B047C
:103A2000019A1943039B02F5E07243F8221000BF8C
:103A300005B05DF804FB00B585B003900023019349
:103A4000002300930023012201210398FFF7C2FF06
:103A500000BF05B05DF804FB00B585B0019001AB77
:103A60001846FFF7A3FF0390019B012202FA03F31C
:103A70001946039800F04CF800BF05B05DF804FB50
:103A800000B585B0019001AB1846FFF78FFF03909A
:103A9000019B012202FA03F31946039800F042F851
:103AA00000BF05B05DF804FB00B585B0019001AB27
:103AB0001846FFF77BFF0390039BD3F8043502936E
:103AC000029BDA43019B012101FA03F31A40039B95
:103AD000C3F80825019B01229A40029B1A40039BD0
:103AE000C3F80C2500BF05B05DF804FB00B583B03A
:103AF00001900091009B002B03D10198FFF7C0FFBC
:103B000002E00198FFF7A8FF00BF03B05DF804FBD7
:103B100082B001900091019B009AC3F8082500BF74
:103B200002B0704782B001900091019B009AC3F8E7
:103B30000C2500BF02B0704700B583B00190019B17
:103B4000032B03D90749442000F0FEF8064A019BE5
:103B500013441B7801211846FFF7C8FF00BF03B0CC
:103B60005DF804FB943F0200CC3F020000B583B037
:103B70000023019305E00198FFF7DEFF019B01336D
:103B80000193019B032BF6D900BF00BF03B05DF882
:103B900004FB000000B583B00190019B032B03D907
:103BA00007495C2000F0D0F8064A019B13441B78BB
:103BB0001846FFF779FF00BF03B05DF804FB00BFB4
:103BC000943F0200CC3F020000B583B00023019374
:103BD00009E0094A019B13441B781846FFF72BFFA5
:103BE000019B01330193019B032BF2D9FFF7BEFF29
:103BF00000BF03B05DF804FBCC3F020000B589B004
:103C0000039002910192029B9BB2ADF81430019B8C
:103C10000693039B079305AB1A46002144F201006B
:103C200000F052F800BF09B05DF804FB86B00390C5
:103C30000291019201238DF817309DF81730214A27
:103C4000039B13601F4A029B53601E4A019B9360B3
:103C5000039B44F20102934213D0039B44F20202FD
:103C6000934222D1019B174AD360164BDB681B8815
:103C70001A46144B9A61134BDB685B68114AD36197
:103C800013E0019B0F4A13610E4B1B699B680D4AA1
:103C900053610C4B1B691B881A460A4B9A61094BEE
:103CA0001B695B68074AD36100BF72B600BF00BFE3
:103CB0009DF81730DBB2002BFAD162B600BF00BF0F
:103CC00006B070476C56002000B587B00390029193
:103CD0000192039B44F20202934217D0039B44F2E9
:103CE0000202934218D8039B44F20102934210D07F
:103CF000039B44F2010293420ED8039B012B0DD08B
:103D0000039B41F2010293420AD005E0019B059317
:103D100007E0019B049304E000BF02E000BF00E065
:103D200000BF084B1B6803F00103002B00D0FFDE2F
:103D3000019A02990398FFF779FF00BF07B05DF879
:103D400004FB00BFF0ED00E000B585B00346009134
:103D5000ADF80630BDF80630ADF80830009B03938F
:103D600002AB1A46002144F20200FFF7ADFF00BF8C
:103D700005B05DF804FB000000B583B00190009130
:103D8000019B002B03D110495020FFF7DDFF009B62
:103D9000002B03D10C495120FFF7D6FF019B009A5D
:103DA0001A60019B1B681A68019B5A60019B5A6844
:103DB000019B1B685B689A4202D1019B00225A60FA
:103DC00000BF03B05DF804FBD03F020000B583B034
:103DD0000190019B002B03D114496320FFF7B4FF2E
:103DE000019B1B68002B03D110496420FFF7ACFF37
:103DF000019B5B68002B14D0019B5B681A46019BFA
:103E00001B689B6813441A46019B5A60019B5A68C1
:103E1000019B1B685B689A4204D1019B00225A6097
:103E200000E000BF03B05DF804FB00BFD03F02001C
:103E300000B583B00190019B002B03D10449C4203D
:103E4000FFF782FF019B5B68184603B05DF804FB37
:103E50003040020000B585B06B4611491846FFF7A7
:103E60008BFF10E06B461846FFF7E2FF0390039BC1
:103E70001B680293039B5A68029B104698476B4647
:103E80001846FFF7A3FF6B461846FFF7D1FF03461E
:103E9000002BE7D100BF00BF05B05DF804FB00BFF9
:103EA000CC40020008B5FFF7D5FF00BF08BD0000F9
:103EB00000B583B00190019B002B03D10449C420BD
:103EC000FFF742FF019B5B68184603B05DF804FBF7
:103ED000D840020048DF704700BF184600B589B0DF
:103EE000019004AB1846FFF7F5FF0790079B002BE6
:103EF00003D0079B052B20D124E002AB13491846C1
:103F0000FFF73AFF11E002AB1846FFF7D1FF06902A
:103F1000069B1B680593049A069B5968059B1046EF
:103F2000984702AB1846FFF751FF02AB1846FFF760
:103F3000BFFF0346002BE6D1D3E7054A6B21079864
:103F4000FFF75CFE00BF09B05DF804FB744102009E
:043F50002C410200FE
:083F5400DD3E02000000000048
:103F5C002E2E2F2E2E2F2E2E2F2E2E2F2E2E2F2E70
:103F6C002E2F636F6D706F6E656E74732F64726934
:103F7C00766572735F6E72662F68616C2F6E7266F7
:103F8C005F6770696F2E6800433A5C557365727396
:103F9C005C74686572755C4465736B746F705C6E91
:103FAC0052465C636F6D706F6E656E74735C626F9E
:103FBC00617264735C626F617264732E63000000E3
:103FCC0011121314433A5C55736572735C74686513
:103FDC0072755C4465736B746F705C6E52465C6397
:103FEC006F6D706F6E656E74735C6C69627261720A
:103FFC006965735C6578706572696D656E74616C0A
:10400C005F73656374696F6E5F766172735C6E72F9
:10401C00665F73656374696F6E5F697465722E6336
:10402C00000000002E2E2F2E2E2F2E2E2F2E2E2F58
:10403C002E2E2F2E2E2F636F6D706F6E656E747318
:10404C002F6C69627261726965732F657870657225
:10405C00696D656E74616C5F73656374696F6E5FB7
:10406C00766172732F6E72665F73656374696F6EBF
:10407C005F697465722E6800433A5C5573657273A0
:10408C005C74686572755C4465736B746F705C6EA0
:10409C0052465C636F6D706F6E656E74735C736F9C
:1040AC0066746465766963655C636F6D6D6F6E5C79
:1040BC006E72665F7364682E630000000100000777
:1040CC00543F02005C3F0200080000002E2E2F2EF1
:1040DC002E2F2E2E2F2E2E2F2E2E2F2E2E2F636F79
:1040EC006D706F6E656E74732F6C6962726172693C
:1040FC0065732F6578706572696D656E74616C5F40
:10410C0073656374696F6E5F766172732F6E72661E
:10411C005F73656374696F6E5F697465722E680096
:10412C00433A5C55736572735C74686572755C4474
:10413C0065736B746F705C6E52465C636F6D706F01
:10414C006E656E74735C736F6674646576696365B3
:10415C005C636F6D6D6F6E5C6E72665F7364685FCF
:10416C00736F632E63000000543F0200543F020043
:04417C000800000037
:044180000090D003D8
:04000003200032396E
:00000001FF
