:020000040007F3
:109000004055002021920700299207000195070092
:109010002D9207002F9207003192070000000000F8
:109020000000000000000000000000003392070074
:1090300035920700000000003792070039920700C0
:109040003B9207003B9207003B9207003B920700D0
:109050003B9207003B9207008D9307003B9207006D
:109060003B9207003B9207003B9207003B920700B0
:109070003B9207003B9207003B9207003B920700A0
:109080003B9207008D9507003B9207003B9207003B
:10909000B19507003B920700B59507003B9207008A
:1090A0003B9207003B9207003B9207003B92070070
:1090B0003B9207003B920700000000000000000008
:1090C0003B9207003B9207003B9207003B92070050
:1090D0003B9207003B9207003B9207000000000014
:1090E0000000000000000000000000000000000080
:1090F0000000000000000000000000000000000070
:10910000000000000000000000000000000000005F
:10911000000000000000000000000000000000004F
:10912000000000000000000000000000000000003F
:10913000000000000000000000000000000000002F
:10914000000000000000000000000000000000001F
:10915000000000000000000000000000000000000F
:1091600000000000000000000000000000000000FF
:1091700000000000000000000000000000000000EF
:1091800000000000000000000000000000000000DF
:1091900000000000000000000000000000000000CF
:1091A00000000000000000000000000000000000BF
:1091B00000000000000000000000000000000000AF
:1091C000000000000000000000000000000000009F
:1091D000000000000000000000000000000000008F
:1091E000000000000000000000000000000000007F
:1091F000000000000000000000000000000000006F
:10920000DFF80CD000F092F80048004731BF0700AB
:1092100040550020026882F3088843681847000020
:109220000648804706480047FEE7FEE7FEE7FEE700
:10923000FEE7FEE7FEE7FEE7FEE7FEE7D59507005F
:10924000019207002DE9F05F0546002092469B46FB
:1092500088460646814640241BE02846414647464C
:10926000224600F053F853465A46C01A914110D393
:1092700011461846224600F03AF82D1A67EB01080D
:109280004F4622460120002100F031F817EB00097B
:109290004E41201EA4F10104DFDC484631462A4637
:1092A0004346BDE8F09F40EA01039B0703D009E075
:1092B00008C9121F08C0042AFAD203E011F8013BC2
:1092C00000F8013B521EF9D27047D2B201E000F81B
:1092D000012B491EFBD270470022F6E710B513465A
:1092E0000A4604461946FFF7F0FF204610BD202A23
:1092F00004DB203A00FA02F1002070479140C2F1ED
:10930000200320FA03F3194390407047202A04DB1E
:10931000203A21FA02F00021704721FA02F3D040EE
:10932000C2F120029140084319467047064C074D90
:1093300006E0E06840F0010394E807009847103425
:10934000AC42F6D3FFF760FF50D3070070D307009D
:1093500030B58C1810F8012B12F00F0301D110F862
:10936000013B120906D110F8012B03E010F8015B54
:1093700001F8015B5B1EF9D101E001F8013B521ECF
:10938000FBD1A142E6D3002030BD00002DE9F0471B
:1093900000268CB0DFF86091B0464FF48075012450
:1093A00037460696284602F015FF38B1D9F804036F
:1093B000204203D0284602F003FF26432D1D6400FF
:1093C0007F1CADB2082FEDD34FF4BE74204602F0DF
:1093D00001FF48B1204602F0F3FE46F0004606AA1F
:1093E0000121002002F0D8FE444D16F0FF0F15D0E9
:1093F0000127002437420DD009EB8401D1F8100574
:10940000D1F81015C0F3042055F82420C1F3014110
:1094100002B190477F00641C082CEBD3002E67DA62
:109420004FF0FF30CDE9088000263446281910F8A7
:10943000507F90F9000027F0C008401C44D009A9D3
:10944000404602F003FE58B34FEA9719404601F038
:10945000B9FD55F820701FB1B9F1030F03D00FE02B
:10946000B9F1030F30D108A84FEAD80208F007037A
:10947000815C4FF0010C0CFA03FC41EA0C018154B1
:109480004FF0A04101EB8800D0F8000706A9C0F317
:10949000014A404602F0DAFD18B1BAF1020F03D0DA
:1094A00012E0BAF1030F0FD1B9F1030F08D1BAF1ED
:1094B000020F1BD00221404602F05CFE761CF6B281
:1094C00017B149464046B847641C042CAED3002E61
:1094D0000ED06A460121002002F05EFE0699009837
:1094E000884205D00690089809909DE70321E2E79D
:1094F0000CB0BDE8F0870000006000404C33002055
:1095000000F032F800F01F02012191404009800074
:1095100000F1E020C0F88012704700F01F02012126
:1095200091404009800000F1E020C0F80011704730
:1095300000F01F02012191404009800000F1E0206D
:10954000C0F8001270474907090E002806DA00F03B
:109550000F0000F1E02080F8141D704700F1E020BA
:1095600080F8001470470000BFF34F8F0548016872
:10957000054A01F4E06111430160BFF34F8F00BF62
:10958000FDE700000CED00E00400FA0507480021AB
:10959000C0F84011C0F84411C0F84811C0F84C118F
:1095A000C0F80011C0F8041103F0E4BB0010014042
:1095B00003F02EBB10B50021054A084601F094F8CF
:1095C000002803D0BDE8104001F056B810BD0000DF
:1095D00095A90700F0B5AE480023021D01780125CA
:1095E000101D4FF0805406290BD11678360708D18C
:1095F0000678C6F30316032E06D0042E04D0052EDB
:1096000002D0062907D00EE0B4F82463A14FC6F3B8
:1096100004263E6002E01678360704D10678C6F3C9
:109620000316032E02D0062904D00FE09B4F9A4E5A
:109630007E670EE01678360708D10678C6F3031663
:10964000032E06D0042E04D0052E02D0062907D002
:109650000EE0D4F84462924FC6F342363E6002E018
:109660001678360704D10678C6F30316032E02D007
:10967000062906D011E08B4E376827F080773760D7
:109680000EE01678360708D10678C6F30316032EC7
:1096900006D0042E04D0052E02D006290AD011E0EF
:1096A0004FF08046C6F80C31C6F810317C4E361F9C
:1096B000336002E01678360704D10678C6F3031645
:1096C000032E02D0062905D00CE0754F032664371F
:1096D0003E600AE01678360704D10678C6F3031612
:1096E000032E02D006290DD014E06F4F05263E60F0
:1096F0006D4E783635606C4E083633603F263F1D20
:109700003E6002E01678360704D10678C6F30316E9
:10971000052E02D0062957D062E0644E3668644FA9
:109720003E60624E361D36683F1D3E605F4E083615
:1097300036683F1D3E605D4E0C3636683F1D3E600C
:109740005A4E103636683F1D3E60584E1436366805
:109750003F1D3E60554E18363668554F20373E60E7
:10976000524E1C3636683F1D3E60504E20363668DD
:109770003F1D3E604D4E243636683F1D3E604B4EC9
:10978000283636683F1D3E60484E2C3636683F1DF1
:109790003E60464E30363668454F40373E60434E59
:1097A000343636683F1D3E60404E383636683F1DC1
:1097B0003E603E4E3C3636683F1D3E603B4E403676
:1097C00036683F1D3E6002E01678360708D10678FD
:1097D000C6F30316032E06D0042E04D0052E02D0A5
:1097E000062907D019E0D4F85812324A01F04F0187
:1097F000116002E0117809070FD10078C0F303105F
:10980000032803D0042801D0052806D12A4801687E
:10981000C90702D06FF00101016022487438016865
:1098200041F470010160BFF34F8FBFF36F8F4FF0B2
:109830001021D1F80002002803DBD1F8040200282F
:1098400022DA1E4A15601E480468002CFCD015243C
:10985000C1F800420568002DFCD0C1F8044201683F
:109860000029FCD0136001680029FCD0BFF34F8FA2
:109870000C48F0380168134A01F4E06111430160BB
:10988000BFF34F8F00BFFDE710490F480860F0BDE0
:10989000E00F00F0403501400DF0ADBA00C00740C8
:1098A0003C050040FCED00E01056004004040010B0
:1098B00020C50040E40E00400004004004E50140E3
:1098C00000E401400400FA050090D0033429002090
:1098D00002E008C8121F08C1002AFAD17047704779
:1098E000002001E001C1121F002AFBD170470000D7
:1098F0000121202803DA81400548014003E0402887
:1099000002DA2038814009B10120704700207047F9
:10991000FC06FFBD082806D20121814011F0EC0FA2
:1099200001D00120704700207047000010B500F002
:109930005BFC02E0044800F019F9034800F0E2F88B
:109940000028F7D110BD0000602B00200149CCDFBA
:1099500070470000B028002070B50020FFF7F6FF28
:1099600008B100F089FE00231A4610211846C2DF14
:1099700008B100F081FE194800880104090C00D1EB
:109980000221052310220020D3DF08B100F074FE6D
:10999000134C0125257002F02DFA04F110002570FA
:1099A000007800F0070001F0EFFA00210846C4DF5C
:1099B00008B100F061FE002203211046CFDF08B19C
:1099C00000F05AFE0220207000206070B22002F0E9
:1099D000E9F8BDE870404E2001F0BEB8AC3200207E
:1099E000BC2800202DE9F041304E0546341F307868
:1099F0000F46042802D1206A092802D0002000F076
:109A00003BFEEDBB29483968243000F108020160B3
:109A10001068884200D911602448244B2830303324
:109A2000006808B1814200D219601068D3F800E0E4
:109A3000A1EB000CF44501D3F44601E0C3F800C0EB
:109A4000BF68BC4500D91F60DFF860E0D3F800C0F4
:109A50000EF1340E00EB0C07CEF80070A76CB7F1D6
:109A6000FF3F1CD061B1B8420FD0216D884202D1B6
:109A7000A0646189A181A16C451A65441D6000E064
:109A80000EE01160A064A0896081A06C20650125B2
:109A9000A570BA2002F086F87570BDE8F081042543
:109AA0002846BDE8F04101F0A5BF0000BC28002019
:109AB00070B5124C0026408811496081324601255C
:109AC00038B1012808D08A810A604A6001208A6082
:109AD00010E08A81202001E08D81462008604860E6
:109AE000886002F0CBF818B125700520A07170BD18
:109AF00003493046BDE87040FFF774BF402800209E
:109B0000782B002030B5184C0021D4E901239A426B
:109B100028D0226803EB43015B1C12F8315005701A
:109B2000022505EBC105555B4580042505EBC10504
:109B300055594560082505EBC105555985600C252B
:109B400005EBC105555B85810E2505EBC10111446F
:109B50000A68C0F80E204968C0F8121003F003002C
:109B60000121A060084630BD403300207CB52C4C5C
:109B700003780246A1796089B63B0D2B15D2DFE848
:109B800003F00714151B20141414363E3B4A4300FF
:109B900003290AD1C0DF08B100F06EFD01F050FDCD
:109BA00008B10A2106E00420A0717CBD0729FCD180
:109BB0000B21032001F032FD1046BDE87C40FFF789
:109BC00077BF51888142F0D168B10128EDD1694653
:109BD00001A800F02BFCDDE900326089002100BF04
:109BE00000F006FA7CBD20220E4B0021F8E710465B
:109BF000BDE87C4000F0FAB80020E0817CBD104652
:109C0000BDE87C4000F030B80229F7D1BDE87C40C7
:109C1000002000F05FBC1046BDE87C4000F004B8B6
:109C2000402800201CD2070010B50E4CA079032854
:109C300013D0022804D102F021F810B10620A0713F
:109C400010BD607948B1A08901F036FD18B1BDE8BA
:109C5000104003F07BBA0320A071BDE81040012042
:109C600000F038BC402800202DE9F0415D4C05464D
:109C70005D4EE089002306F1A80760B9D6F8A01070
:109C800021B1D7F8A01019B106211FE0266300E02A
:109C90002763216B6162AA681118A02915D2616A35
:109CA000084405F10E01FFF7FEFA2889E18908440E
:109CB00080B2E081802804D2216AA26901449142E5
:109CC00023D3D6F8A01031B902E00721184681E06D
:109CD000D7F8A01039B1216AA2690144914202D299
:109CE000A02812D348E0216B00266FF47B43C1F813
:109CF000A000E6816289D21809D0012A07D0022A81
:109D000005D0052A03D0C1F8A060BDE8F081A27992
:109D1000022A03D0C1F8A06026632DE0C4E9041034
:109D2000216A314F08442062E0784FF00108183F63
:109D3000A8BB2C491431081F00F04AFB0028E4D0CE
:109D400084F8038000F028FB050015D068880128FE
:109D500012D1287A80B9A0783871D5F81200B8608D
:109D6000D5F81600F860D5F81A003861042078613B
:109D7000384601F081FD18B1BDE8F04103F0E6B9C5
:109D800055F8120F69680144A868001D0844E06294
:109D900000F0F8FAA081208115F8120CE0616079DA
:109DA000E0B926712169B960626990087860206B1A
:109DB000C0F8A020002001F05FFA216BA1F8A400F8
:109DC000032038600848183801F0E8FB20B1092862
:109DD00004D0092101F022FC84F805800220A07142
:109DE00093E7000040280020A02B00202DE9F04739
:109DF000674C06460027A07905287CD006287AD033
:109E0000DFF8908171880025A8F80C10C8F8085078
:109E1000C8F80450C8F80050A8F80E50708861893E
:109E2000884202D06081E56125817068411C09D0BB
:109E3000C0B1E169884205D05649042000F078FBA2
:109E40000720A07160896FF47B4140184FF0020930
:109E50000AD0012808D0022806D0052804D084F8AA
:109E6000069034E00127EDE7E1694FF44052C8F86D
:109E70000010494B91685B1AC8F80430C8F80830E4
:109E80002389A8F80E30A079032802D0022801D136
:109E900006E017B13F4902205EE03E4900205BE04A
:109EA0009246D6E901033C4A1844121D511A8842D1
:109EB00002D9384903204FE0E5814FF00108EFB3A4
:109EC000E5612581256200F0A9FA706810B1314979
:109ED000012041E0B168A1616089A0F57B42033AAD
:109EE0000AD0A0F57B42023A09D04FF601329042E7
:109EF00008D104200BE045E084F8028008E084F8F3
:109F0000029005E0A0F57B42063A01D10320A07043
:109F10002048224A1030C0F80080DAF80830126871
:109F2000C3F5F2235E0BB2EB063F05D8561C03D0F7
:109F300012B1A278D20702D0436001E01BE0416079
:109F4000217901B145601348103001F011FC38B19E
:109F50000828BCD10F490420BDE8F04700F0E8BA5A
:109F6000E5706571A562E58101F088FE60B184F855
:109F70000180052005E001F081FE28B184F8018010
:109F80000620A071BDE8F08784F8069085E7000000
:109F900040280020782B002000910700E4FF0700F4
:109FA00010B50C46014618220D48FFF77CF90D4804
:109FB0000B490D4A0461C968416100210B4800F05A
:109FC00019FC08B100F058FB02F0EEFC0548EDDF8B
:109FD000002803D0BDE8104000F04EBB10BD0000CB
:109FE000AC320020B828002079CB07008CD20700C3
:109FF0002DE9FF4F7B4D0E4683B029681446B142D0
:10A0000004D1A5F12A010988814202D0002000F084
:10A0100033FBDFF8D0A10AF1080ADAF80000B042F9
:10A0200002D2002000F028FB6E482C380178042969
:10A030006CD14178012901D0022967D1DFF8A491C0
:10A0400000274FF0010B09F10409012959D1A9F1A9
:10A0500034082868D8F848200026904212D1B8F871
:10A060000A20B8F808108A4224D1C8F85000C8F86D
:10A070004800C8F84C00A8F80C10A8F80E1022E010
:10A08000304626E022D2111AA1421FD20F460A46BC
:10A09000E41BB8F80A00069901F0EEF8A8F80A00E7
:10A0A000D9F80030D91BC9F80010B8F8082041468B
:10A0B000904201D00526E3E70846896C29600165D6
:10A0C000C1648281C28188F803B0D9E7904203D984
:10A0D000052001F08FFC14E0002188F802102044D4
:10A0E0002860D9F800102246091BC9F80010B8F8FA
:10A0F0000A00069901F0C0F8A8F80A00BA2001F099
:10A1000051FD38482C384078022803D0002007B091
:10A11000BDE8F08F2046610702D024F00700083028
:10A120000699CA1981B2002317461846C9DFA0F55F
:10A130008041203902D008B100F09EFA03F028F8DF
:10A140002868284E20442860D9F80010303E091BAA
:10A15000C9F800104FF0000886F802803946224600
:10A16000708901F089F870812968326D8A1AB2F518
:10A17000807F06D9F289B281F081F26CC6E91221A2
:10A180003165B2784AB9DAF80020914205D2BA2096
:10A1900001F008FD86F802B022E0DAF80020574608
:10A1A00091421DD3F178D9B18DF804808DF80580E6
:10A1B0008DF80600000A8DF80700022308214546A5
:10A1C000CDF800806A460020C9DFA0F58041203923
:10A1D00002D008B100F050FA02F0DAFFF5703D60ED
:10A1E000204694E7E828002070B5002875D08378D1
:10A1F000D90672D1614D2A782AB9417840296CD1AB
:10A20000017900297FD15D4C4678241F211D402E05
:10A21000497841D04E2E76D04F2E02D0502E72D19A
:10A2200002E043F080038370022A0DD0032A28D075
:10A23000042A68D10429DAB200F10301104627D0BC
:10A24000BDE8704002F0DABDC17844295BD10179E4
:10A25000022958D14179A1614849837910310A68AE
:10A2600063F302020A600831C3790B70037A4B7002
:10A27000437A8B70807AC87002F0070000F084FE89
:10A280005AE0BDE87040DAB2C11C104600F084BB51
:10A29000BDE8704002F00ABF00790023082832D2DE
:10A2A000DFE800F06831315E364004632362022A41
:10A2B00052D0032A04D0042A25D1022924D047E011
:10A2C000607870B32D482E4A001F0329406A05D0DC
:10A2D00004290CD001280ED012E014E0022803D08B
:10A2E00000221146012009E012691021FAE700223C
:10A2F0001146022002E052691021002000F0C2FB4A
:10A300006078401E607070BDBD2001F04BFC1FE006
:10A3100023620429F7D1C22001F044FC05206870B3
:10A3200070BD09E02362032A02D0042A14D107E099
:10A3300003290DD004290FD0BDE8704000F086BB82
:10A34000022902D1BC2001F02DFC68780328E7D057
:10A35000BDE8704002F088BEBDE8704001F04ABD23
:10A36000BDE870404E2000F0F7BBBDE87040B4205F
:10A3700001F018BCBDE8704000F07EB9BC28002098
:10A38000AC320020024803490278002000F074BF7C
:10A3900000280020382900200B4810B50178827869
:10A3A00091420BD14068417811390F2906D2074AF2
:10A3B00000214318545C1B79A34201D0002010BD3A
:10A3C000491C0429F5DB10BD00280020CCD1070072
:10A3D00070B5104D104A18E0937813B903681B78D4
:10A3E000937013789478A3420AD206683678EE54B4
:10A3F0000668761C06600E68761E5B1C0E60137085
:10A40000DBB2A34201D1012070BD0B68002BE3D168
:10A41000002070BD382900200028002002480021BB
:10A4200081700170704700000028002070B504465C
:10A4300005480D46407808B900F00AF8034828603E
:10A440004620206070BD000000280020382A00202F
:10A450002DE9F0411C4C10250026257066704FF444
:10A460004050A6708068E11CC0F5F22002F014FE96
:10A470000027E11D304602F00FFEE57204F10C00EA
:10A48000EBDF08B100F0F8F80F4938461C3102F054
:10A4900003FE0E4884F82050416844F8211F81686B
:10A4A000616081892181807B0749A0723131384602
:10A4B00002F0F2FD2575BDE8F04103481022044981
:10A4C0003630FEF7F0BE0000382A0020CCD107005D
:10A4D000E8FF07001CB515490978042901D00020C0
:10A4E0001CBD44218DF800108C218DF8011080F0E6
:10A4F00001008DF8020000248DF8034050200194E3
:10A5000000F02AFB022308216A460020C9DF08B1B7
:10A5100000F0B2F802F03CFE04490A20091F08626C
:10A5200001F13800046001201CBD0000BC2800209F
:10A530002DE9FC5FDFF838B106469BF800000428DF
:10A5400004D1ABF10400026A0A2A02D00020BDE85F
:10A55000FC9F474B8A899B1C1B889A4203D0C220D0
:10A5600001F020FBF2E7424DD1E90142403532B122
:10A57000DFF8FCA02A600AF1340A16B106E0224690
:10A58000F6E7DAF80030A34200D90326384FCA892B
:10A59000804642812C3708683860502000F0DCFA91
:10A5A00044208DF800008A208DF801004FF000094A
:10A5B0008DF802608DF8039038788DF80400787873
:10A5C0008DF80500B8788DF80600F8788DF807004A
:10A5D0004B466A4608214846C9DF08B100F04CF8EE
:10A5E00002F0D6FD8DF80040200A8DF80100200C05
:10A5F0008DF80200200E8DF8030028788DF80400F5
:10A6000068788DF80500A8788DF80600E8780023B2
:10A610008DF807006A4608211846C9DF08B100F026
:10A620002BF802F0B5FD8DF80490CDF800908DF870
:10A630000590B8F80A008DF80600000A8DF80700AA
:10A64000022308214C4645466A460020C9DF08B16E
:10A6500000F012F802F09CFD0A20286216B1CAF838
:10A66000004002E003218BF8011001206FE7000099
:10A67000BC280020FEF778FF0EB500210091CDE93F
:10A6800001106A4644F20100FFF7F4FF0EBD00001E
:10A6900038B50C460978E268022A0CD0074B03EB68
:10A6A00002121568064A526A0092024604F10C0032
:10A6B0006369A84738BD024A2832F2E77C3200209D
:10A6C0007C280020074910B50A7802EB420201EB12
:10A6D000C201091DFFF7DCFFBDE81040042002F0B5
:10A6E000E3B80000883100202DE9F84F254C814661
:10A6F000924660880E46814241D800274FF6FF7887
:10A700008DF80070684600F007F922786078A1881B
:10A71000884201DA401C00E00020C0B2904204D11F
:10A720009DF8000000F01CF927E065786078884209
:10A7300001DA401C00E0002060709DF8000000F08D
:10A740000FF9454519D0A068B9F1000F40F835A0C0
:10A750000DD066B16188E068324605FB01004946CC
:10A76000FEF7A1FDA06800EBC500868002E000EBCB
:10A77000C50087800020BDE8F88F0420FBE7092092
:10A78000F9E700000C29002010B50E4C03E0401C36
:10A7900000E00020207020786178814210D022787B
:10A7A0006188E068A36802FB010003EBC20153F873
:10A7B0003220898890472078A1888842E9DAE6E744
:10A7C00010BD00000C29002030B5CB0008339DB22D
:10A7D00093074FF0000401D0072030BD044B9A606E
:10A7E0002A44DA605C701C7058809980002030BD6B
:10A7F0000C290020084B9B7823B12AB120B10068B6
:10A80000037C1BB1082070470720704700230374A6
:10A810004174426118467047A433002070B501F0BE
:10A82000A7FF104800240B21047044700E4D817066
:10A8300014206C602C706C70FEF764FE07211420ED
:10A84000FEF781FE1420FEF768FE08480460072129
:10A850001120FEF778FE0548001F0068A860002060
:10A8600070BD0000A43300201C2900200815014001
:10A870002DE9FC47DFF8789099F8023073B368B39C
:10A88000052902D20720BDE8FC87436933B3437C26
:10A89000012B25D0002704460025884616468DF852
:10A8A0000050684600F038F801A802F059FCC8B121
:10A8B000012101700F4944600968C0E90218C0E92C
:10A8C00004769DF8040089F801009DF8000000F06E
:10A8D00047F81420FEF72CFE2846D4E70820D2E7DC
:10A8E0000F46D8E704259DF8000000F039F8F3E79B
:10A8F000A4330020041501400649897839B130B1EC
:10A90000416921B100210174022102F00FBA08202F
:10A9100070470000A433002030B5EFF3108172B609
:10A920000D4A9468012324B10370002900D162B656
:10A9300030BD93604FF0E023D3F88051074C2540A1
:10A940001560C3F88041D3F8844154605A17C3F8A6
:10A95000842100220270E8E7B0340020FC06FFBD2D
:10A960000B498A68002A11D000280FD1EFF310801C
:10A9700072B60B684FF0E022C2F800314B68C2F8A3
:10A98000043100228A60002800D162B670470000BE
:10A99000B034002001F0A2BC70B52A4C30F0800326
:10A9A000226A01D1002A13D10B78442B00D112B1B5
:10A9B000042A26D002E04A78042A0AD049780329DA
:10A9C00039D0052904D10A2002F0FCF800202062C9
:10A9D00070BD1C4A0D791C321378AB42F8D1537804
:10A9E0004D79AB42F4D193788D79AB42F0D1D278E6
:10A9F000CB799A42ECD104222262897861620521E6
:10AA00006170616A59B10129E2D10006E0D50A20DE
:10AA100002F0D8F80C4810214269002007E0000637
:10AA2000D6D50A2002F0CEF8002211460120BDE85A
:10AA3000704000F027B80006CAD5BDE8704001F0AC
:10AA4000D9B90000B8280020AC3200200C4810B55D
:10AA50000178002913D00321017000214170041FE7
:10AA60000A20216202F0AEF8217E0020CDDF08B17D
:10AA7000FFF702FEBDE81040B72001F093B810BD0B
:10AA8000BC2800202DE9F04106463148C2B090466E
:10AA900005680C46502000F05FF844208DF8000156
:10AAA0008DF80451280A8DF80501280C8DF806014F
:10AAB0008427280E8DF80171264D8DF802618DF8DE
:10AAC00003418DF80701287803282BD1022E29D0C5
:10AAD00044B3FF2C26D8002340AA08211846C9DF1A
:10AAE00008B1FFF7C9FD02F053FB4FF480716846CF
:10AAF000FEF7F2FB224641466846FEF7D4FB6007AC
:10AB000002D024F0070408340223A1B26A460020D0
:10AB1000C9DF08B1FFF7B0FD02F03AFB0D48001F96
:10AB200007620BE00223082140AA0020C9DF08B118
:10AB3000FFF7A2FD02F02CFB022E06D0012E01D160
:10AB40000320687042B0BDE8F0810420F9E70000FE
:10AB5000AC320020BC2800201CB52A490B6A091D14
:10AB60000A7833B3032143238DF80030254B143387
:10AB70001B788DF801308DF8021000218DF803103C
:10AB8000032A20D0042A1ED01F4A91888DF8041071
:10AB9000090A8DF80510D1888DF806105FEA112199
:10ABA0008DF807104E281BD050281ED0FFF764FDEB
:10ABB0001CBD032A03D0042A03D00021D3E70121BE
:10ABC000D1E70221CFE70F491C310A788DF8042024
:10ABD0004A788DF805208A788DF80620C978DFE755
:10ABE00008216A460020C7DF1CBD012308216A46F0
:10ABF0000020C9DF08B1FFF73FFD02F0C9FA01F0FC
:10AC0000A7FF1CBDB8280020AC32002010B50446B8
:10AC1000204628DF1128FBD010BD13B504460122C1
:10AC200001A9204629DF1128F9D01CBD08B54FF431
:10AC3000FC210968891C0AD00068401C08D06846BD
:10AC400000F09CF9009804490069884201D1002075
:10AC500008BD012008BD0000EFBEADDE70B511DFFC
:10AC600008B1FFF709FD4FF0E0210020D1F80031D5
:10AC70005FF0010404FA00F21A420AD042B202F074
:10AC80001F0504FA05F15209920002F1E022C2F810
:10AC90008011401CC0B22028ECD34FF44054A0686F
:10ACA00013DF08B1FFF7E8FCA068BDE8704000F0D2
:10ACB00063B9000010B58AB0002408A800F05EF95E
:10ACC0000899C868421C0DD060B188680122B2EBB7
:10ACD000907F03D00222B2EB907F1DD108688000E4
:10ACE00003D019E000200AB010BD4868800013D1DD
:10ACF00000F02AFB04461822084902A8FEF7D3FAFE
:10AD0000DDE906010DF1080CCDE900019CE80F001A
:10AD100000F068F802F048FA2046E4E7DCD10700CA
:10AD200038B50024684600F029F90098C1684A1C2B
:10AD300011D081B140680121B1EB907F03D0022195
:10AD4000B1EB907F11D100F0F1FA00F04CFB20B193
:10AD500000F02EFB08E0002038BD009A101D51685D
:10AD600021F04041FFF759FF0446204638BD00005E
:10AD700038B50024684600F001F90098C1684A1C03
:10AD800012D089B100680121B1EB907F03D002217C
:10AD9000B1EB907F13D100F0C9FA00F039FD044601
:10ADA00000F050FD10B10AE0002038BD0098054ABF
:10ADB000016821F040415160FFF72FFF0446204613
:10ADC00038BD00000828002010B500F097FC0028CE
:10ADD00007D100F0F1FD02F0E7F9BDE8104000F006
:10ADE000E3BD10BD2DE9F84F0446DDE90AA90E4682
:10ADF00017469846684600F0C1F8009920220D4693
:10AE00003548FEF750FA14F0FF01344A32484FF04B
:10AE100001036FF0010B4FF4FC240CD00026032932
:10AE20003BD004294FD0072954D0082901D1042050
:10AE30005070BDE8F88F056809F0FF0126B166F390
:10AE40001D0561F39F7501E005F04045056045680B
:10AE500027B167F31D0561F39F7501E005F04045DB
:10AE60004560B8F1000F06D0856868F31D0561F3F1
:10AE70009F75856003E0816801F040418160C0F802
:10AE80000CA013E07E20FFF7C1FE98B1FFF7F4FBA2
:10AE900010E0114800F03EF8CBE7816821F0404116
:10AEA0008160AD68066165F31D01816053702068A3
:10AEB000401CE7D159462046FFF7AFFE0028E8D0F6
:10AEC000FFF7DAFBE5E706492B698B42B1D0016158
:10AED0005670DEE70320ABE7002B00200828002097
:10AEE000EFBEADDE0EB5094800908020019008202D
:10AEF000029001F0EFFA002807D10549684601F0F9
:10AF000081FB034A0021103A11700EBDB1C3070046
:10AF10001828002010B516490446A1F108000A6857
:10AF200002604968802201F5607141601148FEF7B6
:10AF3000BAF94FF480610E4801F084FA08B1FFF7C6
:10AF40009BFB0B48002380220A49083801F0ACFB28
:10AF500008B1FFF791FB002320222146044801F0AD
:10AF6000A3FB002803D0BDE81040FFF785BB10BD50
:10AF700018280020802A0020FEF74CB90149016002
:10AF80007047000000F00700012808D0022809D00F
:10AF900003280AD004280BD04FF6FF710AE04FF4C3
:10AFA000004107E04FF4804104E04FF4005101E01C
:10AFB0004FF480510020D1DF002801D0FFF75CBBA7
:10AFC000704700000249084490F9300070470000C3
:10AFD0004C3300202DE9F0413848017801EB410164
:10AFE00000EBC101F430D1E9046400EB0610D0E9B4
:10AFF000023245684FF080500769091DBFB2B4FBAB
:10B00000F7FC07FB1C477FB34FF0000C03FB025219
:10B01000D1E901752A4B79194FF0000E2144C3F88C
:10B0200014E0BCF1000F08D0D0F810C01FFA8CFC5F
:10B0300067451DD0914200D1D5B1022E18D02C44C5
:10B040000569ADB2B4FBF5F605FB1644A4081C6116
:10B050000469A4B2B1FBF4F504FB15147CB100241F
:10B06000914225D06CB123E0FFE74FF0010CCDE712
:10B07000006980B2B4FBF0F09861032019E001246C
:10B08000EEE704690569A4B2B2FBF4F4ADB2B1FB1A
:10B09000F5F5AC4201D1501A08E00269006992B29C
:10B0A000B1FBF2F402FB141180B2401A800858611F
:10B0B0000220BDE8F04101F0F7BB0000883100201C
:10B0C0007C2800200648017801EB410100EBC1001B
:10B0D0000079042801D000F059B8012001F0E4BB48
:10B0E000883100200A480B4A017801EB410100EB4E
:10B0F000C100816851620079012805D0032801D080
:10B10000042804D1FFF766BF012001F0CDBB7047D2
:10B11000883100207C28002000EB400205480021F7
:10B1200000EBC200012201718160C0E9042181614C
:10B13000C1607047883100202DE9F041114D069E15
:10B140006C780A2C1BD02F783C440A2C00D30A3C84
:10B1500004EB440405EBC4042071A261D1E90001B1
:10B16000C4E90401C4E902366878401C68700648E6
:10B17000007808B9FFF7B6FF0020BDE8F081042091
:10B18000FBE70000883100207C28002010B50E4C21
:10B19000207800EB400004EBC0010020091DFFF700
:10B1A00077FA2078FFF7B8FF6078401E607020784B
:10B1B000401CC0B220700A2801D100202070BDE8D8
:10B1C0001040002001F070BB883100202DE9F05FB5
:10B1D00026484168F1B3DFF898B00E688146DBF885
:10B1E000004087688078E11B21F07F45ED1CB0B9F5
:10B1F000DFF880804FF48030C8F84403C8F80403B7
:10B200001120FEF77FF91120FEF787F94FF0010AB0
:10B21000C8F800A02F2000F067FF89F802A0B5420F
:10B2200000D23546124BE8193C3320F07F401860BD
:10B23000DBF800105A46091B21F07F41001B20F06B
:10B240007F40C91C81420FD9106818602F2000F080
:10B250004BFF00E004E0BDE8F05F1120FEF768B9A5
:10B26000BDE8F05F01F084BABDE8F09F1C29002022
:10B27000041501400010014070B518E00D4B00F0BE
:10B280000F0511F8014B33F81560050904F00F00A4
:10B29000754033F81000684000F00F0533F8156072
:10B2A00005092009754033F810006840521E002A35
:10B2B000E4D170BD90D2070010B5134C207900077F
:10B2C0001ED4A069401CA061206908B104200AE0D6
:10B2D00000F066FD08B1022005E0606960B16068B9
:10B2E000C10704D00320BDE8104001F01DBC40F0B0
:10B2F000010060600020F6E7BDE81040FFF7E2BE05
:10B30000BDE8104001F006BC7C28002006494868D2
:10B31000020707D4820702D540F0010048600220EE
:10B3200001F002BC01F0F6BB7C2800200448017843
:10B33000002904D101210170024800F08FBE70473E
:10B3400008280020A086010038B500246846FFF7D1
:10B3500015FE00980168426821F0404122F0404209
:10B360001144C2680A444FF440518968914201D1A6
:10B37000002038BD8068820016D00C4A52688A428C
:10B3800012D120F04041094801F0CEF804000BD161
:10B3900000980023806820F0404204480838416843
:10B3A000083001F0FDF80446204638BD382800205A
:10B3B00000B585B004A8FFF7E1FD04984168890055
:10B3C0000FD0002100910268C16822F04042114470
:10B3D00001914068C0F39B000290684618DF05B0F9
:10B3E00000BD0020FBE700B585B004A8FFF7C6FD4F
:10B3F00004984168890012D0032100914FF4F22192
:10B4000001910268C16822F04042114402914068F3
:10B41000C0F39B000390684618DF05B000BD002014
:10B42000FBE700002DE9F05FDFF8648198F8062063
:10B43000012A0CD0DFF85CA100264FF0020B022A93
:10B4400003D0052A07D0062A1FD1B8BB24E0BDE8E7
:10B45000F05F01F0FBB998F80110444661B16670E5
:10B46000E269CAF800202289AAF80E2078B1494979
:10B470005FF00500FFF75CF8207820B126704549A1
:10B480000020FEF7AFFA84F806B0BDE8F09F012077
:10B49000207140490020EDE73E4D283505F1A8090F
:10B4A0008D420CD805F1A000814208D8B5F8A00063
:10B4B000B5F8A44087B2C5F8A0600CE016E0484695
:10B4C000894513D8344A914210D830F8A01F848897
:10B4D0008FB2C9F8A06000F02FFAD8F828103A46C9
:10B4E00001440020FFF7C8FEA04203D0BDE8F05F92
:10B4F00001F02CBED8F81C0044463844C8F81C00A3
:10B5000000F01AFAA16A3A4601442089FFF7B4FE16
:10B510002081A16A3944A162A279062AB5D184F8B2
:10B5200006B0E369CAF80030AAF80E00607830B1BE
:10B530006670BDE8F05F17490020FEF7F9BF60793B
:10B540000626C0B1E06A884205D1A08900F0B4F8AF
:10B5500028B101F0FBFDD5F8A00050B905E00120AD
:10B56000FEF7B8FF0320A0718FE7D9F8A0000028EC
:10B570008BD0A67189E7D5F8A0000028F9D1D9F8B9
:10B58000A0000028F5D1BDE8F05F0120FEF7A2BFC2
:10B5900040280020782B0020E82C002070B5050002
:10B5A00004D0287A800703D0102070BD0E2070BD13
:10B5B000194C6078022805D0032803D0042803D052
:10B5C000082070BD04206070686861688600A0680B
:10B5D0003044884204D94FF0FF30A0600C2070BD89
:10B5E00000F0CAF90028FAD1A078A968A368012858
:10B5F00032460DD00848103000F0D2FF0028EED1BE
:10B60000A1683144A16062689142E8D0092070BD10
:10B6100001481830F0E7000020280020BFF34F8FCA
:10B6200005480168054A01F4E06111430160BFF378
:10B630004F8F00BFFDE700000CED00E00400FA05AD
:10B640002DE9FC41194F7878062803D008242046BC
:10B65000BDE8FC8116480068FFF74EF9041E01D0D2
:10B66000FFF70AF8134B4FF0000093F800C05FEAB1
:10B67000CC7101D0596800E001465FEA8C7201D5B7
:10B680009A6800E002465FEA4C7C01D5DB6800E086
:10B69000034660F30705B87860F3070600F04CF93D
:10B6A000CDE900062846FFF79DFBD0E720280020C3
:10B6B000F4D10700402B002070B50F4D0646687886
:10B6C000042805D105206870D5E90101814201D027
:10B6D00008240CE000F050F9040008D100F02CF927
:10B6E000014630466A68FFF7C7FD10B103242046C3
:10B6F00070BD06206870FAE72028002070B5184950
:10B70000164808601749164800F030FF154C002510
:10B71000183C08B1657070BD4FF440501149806805
:10B720004860A169C4E904100E49C0F5F222520B29
:10B73000083900EB023048600B4A00210B48FFF744
:10B7400059F830B9094800224FF470110068FFF72A
:10B750008FF80121A560617070BD0000F5C307007E
:10B76000542B0020382800205DB90700F4D10700D1
:10B77000DCB5234C46686078012807D0022805D044
:10B78000032805D0042801D00820DCBD0320607008
:10B7900000F0F2F80028F8D1DFF864C000214FF47F
:10B7A0004057A1600CF1180CB968CCF80410C1F531
:10B7B000F221490BB6EB013F14D94FF004012846A2
:10B7C00061F307002A4600952B4611460195FFF7C5
:10B7D00009FBB868C0F5F2210948183000F0A4FE52
:10B7E00001210AE0D1D2002ECFD005484FEA013125
:10B7F00000F1100000F098FE0221A170DCBD0000F5
:10B80000202800200149C86070470000202800203F
:10B8100000B585B004A8FFF7B1FB04980168890062
:10B820000ED001210091C16801914FF48051029125
:10B830000068C0F39B000390684618DF05B000BDA8
:10B840000020FBE700B585B004A8FFF797FB04983C
:10B85000016889000ED0032100914FF480510191BD
:10B86000C16802910068C0F39B000390684618DF2E
:10B8700005B000BD0020FBE770B5011D00241422B7
:10B880002B48FDF710FD2A4801784A0704D58A079E
:10B890000CD1027B920709D1CA0702D00279920724
:10B8A00004D18A0704D5027A920701D0062070BD20
:10B8B000D0E90126D0E90350284493191D4D0344D3
:10B8C00088076B6002D5B6F5C04F06D84FF44050DC
:10B8D0008068C0F5F2269E4201D20C2070BDC907D7
:10B8E00016D0A0F580518A4212D9111A01F5805163
:10B8F00008444FF080510A69521E30EA020204D017
:10B900000A690969521E904308440A49183148607F
:10B910006878022802D0032802D00824204670BD8F
:10B9200000F02AF80400FAD102206870F6E700005F
:10B93000402B00202028002007488078012803D0D1
:10B94000022804D0002070470348183001E0024864
:10B95000103040687047000020280020DCB5054FFB
:10B9600001263E70072666F30700CDE90045FFF784
:10B9700039FADCBD20280020094810B5007808B14C
:10B98000082010BD074C2068FEF7B6FF0028F8D04D
:10B990002068BDE8104000224FF47011FEF768BF28
:10B9A00020280020F4D1070010B5C0DF08B1FEF751
:10B9B00063FE002010BD000070B50B4D00240B4845
:10B9C000AC71FFF71FFF0A48C0F8A040A830C0F8CC
:10B9D000A04000F053F910B10120A87101E000F07F
:10B9E00035FF002070BD00004028002025B407006E
:10B9F000A02B00202DE9FC4105465020FFF7ACF8B4
:10BA000044208DF8000089208DF801000020304C82
:10BA10008DF802508DF8030020788DF804006078CE
:10BA20008DF80500A0788DF80600E07800238DF8E9
:10BA300007006A4608211846C9DF08B1FEF71CFE58
:10BA400001F0A6FB2248224F001F092601788DF83D
:10BA5000001041788DF8011081788DF80210C078BF
:10BA60008DF803001A480C38343F01788DF8041023
:10BA700041788DF8051081788DF80610C0788DF822
:10BA8000070095B9206880B100236A46082118464E
:10BA9000C9DF08B1FEF7F0FD01F07AFB3E620C4908
:10BAA000022030394870BB200DE0022308216A468D
:10BAB0000020C9DF08B1FEF7DFFD01F069FB3E623F
:10BAC000002DECD0BD2000F06DF8BDE8FC81000039
:10BAD000EC2800200E4910B50A784C780023A242C9
:10BAE00012D0521CD2B20A70022A00D10B70084A3E
:10BAF0000B780C3252F8232002608868104420F042
:10BB00007F408860012010BD0360002010BD000050
:10BB10001C2900200A4A10B51168062303EA5103C4
:10BB200083420CD021F0060141EA40011046FFF7A4
:10BB300074F8002803D0BDE81040FEF79DBD10BD8D
:10BB4000FCFF070038B56846FFF718FA0099012294
:10BB5000124C8868B2EB907F03D00222B2EB907F48
:10BB600001D1002007E00869A04203D00020FFF7C0
:10BB7000D1FF38BD0220FFF7CDFF00980069A04239
:10BB8000F7D107480168491CF3D00021FFF745F8B9
:10BB90000028EED0FEF770FD38BD0000EFBEADDE30
:10BBA000E4FF07002DE9F0412B4C06466068A268CF
:10BBB000411C01F00301914249D0216800EB400093
:10BBC00011EBC00043D0254A067002F12A03951FED
:10BBD000002112881B686F89BE2E20D006DCB02E93
:10BBE0002ED0B92E0CD0BA2E04D10EE0BF2E1ED00E
:10BBF000C32E01D0418000E042804160816002E0BC
:10BC00004280C0E9013181811AE04280134A4360D9
:10BC10002E321268802A00D980228260F3E70F4911
:10BC200042803231436009688160878108E0428048
:10BC300043608781EA6B82600E30296CFDF733FB2D
:10BC40002079401C00F003006060BDE8F081BDE891
:10BC5000F0410020FEF710BD40330020BE28002038
:10BC6000002808D0112801D0FEF72CBD02484168F9
:10BC700041F00801416070477C28002008B5684603
:10BC800000F084FB08B1FEF7F7FC0098002800D014
:10BC9000012008BD10B51E4C2046217840680129BE
:10BCA00010D002292BD0032930D1000723D4A0695A
:10BCB000401CA06100F074F8C8B12078BDE81040C5
:10BCC00000F0F2BD000716D41248226A017801EB99
:10BCD000410100EBC1008168891A816003D0BDE891
:10BCE000104000F0D7BEBDE81040FFF74FBABDE8E6
:10BCF0001040FFF7E7B9BDE8104000F09DB90648D5
:10BD0000617850F82100BDE81040004710BD0000E8
:10BD10007C2800208831002078D2070028DFFFF738
:10BD20009FBF29DFFFF79CBF70B51B4C62681007EF
:10BD30002ED41A48017801EB410100EBC1004169A2
:10BD4000D0E902301844491E08444FF08051096977
:10BD5000002589B2B0FBF1F0616941B1A16981426E
:10BD600005D142F0010025616060002008E000F08C
:10BD700017F810B10220256102E0606920B10320AC
:10BD8000BDE8704000F0D0BEBDE87040FFF79AB942
:10BD9000BDE8704000F0BEBE7C2800208831002045
:10BDA0000F48017801EB410100EBC1004169D0E986
:10BDB00002201044491E08444FF08051096989B29D
:10BDC000B0FBF1F1074882698A4205D301D140698D
:10BDD00010B14FF0000070474FF0010070470000B5
:10BDE000883100207C280020800701D00020704787
:10BDF000012070470E4810B50178002917D00221A4
:10BE0000017000214170041F0A482162C16861610C
:10BE1000007AA06100F09CFE217E0020CDDF08B1F9
:10BE2000FEF72AFCBDE81040B620FFF7BBBE10BDF0
:10BE3000BC280020AC3200202DE9F047394E002705
:10BE400080463D46DFF8E090D6F804A057E003D0E6
:10BE50000446D0F81C8035E099F8002002EB42013E
:10BE6000521CD2B289F8002009EBC10199F80230C6
:10BE7000091D9A4201D189F8005048680A780446A1
:10BE8000012A12D0022A02D0032A3BD108E000F096
:10BE90001DFF00B10127257434E00574C06900E07E
:10BEA00070680028F9D170602CE0207C50BB886855
:10BEB0006060C868A0600869E0604869A061F078C7
:10BEC00000B165606268B168184B501A20F07F407D
:10BED000984202D2A168084406E0881AA16820F0BE
:10BEE0007F40814202D9081A206000E02560656029
:10BEF0000120A56020742046E56100F0C9FEB8F17C
:10BF00000000A4D199F8001099F801008142A3D152
:10BF100017B97168514502D00120BDE8F0870020B3
:10BF2000FBE700001C290020A4330020FFFF7F0056
:10BF30001FB53D493B4800244FF0A045C1F800071C
:10BF40004FF010204FF4F2264069B04202D000209A
:10BF5000FEF792FB4FF080500069B0F5805F02D091
:10BF60000020FEF789FB314B0FCB8DE80F006846B0
:10BF700018DF08B1FEF780FB304613DF08B1FEF78B
:10BF80007BFBFEF7F5FE08B1FEF776FBFEF7C8FE79
:10BF900008B1FEF771FBFEF741FC08B1FEF76CFB40
:10BFA000FEF7A0FF00F04EF908B1FEF765FB00F0C8
:10BFB00019F908B1FEF760FB1D4A14213020FEF785
:10BFC00003FC08B1FEF758FBD5F81005400B10F044
:10BFD000010F03D101240220FFF79CFD15484FF407
:10BFE00040550068C10703D1C0F34100022804D0C6
:10BFF0001CB9A868FEF71AFE30B9FEF7E5FE08B1D5
:10C00000FEF73AFBFFF79EFDFEF754FE08B1FEF780
:10C0100033FBA868FEF70AFE10B1A868FEF71EFE03
:10C02000FDF7A2FA0C0003003400005054D20700C0
:10C03000F02C0020FCFF07000348416821F00801B4
:10C040004160007800F030BC7C280020C20800F07D
:10C0500007030120895C98400840704700283ED0C3
:10C060001F49204A096800BF00BF00BF00BF00BFD2
:10C0700000BF00BF00BF91422FD000BF00BF00BF74
:10C0800000BF00BF00BF00BF00BF00BF00BF00BFB8
:10C0900000BF00BF00BF00BF00BF00BF00BF00BFA8
:10C0A00000BF00BF00BF00BF00BF00BF00BF00BF98
:10C0B00000BF00BF00BF00BF00BF00BF00BF00BF88
:10C0C00000BF00BF00BF00BF00BF00BF00BF00BF78
:10C0D00000BF00BF00BF00BF00BF0138C3D1704721
:10C0E000342900200024F40000283ED01F49204AB3
:10C0F000096800BF00BF00BF00BF00BF00BF00BF96
:10C1000000BF91422FD000BF00BF00BF00BF00BFE3
:10C1100000BF00BF00BF00BF00BF00BF00BF00BF27
:10C1200000BF00BF00BF00BF00BF00BF00BF00BF17
:10C1300000BF00BF00BF00BF00BF00BF00BF00BF07
:10C1400000BF00BF00BF00BF00BF00BF00BF00BFF7
:10C1500000BF00BF00BF00BF00BF00BF00BF00BFE7
:10C1600000BF00BF00BF0138C3D170473429002091
:10C170000024F4004FF0A04202EB8000D0F800272A
:10C1800022F44032C0F80027D0F8002742EA0141EB
:10C19000C0F800177047000018B5084B6C46014402
:10C1A0001B68009306E000BF54F82030D3F8103528
:10C1B000401C08C28142F7D818BD0000B0D2070069
:10C1C000034908B50844002101600068009008BDDB
:10C1D0000060004002494058012800D0002070470C
:10C1E000006000400EB5034A07CA8DE807006846A4
:10C1F000FADF0EBD28D3070030B58FB00DF12D0446
:10C200000BAD6A4621462846C1DF30B1052814D05F
:10C210000FB0BDE83040FEF72FBA09490CA800F076
:10C220008DF806E0D0E90031684698470CA800F088
:10C230009CF80E980028E4D0F4E70FB030BD000061
:10C240001CD3070038B5184C207808B1082038BD39
:10C250000125A570002000F0CBFA112821D0002084
:10C2600000F0DEFA114812A21B49006800906846EF
:10C2700010DF0028EBD12570A07060700721162018
:10C2800000F094FA08B1FEF7F7F90721152000F045
:10C290008DFA08B1FEF7F0F900F024FB012000F060
:10C2A000BFFA002038BD000030290020C4D20700AA
:10C2B000333833312D353231642D376466392D32C0
:10C2C0003464382D656666332D343637622D32324C
:10C2D00035662D613030650075A607000EB507493B
:10C2E000684600F02BF805E0D0E900108847684662
:10C2F00000F03BF802980028F6D10EBDE0D207000E
:10C300001FB568464BDF30B1052814D004B0BDE836
:10C310001040FEF7B1B9084901A800F00FF806E097
:10C32000D0E900210098904701A800F01EF803987A
:10C330000028E6D0F4E71FBD44D307000160096878
:10C340004160AFF3008010B5D0E9002153689942F5
:10C3500001D1002104E0D1E90034A34202D0194602
:10C36000816010BD08314160F0E7816800290BD081
:10C37000026892680A44826041684B689A4203D11D
:10C3800008314160FFF7DFBF7047000006490979B7
:10C39000490701D40820704720B104494978016059
:10C3A000002070470E2070477C2800208831002034
:10C3B00010B514460E4A5378012B12D1012910D121
:10C3C0004068B0F5FE2F0CD1022050704FF4FC20D5
:10C3D0000068801C05D17E20FEF718FC08B1FEF72E
:10C3E0004BF9200003D0BDE81040FEF745B910BD61
:10C3F000082800202DE9F04107461E4614460D4648
:10C40000100001D0FEF738F9FFF796FA79688842F4
:10C4100014D10B484178042901D1012D09D0032DF5
:10C420000CD1C268002A09D000212046BDE8F041A5
:10C430001047C268002A01D03146F6E7BDE8F08116
:10C4400020280020F8B5054620480E460079400710
:10C4500001D40820F8BD15B1286858BB01E00E20B2
:10C46000F8BD1B4C206828B3D4E90102E16801FB48
:10C470000201686881421DD9FFF7B6FC60B1D5E9B9
:10C48000000204EB001043688168D41AB4FBF1F792
:10C4900001FB174474B901E01020F8BDB6FBF1F4BC
:10C4A00001FB146434B92EB1C0684143901919449A
:10C4B000884201D90720F8BD00200246009033468B
:10C4C00029460320FEF738FEF8BD00007C28002036
:10C4D0007C32002070B51248002425460470447058
:10C4E0002846FEF719FE6D1C0A2DF9D30D484FF0B2
:10C4F0008052846051691269491E92B2514384612D
:10C50000C1600749F4310C608C60CC6000F12801F7
:10C510000C600470C461042104624160002070BD9D
:10C52000883100207C28002038B504460E480D468E
:10C530000079400701D4082038BD24B120680228C2
:10C5400003D0072038BD0E2038BD6068FFF74CFCD3
:10C5500040B10020024600902B4621460320FEF702
:10C56000EBFD38BD102038BD7C2800200B4A127925
:10C57000520701D40820704740B139B102682AB18E
:10C58000064A283213681BB1042070470E207047FA
:10C5900002230B6000681060002070477C28002098
:10C5A000F8B5044616481F46154600790E46400762
:10C5B00001D40820F8BD26B11CB1206802281BD187
:10C5C00001E00E20F8BDBDB10846FFF70DFCA8B193
:10C5D0002846FFF709FC88B13846FFF705FC68B12B
:10C5E0006068FFF701FC48B12B4632462146012026
:10C5F0000097FEF7A1FDF8BD0720F8BD1020F8BD9B
:10C600007C280020F0B5264B1A79520701D4082067
:10C61000F0BDE8B1E1B10268D2B14FF08052456897
:10C620001469A4B2A54211D8102D0FD386686EB13B
:10C63000DC6806FB05475669D2F810C01FFA8CFC6F
:10C6400006FB0CF6B74201D8AD0703D00720F0BDBA
:10C650000E20F0BD9D68012D1FD0C1E90054114985
:10C6600001EB05114C6006680E6046688E608668B6
:10C67000CE601169D0E9016089B2491E06FB001045
:10C68000116989B2B0FBF1F011696D1C89B200FB30
:10C690000140C3E902500020F0BD0420F0BD0000BD
:10C6A0007C2800207C320020F8B504461C481E4639
:10C6B000154600790F46400701D40820F8BD1FB188
:10C6C00014B1206898B901E00E20F8BD1548016842
:10C6D00069B1C268D0E9011002FB001162689142A1
:10C6E00005D925B1A84202D3A919814201D9072051
:10C6F000F8BD3846FFF778FB78B13046FFF774FB9A
:10C7000058B16068FFF770FB38B12B463A462146B6
:10C7100001200096FEF710FDF8BD1020F8BD0000C6
:10C720007C2800207C32002010490246087800282E
:10C730001AD0042818D0022A14D0032A14D10A7956
:10C7400012070FD4CA69521CCA61B2F57A7F06D0AB
:10C75000022801D000F0A8B8487800F0E5B90D2013
:10C76000FDF7B0BFFFF796BA704700007C280020A5
:10C7700070B5012670044FF0E0210025C1F880015A
:10C78000084C4010C4F84803C4F8080366602F2022
:10C79000FFF7AAFCA660044C2F20A560FFF7A4FCBD
:10C7A000A57070BD001001401C29002070B50D4619
:10C7B0000446FDF79DF870B12846FDF7ABF868B167
:10C7C0006807000E002C0CDA04F00F0101F1E021E3
:10C7D00081F8140D09E042F2010070BD42F202003E
:10C7E00070BD04F1E02484F80004002070BD000056
:10C7F0003EB5044609496846FFF7A0FD08E000BFC2
:10C80000D0E900212046904730B16846FFF7ADFDE2
:10C8100002980028F4D13EBD11203EBDC8D20700C9
:10C820003EB5044608496846FFF788FD07E000BFAB
:10C83000D0E90021204690476846FFF796FD029810
:10C840000028F5D13EBD0000D4D2070010B54FF04E
:10C85000805088B0046E182211496846FCF723FD09
:10C86000002168460094FDF79BFBFDF775F80C4925
:10C8700028390022D1E90001CDE9060106A91046B8
:10C88000F8DF08B1FDF7F8FE06480021C16101811B
:10C890000162C181016301710221817108B010BD83
:10C8A0003CD20700402800200C49087040B1012804
:10C8B0000FD002280FD003280FD18869FFF72EBAB6
:10C8C0000020C861086206484078002805D0FEF7BD
:10C8D00009BC00F0DFB800F02DB870477C280020BC
:10C8E0008831002010B51620FDF702F880B10F48FE
:10C8F00090F800044009FDF70DF860B10C4882681B
:10C900004FF480016AB1016841F48001016010BDFB
:10C9100042F2010001E042F20200BDE81040FDF7E2
:10C92000ABBE4FF0E020C0F8001110BD16E000E0F3
:10C93000B0340020174830B441684FF0805521F0E2
:10C940000104154944600A7802EB420201EBC2017E
:10C950002A694B6992B2B3FBF2F2826189685B1E6D
:10C9600019442B699BB2B1FBF3F18A4202D144F026
:10C97000020101E024F0020141600179006901F047
:10C980000201014303D0002030BC00F0CDB80220EA
:10C99000FAE700007C2800208831002001488069E7
:10C9A000FFF7BCB97C28002070B510480024051F93
:10C9B00004702C6200F0CCF80D4901F16000C0E970
:10C9C00000148460FF2068626C70601EA86405F12A
:10C9D00038000460EC70A1F11C00AC700474446178
:10C9E00018388461C4610462446270BDBC280020B0
:10C9F000E03200204FF0805041690269006992B234
:10CA00005143044A80B2936912695B1E5843FFF791
:10CA100088B900007C2800200D48017801EB410115
:10CA200000EBC1004169D0E90220104408444FF0F6
:10CA300080510A6992B2B0FBF2F302FB13024B6918
:10CA4000096989B203FB0121024A5269FFF769B9FA
:10CA5000883100207C2800204FF080504169026915
:10CA6000006992B2514380B2B1FBF0F0FFF756B9C2
:10CA70004FF0805148690A6992B250430A690969C6
:10CA8000C2F38D02024B89B29B695943FFF749B942
:10CA90007C2800202DE9F04116484FF080540178A1
:10CAA00001EB410100EBC1052069AA6883B211487E
:10CAB000114E2D1D01789A4201EB410100EBC1019D
:10CAC0004F69C868896938440CD923699BB2D31A65
:10CAD00022691844C2F38D021944FFF722F9206934
:10CAE00080B203E09208FFF71CF968683062BDE885
:10CAF000F0810000883100207C2800200448007963
:10CB0000000702D4012000F00FB800F003B80000C5
:10CB10007C2800200348416821F0080141604078EA
:10CB200000F002B87C28002002494870024951F800
:10CB3000200000477C28002064D2070003480079C9
:10CB4000000701D4FEF7BEBAFFF7E4BF7C2800203F
:10CB5000074910B50020086206480068FDF7CCFEC2
:10CB6000002803D0BDE81040FDF786BD10BD0000D1
:10CB7000B82800208CD207000B4910B5087800288F
:10CB800010D003280AD14878012807D10022114685
:10CB90000220FDF777FFB120FFF704F8BDE8104051
:10CBA000FFF728B910BD0000BC28002010B50446CE
:10CBB000082902D00020FDF75FFDD4E90010BDE890
:10CBC0001040084770B5114D04462868FDF794FEE3
:10CBD00008B1FDF751FD4FF47A704443610CE00356
:10CBE0004FF4FA72801841F1000152000023FCF763
:10CBF00029FB014600222868FDF73AFE002803D0F1
:10CC0000BDE87040FDF738BD70BD00008CD2070054
:10CC10002DE9F84F1D4C00256846D4E901A6FEF722
:10CC200059FF002738B30023009A61681CE0D1F84F
:10CC300000C00846944503D9ACEB02020A6015E037
:10CC4000A2EB0C0263440760D0F80CC0C1698146B6
:10CC5000BCF1000F08D006EB030828F07F48C0E9BC
:10CC6000018CC9F81C5005460029E0D128466160B6
:10CC7000FFF7E2F803E02846FFF7DEF810B1504670
:10CC8000FEF7A4FAE770BDE8F88F00001C29002029
:10CC90000D4B10B5596831B102680C68A24204D836
:10CCA000A21A0A60C161586010BD0B4603E00B4632
:10CCB000C969121B21B10C689442F8D3A41A0C6004
:10CCC0000260C161D86110BD1C2900202DE9F0412E
:10CCD000144E77683D462C4603E0844204D0254636
:10CCE000E469002CF9D11BE0D4B1A5420BD1F8695D
:10CCF000706040B90C49012088600021B160F0707B
:10CD00002F20FFF7F1F92168E069E86110B10268AE
:10CD1000114401607068874202D00120BDE8F081B3
:10CD20000020FBE71C290020001001407CB50646CE
:10CD300000240D468DF800406846FDF7EDFD01A882
:10CD400000F00EFA70B10570094946609DF80400C4
:10CD500048709DF80000FDF703FE1420FCF7E8FB87
:10CD600020467CBD04249DF80000FDF7F9FDF7E79F
:10CD7000A43300202DE9FC411D4D6C68002C35D0FA
:10CD80001C4800270068A968B846401A20F07F4672
:10CD90002068B04215D8361A07442046E469017C61
:10CDA00069B180F810804169009180690190124A50
:10CDB00008216846FDF798FC08B1FDF75DFC002CE2
:10CDC000E6D129786878814206D1401CC0B26870EB
:10CDD000022801D185F80180054869780C3040F8B7
:10CDE0002170BDE8FC411420FCF7A2BBBDE8FC812A
:10CDF0001C29002004150140ADCB07002DE9F05F90
:10CE000000250B78974C2A46442B01D14B7823629E
:10CE1000944BD4F820809B1DA3F1020B93F800C023
:10CE20005F789BF80160A8F1020803F12A0A03F178
:10CE3000320EB8F10B0F70D2DFE808F0EB0A6F0684
:10CE40006F6F6F1E7010AA000A20FFF7BBFE05E18E
:10CE500000064FD5BDE8F05FFEF7CCBF000649D510
:10CE600088781870C8785870C320FEF79BFE0A2097
:10CE7000FFF7A8FE0B204EE0002E3BD130F08008DB
:10CE80004FF0FF3620D0000634D58878CB7840EAC2
:10CE90000323744823812C300F7907704F79477032
:10CEA0008F798770CF79C7706E4F006834373860DC
:10CEB0004F786C48012130300068EFB1A064E06425
:10CEC0006381A381E3811CE08878844502D1CA781C
:10CED000974200D0A6641870C87858700A798AF80A
:10CEE00000204A798AF801208A798AF80220C979D3
:10CEF0008AF80310BDE8F09FA36C984201D2A664A3
:10CF000001E08BF80110A570B920FEF74BFE0A2056
:10CF1000FFF758FE09202062ECE7A1E030F0800224
:10CF20001DD00006E6D50A798AF800204A798AF8E9
:10CF300001208A798AF80220C9798AF80310DAF880
:10CF40000000411C01D0A064A581A0896081BE20A1
:10CF5000FEF728FE0A20FFF735FE0A20DBE7887877
:10CF6000844503D1CA78974200D126B91870C87891
:10CF70005870A564A5810A798EF800204A798EF848
:10CF800001208A798EF80220C9798EF80310B1E762
:10CF900030F08002AED15B46032EABD18A78CE78DA
:10CFA00042EA062626810F798AF800704F798AF8BE
:10CFB00001708F798AF80270C9798AF803102949BB
:10CFC000DAF800704431DEF800C009687A1871465A
:10CFD000624500D20A606289964200D00D60042248
:10CFE0005A7066810C68C022A74202D90022CEF88E
:10CFF0000050000606D58BF801500AB1C12203E0AB
:10D00000C22201E0002A87D0BDE8F05F1046FEF79B
:10D01000C9BD087960F30702487960F30F22887967
:10D0200060F31742C87960F31F620E481C30006835
:10D03000904213D10B4E8878A0611436CA783168BB
:10D0400062F30201316001460020CDDF08B1FDF737
:10D0500013FB307800F00700FDF796FF256249E7E3
:10D06000226247E7B82800200A4810B50178002955
:10D070000ED004210170002141700A20FFF7A2FDAB
:10D080004E20FDF769FDBDE81040B820FEF78ABDCF
:10D0900010BD0000BC2800200870020A4A70020C73
:10D0A0008A70000EC8700420704700002DE9F0411E
:10D0B000254D0F4600064FF00006A5F1380413D5A4
:10D0C000201D4670B879C97940EA0120208129687D
:10D0D00021B16189884201D1C12000E0C220FEF760
:10D0E00061FD2E60BDE8F0810820E0630A20FFF7B3
:10D0F00069FD154A2868083A1168814201D9E6633A
:10D10000F0E71646E26B0A44824201D8E06B01E088
:10D11000401AE0630028E5D0082802D90020FDF776
:10D12000ABFA276439466089E26BFEF7A5F86081A7
:10D13000BF20FEF737FD3068E16B08443060A06423
:10D140006089A081CEE70000F028002010B5002003
:10D15000FDF7C0F901490720887110BD4028002063
:10D160000A494A788B78521CD2B2934200D10022ED
:10D170000B78934201D1002070470270487800EB91
:10D18000400001EBC000001D70470000A4330020E8
:10D1900010B5044C02E0206900B1804720780028D7
:10D1A000F9D110BDB828002010B5074C41DF08B1F7
:10D1B000FDF762FAFDF7E8FA6078022803D0032849
:10D1C00001D00428F2D110BD082800202E53554666
:10D1D000424644312E30304230300000030000001F
:10D1E000000000000000000000000000000000003F
:10D1F00000000000202B0020414E544653204F5485
:10D20000412055706461746500010203040506073E
:10D210000800000008000000742800200110000031
:10D2200000000000000000000000000001000E01EE
:10D230000000008046000000FFFFFFFF000000002C
:10D240000100FF00320000003300000009D2070097
:10D25000F8D10700020000000000000000000000FC
:10D260000000000059CA070071CA07009DC90700E5
:10D2700019CA0700F5C90700FDCA07000DB307006A
:10D28000B9B207003DCB070029BD07008C32002052
:10D29000000001CC01D8001401F0003C002801E49A
:10D2A00001A0006C007801B40050019C018800448A
:10D2B000000000500000000000000000000000001E
:10D2C0000000000001000007B4D20700C4D207002C
:10D2D00008000000ECD20700FCD2070008000000A4
:10D2E000FCD207000CD3070008000000000000007B
:10D2F00000000000000000000000000080D30700D4
:10D3000090D30700000000000000000070D3070069
:10D3100078D3070000000000000000000CD30700D5
:10D320001CD307000800000001002000BC340020CE
:10D330008000000078D3070080D3070000000000C1
:10D340000000000034D3070044D3070008000000A9
:10D3500090D30700002800203801000050930700F8
:10D36000A4D3070038290020082C0000E09807000B
:10D370002D9907000000000029C7070000000000E9
:10D38000F9C107000000000001C307000000000011
:10D3900051056D38290020320906BA04003A003AD6
:04D3A0001490D00312
:020000041000EA
:041014000090070041
:020000041000EA
:0410180000E00700ED
:04000005000792015D
:00000001FF
