:020000040001F9
:10200000D02E00204D22010055220100192201008E
:10201000592201005B2201005D2201000000000046
:102020000000000000000000000000005F2201002E
:10203000612201000000000063220100652201000E
:102040006722010067220100672201008D3501002F
:102050006722010067220100D928010067220100E0
:102060006722010067220100672201006722010048
:102070006722010067220100672201006722010038
:102080006722010059350100672201006722010023
:10209000A1350100A9350100BD350100672201000D
:1020A0006722010067220100672201006722010008
:1020B000672201006722010000000000000000000C
:1020C00067220100672201006722010067220100E8
:1020D0006722010067220100672201000000000062
:1020E00000000000000000000000000000000000F0
:1020F00000000000000000000000000000000000E0
:1021000000000000000000000000000000000000CF
:1021100000000000000000000000000000000000BF
:1021200000000000000000000000000000000000AF
:10213000000000000000000000000000000000009F
:10214000000000000000000000000000000000008F
:10215000000000000000000000000000000000007F
:10216000000000000000000000000000000000006F
:10217000000000000000000000000000000000005F
:10218000000000000000000000000000000000004F
:10219000000000000000000000000000000000003F
:1021A000000000000000000000000000000000002F
:1021B000000000000000000000000000000000001F
:1021C000000000000000000000000000000000000F
:1021D00000000000000000000000000000000000FF
:1021E00000000000000000000000000000000000EF
:1021F00000000000000000000000000000000000DF
:10220000DFF810D000F056FB00480047E94D010010
:10221000AFF30080D02E0020094B1EF0040F1CBF2E
:10222000EFF309801847EFF308800649064A884211
:1022300001D8904202D88D464FF0000018470000A8
:10224000112B0100D02E0020D00E00200648804720
:1022500006480047FEE7FEE7FEE7FEE7FEE7FEE78B
:10226000FEE7FEE7FEE7FEE7D535010001220100AB
:102270002DE9F05F0546002092469B4688460646BB
:10228000814640241BE0284641464746224600F04E
:1022900009FA53465A46C01A914110D311461846BE
:1022A000224600F0F0F92D1A67EB01084F4622464E
:1022B0000120002100F0E7F917EB00094E41201E34
:1022C000A4F10104DFDC484631462A464346BDE816
:1022D000F09FD2B201E000F8012B491EFBD27047FB
:1022E0000022F6E710B513460A4604461946FFF7E2
:1022F000F0FF204610BD2DE9FE4F804681EA030025
:10230000C00F0C46009021F0004123F00045B8EBCF
:102310000200A94105D24046214690461C460B4684
:10232000024623F00040104347D0270DC7F30A00B0
:10233000C3F30A510290401A019040286BDAC3F3AC
:10234000130040F4801B0098924620B10023D2EB8A
:10235000030A63EB0B0B01985946C0F1400250464B
:1023600000F091F906460D4650465946019A00F094
:10237000A9F910EB08006141002487EA115284EAB0
:10238000E7731A4340D0009A62B3019A012A4FEAD8
:10239000075215DC001B61EB02014FF0004202EA1C
:1023A0000752CDE90042001C41F5801132462B4610
:1023B00000F0E0F903B0BDE8F08F40462146F9E7B0
:1023C000001B61EB0201001C41F5801300185B410A
:1023D0002018A2F5001747EB030140EAD570B619A3
:1023E0006D4111E06D084FEA360645EAC0754FEAC7
:1023F0000752001B61EB0201001C41F580114908E6
:102400004FEA30000019514132462B4603B0BDE877
:10241000F04F00F0A0B90098012240000023D0EB5B
:10242000020263EBE073009821464FEAE074B8EBD8
:10243000000061EB0401E9E783F000435BE781F012
:10244000004158E72DE9FE4F81EA030404F00044FF
:1024500021F0004100944FF0000B23F0004350EABC
:1024600001045ED052EA03045BD0C3F30A54C1F303
:102470000A552C44A4F2F3340194A0FB0254C1F396
:10248000130141F48011C3F3130343F4801301FBE0
:10249000024400FB034E840A970A44EA815447EA47
:1024A0008357A4FB076802958D0A05FB07854FEA51
:1024B000932C04FB0C542705029D4FEA065847EA6B
:1024C0001637B5EB08056EEB070C870E920E47EA40
:1024D000811742EA8312A7FB0201B6EB0B0164EB02
:1024E00000042B0D43EA0C335E1844EB1C50DA4613
:1024F0005146E7FB0201C5F313044FEA0B3343EAED
:1025000014534FEA0432019C43EA0603A4F10C047D
:102510000294009CCDE900B400F02CF903B0BDE8B2
:10252000F08F00200146F9E72DE9F04D81EA030420
:1025300004F0004B21F0004514464FF0000A23F050
:10254000004150EA050220D054EA01021DD0C5F333
:102550000A570246C5F31303C1F31300C1F30A5629
:1025600040F4801543F48013A7EB0608101BD646F1
:1025700008F2FD3873EB050002D308F1010801E011
:1025800092185B41B8F1000F03DA00200146BDE864
:10259000F08D00204FF48011064684460EE0171B94
:1025A00073EB050705D3121B63EB050306434CEAE7
:1025B000010C49084FEA300092185B4150EA0107CC
:1025C000EDD152EA030012D082EA040083EA050149
:1025D000084305D0101BAB4106D20122002306E0C0
:1025E00000224FF0004302E06FF0010253101AEB9B
:1025F00006004CEB085110EB0A0041EB0B01BDE863
:10260000F04D00F0A8B80EB5C10F80EAE0700844A4
:10261000CA07002140F233438DE80E000A460B46FC
:1026200000F0A8F803B000BD00F0004230F0004018
:102630000AD0C10D01F56071C0F3160042EA0151E4
:10264000C20840071143704700200146704701F05F
:10265000004330B421F0004150EA010206D00A0DD7
:10266000A2F56072C1F31301002A02DC30BC002025
:102670007047440F44EAC104C100E01830BC00EBCD
:10268000C25000F031B8202A04DB203A00FA02F1EF
:10269000002070479140C2F1200320FA03F3194350
:1026A00090407047202A04DB203A21FA02F00021F2
:1026B000704721FA02F3D040C2F120029140084352
:1026C00019467047202A06DBCB17203A41FA02F060
:1026D00043EAE07306E041FA02F3D040C2F120027F
:1026E00091400843194670470029A8BF7047401C15
:1026F000490008BF20F00100704710B4B0FA80FC18
:1027000000FA0CF050EA010404BF10BC704749B154
:10271000CCF1200421FA04F411FA0CF118BF0121C4
:1027200021430843A3EB0C01CB1D4FEA00614FEAA4
:10273000102042BF002010BC704700EBC350104473
:102740000029A4BF10BC7047401C490008BF20F0FE
:10275000010010BC704710B5141E73F1000408DAB4
:10276000401C41F1000192185B411A4301D120F055
:10277000010010BD2DE9F04D92469B4611B1B1FA12
:1027800081F202E0B0FA80F220329046FFF77BFF40
:1027900004460F4640EA0A0041EA0B0153465A46F6
:1027A000084313D0114653EA010019D0C8F1400282
:1027B0005046FFF777FF05460E46504659464246BB
:1027C000FFF761FF084305D0012004E020463946A9
:1027D000BDE8F08D0020054346EAE0762C43374300
:1027E0000A986305E40AA0EB08000022FD0A44EA07
:1027F00047540A3002D500200146E9E701051019C7
:102800006941DDE9084500196941BDE8F04DA2E7DD
:102810002DE9F04D00231A461B1A8A4103DB0020E4
:102820000146BDE8F08DC1F30A52C1F3130141F432
:1028300080154FF0000BD10702D100186D41521ED8
:102840000027044640F2FF11384601EB620A3E467B
:102850008046024600204FF48011FFF723FFC21983
:102860007141BB1846EB0100B4EB030C75EB000C97
:1028700004D3E41A65EB000517460E46241908F147
:1028800001006D4180463428E3DDF91946EB06006E
:10289000091BA84103D24FF0FF32134601E000228A
:1028A00013461BEB070046EB0A51BDE8F04DFFF75E
:1028B00052BF0000064C074D06E0E06840F00103FF
:1028C00094E8070098471034AC42F6D3FFF79CFC1D
:1028D000986C0100B86C01002DE9F04F89B04FF001
:1028E0000008002008904FF4807007900126002413
:1028F00013E0079803F080F948B100BF81480068F1
:10290000304020B1079803F069F948EA06087600DC
:102910000798001D80B20790641C082CE9D34FF47F
:10292000BE7003F069F950B14FF4BE7003F056F970
:1029300048F0004808AA0121002003F035F908F00A
:10294000FF0000B3012600241BE006EA0800B0B136
:1029500000BF6D4850F82400C0F30420074600BFB4
:10296000694850F82400C0F301408146204601F038
:102970000FFE054615B149463846A84700BF760008
:10298000641C082CE1D308F0004000287ED0002011
:1029900006900590002505E04FF0FF3004A941F8AE
:1029A00025006D1C002DF7D000BF002006900024EC
:1029B0006FE05648005D0390039820F0C00753482D
:1029C0000057401C002863D004A9384602F044FC9C
:1029D00000285DD003984FEA901A384601F020FE97
:1029E000814601F0D5FD0290029810B9BAF1030FAB
:1029F0004BD1BAF1030F11D1394605A80246CB08D5
:102A000001F0070112F803C04FF0010E0EFA01FEAB
:102A10004CEA0E0C02F803C000BF00BF00BF00BFAD
:102A20004FF0A041084600F5E06151F82710C1F3CE
:102A3000014900BF08A9384602F00EFC8346BBF1ED
:102A4000000F02D0B9F1020F05D0BBF1000F1BD16E
:102A5000B9F1030F18D1BAF1030F0FD1B9F1020F79
:102A600001D1032000E0022001903846019903F0D3
:102A700037F80698401CC0B2069000BF029818B103
:102A800051463846029A904700BF00E036E000BF4A
:102A9000641C042C8DD3069858B3012703AA012186
:102AA000002003F081F800250AE003A850F8250073
:102AB00008A951F82510884201D0002702E06D1CBA
:102AC000002DF2D000BF17B10020069010E00025C5
:102AD0000CE003A850F8250008A941F8250005A836
:102AE00050F8250004A941F825006D1C002DF0D0F8
:102AF00000BF069800287FF458AF00BF09B0BDE8BA
:102B0000F08F00000463004010650040DC0C0020E2
:102B100010B50446204600F001F810BD00BF00BF0C
:102B200000BF00BF00BFBFF34F8F00BF00BF00BF9B
:102B30000948006800F4E06008490843001D0649A0
:102B4000086000BF00BF00BFBFF34F8F00BF00BFD2
:102B500000BF00BF00BFFDE70CED00E00000FA057C
:102B600010B5022001F003F90221142002F09EFEAC
:102B700004460CB1204610BD0020FCE710B5022031
:102B800001F0F5F80221012002F090FE04460CB19C
:102B9000204610BD0020FCE710B5002001F0E7F84A
:102BA0000021072002F082FE04460CB1204610BD31
:102BB0000020FCE710B5002001F0D9F880210620A4
:102BC00002F074FE04460CB1204610BD0020FCE764
:102BD00038B50121322002F03FFE01226946322041
:102BE00002F08AFD0446012038BD10B5002001F036
:102BF000BEF80121062002F059FE04460CB1204621
:102C000010BD0020FCE72DE9F0410446022001F050
:102C1000AEF8C4F303263146102002F047FE054605
:102C200004F00F073946112002F040FE054615B1A9
:102C30002846BDE8F0810020FBE770B5044602207D
:102C400001F095F805462146002002F02FFE0DB157
:102C5000284670BD0020FCE710B52DED0A0B2DEDC8
:102C6000108BA6B0F0EE60FAF0EE43CAF0EE63BA55
:102C7000B0EE44CA9FEDFE0A8DED240A9FEDFD0AD9
:102C800010EE104A2046FFF7CFFC9FEDFB0BCDE97D
:102C9000020100F0E1FD8DED000B9DED020B53EC08
:102CA000102B9DED000B51EC100BFFF7CBFBCDE98A
:102CB00004019DED040B51EC100BFFF7C8FC2390B1
:102CC000EF4890ED000AB0EE40BA90ED010AB0EE88
:102CD00040AA90ED020AB0EE408A90ED030AF0EEB1
:102CE000408AB0EE000A2BEE000A8DED100AB0EE1D
:102CF000000A2AEE000A8DED0F0AB0EE000A28EE57
:102D0000000A8DED0E0AB0EE000A28EE800A8DED65
:102D10000D0AB0EE000A2BEE000A20EE080A8DED37
:102D20000C0AB0EE000A28EE000A20EE280A8DED0B
:102D30000B0A2BEE0B0A8DED0A0A2BEE0A0AF0EEB7
:102D400040EA2BEE080AB0EE40FA2BEE280A8DED91
:102D5000090A2AEE0A0AB0EE40EA2AEE080A8DEDC8
:102D6000080A2AEE280AF0EE40DA28EE080AB0EE49
:102D700040DA28EE280A8DED070A28EEA80A8DED24
:102D8000060ADDED360A60EEA00A4FEEAF0A9DEDB1
:102D9000381A41EE010AB0EE600A00F09AFDF0EE3A
:102DA00040AAF5EEC0AAF1EE10FA04D126B0BDECAF
:102DB000108B0AB010BDB7EE000AC0EE2A0AF0EE82
:102DC00060AA9DED360A20EE2A0A8DED360A2FEE16
:102DD000AA0AF0EE40FA9DED380A20EE2A0A8DED9F
:102DE000380A6CEEAC0A4BEEAB0A4CEE0C0AB0EEB5
:102DF000600A00F06EFDF0EE40AAF5EEC0AAF1EE1A
:102E000010FA00D1D2E7B7EE000AC0EE2A0AF0EEBF
:102E100060AA2CEEAA0AF0EE40CA2BEEAA0AF0EE47
:102E200040BA2CEE2A0AB0EE40CAB0EE000A2BEEF1
:102E3000000A20EE2C0A8DED180AB0EE000A2BEEE7
:102E4000000A20EE2B0A8DED170AB0EE000A2BEED9
:102E5000000A20EE0C0A8DED160AB0EE000A2AEEEA
:102E6000000A20EE2C0A8DED150A9DED0A0A2CEEC3
:102E7000800ADDED170A00EEE80ADDED160A00EE25
:102E8000880A0CEE8E0ADDED0F0A60EEAB0A00EE4A
:102E9000880ADDED0F0A60EE8C0A00EEA80A0CEE3F
:102EA000CD0ADDED060A0CEEE00A8DED220A9DED5D
:102EB000180A60EE280A9DED0A0A4BEE800A9DED85
:102EC000160A40EE4A0A9DED150A40EE080A4BEE3E
:102ED000CE0A4BEE8D0A9DED0E0A20EE0C1AB0EED6
:102EE000600A01EE280ADDED060A0BEEE00A8DED20
:102EF000210A9DED220A60EE000A9DED210A40EEB6
:102F0000000A10EE901A0846FFF78EFBCDE9020189
:102F10009DED020B00F0A0FC8DED040B9DED040B6C
:102F200051EC100BFFF793FB09EE100A9DED180A08
:102F3000B1EE400A60EE080A9DED170A40EE0A0A5B
:102F40009DED0A0A4CEE000A9DED150A40EE280A96
:102F50004CEE4E0A9DED0E0A20EE2B0A40EE280A9A
:102F60004CEE4D0A9DED060AF0EE609A4CEE009A8A
:102F7000B0EE000A29EE000A8DED140AB0EE000A48
:102F800029EE800A8DED130A9DED140AF0EE000A79
:102F900020EE200A8DED120A9DED130AF0EE000AD4
:102FA00020EE200A8DED110A9DED0C0AF0EE000ACC
:102FB00010EEAD0ADDED360A70EE600A9DED0E0AE8
:102FC000B1EE400A60EE800A9DED0B0AB0EE001AE9
:102FD00001EE2E0A70EE6F1A9DED0F1AB0EE600A28
:102FE00001EE210AF6EE000A30EECD1ADDED060AFA
:102FF00071EE600A60EE890A3DEECF1A49EE810A51
:1030000070EEEC0A29EE881A01EE600AF1EE490A28
:1030100060EEA80A49EE8A0A9DED081ADDED091A4C
:1030200031EE611A21EE091ADDED071A7EEEA11AC2
:1030300009EEA11A31EE6B1A00EE810A7FEE2D0A1D
:1030400060EE890AB6EE001A31EE4E1A31EE4D1AD4
:1030500049EE810A70EECC0A29EE081A01EE200A28
:103060008DED200A9DED0C0AF0EE000A0AE000004A
:10307000CDCCCC3D36FA8E3C000000000000E83F8D
:10308000980B002010EEAD0ADDED360A70EE600AF6
:103090009DED0D0A60EE800A9DED0B0AB0EE001A60
:1030A00001EE2E0A70EE6F1A9DED101AB0EE600A56
:1030B00001EE210AF7EE000AB0EE001A41EE4E0AC8
:1030C000B0EE001A41EE4D0A9DED381A70EEC10ABD
:1030D000B1EE001A2AEE011A01EE600AF6EE000ABD
:1030E00030EECD1ADDED060A71EE600A60EE890A57
:1030F0003DEECF1A49EE810A70EEEC0A29EEA81ACD
:1031000001EE200A69EE080A49EE8B0A9DED081AC5
:10311000DDED091A31EE611A21EE091ADDED071A0B
:103120007EEEA11A09EEA11A31EE6B1A00EE810AA9
:1031300029EE281ADDED130A00EECA1A7FEE2D0AD9
:1031400060EE890AF6EE001A71EECE1A71EECD1A13
:1031500049EEA10A70EECC0A01EE200A8DED1F0A9D
:103160009DED0C0AF0EE000A10EEAD0ADDED360A18
:1031700070EE600A9DED100AB1EE400A60EE800A22
:103180009DED0B0AB0EE001A01EE2E0A70EE6F1ADA
:103190009DED0D1AB0EE600A01EE210AF7EE000A6D
:1031A000B0EE001A41EE4E0AB0EE001A41EE4D0AA2
:1031B0009DED381A70EEC10AB1EE001A28EE011A20
:1031C00001EE600ADDED140AF1EE600A60EE880A95
:1031D00049EECB0AB6EE001A71EE4D1A9DED061AB5
:1031E00031EEC11A21EE091A7DEECF1A09EEA11AAD
:1031F00031EE6C1A00EE810A69EE0A0A49EEA80A5D
:103200009DED081ADDED091A31EE611A21EE091A59
:10321000DDED071A7EEEA11A09EEA11A31EE6B1A46
:1032200000EE810A29EE0B1ADDED130A00EEC81A32
:103230007FEE2D0A60EE890AF6EE001A71EECE1AC4
:1032400071EECD1A49EEA10A70EECC0A01EE200A09
:103250008DED1E0A9DED0C0AF0EE000A10EEAD0A8F
:10326000DDED360A70EE600A9DED0F0A60EE800A11
:103270009DED0B0AB0EE001A01EE2E0A70EE6F1AE9
:103280009DED0E1AB0EE600A01EE210ADDED140A82
:10329000F1EE600A60EEA80A49EE8A0AB6EE001A5C
:1032A00071EE4D1A9DED061A31EEC11A21EE091A82
:1032B0007DEECF1A09EEA11A31EE6C1A00EE810AEA
:1032C000F1EE490A60EE8B0A49EE880A9DED081A74
:1032D000DDED091A31EE611A21EE091ADDED071A4A
:1032E0007EEEA11A09EEA11A31EE6B1A00EE810AE8
:1032F0007FEE2D0A60EE890AB6EE001A31EE4E1A04
:1033000031EE4D1A49EE810A70EECC0A29EE0A1A06
:1033100001EE200A8DED1D0ADDED200A60EEA00A07
:103320009DED1F1A41EE010A9DED1E1A41EE010AA4
:103330009DED1D1A41EE010AB0EE600A00F0C9FAD7
:10334000F0EE40AAB7EE000AC0EE2A0AF0EE60AA3C
:103350009DED200A20EE2A0A8DED200A9DED1F0A20
:1033600020EE2A0A8DED1F0A9DED1E0A20EE2A0A84
:103370008DED1E0A9DED1D0A20EE2A0A8DED1D0A17
:10338000F1EE4A0A9DED390A20EE800ADDED3A0A97
:1033900008EE600ADDED3B0A08EEE00AF6EE000AF0
:1033A00020EE200ADDED240A9DED201A00EEC10A70
:1033B0008DED1C0A9DED390A2BEE000ADDED3B0A6E
:1033C00008EE200ADDED3A0A08EEE00AF6EE000A01
:1033D00020EE200ADDED240A9DED1F1A00EEC10A41
:1033E0008DED1B0A9DED3A0A2BEE000ADDED3B0A3E
:1033F0000AEE600ADDED390A08EEA00AF6EE000AD0
:1034000020EE200ADDED240A9DED1E1A00EEC10A11
:103410008DED1A0A9DED3B0A2BEE000ADDED3A0A0E
:103420000AEE200ADDED390A08EE600AF6EE000A1F
:1034300020EE200ADDED240A9DED1D1A00EEC10AE2
:103440008DED190A9DED1C0ADDED3F0AB0EE4B1A19
:1034500000EE201AB0EE41BA9DED1B0ADDED3F0AE9
:10346000B0EE4A1A00EE201AB0EE41AA9DED1A0AFB
:10347000DDED3F0AB0EE481A00EE201AB0EE418AA8
:103480009DED190ADDED3F0AB0EE681A00EE201A34
:10349000F0EE418A6BEE0B0A4AEE0A0A48EE080A81
:1034A00048EEA80AB0EE600A00F013FAF0EE40AA67
:1034B000B7EE000AC0EE2A0AF0EE60AA2BEE2A0A46
:1034C000084880ED000A2AEE2A0A80ED010A28EE5B
:1034D0002A0A80ED020A28EEAA0A80ED030A00BF3C
:1034E00064E40000980B002000F01F0201219140CD
:1034F000024A430942F823107047000080E200E0CE
:1035000000F01F02012191404209920002F1E022E5
:10351000C2F800117047000000F01F020121914025
:10352000024A430942F823107047000000E200E01D
:1035300010B5002807DA4A07140E054A00F00F03F9
:103540001B1FD45403E04A07130E024A135410BD44
:1035500018ED00E000E400E010B500200949086023
:1035600000210948C0F84411C0F84811C0F84C11B6
:1035700000200549C1F8000102493C39086002F009
:1035800095FF10BD401101400010014010B50249E7
:10359000024801F0F0FA10BDE40C002000300040B9
:1035A00010B502F08DFE10BD10B503480188012052
:1035B00002F0A6F910BD0000E00B002010B502F0EB
:1035C00049FC10BD01480249086070470090D003D3
:1035D000180C002010B501F013F928B18E480088AE
:1035E000C0F304208D49086001F05EF910B18C48E9
:1035F0008C49486701F070F930B18748E0380068BD
:10360000C0F342308849086001F090F928B187483A
:10361000006820F080708549086001F09FF948B18A
:103620000020834908604FF08041C1F810017E49B5
:10363000091F086001F0BCF918B103207A49643110
:10364000086001F0CDF968B105207A4908600120D1
:1036500078497831086000207649083108603F20B9
:10366000091F086001F0D4F9002855D06A48E030FD
:103670000068714908606848E4300068091D086006
:103680006548E8300068091D08606348EC30006850
:10369000091D08606048F0300068091D08605E4838
:1036A000F4300068091D08605B48F8300068624922
:1036B000203108605848FC300068091D08605F48E8
:1036C0000068091D08605D48001D0068091D08604C
:1036D0005A4808300068091D086058480C300068D6
:1036E000091D086055481030006853494031086092
:1036F000524814300068091D0860504818300068AE
:10370000091D08604D481C300068091D08604B48C1
:1037100020300068091D086001F048F830B13E48CB
:10372000CC38006800F04F004549086001F092F87D
:1037300040B14448006800F0010018B16FF001008A
:103740004049086039487438006840F470003749CF
:103750007439086000BF00BF00BFBFF34F8F00BFC8
:1037600000BF00BF00BF00BF00BFBFF36F8F00BF2F
:1037700000BF00BF3448006800F0004028B932485C
:10378000001D006800F00040F0B301202F490860E0
:1037900000BF2F4800680028FBD015202A49086088
:1037A00000BF2B4800680028FBD015212648001DCB
:1037B000016000BF264800680028FBD00020234994
:1037C000086000BF224800680028FBD000BF00BF8F
:1037D00000BF00BF00BFBFF34F8F00BF00BF00BFDF
:1037E0001248F038006800F4E0601A490843001DF0
:1037F0000E49F039086000BF00BF00BFBFF34F8F14
:1038000000BF00BF00BF00E002E000BF00BFFDE757
:10381000FFF7D8FE10BD0000240300104035014022
:103820000DF0ADBA00C007403C050040FCED00E0E3
:103830000C0100401056004020C500402404001038
:10384000E40E0040000400400012001004E50140B6
:1038500000E401400000FA0500B52DED048BB0EE48
:10386000409AF0EE609A83B051EC190BFEF7D0FF4E
:1038700041EC180B18EE100A18EE901A8DED008B23
:10388000002818BF0120084320F00040C0F17F60ED
:1038900000F1E040C00F14D019EE101A19EE900A92
:1038A0008DED009B002918BF0121084320F0004046
:1038B000C0F17F6000F1E040C00F04BF012000F0C4
:1038C00063F8B0EE480A03B0F0EE680ABDEC048B72
:1038D00000BD10B52DED028BB1EEC08A18EE100AB6
:1038E00020F00040C0F1FF40C00F0AD010EE100AD7
:1038F00020F00040C0F1FF40C00F04BF012000F0E5
:1039000043F8B0EE480ABDEC028B10BD02E008C8D7
:10391000121F08C1002AFAD170477047002001E049
:1039200001C1121F002AFBD1704700000146202967
:1039300008DA012088400A4A104008B10120704787
:103940000020FCE7402909DAA1F12000012202FA57
:1039500000F008B10120F2E70020F0E70120EEE7D7
:10396000FC06FFBD00BFEFF31081084672B670473A
:103970000146082904D20120884000F0EC0008B973
:10398000002070470120FCE70149086070470000F3
:103990001C0C002010B50446022000F0BBFA10BD3C
:1039A00070B50446A378A27A61782078C2DF054614
:1039B00000BF0DB1284670BD00BF23796279E18850
:1039C0002078D3DF054600BF0DB12846F3E700BFDE
:1039D000E1782078CDDF054600BF0DB12846EAE743
:1039E00000BFA07800F0010028B9208918B1218912
:1039F0002078D1DF05462846DDE700003EB50F4AB6
:103A000007CA8DE807006846FFF7CAFF044600BFF3
:103A1000254625B100BF284600F00AF900BF00BFC7
:103A200000210846C4DF044600BF254625B100BF7B
:103A3000284600F0FDF800BF00BF3EBD146B01003A
:103A40000A4690F82C10F1B990F82D10802918D161
:103A500041784E2914D1C17861B900210A4B19600F
:103A60000A4B19600A4B19600A49096811B901210A
:103A7000084B196007490968012901D1064B1960F3
:103A800000E000BF00BF7047A80B0020B40B00206F
:103A9000B80B0020AC0B0020B00B00202DE9FC4738
:103AA00004460D4616461F46DDF828A0002000906B
:103AB000019001208DF8000000208DF801000AF02F
:103AC000FF008DF80300E0B28DF80400E8B28DF835
:103AD0000500F0B28DF80600F8B28DF807006A46CE
:103AE00008210020C7DF804600BFC146B9F1000FA2
:103AF00004D000BF484600F09BF800BF00BFBDE8FF
:103B0000FC87000010B5002407E00749096811F898
:103B10003400012101F0CCFC641C0448007884428C
:103B2000F3D3002010BD0000E40B0020E80B0020C0
:103B30002DE9F84306460C461746052F02D207200A
:103B4000BDE8F88301F0B2FD38B901F07FFD05460C
:103B500000BF0DB12846F3E700BF164806601648BF
:103B60000470164807600020154908601549086070
:103B700015E006EBC40814480068009098F80200AD
:103B80008DF8010098F80000104A694601F0E6FC43
:103B9000054600BF0DB12846D2E700BF00BF201E7A
:103BA000A4F10101CCB2E4D1094A0021094800F096
:103BB000F9F8C5E7E40B0020E80B0020EC0B00202F
:103BC000F00B0020F40B0020F06B0100994A01007B
:103BD000BD460100EC6B010000BF1348006800F017
:103BE000010000B100BE00BF00BF00BF00BF00BFAA
:103BF00000BFBFF34F8F00BF00BF00BF0A48E438CB
:103C0000006800F4E06009490843001D0649E439F2
:103C1000086000BF00BF00BFBFF34F8F00BF00BFF1
:103C200000BF00BF00BFFDE7F0ED00E00000FA05B7
:103C30003EB50446002000900190029002946A462E
:103C4000002144F20100FFF7C7FF3EBD10B501F0AF
:103C500037FD04460CB1204610BD0020FCE770B5CE
:103C600004462546002000F082F829780F2001F054
:103C70001DFE70BD7CB50446002000F078F80122DE
:103C800001A90F2001F07AFD05469DF8040020F0FF
:103C90000200801C019001A8FFF7E1FF05460DB16D
:103CA00028467CBD002000F062F8012269460F2002
:103CB00001F064FD054626463178312001F0CCFD47
:103CC000EFE77CB50646002000F051F80622694671
:103CD0002D2001F053FD05460DB128467CBD34462C
:103CE000002007E0C0F105011DF801102170641CDF
:103CF000411CC8B20628F5DB0020EFE77CB506467C
:103D0000002000F034F806226946332001F036FD29
:103D100005460DB128467CBD3446002007E0C0F1C1
:103D200005011DF801102170641C411CC8B2062851
:103D3000F5DB0020EFE7F8B504460D4606222146E4
:103D4000112001F0D9FC06460EB13046F8BD35B958
:103D500001226946182001F0CFFC064605E0012249
:103D60002946182001F0C8FC06463046EEE770B53B
:103D70000446002634B1012C06D0022C06D0032CB8
:103D800008D105E0002605E0102603E0202601E02A
:103D9000302600BF00BF31467F2001F087FD054679
:103DA000284670BD10B503460C4600BF0B4880780E
:103DB00008B9082010BD00BF0AB90720FAE70BB9FF
:103DC0000720F7E71868007C08B10820F2E71968B7
:103DD000002008744C744A6100BFEBE72C0D0020F2
:103DE00010B502F017F900200F49087048700B2039
:103DF000887000200D4908600D4908700D49087051
:103E00001420FFF771FB07211420FFF791FB14200A
:103E1000FFF776FB002002F0D3F802F0CBF806495A
:103E20000860002010BD00002C0D0020F80B0020C1
:103E3000080C0020090C0020FC0B00202DE9F041AB
:103E400004460E461746254600BF1048807810B934
:103E50000820BDE8F08100BF0CB90820F9E7052E65
:103E600001D20720F5E7686908B90820F1E7687C06
:103E7000012801D1304600E0002080463B46424602
:103E80003146284602F0C2FAE3E700002C0D00207C
:103E900070B50446254600BF0848807808B9082058
:103EA00070BD00BF0CB1686908B90820F8E70020B0
:103EB00028740221284602F0D8FAF1E72C0D0020E0
:103EC00010B50446204602F03DF910BD70B5044619
:103ED00025460E488068B0B1ADB9FFF743FD0646F0
:103EE0000A4800680A490860084840684FF0E02125
:103EF000C1F804010020054988601EB900BF62B600
:103F000000BF00BF00BF00BF70BD0000380E002022
:103F100000E100E010B502460949885C00BF4FF09F
:103F2000A0442146D1F80435012484409C43C1F8C3
:103F30000845012484401C40C1F80C4500BF10BD59
:103F4000386B010010B504460249085D012101F0FB
:103F50000DFE10BD386B010010B504460249085D26
:103F6000002101F003FE10BD386B010010B50146C1
:103F7000094B585C00BF4FF0A044234600BFD3F864
:103F80000445C44004F001040CB1012000E000200D
:103F9000024682F0010010BD386B01007CB50024A0
:103FA0000CE00948055D00200090034601221146FF
:103FB0000190284601F06CFD00BF641C042CF0D376
:103FC00000F004F87CBD0000386B010010B500243F
:103FD00003E02046FFF7B6FF641C042CF9D310BDA4
:103FE00010B5002403E02046FFF7B6FF641C042C44
:103FF000F9D310BD02464FF0FF30002106E0054B1B
:104000005B5C934201D1084602E0491C0429F6D3C7
:1040100000BF70473C6B01002DE9F04106460F469A
:104020004FF0000800243046FFF7E4FF0446042C5C
:104030003ED20FB3012F02D0022F38D130E004EB73
:104040004400214911F8008004EB44000844407802
:1040500050B11E4A4FF400411D480068FFF7EEFEC4
:1040600005460DB91948067004EB4400164908448A
:104070008078184908551AE015480068FFF708FFCE
:104080001448005D04EB44010F4A114489788842CA
:1040900005D104EB44001146084490F8028006E084
:1040A00004EB44000849084490F8018000BF00BFB9
:1040B000B8F1000F06D00848006818B1404606491C
:1040C00009688847BDE8F081600C0020D00B002013
:1040D000486B0100D10B0020CC0B002030B503460B
:1040E0000020042B23D2012A07D1012903D103F197
:1040F0000E04E4B200E00024224679B1012902D086
:10410000022911D104E003EB43040A4D2A550DE0C6
:1041100003EB4304074D2C44627007E003EB4304B8
:10412000044D2C44A27001E0072000BF00E00720EE
:1041300030BD0000600C00202DE9F04105460F461F
:1041400000241F4805601F48076005F0020000B307
:10415000002606E0012211463046FFF7BFFF044665
:10416000761C042E01D2002CF4D034B940F26662E1
:1041700004211548FFF7DCFC044614B9FFF7C2FC24
:1041800004462CB9114A00211148FFF70BFE0446E2
:1041900000BF05F0010008B1FFF700FF2CB90D4A80
:1041A00000210D48FFF7FEFD04462CB90B4A012102
:1041B0000B48FFF7F7FD04462046BDE8F0810000FC
:1041C000C40B0020CC0B00204C6B010061450100AA
:1041D000486B0100754C0100406B010095390100EE
:1041E000446B01002DE9F047044600260025D7481E
:1041F000007820B10020D549087000F027FD182C68
:1042000079D2DFE804F00C11124579ADF1FFEEED43
:10421000ECEBEAE9E8E7E6E5E4E3E2E1E0DF00F021
:1042200015FDCB4804708DE100BF0020FFF79EFE16
:1042300058B10020FFF786FE022C02D14FF4E16056
:1042400001E04FF47A60054609E00020FFF784FEA4
:10425000022C01D1C82001E04FF4C8700546BC48CB
:1042600004704FF40040A5FB00204FF4FA73D718F8
:1042700040F100015A0000233846FDF7F9FF81465E
:1042800000224946B3480068FFF7D8FD064659E1C9
:104290000020FFF76BFE58B10020FFF753FE032C00
:1042A00002D14FF4487001E04FF47A60054609E00E
:1042B0000020FFF751FE032C01D1C82001E04FF48C
:1042C000C8700546A24804704FF40040A5FB0020CA
:1042D0004FF4FA73D71840F100015A000023384612
:1042E000FDF7C6FF8146002249469A480068FFF75D
:1042F000A5FD064626E124E10020FFF737FE58B170
:104300000020FFF71FFE042C02D14FF47A6001E079
:104310004FF47A6005460AE00020FFF71DFE042CEA
:1043200002D14FF4C87001E04FF4C87005468848C8
:1043300004704FF40040A5FB00104FF4FA73CF183F
:1043400040F100015A0000233846FDF791FF8146F5
:10435000002249467F480068FFF770FD0646F1E0FD
:104360000020FFF703FE50B10020FFF7EBFD052C06
:1043700001D1C82001E04FF47A60054609E0002031
:10438000FFF7EAFD052C01D1C82001E04FF4C87009
:1043900005466F4804704FF40040A5FB00204FF421
:1043A000FA73D71840F100015A0000233846FDF790
:1043B0005FFF81460022494666480068FFF73EFDE0
:1043C0000646BFE0B8E0B6E0AAE0A1E098E092E0DF
:1043D0005FE05DE05BE059E057E051E042E033E050
:1043E00024E015E00EE0FFE70020FFF793FD5848BA
:1043F0000470002240F6CD4156480068FFF71EFDCC
:1044000006469FE00020FFF7A7FD5148047099E0A1
:1044100001204E490870FFF77DFD002240F6CD4196
:104420004C480068FFF70AFD06468BE0012047492B
:104430000870FFF76FFD00224FF480414548006887
:10444000FFF7FCFC06467DE0012040490870FFF7BD
:1044500061FD002240F6CD413E480068FFF7EEFCCA
:1044600006466FE0012039490870FFF753FD00222E
:104470004FF4804137480068FFF7E0FC064661E0F2
:10448000FFF7AEFD324804705CE000BF00BF00BF24
:1044900000BF31480068FFF7FBFC0646C4F1110578
:1044A00015B30EBB012D18D9A8B2C82148434FF44B
:1044B000004180FB01304FF4FA729F1840F1000177
:1044C000520000233846FDF7D3FE814600224946BC
:1044D00021480068FFF7B2FC06460220FFF73CFDCA
:1044E00001201E49087005E00220FFF72BFD002087
:1044F0001A49087026E000F0A9FB1548047021E075
:1045000000F0A4FB0020FFF727FD1148047019E01C
:1045100000F09CFB0120FFF71FFD0D48047011E027
:1045200000F094FB0020FFF717FD0120FFF714FDBA
:104530000748047006E000BFFFF752FD044804700E
:1045400000E000BF00BF3046BDE8F087C10B00208F
:10455000C00B0020406B0100446B0100C80B002021
:1045600010B5044620780221FFF756FD10BD00006B
:104570004FF0FF31054A42F82010082804DBFF23E2
:10458000A0F1080150325354704700008C0C0020F9
:104590000146024850F82100704700008C0C0020B2
:1045A0002DE9F04F03460C464FF0FF390AB10020C9
:1045B00000E0082084460AB1082000E00C20804674
:1045C000614624E0154850F82100401CF0B91D4612
:1045D0000846274616464FFA80FBDFF840A00AF14E
:1045E000300A0AF805B0DFF834A04AF820704EB956
:1045F0004FFA85FBA0F1080ADFF820E00EF1500E1B
:104600000EF80AB000BF4FFA81F902E0491C41459B
:10461000D8D300BF4846BDE8F08F00008C0C0020C6
:104620000146014840567047BC0C00202DE9F04778
:1046300082461F480068002836D01D48006805687B
:1046400001F0B8FC07461B4804682146384601F0D3
:104650002CFEC61C1848007808B901F0BDFCAE421B
:1046600001D2284600E03046044424F07F4420462E
:1046700001F09AFC01F09EFC80463946404601F06C
:1046800014FE00F103093946204601F00EFE814573
:1046900009D901F08FFC814601F086FC2F2000F043
:1046A00083FE01F04FFF01E001F0B4FCBDE8F087AC
:1046B000F80B0020FC0B00200A0C00202DE9F0472D
:1046C0008146002532E01C48006800EBC5042178D3
:1046D000012000FA01F619480068304020B317485D
:1046E0000068B04315490860207800F0A5FF074630
:1046F000217801208840124909680840217807FA8A
:1047000001F188420FD16078012800D100E000203B
:10471000784080F00108606820B108F0FF0120783F
:104720006268904700BF00BF681CC5B205480078AA
:104730008542C8DBBDE8F087E40B0020F40B0020C5
:10474000F00B0020E80B0020014614480078144AC2
:10475000127890421DD011480078401C0F4A10700A
:1047600010460078022801D1002010700D480B4A35
:10477000127850F8220008600B4A0868126810444A
:10478000094A10601046006820F07F401060012048
:1047900070470020086000BFFAE70000080C002006
:1047A000090C0020000C0020FC0B002013480078AE
:1047B000062820D11148001D007800F00F00D0B964
:1047C0000E480830007800F0F000302801D10120B8
:1047D00070470A480830007800F0F000402801D106
:1047E0000120F5E705480830007800F0F000502877
:1047F00001D10120ECE70020EAE70000E00F00F023
:1048000013480078062820D11148001D007800F0D8
:104810000F00D0B90E480830007800F0F0003028C2
:1048200001D1012070470A480830007800F0F000FC
:10483000402801D10120F5E705480830007800F054
:10484000F000502801D10120ECE70020EAE7000049
:10485000E00F00F013480078062820D11148001D11
:10486000007800F00F00D0B90E480830007800F052
:10487000F000302801D1012070470A480830007844
:1048800000F0F000402801D10120F5E7054808308C
:10489000007800F0F000502801D10120ECE7002062
:1048A000EAE70000E00F00F00A48007806280ED181
:1048B0000848001D007800F00F0040B90548083096
:1048C000007800F0F000302801D10120704700206E
:1048D000FCE70000E00F00F013480078062820D124
:1048E0001148001D007800F00F00D0B90E480830C4
:1048F000007800F0F000302801D1012070470A480C
:104900000830007800F0F000402801D10120F5E7E0
:1049100005480830007800F0F000502801D101204F
:10492000ECE70020EAE70000E00F00F00A4800781A
:1049300006280ED10848001D007800F00F0040B98D
:1049400005480830007800F0F000302801D101203F
:1049500070470020FCE70000E00F00F013480078EB
:10496000062820D11148001D007800F00F00D0B9B2
:104970000E480830007800F0F000302801D1012006
:1049800070470A480830007800F0F000402801D154
:104990000120F5E705480830007800F0F0005028C5
:1049A00001D10120ECE70020EAE70000E00F00F071
:1049B0000A48007806280ED10848001D007800F04B
:1049C0000F0040B905480830007800F0F0003028AA
:1049D00001D1012070470020FCE70000E00F00F04B
:1049E0000A48007806280ED10848001D007800F01B
:1049F0000F0040B905480830007800F0F00030287A
:104A000001D1012070470020FCE70000E00F00F01A
:104A10000A48007806280ED10848001D007800F0EA
:104A20000F0040B905480830007800F0F000502829
:104A300001D1012070470020FCE70000E00F00F0EA
:104A4000F0B5034600241FE0124E306806689E420F
:104A500003D90668F61A06601AE006689B1B06680A
:104A60003444002606600B4E35680A4FC6693E6026
:104A7000C66846B10E1926F07F464660C668866055
:104A80001668C661156000BF024800680028DBD1C7
:104A900000BFF0BDF80B00202DE9F04105460F46A0
:104AA000012000FA05F418480068FFF7F1F90646FE
:104AB0000EB1BDE8F081154800682040E0B92846F5
:104AC00000F0BAFD28B11248006820431049086080
:104AD00004E00F480068A0430D4908600B480068D7
:104AE00020430A49086000220A4801680648006815
:104AF000FFF7A4F9064604E004480068A043034910
:104B0000086000BFD5E70000EC6B0100F40B00204B
:104B1000F00B0020EC0B002038B5FFF797F80446A7
:104B200000BF254625B100BF2846FFF781F800BF2A
:104B300000BFFEF73FF8FEF758F8FEF72DF8FEF736
:104B40000FF8FEF71BF81520FEF777F81520FEF793
:104B50005AF8FEF73DF8082000906846FFF78AF8FB
:104B6000044600BF254625B100BF2846FFF760F880
:104B700000BF00BF38BD7FB505460C4694F8210044
:104B800094F82010CDE9001004F12602D11E284629
:104B9000E36901F0FAFD00B17FBD94F8230048BB42
:104BA000207B022802D0207B032823D1E1692069E1
:104BB00081421FD16069E061E07B84F82000207EA3
:104BC000C0F3401084F82100207B03280AD194F818
:104BD0002100009094F8203029462046E26901F037
:104BE00067FE30E094F8203029462046E26901F063
:104BF00033FD28E0D4E90412E06801AB07C394F860
:104C0000230088B1284601F07EF9064606F002002E
:104C100018B101208DF8000005E006F0040010B185
:104C200002208DF8000002E000208DF80000002036
:104C300084F82400207E00F0040018B96846D4E906
:104C40000021904700BF00BFA6E7000010B508484C
:104C5000007850B1002405E0022C02D02046FFF776
:104C600071F9641C042CF7D301E0FFF7AFF910BD14
:104C7000C80B002010B504460448007800F001007D
:104C800018B103480078FFF7ADFA10BDC40B00203F
:104C9000C00B00202DE9F041064600274748D0F818
:104CA000008078E016B13446E66947E04448007871
:104CB00000EB40014248001D00EBC105001F0078D9
:104CC000401C3F490870084600788978884202D124
:104CD00000203B4908706C68287801281AD0022807
:104CE00002D0032817D107E0686801F04BFB00B140
:104CF0000127002020744EE007E0304908680021B9
:104D000001742E4AC169116000BF2C480068002858
:104D1000F3D140E000E03EE000BF207C00B13AE08B
:104D2000A8686060E868A0602869E0606869A061C0
:104D30002448007808B10020606000BF2249606804
:104D40000968401A20F07F402049884208D21E4955
:104D50006068096801F0A9FAA168084420600FE0C2
:104D600019486168006801F0A0FA0546A068A842E9
:104D700003D9A068401B206001E00020206000BF34
:104D800000206060A060012020740020E0612046C7
:104D900001F0C4FA00BF002E84D109480078084908
:104DA00049788842F8D11FB904480068404502D0CC
:104DB0000120BDE8F0810020FBE70000F80B002097
:104DC0002C0D00200B0C0020FC0B0020FFFF7F00AF
:104DD00070B5002400BF254625B100BF2846FEF768
:104DE00027FF00BF00BF70BD2DED0E8B94B09FED6F
:104DF000F00AF0EE409AFFF7EBFF0120ED49086062
:104E0000FFF78AFE0122082102A8FDF762FA01F0ED
:104E10004BFE01F003FAFEF7F1FD02AA0821002083
:104E2000C7DF044600BFE448006801287DD10020A8
:104E3000E24908608DE10EA8FEF743FF044600BF7B
:104E4000254625B100BF2846FEF7F2FE00BF00BF91
:104E5000BDF93C00FDF7D7FB41EC1C0B9FEDD80BD7
:104E600053EC102BFDF760FB41EC1A0B9FEDD60BBA
:104E700053EC102BFDF7E0FA41EC1B0BFDF7E7FBC1
:104E80000990BDF93A00FDF7BEFB41EC1C0B9FED0C
:104E9000CC0B53EC102BFDF747FB41EC1B0B9FEDAC
:104EA000CC0B53EC102BFDF726FA41EC1A0BFDF757
:104EB000CEFB0890BDF93800FDF7A5FB41EC1C0BBB
:104EC0009FEDBF0B53EC102BFDF72EFB41EC1B0BA2
:104ED0009FEDC10B53EC102BFDF7AEFA41EC1A0B12
:104EE000FDF7B5FB07900AA8FEF708FF044600BFD0
:104EF000254625B100BF2846FEF79AFE00BF00BF39
:104F0000BDF92C00FDF77FFB41EC1E0B9FEDB40BB0
:104F100053EC102BFDF708FB41EC1D0B9FEDB20B82
:104F200053EC102BFDF78EFA00E03DE141EC1C0B39
:104F30009FEDAF0B53EC102BFDF7F6FA41EC1B0B7A
:104F40009FEDAD0B53EC102BFDF776FA41EC1A0BED
:104F5000FDF77DFB0690BDF92A00FDF754FB41ECFF
:104F60001E0B9FED9F0B53EC102BFDF7DDFA41EC70
:104F70001D0B9FED9D0B53EC102BFDF763FA41ECDD
:104F80001C0B9FED9B0B53EC102BFDF7CDFA41EC66
:104F90001B0B9FED9B0B53EC102BFDF7ACF941EC79
:104FA0001A0BFDF754FB0590BDF92800FDF72BFB0C
:104FB00041EC1E0B9FED8A0B53EC102BFDF7B4FA5E
:104FC00041EC1D0B9FED880B53EC102BFDF73AFACB
:104FD00041EC1C0B9FED860B53EC102BFDF7A4FA54
:104FE00041EC1B0B9FED880B53EC102BFDF724FAC3
:104FF00041EC1A0BFDF72BFB049000210CA8FEF7E7
:105000009AFE044600BF254625B100BF2846FEF79C
:105010000FFE00BF00BFBDF93000FDF7F4FA9FEDB1
:105020007C0B53EC102BFDF70DFA9FED7B0B53EC33
:10503000102BFDF760F99FED7A0B53EC102BFDF769
:1050400001FAFDF704FB08EE900ABDF93200FDF706
:10505000DAFA9FED6F0B53EC102BFDF7F3F99FED90
:10506000720B53EC102BFDF746F99FED710B53ECCF
:10507000102BFDF7E7F9FDF7EAFA09EE100ABDF982
:105080003400FDF7C0FA9FED620B53EC102BFDF7D7
:10509000D9F99FED690B53EC102BFDF7CDF99FED7E
:1050A000680B53EC102BFDF7CDF9FDF7D0FA08EEA5
:1050B000100A9DED043AF0EE432A9DED053AB0EE5C
:1050C000432A9DED063AF0EE431A9DED073AB0EE05
:1050D000431A9DED083AF0EE430A9DED093AB0EE11
:1050E000430AF0EE694AB0EE484AF0EE493AB0EEB3
:1050F000683AFDF7B1FD544890ED000ADFED530A20
:1051000020EE200A8DED100A90ED010ADFED4F0A26
:1051100020EE200A8DED110A90ED020ADFED4B0A18
:1051200020EE200A8DED120A90ED030ADFED470A0A
:1051300020EE200A8DED130A19254FF47A7115FB24
:1051400001F000F095F800BF1C480068401C1B49A6
:1051500008601A4800680428FFF66DAE3C480068F5
:10516000401C3B4908603B48006801281CD10846A8
:10517000006800909DED130ABDEEC00A10EE103AD3
:105180009DED120ABDEEC00A10EE102A9DED110A27
:10519000BDEEC00A10EE101A9DED100ABDEEC00A59
:1051A00010EE100AFEF77AFC00F080FD3BE60000EE
:1051B000CDCCCC3C78050040AC0B0020B80B0020D7
:1051C000000000000000B040AA88C61FB43A963F15
:1051D000B049935FFA6FA13F16583AFE8F3C953F56
:1051E000C3F5285C8F62504000000060FB2109403D
:1051F00000000000008066403AACF11F43747E3F1F
:10520000768A4E802CBE703F65DAA401481D8A3F25
:10521000333333333333C33F7FD360BFCC0C3040A1
:105220002DC27F80D668F13F149337C0CC8C4740A5
:10523000E49AA7DF2A24F03F00000000000052405B
:10524000A56EE8DF8E5DED3F980B00200000FE426A
:10525000A80B0020B00B002030B502460B46D40846
:1052600002F00702012090401D5D284030BD000083
:1052700000B9704700BF00BF00BF00BF00BF00BF44
:1052800000BF00BF00BF1F4909681F4A914200D1FB
:1052900030E000BF00BF00BF00BF00BF00BF00BFC5
:1052A00000BF00BF00BF00BF00BF00BF00BF00BF06
:1052B00000BF00BF00BF00BF00BF00BF00BF00BFF6
:1052C00000BF00BF00BF00BF00BF00BF00BF00BFE6
:1052D00000BF00BF00BF00BF00BF00BF00BF00BFD6
:1052E00000BF00BF00BF00BF00BF00BF00BF00BFC6
:1052F00000BF00BF01460139084600D0BBE700BF30
:10530000B7E70000180C00200024F40000B9704733
:1053100000BF00BF00BF00BF00BF00BF00BF00BF95
:1053200000BF1F4909681F4A914200D130E000BF09
:1053300000BF00BF00BF00BF00BF00BF00BF00BF75
:1053400000BF00BF00BF00BF00BF00BF00BF00BF65
:1053500000BF00BF00BF00BF00BF00BF00BF00BF55
:1053600000BF00BF00BF00BF00BF00BF00BF00BF45
:1053700000BF00BF00BF00BF00BF00BF00BF00BF35
:1053800000BF00BF00BF00BF00BF00BF00BF00BF25
:1053900001460139084600D0BBE700BFB7E700006F
:1053A000180C00200024F40000B9704700BF00BFB3
:1053B00000BF00BF00BF00BF00BF00BF00BF1F494C
:1053C00009681F4A914200D130E000BF00BF00BF12
:1053D00000BF00BF00BF00BF00BF00BF00BF00BFD5
:1053E00000BF00BF00BF00BF00BF00BF00BF00BFC5
:1053F00000BF00BF00BF00BF00BF00BF00BF00BFB5
:1054000000BF00BF00BF00BF00BF00BF00BF00BFA4
:1054100000BF00BF00BF00BF00BF00BF00BF00BF94
:1054200000BF00BF00BF00BF00BF00BF0146013981
:10543000084600D0BBE700BFB7E70000180C00200B
:105440000024F40070B50B4601461A46002907DA1D
:105450005407260E104C01F00F052D1F665503E072
:105460005407250E0D4C655400BF00BF00F01F020D
:10547000012191400A4A440942F8241000BF00BFAC
:1054800000F01F02012191404209920002F1E02246
:10549000C2F8001100BF70BD18ED00E000E400E0AC
:1054A00080E200E00146C1F3073250B270470000CD
:1054B0002DE9F04706460D46304600F053FDE0B1B9
:1054C0003046FFF7ADF8083822490F5CBC11032CB9
:1054D00008D1304600F033FB08B1032000E0022081
:1054E000804605E0012C01D1022000E00320804627
:1054F0004146304600F0F4FA2AE0304600F03EFD26
:1055000030B33046FFF78CF80446A00000F58070F9
:1055100087B22046104951F8201041F001020E498F
:1055200041F8202000BF384600F058FB7DB13046DE
:10553000FFF776F88146FFF72BF88046B8F1000FA9
:1055400004D0012101FA04F000F062FB00BF00BFAB
:10555000BDE8F087DC0C0020106500402DE9FC4719
:1055600004460E4617464FF00008204600F0ECFCBB
:1055700010B14FF0080855E0F27839462046FFF7A1
:105580000FF80546681C002849D0B07880B100BFEC
:1055900000BF4FF0A042104600F5E06252F8242010
:1055A00022F0020100F5E06242F8241000BF0CE096
:1055B00096F80190002000904B460246014601906B
:1055C000204600F079FA00BF00BFF078D0B1307803
:1055D000164951F82510164A1140144A42F8251070
:1055E000114651F825104FF4F85202EA04224FF404
:1055F000403303EA00431A4311430C4A42F8251092
:1056000000BF0EE0A5F108000A49085C317840EAC5
:10561000811042B2A5F1080006490A5401E04FF09A
:10562000040800BF4046BDE8FC870000106500404C
:10563000FFE0FCFFDC0C002010B50446204600F023
:105640007EFA08B1012010BD0020FCE770B51648B5
:1056500090F8540010B10825284670BD002404E0DD
:10566000204600F09BFC601CC4B2202CF8DB002418
:1056700004E02046FEF77CFF601CC4B20C2CF8DB73
:1056800007210620FFF7DEFE4FF4BE7000F0A6FAF9
:105690004FF0004000F0BCFA0120034981F85400AB
:1056A00000252846D9E700008C0C0020034890F81C
:1056B000540008B1012070470020FCE78C0C00204A
:1056C0001FB50A4B0FCB8DE80F000023084A69462F
:1056D000084800F03FF9044614B1204604B010BD5C
:1056E000044800F025F90020F8E70000286B0100CD
:1056F00001580100206B0100F7B582B00E46174635
:1057000042F210740020012302AA0C2100901848D4
:1057100000F082F9054615B1284605B0F0BD00BF7E
:105720001448007810B9601E041EF9D10CB90D2080
:10573000F3E700200F490870FBB232460C210C48F9
:1057400000F054F905460DB12846E6E742F2107420
:1057500000BF0948007810B9601E041EF9D10CB9C9
:105760000D20DAE70020044908702846D5E700003C
:10577000206B0100BD0B0020BE0B0020F7B582B0EE
:105780000E46174642F210740020012302AA682137
:105790000090184800F040F9054615B1284605B0BC
:1057A000F0BD00BF1448007810B9601E041EF9D186
:1057B0000CB90D20F3E700200F490870FBB2324608
:1057C00068210C4800F012F905460DB12846E6E7BD
:1057D00042F2107400BF0948007810B9601E041E20
:1057E000F9D10CB90D20DAE70020044908702846E9
:1057F000D5E70000206B0100BD0B0020BE0B002090
:10580000027822B1012A1ED0022A1ED11CE00279A0
:1058100032B1012A0CD0022A0ED0032A10D103E0A3
:1058200001220B4B1A700CE00122094B1A7008E0A0
:105830000122084B1A7004E00122064B1A7000E0A6
:1058400000BF00BF02E001E000E000BF00BF704702
:10585000BD0B0020BE0B00202DE9FC4104460D4687
:1058600042F210778DF804408DF805500020022395
:1058700001AA0C2100900B4800F0CEF8064616B1A4
:105880003046BDE8FC8100BF0748007810B9781E9B
:10589000071EF9D10FB90D20F3E700200249087067
:1058A0003046EEE7206B0100BD0B00202DE9FC41E6
:1058B00004460D4642F210778DF804408DF80550ED
:1058C0000020022301AA682100900B4800F0A4F8F0
:1058D000064616B13046BDE8FC8100BF0748007897
:1058E00010B9781E071EF9D10FB90D20F3E700207B
:1058F000024908703046EEE7206B0100BD0B002026
:1059000070B504460D46601E074931F81000A843E3
:10591000611E054A22F81100601E044951F820203A
:1059200029462046904770BDE00B0020DC0B00208C
:10593000027902EB8202064B03EBC201026800BF50
:105940000523C2F8003500BF022281F822207047EB
:10595000E40C00202DE9F04706460C469046994697
:10596000307900EB80001F4901EBC00595F822005B
:1059700018B108273846BDE8F087083545F8088C87
:1059800045F8049C0020286068772877A07BE8779A
:10599000083D607B10B1204600F0DAFD40F20C615A
:1059A0001148226840F82210626840F822103068DE
:1059B000D4E90012C0F80815C0F80C2500BFA16892
:1059C000C0F8241500BF286830B13068FFF76AFDC1
:1059D0008246217BFFF736FD012085F82200002753
:1059E0003846C8E7E40C002000070050FEB5074623
:1059F0000C4615461E46074A07CA8DE807008DF873
:105A000001408DF80260019500226946384600F099
:105A100021F8FEBDE06B01002DE9FE4307460C4670
:105A200015461E46DDF82880002000900190029067
:105A30008DF801408DF802600195B8F1000F01D09A
:105A4000202000E0002002466946384600F002F8B7
:105A5000BDE8FE832DE9F04104460E4615460027B9
:105A6000207900EB8000094901EBC00805F0030034
:105A700018B106273846BDE8F0812B46324640462D
:105A8000216800F08DFF07463846F4E7E40C00205B
:105A9000F0B5DDE9054500BF4FF0A0473E4641EABD
:105AA000420747EA830747EA042747EA054C06F519
:105AB000E06747F820C0F0BDF0B5DDE9054500BF5F
:105AC0004FF0A0473E4641EA420747EA830747EACC
:105AD000042747EA054C06F5E06747F820C0F0BD0B
:105AE00010B50A4600BF4FF0A043194601F5E06328
:105AF00053F8203023F4403401F5E06343F82040AC
:105B000053F8203043EA024401F5E06343F82040B3
:105B100010BD00BF4FF0A0410A46012303FA00F177
:105B2000C2F80C1500BF704700BF4FF0A0410A46F5
:105B3000012303FA00F1C2F80C1500BF70470146BB
:105B400000BF4FF0A040024600BFD2F81005C84089
:105B500000F00100704700BF4FF0A0410A4601234A
:105B600003FA00F1C2F8081500BF704710B561B91B
:105B700000BF00BF4FF0A0421346012404FA00F218
:105B8000C3F80C2500BF00BF0CE000BF00BF4FF002
:105B9000A0421346012404FA00F2C3F8082500BF0E
:105BA00000BF00BF10BD000038B50B46074C24688D
:105BB0000094014606E05DF82140D4F810551560C8
:105BC000121D491CC4188C42F5D838BD6C6B0100FD
:105BD00001460148084470470060004038B504465B
:105BE0002046FFF7F5FF002101602046FFF7F0FF98
:105BF0000068009000BF38BD10B504462046FFF78E
:105C0000E7FF0068012800D110BD0020FCE700007C
:105C10000149086070470000046300402DE9F0412D
:105C200000201D49087000BF1C49086000BF00BF6C
:105C300000BF00BFBFF35F8F00BF00BF00BF00BF4A
:105C40001749184800F027F900BF1748006840F0CE
:105C500010001549086000BF00BF1820FFF764FF5F
:105C6000182001210A4600242546234600BF4FF094
:105C7000A0473E4641EA420747EA840747EA05272C
:105C800047EA034C06F5E06747F820C000BF00BFB5
:105C900000BF0020BDE8F081140C0020100C002093
:105CA0000C6C0100440E002010ED00E038B500BF80
:105CB000002000906846FEF703F900BFF1EE100ADD
:105CC000044624F09F00E1EE100A00BF00BF00BFB1
:105CD00000BF00BFBFF35F8F00BF00BF00BF262023
:105CE00000F01F0201219140154A430942F8231098
:105CF00000BF9DF80000FEF7E9F800BF002000900B
:105D00006846FEF7DDF8182000BF4FF0A0410A46B4
:105D1000012303FA00F1C2F8081500BF00BF00F02C
:105D2000B1F810B141DF044602E020BF40BF20BF00
:105D30001820FFF7F9FE9DF80000FEF7C7F838BD00
:105D400080E200E03EB5044A07CA8DE807006846D5
:105D5000FADF044620463EBD8C6C0100F0B58FB0E2
:105D600007461BE003AA0DF139010EA8C1DF044666
:105D700004B114E00F49684600F08DF809E000BF57
:105D8000029805462E6803A86968B047684600F087
:105D9000A3F800BF02980028F1D100BFE2E700BFDE
:105DA000052C04D000BF2046FDF742FF00BF0FB016
:105DB000F0BD0000806C010038B51748007808B1CC
:105DC000082038BD012015490870002000F0EEF9C8
:105DD000112801D10020F4E7002000F005FA104856
:105DE000006800900FA21949684610DF04460CB104
:105DF0002046E6E70120084908700020074908709E
:105E00001349087000F033FA00F022FA012000F084
:105E1000EBF90020D5E70000150C0020170C00203E
:105E20006C6C0100333833312D353231642D3764D9
:105E300066392D323464382D656666332D34363735
:105E4000622D323235662D6130306500D93B01005C
:105E5000160C00203EB50A49684600F01CF809E01F
:105E6000684600F015F8044625686068A84768464B
:105E700000F032F8684600F00BF80028F0D13EBD83
:105E8000606C01000148007870470000150C00208C
:105E900001468868704770B504460D46256028683D
:105EA0006060204600F001F870BD14E0D0E90021E8
:105EB0005268914202D100218160704741680968AF
:105EC00042685268914203D0416809688160F4E7F2
:105ED000416808314160E9E710B50446A06800B99F
:105EE00010BD2168A06889680844A060D4E9011049
:105EF0004968884205D16068083060602046FFF735
:105F0000D4FF00BFECE70146D1F8C404C1F8C404D3
:105F100070470246505808B1012070470020FCE746
:105F200008B5002242504258009200BF08BDC0F898
:105F300008137047C0F804137047C0F80012704788
:105F40000122425070470000014605484056012298
:105F500002EBE07008B1012070470020FCE7000070
:105F6000BC0C0020014604484056082801DB0120F3
:105F700070470020FCE70000BC0C002001460648EA
:105F80004056002805DB04484056082801DA012065
:105F900070470020FCE70000BC0C0020FF220149F4
:105FA0000A547047BC0C002001490860704700008B
:105FB0004015014001480068704700000415014089
:105FC00010B504460348046007211120FDF7B0FA1C
:105FD00010BD00000815014010B54FF480300A498B
:105FE00008600A49C1F804031120FDF77DFA112069
:105FF000FDF786FA0120054908602F20FFF7D4F944
:1060000001200349087010BD4413014000100140F5
:106010000A0C002010B51120012181400E4A4309CD
:1060200042F8231000BF4FF480300C4908600C493F
:10603000C1F80803012048602F20FFF7B5F90120BF
:10604000074988600020074908602F20FFF7ACF956
:1060500000200549087010BD80E100E048130140B0
:1060600000100140FC0B00200A0C002070B5044613
:106070002046FDF75BFC10B942F2010070BD2046DE
:10608000002806DA184900F00F02121F895C49093E
:1060900002E01649095C49090D462846FDF768FCEF
:1060A00010B942F20200E9E71148806868B160095E
:1060B0000F4951F8200004F01F02012191400843CC
:1060C00061090B4A42F821000CE000BF04F01F01F7
:1060D000012088406109890001F1E021C1F8000137
:1060E00000BF00BF0020C9E718ED00E000E400E0B9
:1060F000380E002070B504460D462046FDF716FC0C
:1061000010B942F2010070BD2846FDF731FC10B90C
:1061100042F20200F7E720462946002807DA4A073C
:10612000160E064A00F00F031B1FD65403E04A0761
:10613000130E034A135400BF0020E4E718ED00E0FB
:1061400000E400E070B50446FDF70CFC0546144879
:106150008068D8B901201249886012480068124945
:1061600008400F49086010484FF0E021C1F8800155
:106170000C488038D0F88400094948604FF0FF315E
:106180000848001D01600020207001E001202070FF
:106190001DB900BF62B600BF00BF002070BD000087
:1061A000380E002080E100E0FC06FFBDFEB505468C
:1061B0000C496846FFF76FFE0DE06846FFF768FE82
:1061C0000446266828466168B04708B91120FEBD1C
:1061D0006846FFF781FE6846FFF75AFE0028ECD1BB
:1061E00000BFF4E7286C0100FEB505460A49684681
:1061F000FFF751FE0AE06846FFF74AFE04462668AC
:1062000028466168B0476846FFF766FE6846FFF7B4
:106210003FFE0028EFD1FEBD446C010070B5FFF7D2
:10622000CBFD044600BF254625B100BF2846FDF73B
:10623000FFFC00BF00BFFFF785FD044600BF2546F9
:1062400025B100BF2846FDF7F3FC00BF00BF70BDBD
:1062500070B51620FFF70AFF044600BF254625B19A
:1062600000BF2846FDF7E4FC00BF00BF70BD70B55D
:1062700007211620FFF73EFF044600BF254625B143
:1062800000BF2846FDF7D4FC00BF00BF0721152042
:10629000FFF730FF044600BF254625B100BF284662
:1062A000FDF7C6FC00BF00BF70BD0246501A20F0CB
:1062B0007F40704710B50446D4E90510884710BDEB
:1062C0002DE9FC410020019000260E4804680E488C
:1062D00007686846FEF738FA05462DB101AA21463F
:1062E0000098FEF7ADFB01260198FEF7D3FC00B144
:1062F000012616B13846FEF799F9002003490870C7
:10630000BDE8FC81FC0B0020F80B00200B0C0020EA
:1063100010B51420FDF700F910BD000010B51849A4
:10632000096811B91649086028E0154A0168126821
:10633000126891420DD81249096809680268891AE1
:106340000F4A126811600E490968C1610C49086062
:1063500014E002680A4C2368216803E00C68121BF1
:106360000B46C96911B10C689442F7D311B10C689E
:10637000A41A0C600260C161D86100BF10BD0000AA
:10638000F80B00202DE9F04106461C48D0F80080AB
:1063900005682C4604E0B44200D103E02546E469D8
:1063A000002CF8D100BF14B90020BDE8F081A5424F
:1063B00013D112480068C069104908600846006897
:1063C00058B901200E49886000200E49086001205C
:1063D0000D4908702F20FEF7E7FF2768E069E861A4
:1063E000EC6914B120683844206004480068804596
:1063F00001D00120D9E70020D7E70000F80B0020EA
:1064000000100140FC0B00200B0C00202DE9FC4784
:1064100005460E46174698464FF0000900200090AA
:106420006846FDF74DFD01A800F01AFB044614B9BB
:106430004FF004090DE0012020706560FFF7BAFD00
:10644000A060E6602761C4F814809DF8040000F0A5
:1064500025FB9DF80000FDF739FDB9F1000F01D1D2
:10646000FFF756FF4846BDE8FC872DE9FC4105468D
:106470000E460027002000906846FDF721FD01A888
:1064800000F0EEFA04460CB9042705E026706560BA
:106490009DF8040000F002FB9DF80000FDF716FDDA
:1064A0000FB9FFF735FF3846BDE8FC812DE9F04113
:1064B0001F480068002838D00027FFF77BFD804682
:1064C0001C4801684046FFF7F0FE0646184805687C
:1064D00010E02868B04200D90EE02868361A286813
:1064E00007442C46ED69207C20B100202074204612
:1064F000FFF7E0FE002DECD100BF0F4800780F49F8
:106500000978884209D10D480078401CC0B20B4977
:106510000870022801D1002008700948074909784D
:1065200040F82170FFF7F4FE00BFBDE8F0810000E5
:10653000F80B0020FC0B0020080C0020090C0020A8
:10654000000C002010B51120FCF7E6FF10BD000084
:1065500070B5044640F20C612248226840F82210CF
:10656000626840F822102068FFF7F5FA6068FFF7CC
:10657000F2FA40F20D611B48226840F8221062686E
:1065800040F822100420FEF7C1FE00251BE06068E1
:1065900000BF4FF0A042114600BFD1F81025C24005
:1065A00002F0010212B105B970BD0EE02068FFF7DC
:1065B000B0FA0420FEF7AAFE2068FFF7CCFA042008
:1065C000FEF7A4FE6D1C092DE1DB00BF6068FFF73C
:1065D000A0FA0420FEF79AFE6068FFF7BCFA00BF3D
:1065E000E2E70000000700500146032001F001022D
:1065F0000AB14FF4024001F002020AB148F2012050
:1066000001F004020AB148F2022070472DE9F0417E
:1066100006460F4615461C462078A8421ADA00BFE7
:10662000D6F81805C0B2217878542078401C207024
:106630002178681E814204D102213046FFF77DFC9B
:1066400004E02078A84201D1BDE8F0812021304645
:10665000FFF776FC00BFF7E72DE9FE4304460D4641
:1066600017461E464FF0000942F2107002904FF498
:1066700082712846FFF754FC4FF492712846FFF7C9
:106680004FFC4FF48E712846FFF74AFC4FF484719B
:106690002846FFF745FC002084F8260084F82300F4
:1066A000012E04D102212846FFF747FC03E0012117
:1066B0002846FFF742FC20212846FFF741FC002135
:1066C0002846FFF73DFC206838B140F28620A060E4
:1066D000A1682846FFF72EFC30E002E00298401E39
:1066E0000290029800280BDD00203B4604F12602B0
:1066F000D11ECDE90060284600F047F80028EDD112
:1067000094F8230058B12846FFF7FDFB8046B8F106
:10671000000F03D04046FFF767FF814600BF029895
:1067200000280BDC00BF0020C5F8000500BF00BF3B
:106730000520C5F8000500BF4FF003094846BDE835
:10674000FE832DE9F04105460E4617461C46DDF84E
:1067500018802078B84208DA2178705CC5F81C05EA
:1067600000BF2078401C20700DE0B8F1000F06D06B
:106770001C212846FFF7E4FB0020BDE8F08114212E
:106780002846FFF7DDFB0120F7E72DE9F84F8046AB
:106790000C4615461E46DDE90A79207810B928789E
:1067A000B84201D1012000E000208246207878B173
:1067B0004FF492714046FFF7B3FB4FF48E714046A1
:1067C000FFF7AEFB4FF484714046FFF7A9FB5DE095
:1067D0004FF492714046FFF79CFB58B14FF4927111
:1067E0004046FFF79DFB14214046FFF7A9FB01201F
:1067F00020704BE04FF48E714046FFF78AFB10B3D8
:106800004FF48E714046FFF78BFB4FF49271404678
:10681000FFF77FFB58B14FF492714046FFF780FBC2
:1068200014214046FFF78CFB012020702EE02B4600
:106830003A4631464046CDF80090FFF782FF28BB2C
:106840000020BDE8F88F4FF484714046FFF761FBEC
:10685000E0B14FF484714046FFF762FB4FF4927150
:106860004046FFF756FB58B14FF492714046FFF790
:1068700057FB14214046FFF763FB0120207005E021
:106880002B463A4631464046FFF7C0FEBAF1000FAC
:106890000CD04FF482714046FFF73BFB30B14FF410
:1068A00082714046FFF73CFB0020CAE70120C8E7A1
:1068B0002DE9FE4F04460D4616461F46DDF8308092
:1068C0004FF0000A42F2107002904FF48271284695
:1068D000FFF726FB4FF492712846FFF721FB4FF498
:1068E0008E712846FFF71CFB4FF484712846FFF792
:1068F00017FB00212846FFF720FB002084F8260024
:1069000084F8230020212846FFF71AFB0821284697
:10691000FFF716FB04F126033A4631462846CDF828
:106920000080FFF70EFF206838B140F28620A0609B
:10693000A1682846FFF7FEFA2FE002E00298401E09
:106940000290029800280ADD334604F12602D11E87
:106950002846CDE90078FFF718FF0028EED194F81B
:10696000230058B12846FFF7CEFA8146B9F1000F4F
:1069700003D04846FFF738FE824600BF0298002841
:106980000BDC00BF0020C5F8000500BF00BF0520DC
:10699000C5F8000500BF4FF0030A5046BDE8FE8F62
:1069A0002DE9F84304460F4615461E464FF00008F1
:1069B0004FF0FF313846FFF7BAFA94F8240040B19F
:1069C000A1683846FFF7B6FA4FF011084046BDE817
:1069D000F88306F0040008B9012000E0002084F8E4
:1069E000240006F0080018B14FF006084046EEE714
:1069F000A66195E80700C4E90412E060A87884F86D
:106A000020006868E0616878C7F8880500BF2878CA
:106A1000012814D0287810B906F0200008B1012010
:106A200000E0002084F8210094F821000090AB7869
:106A3000394620466A68FFF73BFF804609E00020A0
:106A400084F82100AB78394620466A68FFF704FED7
:106A50008046206810B9002084F824004046B6E73C
:106A600010B502460C484078401CC1B20A488078F4
:106A7000884200D1002108480078884201D10020D6
:106A800010BD11700448407800EB40040248001D1E
:106A900000EBC4031846F3E72C0D002001494870B1
:106AA000704700002C0D002070B5002400BF254663
:106AB00025B100BF2846FDF7BBF800BF00BFFDF7BA
:106AC0008FF9044600BF254625B100BF2846FDF7D3
:106AD000AFF800BF00BF00210120FDF72DFB0446E9
:106AE00000BF254625B100BF2846FDF7A1F800BF2D
:106AF00000BFFFF793F8044600BF254625B100BF4D
:106B00002846FDF795F800BF00BF70BDDB0F494078
:106B1000920A863F00200042020202004404000064
:106B200000300040000000000D0000000C000000DC
:106B300000006806020000000708090A03040506B1
:106B4000200C0020400C00206C0C002003000300EF
:106B50001940010004000300194001000500030072
:106B60001940010006000300194001000000005018
:106B70006E72665F6472765F6770696F74655F6975
:106B80006E6974006E72665F6472765F6770696FBB
:106B900074655F6F75745F696E6974006E72665FAD
:106BA0006472765F6770696F74655F696E5F696E46
:106BB000697400006E72665F6472765F7477695FF5
:106BC000696E6974007477695F78666572006E72C9
:106BD000665F6472765F7477695F786665720000DD
:106BE0000100000000000000000000000C0D00206B
:106BF0000300000000000000000000000000000092
:106C0000000000000000000000000000F46B010024
:106C10000C6C0100040000000000000000000000F7
:106C20000000000000000000186C0100286C01004A
:106C3000080000000000000000000000000000004C
:106C400000000000346C0100446C010008000000EA
:106C5000C06C0100C86C01000000000000000000D2
:106C6000506C0100606C010008000000010000078A
:106C70000000000000000000B86C0100C06C0100C2
:106C8000706C0100806C0100080000000100200011
:106C9000500E002080000000C86C0100800B002016
:106CA000A00000000C390100686D0100200C0020DC
:106CB000B02200001C390100413A01000000000030
:106CC0005D5D010000000000000000000000000009
:106CD00000000000000000000000000000000000B4
:106CE0000000803F000000000000000000000000E5
:106CF0000000000000000000000000000000000094
:106D00000000000000000000000000000000000083
:106D10000000000000000000000000000000000073
:106D20000000000000000000000000000000000063
:106D30000000000000000000000000000000000053
:106D40000000000000000000000000000000000043
:106D50000000000000000000000000000000000033
:086D60000090D00300000000C8
:0400000500012201D3
:00000001FF
