:020000021000EC
:102000000000012039220100912201002138010045
:102010009522010097220100992201000000000092
:102020000000000000000000000000009B220100F2
:102030009D220100000000009F220100A12201005A
:10204000A5220100A7220100A9220100AB22010064
:10205000AD220100AF220100D1440100B3220100F2
:10206000B5220100B7220100B9220100BB22010004
:10207000BD220100BF220100C1220100C3220100D4
:10208000C5220100E1340100C9220100CB22010078
:1020900021350100CF220100355F0100D32201006C
:1020A000D5220100D7220100D9220100DB22010044
:1020B000DD220100DF220100A3220100A322010092
:1020C000E1220100E3220100E5220100E7220100F4
:0C20D000E9220100EB220100ED220100DA
:1020DC00354936480A1A02D0072291438D463449B5
:1020EC0034480A1A06D00722914381F30988022248
:1020FC0082F3148830483149314A00F044F83148B1
:10210C003149324A00F03FF831483249324A00F046
:10211C003AF832483249334A00F035F832483349FC
:10212C00334A00F030F833483349344A00F02BF886
:10213C0033483449344A00F026F8344834490022F4
:10214C0000F02CF833483449002200F027F83348CB
:10215C003349091A082902DB002202604160314A26
:10216C0090471F481F49884205D00268043003B4C9
:10217C00904703BCF7E700208646EC460020002180
:10218C00294A9047FEE7884207D0521A05D00378B7
:10219C0001300B700131013AF9D17047884202D0FD
:1021AC0002700130FAE770470000012000F80020AF
:1021BC00000001200000012080660100800B00203F
:1021CC00840B0020F0220100F0220100EE600100DF
:1021DC0080660100800B0020800B00200061010054
:1021EC00006101000061010000610100006101005B
:1021FC0000610100006101000061010080660100C6
:10220C0084660100840B0020840B0020840B0020CA
:10221C00840E0020840E0020840E0020840E0020EA
:10222C00841000205D220100ED5401000F484FF096
:10223C000701884385460E4880470E48016841F4E3
:10224C0070010160BFF34F8FBFF36F8FFFF740BF7B
:10225C0009480A490A4A884207D0521A05D003781D
:10226C0001300B700131013AF9D1704700000120A7
:10227C004155010088ED00E000610100800B002059
:10228C00800B0020FEE7FEE7FEE7FEE7FEE7FEE739
:10229C00FEE7FEE7FEE7FEE7FEE7FEE7FEE7FEE70A
:1022AC00FEE7FEE7FEE7FEE7FEE7FEE7FEE7FEE7FA
:1022BC00FEE7FEE7FEE7FEE7FEE7FEE7FEE7FEE7EA
:1022CC00FEE7FEE7FEE7FEE7FEE7FEE7FEE7FEE7DA
:1022DC00FEE7FEE7FEE7FEE7FEE7FEE7FEE7FEE7CA
:0422EC00FEE700BF4A
:1022F00000B583B00190019B1B681F2B04D90549D1
:102300004FF4E87001F0FCFA4FF0A043184603B018
:102310005DF804FB0061010000B585B0019008463E
:1023200011461A4603468DF803300B468DF80230ED
:1023300013468DF8013001AB1846FFF7D9FF039023
:102340009DF803209DF802305B001A439DF8013090
:102350009B001A439DF818301B0242EA03019DF8C6
:102360001C301B04019A1943039B02F5E07243F8E9
:10237000221000BF05B05DF804FB00B585B00390E6
:1023800000230193002300930023012201210398DD
:10239000FFF7C2FF00BF05B05DF804FB00B585B0D4
:1023A000019001AB1846FFF7A3FF0390019B0122A8
:1023B00002FA03F31946039800F069F800BF05B06C
:1023C0005DF804FB00B585B0019001AB1846FFF73E
:1023D0008FFF0390019B012202FA03F31946039831
:1023E00000F05FF800BF05B05DF804FB00B585B0F4
:1023F000019001AB1846FFF77BFF0390039BD3F8D6
:1024000004350293029BDA43019B012101FA03F395
:102410001A40039BC3F80825019B01229A40029BA6
:102420001A40039BC3F80C2500BF05B05DF804FB00
:1024300000B583B001900091009B002B03D101985F
:10244000FFF7C0FF02E00198FFF7A8FF00BF03B04D
:102450005DF804FB00B585B0019001AB1846FFF7AD
:1024600047FF0390039800F00AF80246019B22FA06
:1024700003F303F00103184605B05DF804FB82B0D6
:102480000190019BD3F80435184602B0704782B022
:1024900001900091019B009AC3F8082500BF02B08B
:1024A000704782B001900091019B009AC3F80C25FF
:1024B00000BF02B07047000000B585B00190019BDD
:1024C000032B03D91149372001F01AFA104A019B56
:1024D00013441B781846FFF7BDFF0346002B14BFBB
:1024E000012300238DF80F309DF80F30002B14BF0F
:1024F00001230023DBB283F00103DBB203F001030D
:10250000DBB2184605B05DF804FB00BF386101007E
:102510007061010000B583B00190019B032B03D9CA
:1025200007493E2001F0ECF9064A019B13441B7851
:1025300000211846FFF77CFF00BF03B05DF804FBE5
:10254000386101007061010000B583B00190019B0A
:10255000032B03D90749442001F0D2F9064A019B15
:1025600013441B7801211846FFF762FF00BF03B038
:102570005DF804FB386101007061010000B583B0B3
:102580000023019305E00198FFF7DEFF019B013373
:102590000193019B032BF6D900BF00BF03B05DF888
:1025A00004FB00B583B00023019305E00198FFF719
:1025B000B1FF019B01330193019B032BF6D900BFAF
:1025C00000BF03B05DF804FB00B583B00190019B30
:1025D000032B03D907495C2001F092F9064A019BBD
:1025E00013441B781846FFF701FF00BF03B05DF8E6
:1025F00004FB00BF386101007061010000B583B0C9
:102600000023019309E0094A019B13441B781846F3
:10261000FFF7B3FE019B01330193019B032BF2D91A
:10262000FFF7ACFF00BF03B05DF804FB7061010071
:1026300084B001904FF0FF330293002303930DE029
:102640000A4A039B13441B781A46019B934202D10A
:10265000039B029305E0039B01330393039B032B2E
:10266000EED9029B184604B0704700BF74610100A8
:1026700000B589B0019000238DF81F3051E02E4B3A
:102680001A689DF81F30DB0013440693069B1B78E5
:102690001A46012393400593284B1A68059B134063
:1026A000002B39D0059BDA43244B1B681340234A87
:1026B0001360069B1B78184601F0F0FE03468DF868
:1026C0001330069B1B781A46012393401A461C4B75
:1026D0001B6813409DF81320069909788A4093429D
:1026E0001AD19DF81330069A5278012A0CBF0122A4
:1026F0000022D2B293420CBF01230023DBB203932A
:10270000069B5B68002B07D0069B5B68069A1278D5
:102710000399C9B2104698479DF81F3001338DF8D0
:102720001F30084B1B789DF81F209A42A7D300BF8B
:1027300000BF09B05DF804FB840B0020B40B00203F
:10274000B00B0020880B002000B585B001900B462F
:102750008DF803300122019B02FA03F303931E4B11
:10276000184600F079FF0290029B002B30D11B4BE2
:102770001A68039B1340002B22D1019801F08EFEB2
:102780000346002B06D0164B1A68039B1343144ACA
:10279000136006E0039BDA43114B1B681340104A99
:1027A00013600E4B1A68039B13430C4A13600A48CC
:1027B0000C4B1B680022194600F01CFF029008E039
:1027C000039BDA43054B1B681340044A136000E087
:1027D00000BF05B05DF804FB900B0020B40B002097
:1027E000B00B00208C0B002000B589B003900B4685
:1027F00001928DF80B30019B042B01D8072351E087
:1028000001F054FD034683F00103DBB2002B07D037
:1028100001F004FD0790079B002B01D0079B41E0CE
:10282000224A039B1360224A9DF80B301370214A01
:10283000019B1360204B00221A60204B00221A607B
:1028400023E09DF80B30DB00039A13440693032327
:102850008DF8143000238DF8153000238DF81630D4
:1028600000238DF81730069B9B788DF81530069B5A
:102870001B78184605AB124A194601F023FD079054
:10288000079B002B01D0079B0CE09DF80B305A1ED4
:102890008DF80B20002BD4D10A4A00210A4800F001
:1028A00079FE0346184609B05DF804FB840B00204E
:1028B000880B00208C0B0020B00B0020B40B0020F4
:1028C00049270100712601007861010000B583B03D
:1028D000114B1B68002B03D11049B62001F010F8F2
:1028E000002301930CE00C4B1A68019BDB0013449E
:1028F0001B780121184601F049FD019B013301932A
:10290000074B1B781A46019B9342ECD300231846D1
:1029100003B05DF804FB00BF840B00207C61010064
:10292000880B002000B589B0039002910192029BB0
:102930009BB2ADF81430019B0693039B079305AB44
:102940001A46002144F2010000F052F800BF09B01D
:102950005DF804FB86B003900291019201238DF88B
:1029600017309DF81730214A039B13601F4A029BC2
:1029700053601E4A019B9360039B44F20102934201
:1029800013D0039B44F20202934222D1019B174AC7
:10299000D360164BDB681B881A46144B9A61134BA5
:1029A000DB685B68114AD36113E0019B0F4A136136
:1029B0000E4B1B699B680D4A53610C4B1B691B88AE
:1029C0001A460A4B9A61094B1B695B68074AD36137
:1029D00000BF72B600BF00BF9DF81730DBB2002BFE
:1029E000FAD162B600BF00BF06B07047B80B002036
:1029F00000B587B0039002910192039B44F202025A
:102A0000934217D0039B44F20202934218D8039BCF
:102A100044F20102934210D0039B44F2010293421C
:102A20000ED8039B012B0DD0039B41F20102934270
:102A30000AD005E0019B059307E0019B049304E0A5
:102A400000BF02E000BF00E000BF084B1B6803F0BE
:102A50000103002B00D0FFDE019A02990398FFF7D3
:102A600079FF00BF07B05DF804FB00BFF0ED00E0A8
:102A700082B003468DF807309DF8073003F01F023F
:102A800005499DF907305B09012000FA02F241F87F
:102A9000232000BF02B0704700E100E082B003468F
:102AA0008DF807309DF8073003F01F0206499DF9A5
:102AB00007305B09012000FA02F2203341F823209D
:102AC00000BF02B0704700BF00E100E082B00346E3
:102AD0008DF807309DF8073003F01F0206499DF975
:102AE00007305B09012000FA02F2403341F823204D
:102AF00000BF02B0704700BF00E100E082B00346B3
:102B00008DF807309DF8073003F01F0206499DF944
:102B100007305B09012000FA02F2603341F82320FC
:102B200000BF02B0704700BF00E100E082B0034682
:102B300000918DF807309DF90730002B0CDA009BCF
:102B4000DAB20C499DF8073003F00F03043B520141
:102B5000D2B20B441A7609E0009BDAB206499DF91D
:102B600007305201D2B20B4483F8002300BF02B0F9
:102B7000704700BF00ED00E000E100E084B001908C
:102B8000244B0393019B002B40D0234B1A680399DD
:102B9000019B00BF00BF00BF00BF00BF00BF00BF60
:102BA00000BF8A422FD000BF00BF00BF00BF00BFE0
:102BB00000BF00BF00BF00BF00BF00BF00BF00BF1D
:102BC00000BF00BF00BF00BF00BF00BF00BF00BF0D
:102BD00000BF00BF00BF00BF00BF00BF00BF00BFFD
:102BE00000BF00BF00BF00BF00BF00BF00BF00BFED
:102BF00000BF00BF00BF00BF00BF00BF00BF00BFDD
:102C000000BF00BF00BF013BC3D1019300BF04B0B0
:102C1000704700BF0024F400800B002000B583B093
:102C20000190064A019BC2F8083507211120FFF7E1
:102C30007DFF00BF03B05DF804FB00BF0010014042
:102C400008B50D4B4FF48032C3F844230A4B4FF4C0
:102C50008032C3F804231120FFF750FF1120FFF743
:102C600007FF054B01221A602F20FFF787FF034B58
:102C700001221A7000BF08BD00100140F60C0020B0
:102C800008B51120FFF70AFF0E4B4FF48032C3F84E
:102C900048230C4B4FF48032C3F80823094B012220
:102CA0005A602F20FFF76AFF064B01229A60064BFD
:102CB00000221A602F20FFF761FF044B00221A70D8
:102CC00000BF08BD00100140E80C0020F60C0020F9
:102CD000024BD3F804351846704700BF001001407E
:102CE00082B001900091019A009BD31A23F07F4398
:102CF000184602B07047000082B00190034A019B61
:102D0000C2F8403500BF02B0704700BF001001405C
:102D100086B00190284B1B68002B03D1264A019BEB
:102D2000136045E0019B1A68234B1B681B689A429D
:102D300010D8214B1B681968019B1A681E4B1B6831
:102D40008A1A1A601C4B1A68019BDA611A4A019BA5
:102D500013602DE0019B1B680393174B1B680593C1
:102D6000154B1B68049309E0049B1B68039AD31A54
:102D70000393049B0593049BDB690493049B002B42
:102D800004D0049B1B68039A9A42EDD8049B002B45
:102D900005D0049B1A68039BD21A049B1A60019BFE
:102DA000039A1A60019B049ADA61059B019ADA6121
:102DB00000BF06B0704700BFE40C002000B587B02C
:102DC00001902A4B1B680393284B1B680593059BB6
:102DD000049308E0049A019B9A4208D0049B05934F
:102DE000049BDB690493049B002BF3D100E000BF3C
:102DF000049B002B01D1002333E0059A049B9A42E7
:102E000014D11A4B1B68DB69184A1360174B1B68F7
:102E1000002B0BD1164B01229A60164B00221A6030
:102E2000154B01221A702F20FFF7A8FE049B1B6888
:102E30000293049BDA69059BDA61059BDB690493C5
:102E4000049B002B05D0049B1A68029B1A44049B28
:102E50001A60064B1B68039A9A4214BF0123002391
:102E6000DBB2184607B05DF804FB00BFE40C00209D
:102E700000100140E80C0020F70C002008B51120DC
:102E8000FFF724FE00BF08BD08B51420FFF71EFEA3
:102E900000BF08BD00B583B00190019B5B69019A3A
:102EA00092691046984700BF03B05DF804FB00002C
:102EB00000B585B02B4B1B68002B4ED0002301932F
:102EC000FFF706FF0246284B1B6819461046FFF71E
:102ED00007FF0290234B1B6803931DE0039B1B68B5
:102EE000029A9A421CD3039B1B68029AD31A02933C
:102EF000039B1B68019A13440193039B0093039B5C
:102F0000DB690393009B1B7C002B05D0009B0022F8
:102F10001A740098FFF7BEFF039B002BDED100E080
:102F200000BF124B1A78124B1B789A420CD1104BEF
:102F30001B780133DAB20E4B1A700D4B1B78022B43
:102F400002D10B4B00221A70094B1B781946094A13
:102F5000019B42F82130FFF797FF00BF05B05DF8F5
:102F600004FB00BFE40C0020E80C0020F40C00205F
:102F7000F50C0020EC0C002082B00190184B1A7860
:102F8000184B1B789A4223D0154B1B780133DAB2C9
:102F9000134B1A70124B1B78022B02D1104B0022DC
:102FA0001A700F4B1B781A460F4B53F82220019BC7
:102FB0001A60019B1A680D4B1B6813440B4A13607F
:102FC0000A4B1B6823F07F43084A1360012303E088
:102FD000019B00221A600023184602B0704700BF10
:102FE000F40C0020F50C0020EC0C0020E80C002074
:102FF00088B00390029101920023079338E0204BA0
:103000001B680693069B1B68039A9A4206D2069B8E
:103010001A68039BD21A069B1A602EE0069B1B6857
:10302000039AD31A0393069B1B68079A13440793CA
:10303000069B00221A60124B1B680593069BDB69F6
:103040000F4A1360069BDB68002B11D0029A079B86
:10305000134423F07F42069B5A60069BDA68069B66
:103060009A60019B1A68069BDA61019B059A1A60B7
:10307000034B1B68002BC2D100BF00BF08B07047D4
:10308000E40C002000B589B0019000238DF81F30BA
:10309000664B1B680593AAE0019B002B05D0019BA2
:1030A0000693069BDB69019361E0614B1B781A462E
:1030B00013465B001344DB005D4A1344043304935E
:1030C0005B4B1B780133DAB2594B1A70584B1A78A4
:1030D000574B9B789A4202D1554B00221A70049BA1
:1030E0005B680693049B1B78032B1ED0032B7EDCAE
:1030F000012B1FD0022B7AD1049B5B681846FFF787
:103100005DFE0346002B02D001238DF81F30069B85
:1031100000221A746BE0454B1B680393039B00224B
:103120001A74039BDB69414A1360404B1B68002BF8
:10313000F1D15CE000BF069B1B7C002B00D056E069
:10314000049B9A68069B5A60049BDA68069B9A6007
:10315000049B1A69069BDA60049B5A69069B9A6174
:10316000344B1B78002B02D0069B00225A60069B32
:103170005A68314B1B68D31A23F07F432F4A93427E
:103180000ED8069B5B682C4A126811461846FFF75A
:10319000A7FD0246069B9B681A44069B1A6017E02F
:1031A000254B1A68069B5B6819461046FFF798FD89
:1031B0000290069B9B68029A9A4206D2069B9A68E6
:1031C000029BD21A069B1A6002E0069B00221A603C
:1031D000069B00225A60069B00229A60069B0122F1
:1031E0001A74069B0022DA610698FFF791FD019B95
:1031F000002B7FF451AF0E4B1A780D4B5B789A423F
:103200007FF44AAF9DF81F30002B04D1074B1B6899
:10321000059A9A4201D0012300E0002303F0010344
:10322000DBB2184609B05DF804FB00BFE40C0020D7
:10323000D80B0020F70C0020E80C0020FEFF7F00D8
:1032400010B588B00190274B1B68002B44D0254B4C
:103250001B681B680793FFF73BFD0690224B1B681A
:10326000059305990698FFF73BFD03460333049346
:103270001E4B1B7883F00103DBB2002B01D0FFF75C
:10328000DFFC049A079B934238BF1346059A134408
:103290000593059B23F07F4305930598FFF72CFDCD
:1032A000FFF716FD039006990398FFF719FD0346F3
:1032B000DC1C06990598FFF713FD03469C420DD9C7
:1032C000FFF706FD03461846FFF716FD2F20FFF710
:1032D00055FCFFF7D3FD01E0FFF7D2FC00BF08B0BB
:1032E00010BD00BFE40C0020E80C0020F60C00200C
:1032F00000B587B00023019300238DF81730194BD8
:103300001B680493184B1B6803936B461846FFF722
:1033100033FE03468DF80B309DF80B30002B08D0A0
:10332000009B01AA04991846FFF762FE01238DF85D
:103330001730019B1846FFF7A5FE0346002B02D06D
:1033400001238DF817309DF81730002B02D0039819
:10335000FFF776FF054B00221A7000BF07B05DF83B
:1033600004FB00BFE80C0020E40C0020F70C002058
:1033700082B003468DF80730034A9DF8073053703A
:1033800000BF02B0704700BFD80B002084B001908E
:10339000144B5B7801338DF80F30124B9B789DF8FE
:1033A0000F209A4202D100238DF80F300D4B1B786D
:1033B0009DF80F209A4201D100230FE0019B9DF858
:1033C0000F201A70074B5B781A4613465B001344B4
:1033D000DB00044A134404330293029B184604B0F2
:1033E000704700BFD80B002000B589B00390029150
:1033F000019200930023079300238DF816300DF1FE
:103400001603184600F0BEF90DF117031846FFF732
:10341000BDFF0690069B002B02D10423079318E002
:10342000069B01221A70069B039A5A60FFF750FC14
:103430000246069B9A60069B029ADA60069B019AF6
:103440001A61069B009A5A619DF817301846FFF7DB
:103450008FFF9DF81630184600F0AAF9079B002B45
:1034600001D1FFF711FD079B184609B05DF804FB79
:1034700000B587B001900B468DF80330002305930B
:1034800000238DF80E300DF10E03184600F07AF986
:103490000DF10F031846FFF779FF0490049B002BF2
:1034A00002D1042305930BE0049B9DF803201A70BE
:1034B000049B019A5A609DF80F301846FFF758FF99
:1034C0009DF80E30184600F073F9059B002B01D1D2
:1034D000FFF7DAFC059B184607B05DF804FB000017
:1034E00008B50E4B0022C3F840210C4B0022C3F854
:1034F00044210A4B0022C3F84821084B0022C3F89C
:103500004C21064B0022C3F80021044B0022C3F8D3
:103510000421FFF7CDFC00BF08BD00BF0010014033
:1035200008B5FFF7E5FE00BF08BD000008B5FFF7CE
:10353000A7FB134B00221A70114B00225A70104B3C
:103540000B229A700F4B00221A600F4B00221A7048
:103550000E4B00221A701420FFF7D0FA0721142016
:10356000FFF7E4FA1420FFF783FA0020FFF756FB79
:10357000FFF7AEFB0346064A13600023184608BD5A
:10358000D80B0020E40C0020F40C0020F50C0020E7
:10359000E80C002086B003900B4601928DF80B30AA
:1035A000134B9B78002B01D108231EE0019B002BBD
:1035B00001D1072319E0039B002B01D1072314E05D
:1035C000039B1B681B7C002B01D008230DE0039B91
:1035D0001B680593059B00221A74059B9DF80B2020
:1035E0005A74059B019A5A610023184606B0704729
:1035F000D80B002000B587B0039002910192039B85
:103600000593144B9B78002B01D108231EE0039BEC
:10361000002B01D1082319E0029B042B01D80723BA
:1036200014E0059B5B69002B01D108230EE0059B8C
:103630005B7C012B01D1029B00E000230493019BE2
:10364000049A02990598FFF7CFFE0346184607B083
:103650005DF804FBD80B002000B585B00190019BFC
:1036600003930D4B9B78002B01D1082310E0019BA5
:10367000002B03D0039B5B69002B01D1082307E0DB
:10368000039B00221A7402210398FFF7F1FE034600
:10369000184605B05DF804FBD80B002082B0EFF3AC
:1036A00010830093009B019372B600BF019B1846E4
:1036B00002B0704762B600BF00BF704700B585B06A
:1036C0000190FFF7EBFF0390164B9B68002B1BD17B
:1036D000144B01229A60144BD3F88020134B1340F3
:1036E000104A1360104B114AC3F880200E4BD3F8D8
:1036F00084300C4A53600C4B4FF0FF32C3F88420E7
:10370000019B00221A7002E0019B01221A70039BA8
:10371000002B01D1FFF7CEFF0023184605B05DF85E
:1037200004FB00BFF80C002000E100E0FC06FFBD38
:1037300000B585B003468DF80730104B9B68002B11
:1037400016D09DF80730002B12D1FFF7A7FF03908A
:103750000B4A0A4B1B681360094A084B5B685360AD
:10376000064B00229A60039B002B01D1FFF7A2FFBA
:103770000023184605B05DF804FB00BFF80C0020DC
:1037800000E100E000B583B0019000F02BF80346A3
:10379000012B03D00549432000F0B2F80198FFF750
:1037A0008DFF00BF03B05DF804FB00BFC0610100E6
:1037B00000B583B003468DF8073000F013F80346D8
:1037C000012B03D00649512000F09AF89DF80730EC
:1037D0001846FFF7ADFF00BF03B05DF804FB00BF64
:1037E000C061010084B0EFF305830193019BC3F333
:1037F00008030393039B002B0DD1EFF31483009375
:10380000009B0293029B03F00103002B0CBF0123DA
:103810000023DBB200E00123184604B0704700002B
:103820001EF0040F1CBFEFF309800AE0EFF30880DD
:103830000849094A884201D8904202D88D464FF083
:1038400000006B46854608B5044B9847BDE8084024
:103850009D4670470000012000F80020A5380100B7
:1038600000BF00BFBFF34F8F00BF074BDB6803F4FF
:10387000E0620549054B1343CB60BFF34F8F00BF98
:1038800000BF00BFFCE700BF00ED00E00400FA0548
:1038900000B583B00190FFF7E5FF00BF03B05DF80E
:1038A00004FB000000B587B00190019B0493124B0C
:1038B0009B6A0393104BDB6A002305930AE0012205
:1038C000059B02FA03F31A46039B1340002B059B4A
:1038D00001330593059B192BF1D9084B1B6803F0A5
:1038E0000103002B00D0FFDE0198FFF7D1FF00BFDE
:1038F00007B05DF804FB00BF00ED00E0F0ED00E074
:1039000000B585B003460091ADF80630BDF806302D
:10391000ADF80830009B039302AB1A46002144F235
:103920000200FFF765F800BF05B05DF804FB00007A
:1039300082B003468DF807309DF8073003F01F0270
:1039400006499DF907305B09012000FA02F2603355
:1039500041F8232000BF02B0704700BF00E100E043
:1039600000B583B00190019B002B03D10649722062
:10397000FFF7C6FF019B00221A60BFF35F8F00BFF5
:1039800000BF03B05DF804FB6062010041DF7047D7
:1039900000BF184600B585B000238DF803300DF147
:1039A00003031846FFF7EEFEF1EE103A0193019B78
:1039B0000393039B23F09F030293029BE1EE103AD3
:1039C00000BFBFF35F8F00BF2620FFF7B1FF9DF858
:1039D00003301846FFF7ECFE039B03F00703002BB0
:1039E00003D004497620FFF78BFF00BF05B05DF8D8
:1039F00004FB00BF9862010008B5064B00221A7054
:103A00000548FFF7ADFF0549054800F02FF80023F2
:103A1000184608BD080D0020040D0020E0620100DA
:103A20000C0D002000B583B0FFF7B4FF02F054FA8C
:103A30000346002B0ED0FFF7A9FF0190019B002B3E
:103A40000ED0019B022B0BD0074940F25910FFF713
:103A500057FF05E020BF00BF40BF00BF20BF00BF31
:103A600000BF03B05DF804FB9862010000B583B0AD
:103A700001900091019B002B03D110495020FFF7CA
:103A80003FFF009B002B03D10C495120FFF738FF6B
:103A9000019B009A1A60019B1B681A68019B5A607F
:103AA000019B5A68019B1B685B689A4202D1019B8B
:103AB00000225A6000BF03B05DF804FBEC62010015
:103AC00000B583B00190019B002B03D11449632002
:103AD000FFF716FF019B1B68002B03D110496420E0
:103AE000FFF70EFF019B5B68002B14D0019B5B6806
:103AF0001A46019B1B689B6813441A46019B5A6037
:103B0000019B5A68019B1B685B689A4204D1019B28
:103B100000225A6000E000BF03B05DF804FB00BF64
:103B2000EC62010082B003468DF807309DF8073043
:103B300003F01F0205499DF907305B09012000FAD7
:103B400002F241F8232000BF02B0704700E100E01C
:103B500082B003468DF807309DF8073003F01F024E
:103B600006499DF907305B09012000FA02F2603333
:103B700041F8232000BF02B0704700BF00E100E021
:103B800082B0034600918DF807309DF90730002B75
:103B90000CDA009BDAB20C499DF8073003F00F03F2
:103BA000043B5201D2B20B441A7609E0009BDAB210
:103BB00006499DF907305201D2B20B4483F8002325
:103BC00000BF02B0704700BF00ED00E000E100E080
:103BD00000B583B003460A468DF8073013468DF8CA
:103BE00006309DF80630012B03D99DF80630032BD3
:103BF0000CD99DF80630042B03D99DF80630072B0D
:103C000004D90D494FF49270FFF77AFE9DF8062013
:103C10009DF9073011461846FFF7B2FF9DF90730AE
:103C20001846FFF795FF9DF907301846FFF77AFF12
:103C300000BF03B05DF804FB4C63010000B583B026
:103C40000346ADF80630BDF80630184600F026F8F9
:103C500003461B68012B0CBF01230023DBB218466F
:103C600003B05DF804FB00B585B00346ADF806303F
:103C7000BDF80630184600F011F803461A46002336
:103C80001360BDF80630184600F008F803461B68BC
:103C90000393039B00BF05B05DF804FB82B00346AD
:103CA000ADF80630BDF8063003F1804303F5C0439C
:103CB000184602B07047000082B00190034A019B91
:103CC000C2F8043300BF02B0704700BF006000407C
:103CD00082B00190034BD3F80423019B1340184694
:103CE00002B070470060004082B00190084A019B1A
:103CF00003F5A27352F82330054943F00102019BFA
:103D000003F5A27341F8232000BF02B0704700BF43
:103D10000060004084B00390029113468DF8073094
:103D2000144A039B03F5A27352F82330114923F47C
:103D3000473323F44073039A02F5A27241F822300C
:103D40000C4A039B03F5A27352F82320029B1B022B
:103D500003F4F8519DF807301B0403F440330B4380
:103D600004491A43039B03F5A27341F8232000BFC3
:103D700004B070470060004082B00190054A019B8A
:103D800003F5A27352F823301B0A03F01F031846F1
:103D900002B070470060004082B00190064A019B6B
:103DA00003F5A27352F823301B0C03F00303DBB2BC
:103DB000184602B0704700BF0060004000B583B0F5
:103DC0000190019B1B681F2B04D905494FF4E87033
:103DD000FFF796FD4FF0A043184603B05DF804FBD3
:103DE0009863010000B585B00190084611461A4657
:103DF00003468DF803300B468DF8023013468DF8DC
:103E0000013001AB1846FFF7D9FF03909DF803205E
:103E10009DF802305B001A439DF801309B001A4365
:103E20009DF818301B0242EA03019DF81C301B0468
:103E3000019A1943039B02F5E07243F8221000BF78
:103E400005B05DF804FB00B585B003900B468DF816
:103E50000B309DF80B3000220192002200920022CC
:103E600000210398FFF7BEFF00BF05B05DF804FB1B
:103E700000B585B0019001AB1846FFF79FFF039096
:103E8000019A039B02F5E07253F8223023F00203FB
:103E90000293019A039B02F5E072029943F8221003
:103EA00000BF05B05DF804FB00B585B001900B467E
:103EB0008DF8033001AB1846FFF780FF0390019A9D
:103EC000039B02F5E07253F82230019A23F440314B
:103ED000039B02F5E07243F82210019A039B02F55E
:103EE000E07253F822309DF8032012041146019A23
:103EF0001943039B02F5E07243F8221000BF05B09E
:103F00005DF804FB00B585B0019001AB1846FFF7E2
:103F100055FF0390039800F020F80246019B22FA17
:103F200003F303F00103184605B05DF804FB00B588
:103F300085B0019001AB1846FFF740FF0390019A4E
:103F4000039B02F5E07253F822301B0C03F00303CD
:103F5000DBB2184605B05DF804FB82B00190019B0E
:103F6000D3F81035184602B07047000000B587B08E
:103F70000390029101924FF0A0430493039A029B95
:103F80001344012B04D912494FF43A70FFF7B8FCDF
:103F9000039B059311E0059B9B0018336B4453F87A
:103FA000083C1846FFF7D9FF0246019B1A60019BA7
:103FB00004330193059B01330593039A029B134439
:103FC000059A9A42E7D300BF00BF07B05DF804FB33
:103FD0009863010084B001900091009B0393019BC2
:103FE000DB080293019B03F0070301930122019B6D
:103FF00002FA03F30399029A0A441278134018460E
:1040000004B0704784B001900091009B0393019B22
:10401000DB080293019B03F007030193039A029BC1
:1040200013441B785AB20121019B01FA03F35BB2DE
:10403000134359B2039A029B1344CAB21A7000BFC9
:1040400004B0704782B001900C4A019B1344303396
:1040500093F90030002B09DB084A019B13443033ED
:1040600093F90030072B01DC012300E0002303F06B
:104070000103DBB2184602B0704700BF140D0020E8
:1040800082B00190064A019B1344303393F900300B
:10409000072BCCBF01230023DBB2184602B07047C8
:1040A000140D002082B00190064A019B1344303366
:1040B00093F90030DB43DBB2DB09DBB2184602B018
:1040C000704700BF140D002084B00390029101924C
:1040D0008DF80330029B59B20E4A039B13443033D0
:1040E0000A461A700B49029B019A41F823209DF859
:1040F000033083F00103DBB2002B08D0029B083BA6
:10410000039A51B2034A13440A4683F8502000BF71
:1041100004B07047140D002082B00190044A019B46
:1041200013443033FF221A7000BF02B0704700BF43
:10413000140D002082B00190044A019B13443033D7
:1041400093F90030184602B0704700BF140D0020EC
:1041500082B00190034A019B52F82330184602B006
:10416000704700BF140D002000B589B00390029184
:1041700013468DF80730FF238DF81F309DF8073068
:10418000002B01D0002300E0082305939DF80730A1
:10419000002B01D0082300E00C230493059B069319
:1041A00014E00F4A069B52F82330B3F1FF3F0AD1C7
:1041B0009DF80730029A06990398FFF785FF069B42
:1041C0008DF81F3006E0069B01330693069A049B88
:1041D0009A42E6D39DF91F30184609B05DF804FBFA
:1041E000140D002082B003468DF807309DF807308B
:1041F000094A4FF0FF3142F823109DF80730072B92
:1042000007D99DF80730083B034A1344FF2283F87F
:10421000502000BF02B07047140D002000B583B0DD
:10422000214B93F85430002B03D008230093009BBC
:1042300036E000238DF8073009E09DF80730184676
:10424000FFF76AFF9DF8073001338DF807309DF8BE
:1042500007301F2BF1D900238DF8073009E09DF8B6
:1042600007301846FFF7BEFF9DF8073001338DF881
:1042700007309DF807300B2BF1D907210620FFF7F7
:10428000A7FC4FF4BE70FFF7EEFC4FF00040FFF7C5
:1042900013FD054B012283F8542000230093009B5B
:1042A000184603B05DF804FB140D0020044B93F88E
:1042B0005430002B14BF01230023DBB21846704793
:1042C000140D002000B587B0039002910192039B6A
:1042D0001F2B04D92B4940F2F710FFF711FB0023E5
:1042E00005930398FFF7DEFE0346002B02D0082358
:1042F000059341E0029BDB781A4601990398FFF78A
:1043000033FF03468DF813309DF91330B3F1FF3FAF
:1043100030D0029B9B78002B03D00398FFF7A8FDB9
:1043200005E0029B5B7819460398FFF78CFD029B22
:10433000DB78002B08D09DF91300029B1B781A46EE
:104340000399FFF7E7FC17E09DF91330083B0E4A8D
:10435000134493F95010029B1B789B015AB29DF9AC
:104360001330083B0A4351B2074A13440A4683F804
:10437000502001E004230593059B184607B05DF823
:1043800004FB00BFD0630100140D002000B589B00C
:1043900001900B468DF80330019B1F2B04D93D493A
:1043A00040F22520FFF7ACFA0198FFF77BFE0346A9
:1043B000002B04D1374940F22620FFF7A1FA0198DB
:1043C000FFF75EFE0346002B2FD00198FFF7B2FEE9
:1043D0000346083B304A134493F950308DF80F30B0
:1043E0009DF80F309B098DF80E309DF80E30032B91
:1043F0000BD10198FFF786FD0346002B01D0032364
:1044000000E002238DF81F3008E09DF80E30012BEC
:1044100001D1022300E003238DF81F309DF81F30E7
:1044200019460198FFF740FD30E00198FFF70AFEBA
:104430000346002B2AD00198FFF77CFE0346069323
:10444000069B9BB240339BB29B00ADF81630069B97
:104450001846FFF749FCBDF816301846FFF703FC75
:104460009DF80330002B11D00198FFF763FE03463F
:104470001846FFF76DFE0490049B002B06D0012226
:10448000069B02FA03F31846FFF716FC00BF09B0BB
:104490005DF804FBD0630100140D002000B583B06B
:1044A0000190019B1F2B04D9084940F27220FFF7AD
:1044B00027FA0198FFF726FD0346002B14BF0123BE
:1044C0000023DBB2184603B05DF804FBD0630100A3
:1044D00000B595B000231393002303934FF480732A
:1044E000ADF84630012310930023129321E0BDF86C
:1044F00046301846FFF7A2FB0346002B0ED010985B
:10450000FFF7E6FB0346002B08D0BDF846301846FF
:10451000FFF7A9FB139A109B13431393109B5B00A7
:104520001093BDF846300433ADF84630129B01338A
:104530001293129B072BDAD94FF4BE70FFF77EFB64
:104540000346002B0DD04FF4BE70FFF78CFB139B7E
:1045500043F00043139303AB1A4601210020FFF7F9
:1045600005FD139BDBB2002B29D001231093002300
:10457000129321E0109A139B1340002B16D012982F
:10458000FFF7FAFB0D901298FFF706FC03468DF833
:1045900033301298FFF7DCFD0B900B9B002B05D0FE
:1045A0009DF833200B9B11460D989847109B5B009C
:1045B0001093129B01331293129B072BDAD9139B92
:1045C000002B80F2EE8000238DF83B300023029315
:1045D00000230F930AE00F9B9B0050336B444FF076
:1045E000FF3243F84C2C0F9B01330F930F9B002B92
:1045F000F1D000238DF83B300023129378E06B4A12
:10460000129B1344503393F900308DF82B309DF8F2
:104610002B3023F0C0030993644A129B1344503398
:1046200093F90030B3F1FF3F5FD001AB1946099811
:10463000FFF7D0FC0346002B57D09DF82B309B0989
:104640008DF823300998FFF775FD03461846FFF7EC
:104650007FFD0790079B002B03D19DF82330032B90
:1046600043D19DF82330032B04D102AB194609989E
:10467000FFF7C8FC0998FFF75AFC03468DF81B307A
:1046800003AB19460998FFF7A5FC0590059B002B85
:1046900003D09DF81B30022B06D0059B002B24D1A4
:1046A0009DF81B30032B20D19DF82330032B13D111
:1046B0009DF81B30022B01D1032300E002238DF86B
:1046C00013309DF8133019460998FFF7EDFB9DF85C
:1046D0003B3001338DF83B30079B002B05D09DF814
:1046E0002320079B114609989847129B0133129388
:1046F000129B032B83D99DF83B30002B4CD0012318
:104700008DF83A306B461A4601210020FFF72EFC47
:1047100000230F9314E00F9B9B0050336B4453F81E
:10472000502C0F9B9B0050336B4453F8443C9A42EF
:1047300003D000238DF83A3005E00F9B01330F932F
:104740000F9B002BE7D09DF83A30002B03D00023BD
:104750008DF83B3020E000230F931AE00F9B9B0065
:1047600050336B4453F8502C0F9B9B0050336B44D9
:1047700043F8442C0F9B9B0050336B4453F8482C58
:104780000F9B9B0050336B4443F84C2C0F9B013321
:104790000F930F9B002BE1D09DF83B30002B7FF453
:1047A00028AF00BF15B05DF804FB00BF140D00205A
:1047B000C2DF704700BF1846CDDF704700BF184604
:1047C000D1DF704700BF1846D3DF704700BF1846DF
:1047D00000B585B00190019B1878019B5978019B29
:1047E0009A7A019B9B78FFF7E3FF0390039B002BD2
:1047F00001D0039B31E0019B1878019BD988019B74
:104800005A79019B1B79FFF7DFFF0390039B002B75
:1048100001D0039B21E0019B1A78019BDB781946AC
:104820001046FFF7C9FF0390039B002B01D0039BA9
:1048300013E0019B9B7803F00103002B0CD1019B3B
:104840001B89002B08D0019B1A78019B1B891946F4
:104850001046FFF7B5FF0390039B184605B05DF8BF
:1048600004FBD5DF704700BF1846D6DF704700BF96
:104870001846D7DF704700BF1846D8DF704700BF23
:104880001846DADF704700BF184600B585B00190C2
:10489000019B5B78002B05D1019B9B78002B01D1FC
:1048A000072341E0019B1A78019B1B7919461046AA
:1048B000FFF7DFFF0390039B002B01D0039B33E046
:1048C000019B1A78019BDB8819461046FFF7C9FF48
:1048D0000390039B002B01D0039B25E0019B1A78DA
:1048E000019B9B7819461046FFF7BFFF0390039B7F
:1048F000002B01D0039B17E0019B1A78019B5B788A
:1049000019461046FFF7BDFF0390039B002B01D013
:10491000039B09E0019B1A78019BDB78194610463E
:10492000FFF7ABFF0390039B184605B05DF804FB4F
:1049300000B587B003460A468DF8073013468DF858
:10494000063000238DF81730002304939DF80730BC
:104950001846FDF76DFE0490049B032B61D89DF86B
:104960000630022B52D0022B5EDC002B31D0012B03
:104970005AD13649049A13465B0013440B441B7802
:104980008DF817303149049A13465B0013440B44E9
:1049900001331B78002B0ED02D4B2E4A4FF40041D3
:1049A0001846FEF727FE0390039B002B03D1294AEC
:1049B0009DF8073013702549049A13465B00134491
:1049C0000B4402331978244A049B13440A461A7094
:1049D0002AE01F4B1846FEF73FFE1F4A049B134474
:1049E00019781A48049A13465B00134403440233AF
:1049F0001B78994217D11549049A13465B0013445A
:104A00000B4402331B788DF817300CE00F49049AE1
:104A100013465B0013440B4401331B788DF81730A9
:104A200002E000BF00E000BF9DF81730002B09D066
:104A30000A4B1B68002B05D0084B1B689DF81720FC
:104A40001046984700BF07B05DF804FBBC0D00207E
:104A5000C80D0020E80D0020EC0D0020B80D00204E
:104A600000B583B00190019B1B7802211846FFF727
:104A70005FFF00BF03B05DF804FB000000B583B02A
:104A80000C4B1B78002B0FD00023019308E0019BF7
:104A9000022B02D00198FDF757FD019B01330193D2
:104AA000019B032BF3D901E0FDF768FD00BF03B0C4
:104AB0005DF804FB740D00202DE9D04F92B0034641
:104AC0008DF83F300023119300231093C94B1B78BE
:104AD000002B04D0C74A00231370FFF7CFFF9DF8C7
:104AE0003F30172B00F2398201A252F823F000BFA9
:104AF000514B01005F4B01005F4B0100FB4B01007C
:104B0000974C0100134D0100A74D0100C74D010056
:104B1000D74D0100014E01001F4E01003D4E010026
:104B20005B4E0100694E0100694E0100694E0100B3
:104B3000694E0100694E0100FD4E01000B4F01005E
:104B40001F4F0100334F01004D4F01004D4F010039
:104B5000FFF794FFA84A9DF83F301370FEE1002054
:104B6000FDF7AAFC0346002B0DD00020FDF7ECFC5E
:104B70009DF83F30022B02D14FF4E16301E04FF486
:104B80007A6310930BE00020FDF7C4FC9DF83F30E2
:104B9000022B01D1C82301E04FF4C8731093964A49
:104BA0009DF83F301370954C109B002200930192AA
:104BB0004FF000024FF00003DDE900673946CB03F8
:104BC000314643EA51433146CA0312F5FA71029164
:104BD00043F1000303934FF47A724FF00003DDE9D1
:104BE000020101F01DFA02460B4613460022194647
:104BF0002046FEF7FFFC1190B0E10020FDF75CFCC1
:104C00000346002B0DD00020FDF79EFC9DF83F30A1
:104C1000032B02D14FF4487301E04FF47A631093F1
:104C20000BE00020FDF776FC9DF83F30032B01D10F
:104C3000C82301E04FF4C87310936F4A9DF83F30CA
:104C400013706E4C109B0022049305924FF00002EB
:104C50004FF00003DDE904673946CB03314643EAF0
:104C600051433146CA0312F5FA71069143F100032C
:104C700007934FF47A724FF00003DDE9060101F06B
:104C8000CFF902460B461346002219462046FEF78E
:104C9000B1FC119062E10020FDF70EFC0346002BF1
:104CA00006D00020FDF750FC4FF47A63109305E026
:104CB0000020FDF72FFC4FF4C87310934E4A9DF867
:104CC0003F3013704D4C109B00229A4693464FF094
:104CD00000024FF000034FEACB3343EA5A434FEA56
:104CE000CA3212F5FA71089143F1000309934FF4A7
:104CF0007A724FF00003DDE9080101F091F90246F4
:104D00000B461346002219462046FEF773FC11900D
:104D100024E10020FDF7D0FB0346002B0CD000203F
:104D2000FDF712FC9DF83F30052B01D1C82301E0AF
:104D30004FF47A6310930BE00020FDF7EBFB9DF836
:104D40003F30052B01D1C82301E04FF4C873109305
:104D5000294A9DF83F301370284C109B002298463A
:104D600091464FF000024FF000034FEAC93343EA87
:104D700058434FEAC83212F5FA710A9143F1000321
:104D80000B934FF47A724FF00003DDE90A0101F052
:104D900047F902460B461346002219462046FEF705
:104DA00029FC1190DAE00020FDF70EFC124A9DF874
:104DB0003F301370114B002240F6CD411846FEF7EC
:104DC00019FC1190CAE00020FDF7A4FB0A4A9DF8E7
:104DD0003F301370C2E0074B01221A700120FDF72B
:104DE000F3FB064B002240F6CD411846FEF702FCCD
:104DF0001190B3E06D0D00206C0D0020780D0020A7
:104E0000594B01221A700120FDF7DEFB574B00229F
:104E10004FF480411846FEF7EDFB11909EE0524B97
:104E200001221A700120FDF7CFFB504B002240F603
:104E3000CD411846FEF7DEFB11908FE04A4B012270
:104E40001A700120FDF7C0FB484B00224FF480414F
:104E50001846FEF7CFFB119080E0FDF7A2FB444A15
:104E60009DF83F30137079E0424B1846FEF7F4FB93
:104E700011909DF83F30C3F111031093109B002B4C
:104E800035D0119B002B32D1109B012B28D9394CE6
:104E9000109B9BB21A46C82302FB03F3DA171E4687
:104EA00017464FF000024FF00003FB0343EA56435E
:104EB000F20312F5FA710C9143F100030D934FF4D4
:104EC0007A724FF00003DDE90C0101F0A9F8024607
:104ED0000B461346002219462046FEF78BFB119025
:104EE0000220FDF717FB244B01221A7036E0022046
:104EF000FDF72AFB204B00221A702FE0FFF7BEFDC2
:104F00001B4A9DF83F30137028E0FFF7B7FD0020E3
:104F1000FDF700FB164A9DF83F3013701EE0FFF7C7
:104F2000ADFD0120FDF7F6FA114A9DF83F301370F0
:104F300014E0FFF7A3FD0020FDF7ECFA0120FDF7D8
:104F4000E9FA0B4A9DF83F30137007E0FDF729FBA3
:104F5000074A9DF83F30137000E000BF119B1846D0
:104F600012B0BDE8D08F00BF6D0D0020780D00207D
:104F70006C0D0020980D0020740D002000B583B04A
:104F80000190074B1B6803F00103002B04D0054B75
:104F90001B781846FFF790FD00BF03B05DF804FBD7
:104FA000700D00206C0D002000B583B00190022030
:104FB000FDF70AFB00BF03B05DF804FB00B585B048
:104FC0000190009100230393294A019B1360294A11
:104FD000009B1360019B03F00203002B2AD00023E7
:104FE000029308E001220121029800F053F8039097
:104FF000029B01330293029B032B02D8039B002BDD
:10500000F0D0039B002B06D140F2666204211A48BF
:10501000FDF7EAFB0390039B002B02D1FDF756FC42
:105020000390039B002B05D1144A00211448FEF77E
:10503000B1FA0390019B03F00103002B01D0FDF7AF
:10504000DDFA039B002B05D10E4A00210E48FEF726
:10505000A1FA0390039B002B05D10C4A01210C48B7
:10506000FEF798FA0390039B184605B05DF804FB21
:10507000700D0020B80D002028640100614A010075
:10508000246401007D4F01001C640100A94F010050
:105090002064010084B001900B468DF80330134664
:1050A0008DF8023000230393019B032B3CD89DF81D
:1050B0000230012B0BD19DF80330012B04D1019B51
:1050C000DBB20E33DBB200E000238DF802309DF836
:1050D0000330022B0FD0022B23DC002B16D0012B28
:1050E0001FD11449019A13465B0013440B449DF8E9
:1050F00002201A701AE00F49019A13465B0013440C
:105100000B4401339DF802201A700FE00949019AFF
:1051100013465B0013440B4402339DF802201A70BF
:1051200004E00723039301E007230393039B18463E
:1051300004B07047BC0D0020C4DF704700BF1846A4
:10514000C7DF704700BF1846D3DF704700BF18465F
:10515000DDDF704700BF184682B00190019B1B78CD
:105160001AB2019B01331B781B021BB213431BB203
:105170009BB2184602B0704700B587B00346ADF841
:105180000630274BFF221A70254BFF225A70244B02
:10519000FF229A70224BFF22DA70214BFF221A71F4
:1051A0001F4BFF225A711E4BFF229A711D4B1A781A
:1051B0001B4BDA71BDF80630002B14D0BDF8061079
:1051C000012302220020FFF7BFFF03468DF81730AE
:1051D0009DF817300493049B002B04D0124A6821D9
:1051E0000498FDF79FFB0E4A08210020FFF7A8FF57
:1051F00003468DF817309DF817300393039B002B5F
:1052000004D0094A6E210398FDF78CFB054B1B78EF
:105210000133DAB2034B1A7000BF07B05DF804FB2C
:10522000F40D0020FC0D00204864010000B58BB097
:10523000304B00221A70304B00221A7002AB002251
:105240001A605A609A6001238DF80A3042238DF863
:105250000B3001238DF80C3002238DF80D30274AD6
:105260006B4692E8030083E80300FF238DF80130CA
:1052700000238DF8023002AB1846FFF7A9FA099017
:10528000099B0893089B002B04D01D4A9121089884
:10529000FDF748FB6B461846FFF7F7FA0990099BA4
:1052A0000793079B002B04D0154A95210798FDF71B
:1052B00039FB8020FFF74CFF0990099B0693069B62
:1052C000002B04D00E4A99210698FDF72BFB0021F4
:1052D0000020FFF731FF0990099B0593059B002BE8
:1052E00004D0074A9D210598FDF71CFB00BF0BB0B9
:1052F0005DF804FBF00D0020FC0D00209864010017
:105300004864010000B583B003468DF807309DF86E
:1053100007300E2B02D00F2B0AD013E00B4B0122CB
:105320001A700020FFF728FF0120FDF70DF909E0B2
:10533000064B02221A70064B00221A700120FDF75C
:1053400003F900BF00BF03B05DF804FBF00D0020BF
:10535000FD0D002000B587B001900091019B93F8EE
:105360002D30032B02D0802B21D049E00120FDF706
:105370002BF9254B1B78012B03D10020FFF7FCFEF6
:105380003BE0214B1B78022B37D101230222002165
:105390000020FFF7D9FE0490049B0393039B002B8E
:1053A0002BD01A4AC8210398FDF7BCFA25E000204B
:1053B000FDF70AF9144B1B78022B20D1144B1B78F4
:1053C00083F00103DBB2002B19D0019BDB7A23F0C1
:1053D0007F03DBB2002B12D0019B0C331846FFF782
:1053E000BBFE0346ADF81630BDF816301846FFF781
:1053F000C3FE074B01221A7001E000BF00E000BFAE
:1054000000BF07B05DF804FBF00D00204864010008
:10541000FD0D002000B587B000230593059B049384
:10542000049B002B04D0194A4F210498FDF77AFA07
:10543000FEF77CF80590059B0393039B002B04D09B
:10544000124A52210398FDF76DFA11490320FFF724
:10545000B5FD0590059B0293029B002B04D00B4ADF
:1054600056210298FDF75EFAFEF7C6FA0590059BF5
:105470000193019B002B04D0044A59210198FDF7A8
:1054800051FA00BF07B05DF804FB00BFA064010043
:105490000553010000B585B000F0D8FC0390039BD4
:1054A0000293029B002B04D00F4A61210298FDF762
:1054B00039FA00F011FD0346002B03D10A4963209D
:1054C000FEF71EFA00F056FD0390039B0193019B2B
:1054D000002B04D0044A66210198FDF723FA00BF8F
:1054E00005B05DF804FB00BFA064010008B5FFF73C
:1054F00091FFFFF7CFFFFFF799FEFEF793FAFCE766
:10550000BFF34F8F00BF074BDB6803F4E062054930
:10551000054B1343CB60BFF34F8F00BF00BF00BFED
:10552000FCE700BF00ED00E00400FA05024B034A6F
:105530001A6000BF704700BF800B00200090D003AE
:1055400008B500F05DF90346002B06D09B4B1B68A5
:105550001B0A9B4A03F01F03136000F07DF903460A
:10556000002B02D0974B984A1A6000F091F903463D
:10557000002B06D0954B1B685B0B954A03F0070385
:10558000136000F0B1F90346002B05D0914BDB68A6
:10559000904A23F08073D36000F0C2F90346002BD9
:1055A0000ED04FF080430022C3F80C214FF080430F
:1055B0000022C3F810214FF080430022C3F83825A1
:1055C00000F0DAF90346002B02D0834B03221A6065
:1055D00000F0EEF90346002B0BD0804B05221A6039
:1055E0007F4B01221A607F4B00221A607E4B3F22C4
:1055F0001A6000F0F9F90346002B76D04FF0805383
:105600007A4AD3F80434C2F820354FF08053774AF1
:10561000D3F80834C2F824354FF08053734AD3F8D6
:105620000C34C2F828354FF08053704AD3F8103448
:10563000C2F82C354FF080536C4AD3F81434C2F8BA
:1056400030354FF08053694AD3F81834C2F83435F6
:105650004FF08053654AD3F81C34C2F840354FF000
:105660008053624AD3F82034C2F844354FF0805357
:105670005E4AD3F82434C2F848354FF080535B4A71
:10568000D3F82834C2F84C354FF08053574AD3F83A
:105690002C34C2F850354FF08053544AD3F830348C
:1056A000C2F854354FF08053504AD3F83434C2F81E
:1056B00060354FF080534D4AD3F83834C2F8643522
:1056C0004FF08053494AD3F83C34C2F868354FF064
:1056D0008053464AD3F84034C2F86C354FF08053BB
:1056E000424AD3F84434C2F8703500F099F90346C1
:1056F000002B05D03E4B1B683E4A03F04F0313605E
:1057000000F0BAF90346002B0DD04FF08043D3F8D8
:10571000003403F00103002B05D04FF080436FF0FD
:105720000102C3F80024344BD3F88830324A43F4E2
:105730007003C2F88830BFF34F8F00BFBFF36F8F85
:1057400000BF4FF01023D3F80032002B05DB4FF0E1
:105750001023D3F80432002B2BDA284B0122C3F894
:10576000042500BF254BD3F80034002BFAD04FF0AE
:1057700010231522C3F8002200BF204BD3F80034B9
:10578000002BFAD04FF010231522C3F8042200BFDB
:105790001A4BD3F80034002BFAD0184B0022C3F870
:1057A000042500BF154BD3F80034002BFAD0FFF7C7
:1057B000A7FEFFF7BBFE00BF08BD00BF240300101B
:1057C0004035014074C007400DF0ADBA44020010EE
:1057D0003C050040F0ED00E0A00500401056004000
:1057E00088560040185600401456004000C0004043
:1057F00058020010E40E004000ED00E000E001401F
:10580000124B1B68DBB2062B1DD1114B1B6803F03A
:105810000F03002B17D10F4B1B6803F0F003302B45
:1058200001D1012310E00B4B1B6803F0F003402B68
:1058300001D1012308E0074B1B6803F0F003502B54
:1058400001D1012300E0002318467047E00F00F06B
:10585000E40F00F0E80F00F00A4B1B68DBB2062BE8
:105860000DD1094B1B6803F00F03002B07D1074B29
:105870001B6803F0F003302B01D1012300E000236B
:1058800018467047E00F00F0E40F00F0E80F00F05A
:10589000124B1B68DBB2062B1DD1114B1B6803F0AA
:1058A0000F03002B17D10F4B1B6803F0F003302BB5
:1058B00001D1012310E00B4B1B6803F0F003402BD8
:1058C00001D1012308E0074B1B6803F0F003502BC4
:1058D00001D1012300E0002318467047E00F00F0DB
:1058E000E40F00F0E80F00F00A4B1B68DBB2062B58
:1058F0000DD1094B1B6803F00F03002B07D1074B99
:105900001B6803F0F003302B01D1012300E00023DA
:1059100018467047E00F00F0E40F00F0E80F00F0C9
:10592000124B1B68DBB2062B1DD1114B1B6803F019
:105930000F03002B17D10F4B1B6803F0F003302B24
:1059400001D1012310E00B4B1B6803F0F003402B47
:1059500001D1012308E0074B1B6803F0F003502B33
:1059600001D1012300E0002318467047E00F00F04A
:10597000E40F00F0E80F00F00A4B1B68DBB2062BC7
:105980000DD1094B1B6803F00F03002B07D1074B08
:105990001B6803F0F003302B01D1012300E000234A
:1059A00018467047E00F00F0E40F00F0E80F00F039
:1059B0000A4B1B68DBB2062B0DD1094B1B6803F0A9
:1059C0000F03002B07D1074B1B6803F0F003302BAC
:1059D00001D1012300E0002318467047E00F00F0DA
:1059E000E40F00F0E80F00F00A4B1B68DBB2062B57
:1059F0000DD1094B1B6803F00F03002B07D1074B98
:105A00001B6803F0F003502B01D1012300E00023B9
:105A100018467047E00F00F0E40F00F0E80F00F0C8
:105A2000124B1B68DBB2062B1DD1114B1B6803F018
:105A30000F03002B17D10F4B1B6803F0F003302B23
:105A400001D1012310E00B4B1B6803F0F003402B46
:105A500001D1012308E0074B1B6803F0F003502B32
:105A600001D1012300E0002318467047E00F00F049
:105A7000E40F00F0E80F00F0124B1B68DBB2062BBE
:105A80001DD1114B1B6803F00F03002B17D10F4BD7
:105A90001B6803F0F003302B01D1012310E00B4B06
:105AA0001B6803F0F003402B01D1012308E0074BF2
:105AB0001B6803F0F003502B01D1012300E0002309
:105AC00018467047E00F00F0E40F00F0E80F00F018
:105AD00082B003468DF807309DF8073003F01F02AF
:105AE00005499DF907305B09012000FA02F241F8EF
:105AF000232000BF02B0704700E100E082B00346FF
:105B000000918DF807309DF90730002B0CDA009BCF
:105B1000DAB20C499DF8073003F00F03043B520141
:105B2000D2B20B441A7609E0009BDAB206499DF91D
:105B300007305201D2B20B4483F8002300BF02B0F9
:105B4000704700BF00ED00E000E100E082B00346D6
:105B50008DF807309DF90730002B0BDA0B4A9DF8C2
:105B6000073003F00F03043B13441B7EDBB25B09D9
:105B7000DBB208E0064A9DF90730134493F800337E
:105B8000DBB25B09DBB2184602B0704700ED00E003
:105B900000E100E000B583B00190019B002B03D130
:105BA0000449C420FDF7ACFE019B5B68184603B0B6
:105BB0005DF804FBE464010010DF704700BF184685
:105BC00082B003468DF807309DF907301F2B0CDC9F
:105BD0009DF907300F4A22FA03F303F00103002B6B
:105BE00014BF01230023DBB210E09DF907303F2BE7
:105BF0000BDC9DF90730203B012202FA03F3002B56
:105C000014BF01230023DBB200E00123184602B0D9
:105C1000704700BFFC06FFBD82B00190019B072BBF
:105C200007D8EC22019B42FA03F303F00103002B97
:105C300001D1002300E00123184602B070470000A4
:105C400000B583B003468DF807309DF9073018463C
:105C5000FFF7B6FF0346002B02D142F201032EE00C
:105C60009DF907301846FFF771FF03461846FFF706
:105C7000D3FF0346002B02D142F202031FE0124B76
:105C80009B68002B15D09DF907305B090E4A52F82E
:105C900023209DF8073003F01F03012101FA03F3CD
:105CA00019469DF907305B090A43074941F823204B
:105CB00004E09DF907301846FFF70AFF0023184655
:105CC00003B05DF804FB00BFF80C002000B583B002
:105CD000034600918DF807309DF907301846FFF70D
:105CE0006FFF0346002B02D142F201030FE0009840
:105CF000FFF792FF0346002B02D142F2020306E0B7
:105D00009DF9073000991846FFF7F8FE0023184662
:105D100003B05DF804FB000000B587B003468DF8C2
:105D2000073002AB14491846FDF7A0FE17E002AB9E
:105D30001846FFF72FFF0590059B1B680493059BF2
:105D400059689DF80720049B104698470346002B8E
:105D500001D111230BE002AB1846FDF7B1FE02ABF7
:105D60001846FFF717FF0346002BE0D10023184623
:105D700007B05DF804FB00BFA865010000B587B05F
:105D800003468DF8073002AB11491846FDF76EFE49
:105D900012E002AB1846FFF7FDFE0590059B1B685D
:105DA0000493059B59689DF80720049B104698476B
:105DB00002AB1846FDF784FE02AB1846FFF7EAFE79
:105DC0000346002BE5D100BF00BF07B05DF804FB20
:105DD000B465010000B583B01620FFF731FF0190D4
:105DE000019B0093009B002B04D0044A992100984A
:105DF000FCF798FD00BF03B05DF804FB38650100B7
:105E000000B585B007211620FFF760FF0390039BC4
:105E10000293029B002B04D00B4AB8210298FCF796
:105E200081FD07211520FFF751FF0390039B01938C
:105E3000019B002B04D0044ABA210198FCF772FDA3
:105E400000BF05B05DF804FB3865010000B583B004
:105E50001B4B1B78002B01D008232DE0194B01228E
:105E60001A700020FFF758FF0346112B01D10023C1
:105E700022E00020FFF782FF134B1B6800936B4664
:105E8000124A13491846FFF797FE0190019B002B19
:105E900001D0019B10E00A4B01221A70094B00222D
:105EA0001A700C4B00221A70FFF7AAFFFFF792FF3F
:105EB0000120FFF763FF0023184603B05DF804FBE1
:105EC000FE0D0020000E0020A46501007C6501008D
:105ED000F1290100FF0D0020014B1B781846704787
:105EE000FE0D002000B585B06B4611491846FDF740
:105EF000BDFD10E06B461846FFF74CFE0390039B78
:105F00001B680293039B5A68029B104698476B4696
:105F10001846FDF7D5FD6B461846FFF73BFE0346D6
:105F2000002BE7D100BF00BF05B05DF804FB00BF48
:105F3000C065010008B5FFF7D5FF00BF08BD000030
:105F400000B583B00190019B002B03D10449C4200C
:105F5000FDF7D6FC019B5B68184603B05DF804FBB7
:105F6000CC650100C1DF704700BF1846FADF7047FB
:105F700000BF184600B585B0074A6B4607CA83E8DC
:105F800007006B461846FFF7F1FF0390039B184686
:105F900005B05DF804FB00BF2066010000B595B0B8
:105FA000019003AA03AB03F12D0103AB2C33184678
:105FB000FFF7D8FF1390139B002B03D0139B052BE7
:105FC00020D124E00FAB14491846FDF74FFD11E036
:105FD0000FAB1846FFF7B4FF1290129B1B6811938A
:105FE000129B596803AA119B104698470FAB18469D
:105FF000FDF766FD0FAB1846FFF7A2FF0346002B27
:10600000E6D1CEE7054A81211398FCF78BFC00BF4F
:1060100015B05DF804FB00BF746601002C6601003A
:1060200053EA020C61D02DE9F04BB3FA83F51E0060
:1060300007BFB2FA82F502FA05F403FA05F4164630
:10604000C5F120051EBF22FA05F73C43203556EA6C
:10605000044C4FEA144418BF0134A3464FF0000922
:10606000C846904271EB030C39D3094207BFB0FA1E
:1060700080F700FA07F6B1FA81F701FA07F6C7F1DF
:1060800020071EBF20FA07FC46EA0C062037B6FBA5
:10609000FBFC7F1B103F07F01F04C4F120060CFA25
:1060A00004F42CFA06F644BF34460026202FA4BF81
:1060B0002646002454EA060C08BF012418EB040805
:1060C00049EB0609A4FB027CC01B06FB02CC04FBC7
:1060D00003CC71EB0C01904271EB030CC5D20B4663
:0E60E000024649464046BDE8F08BB2FBF3F2A3
:0860F0005553010000000000FF
:0860F8009D5F010000000000A3
:106100002E2E2F2E2E2F2E2E2F2E2E2F2E2E2F2EAA
:106110002E2F636F6D706F6E656E74732F6472696E
:10612000766572735F6E72662F68616C2F6E726631
:106130005F6770696F2E6800433A5C5573657273D0
:106140005C74686572755C4465736B746F705C6ECB
:1061500052465C636F6D706F6E656E74735C626FD8
:10616000617264735C626F617264732E630000001D
:10617000111213140D0E0F10900B0020433A5C55B2
:10618000736572735C74686572755C4465736B7477
:106190006F705C6E52465C636F6D706F6E656E748F
:1061A000735C6C69627261726965735C6275747448
:1061B0006F6E5C6170705F627574746F6E2E6300D9
:1061C000433A5C55736572735C74686572755C44C0
:1061D00065736B746F705C6E52465C636F6D706F4D
:1061E0006E656E74735C6C69627261726965735C12
:1061F0007574696C5C6170705F7574696C5F706CEC
:106200006174666F726D2E63000000002E2E2F2EBB
:106210002E2F2E2E2F2E2E2F2E2E2F2E2E2F636F23
:106220006D706F6E656E74732F6C696272617269E6
:1062300065732F6578706572696D656E74616C5FEA
:1062400073656374696F6E5F766172732F6E7266C9
:106250005F73656374696F6E5F697465722E680041
:106260002E2E2F2E2E2F2E2E2F2E2E2F2E2E2F2E49
:106270002E2F636F6D706F6E656E74732F6C696215
:106280007261726965732F6D757465782F6E7266B1
:106290005F6D74782E680000433A5C5573657273C5
:1062A0005C74686572755C4465736B746F705C6E6A
:1062B00052465C636F6D706F6E656E74735C6C6973
:1062C000627261726965735C7077725F6D676D741D
:1062D0005C6E72665F7077725F6D676D742E6300BF
:1062E000F8600100F860010004000000433A5C55CA
:1062F000736572735C74686572755C4465736B7406
:106300006F705C6E52465C636F6D706F6E656E741D
:10631000735C6C69627261726965735C65787065E3
:1063200072696D656E74616C5F73656374696F6EBD
:106330005F766172735C6E72665F73656374696FBA
:106340006E5F697465722E6300000000433A5C550D
:10635000736572735C74686572755C4465736B74A5
:106360006F705C6E52465C636F6D706F6E656E74BD
:10637000735C647269766572735F6E72665C636F7C
:106380006D6D6F6E5C6E72665F6472765F636F6D6B
:106390006D6F6E2E630000002E2E2F2E2E2F2E2EB0
:1063A0002F2E2E2F2E2E2F2E2E2F636F6D706F6E91
:1063B000656E74732F647269766572735F6E726650
:1063C0002F68616C2F6E72665F6770696F2E680050
:1063D000433A5C55736572735C74686572755C44AE
:1063E00065736B746F705C6E52465C636F6D706F3B
:1063F0006E656E74735C647269766572735F6E72DB
:10640000665C6770696F74655C6E72665F647276F5
:106410005F6770696F74652E63000000780D00205F
:10642000980D0020C80D00200D0003003149010027
:106430000E000300314901000F0003003149010043
:106440001000030031490100433A5C5573657273D3
:106450005C74686572755C4465736B746F705C6EB8
:1064600052465C6578616D706C65735C616E745CDE
:10647000616E745F7365617263685F75706C696E7D
:106480006B5C616E745F7365617263685F75706C7D
:10649000696E6B2E6300000000020A0000003C01E0
:1064A000433A5C55736572735C74686572755C44DD
:1064B00065736B746F705C6E52465C6578616D706D
:1064C0006C65735C616E745C616E745F7365617240
:1064D00063685F75706C696E6B5C6D61696E2E636D
:1064E000000000002E2E2F2E2E2F2E2E2F2E2E2F80
:1064F0002E2E2F2E2E2F636F6D706F6E656E747340
:106500002F6C69627261726965732F65787065724C
:10651000696D656E74616C5F73656374696F6E5FDE
:10652000766172732F6E72665F73656374696F6EE6
:106530005F697465722E6800433A5C5573657273C7
:106540005C74686572755C4465736B746F705C6EC7
:1065500052465C636F6D706F6E656E74735C736FC3
:1065600066746465766963655C636F6D6D6F6E5CA0
:106570006E72665F7364682E6300000033383331D7
:106580002D353231642D376466392D323464382D1F
:10659000656666332D343637622D323235662D61AD
:1065A0003030650001000007F8600100F86001006C
:1065B00008000000F8600100F86001000800000019
:1065C000F860010000610100080000002E2E2F2E4F
:1065D0002E2F2E2E2F2E2E2F2E2E2F2E2E2F636F60
:1065E0006D706F6E656E74732F6C69627261726923
:1065F00065732F6578706572696D656E74616C5F27
:1066000073656374696F6E5F766172732F6E726605
:106610005F73656374696F6E5F697465722E68007D
:1066200001002000040E002080000000433A5C5569
:10663000736572735C74686572755C4465736B74C2
:106640006F705C6E52465C636F6D706F6E656E74DA
:10665000735C736F66746465766963655C636F6DA4
:106660006D6F6E5C6E72665F7364685F616E742ED0
:1066700063000000F0600100F86001000800000005
:046680000090D003B3
:04000003100022398E
:00000001FF
