:10000000000001203902000091020000930200006C
:100010009502000097020000990200000000000015
:100020000000000000000000000000009B02000033
:100030009D020000000000009F020000A1020000DD
:10004000C9270000A70200002D4A0000AB020000F3
:10005000AD020000AF020000B1020000E92C000078
:1000600061380000B7020000B9020000BB020000C6
:10007000BD020000BF020000C1020000C302000078
:10008000C5020000C7020000C9020000CB02000048
:10009000CD020000CF020000D1020000D302000018
:1000A000D5020000D7020000D9020000DB020000E8
:1000B000DD020000DF020000A3020000A302000036
:1000C000E1020000E3020000E5020000E702000098
:0C00D000E9020000EB020000ED0200005D
:1000DC00354936480A1A02D0072291438D463449D5
:1000EC0034480A1A06D00722914381F30988022268
:1000FC0082F3148830483149314A00F044F83148D1
:10010C003149324A00F03FF831483249324A00F066
:10011C003AF832483249334A00F035F8324833491C
:10012C00334A00F030F833483349344A00F02BF8A6
:10013C0033483449344A00F026F834483449002214
:10014C0000F02CF833483449002200F027F83348EB
:10015C003349091A082902DB002202604160314A46
:10016C0090471F481F49884205D00268043003B4E9
:10017C00904703BCF7E700208646EC4600200021A0
:10018C00294A9047FEE7884207D0521A05D00378D7
:10019C0001300B700131013AF9D17047884202D01D
:1001AC0002700130FAE770470000012000F80020CF
:1001BC000000012000000120C06500005400002058
:1001CC00B8000020F0020000F002000058560000B9
:1001DC00C06500005400002054000020E4560000CC
:1001EC00E4560000E4560000E4560000E45600001B
:1001FC00E4560000E4560000E4560000BE65000022
:10020C0024660000B8000020B8000020B8000020D0
:10021C00AC060020AC060020AC060020AC0600208A
:10022C00AC0800205D020000854E00000F484FF026
:10023C000701884385460E4880470E48016841F403
:10024C0070010160BFF34F8FBFF36F8FFFF740BF9B
:10025C0009480A490A4A884207D0521A05D003783D
:10026C0001300B700131013AF9D1704700000120C7
:10027C005D4F000088ED00E090560000000000206B
:10028C0054000020FEE7FEE7FEE7FEE7FEE7FEE790
:10029C00FEE7FEE7FEE7FEE7FEE7FEE7FEE7FEE72A
:1002AC00FEE7FEE7FEE7FEE7FEE7FEE7FEE7FEE71A
:1002BC00FEE7FEE7FEE7FEE7FEE7FEE7FEE7FEE70A
:1002CC00FEE7FEE7FEE7FEE7FEE7FEE7FEE7FEE7FA
:1002DC00FEE7FEE7FEE7FEE7FEE7FEE7FEE7FEE7EA
:0402EC00FEE700BF6A
:1002F00000B5A1B00590049103920293049801F017
:100300006BFF039B1593029B169300231793002307
:100310008DF8603000231993229B1A9300231F93BA
:100320000FA91F9B0822049802F014F808231F93BA
:10033000119B1293109B9BB2ADF84C3000238DF8AB
:1003400050309DF83C3003F00303DBB2012B32D177
:100350000F9BC3F395231C939DF83C30C3F3C2035A
:10036000DBB28DF84E309DF83C30C3F38003DBB236
:10037000002B14BF01230023DBB28DF84F30BDF8F2
:100380003C30C3F38313DBB21B931B9B9A0009A978
:100390001F9B049801F0DEFF1B9B9B001F9A1344D8
:1003A0001F9312AA09A915AB009313461B9A1C9818
:1003B00000F026FF3BE09DF83C3003F00303DBB286
:1003C000022B34D1BDF83E30C3F389139BB21E9388
:1003D0009DF83C30C3F3C203DBB28DF84E309DF87C
:1003E0003C30C3F38003DBB2002B14BF0123002396
:1003F000DBB28DF84F301E9B082B28BF08231D93BE
:1004000007A91F9B1D9A049801F0A4FF1F9A1D9B2A
:1004100013441F931E9A1D9BD31A1E9315AB12AA49
:1004200007A81D9900F08EFF1E9B002BE3D10498B6
:1004300001F0E1FE00BF21B05DF804FB82B0019045
:100440000091034B01221A7000BF02B0704700BF39
:10045000F800002030B58DB003468DF807301A4BF8
:1004600002AC1D460FCD0FC495E80F0084E80F00C5
:10047000062302934FF0FF3303934FF0FF330493AF
:100480004FF0FF3305934FF0EB7308939DF807305F
:10049000002B01D00D4A00E0002202AB19460C48A7
:1004A00003F0DEFE0B900B9B0A930A9B002B04D0FB
:1004B000084A43210A9800F0B9FF074A9DF807301F
:1004C000137000BF0DB030BD445700003D04000064
:1004D00054000020E4560000F900002000B583B06D
:1004E00001238DF807309DF807301846FFF7B2FF5B
:1004F00000BF03B05DF804FB00B589B00390029122
:100500000192019B8DF81F30124B00221A709DF84A
:100510001F301A460299104804F00AF80690069B0C
:100520000593059B002B04D00C4A5321059800F03D
:100530007DFF00BF0A4B1B78002B07D0054B1B78B3
:10054000DBB283F00103DBB2002BF3D100BF09B0B3
:100550005DF804FBF800002054000020E456000081
:10056000F900002000B585B003900291054B00937F
:100570004023054A02990398FFF7BAFE00BF05B071
:100580005DF804FBF9040000B800002082B001907F
:1005900000BF02B07047000000B583B0019005486D
:1005A00003F0B0FE0020FFF755FF00BF03B05DF879
:1005B00004FB00BF5400002082B00190019B012287
:1005C0005A7200BF02B0704700B583B04FF0FF33DE
:1005D0000193FFF783FF0421084800F04BFD0190D1
:1005E000019B002B03DA0649482001F052F803482A
:1005F000FFF7E2FF00BF03B05DF804FB5C000020E2
:100600007057000000B583B001900091019B1B68FA
:100610001B6800990198984700BF03B05DF804FB80
:1006200000B583B00190019B1B685B6801989847F7
:1006300000BF03B05DF804FB82B001900B468DF85B
:100640000330019B9DF803201A7200BF02B070476F
:1006500082B00190019B1B7A184602B0704782B0AD
:100660000190019B01225A7200BF02B0704782B014
:100670000190019B5B7A184602B0704710B487B0B6
:1006800001900091019B009A53E8004F44EA020058
:1006900043E8000191F0000FF6D105940490039116
:1006A000049B184607B05DF8044B704710B487B040
:1006B00001900091019B009A53E8004F04EA020068
:1006C00043E8000191F0000FF6D1059404900391E6
:1006D000059B184607B05DF8044B704700B583B022
:1006E000019001210198FFF7C9FF0346184603B0A6
:1006F0005DF804FB00B583B0019000210198FFF77D
:10070000D5FF0346184603B05DF804FB00B587B07B
:1007100001901F4BFF229A601D4B00221A601C4B58
:1007200000225A601A4B0022C3F81824184B0022EA
:10073000C3F81424164B002283F81C24154801F03A
:10074000AFFC0490049B002B01D0049B1CE0124AD8
:10075000124BD31ADB080393002305930FE0059A8D
:1007600013465B0013449B001A460D4B134402933F
:10077000059B9AB2029B1A80059B01330593059A4B
:10078000039B9A42EBD30023184607B05DF804FBA5
:10079000CC010020D45700009056000058560000AD
:1007A00000000020024A034BD31ADB0818467047AA
:1007B000905600005856000000B587B001900B46D7
:1007C0008DF803309DF80330002B23D0FFF7EAFFAC
:1007D00004900023059317E0059A13465B00134429
:1007E0009B001A460E4B13440393039B5B881A46E7
:1007F000019B1B689A4204D1019B059A1A60002351
:1008000009E0059B01330593059A049B9A42E3D3C3
:10081000052300E00023184607B05DF804FB00BF85
:100820000000002000B585B001900B468DF8033024
:100830009DF8032001AB11461846FFF7BDFF0346A4
:10084000002B07D1019BDB00054A13440393039B54
:100850001B6800E00023184605B05DF804FB00BFEC
:100860005856000084B001900B468DF80330019B70
:10087000DB00174A134402939DF80330013B032B1E
:100880001CD801A252F823F099080000A10800002A
:10089000A9080000B308000002238DF80F3011E012
:1008A00004238DF80F300DE0029B1B798DF80F307B
:1008B00008E0029B5B798DF80F3003E000238DF890
:1008C0000F3000BF9DF80F30184604B0704700BFCE
:1008D0005856000000B589B04148FFF7FFFE414877
:1008E000FFF7FCFE404B5B6807933F4B9B6804930C
:1008F000079A049B134002339B003B4A1344043382
:1009000006931BE0079B01330793069B5B88C3F3A9
:1009100089139BB21A46069B1B88C3F389139BB2AB
:1009200013441A46079B13440793079A049B1340EA
:1009300002339B002C4A134404330693069B1B7816
:1009400003F00303DBB2002BDCD00023059311E09E
:10095000079B5A1C0792049A1340059A9200694615
:100960000A44214902339B000B445B681360059BDA
:1009700001330593059B012BEAD99DF80030C3F3A1
:100980000103DBB2012B0CD0022B14D1BDF80230D5
:10099000C3F389139BB203339B08079A134407934D
:1009A0000FE0BDF80030C3F38313DBB21A46079B98
:1009B0001344079305E00D4940F24D1000F069FE25
:1009C00000BF0848FFF796FE0390039B002B02D060
:1009D000054A079B536000BF09B05DF804FB00BFE8
:1009E000E4050020E0050020CC010020F8570000BD
:1009F00010B586B00390029101920093039B1B0CEB
:100A0000ADF81630BDF81640FFF7CCFE03469C4209
:100A100004D323494FF4B27000F03BFE009B5A1CF4
:100A2000089B1340BDF816201E4902339B000B445F
:100A30005A60009A089B134002339B00194A1344E2
:100A400004330493039B1B0903F00103D9B2049AF6
:100A5000137861F382031370039B03F00703D9B289
:100A6000049A137861F3C5031370019B03F00F031D
:100A7000D9B2049A138861F389131380029BC3F3DC
:100A80001501049A136861F39F231360049A137885
:100A9000012161F30103137000BF06B010BD00BF58
:100AA000F8570000CC01002000B589B001900091FA
:100AB000019B023306930223059301238DF8133023
:100AC000002000F09FFD214B1A68009B1A601F4B0D
:100AD0009A681E4B59681D4B1B68CB1A134401338F
:100AE0000793069A059B134403930BE0FFF7F2FE6E
:100AF000164B9A68154B5968144B1B68CB1A134454
:100B000001330793039A079B9A42EFD80F4B1A6859
:100B10000E4B9B68134002339B000C4A1344043372
:100B20000293029A137843F003031370074B1A6879
:100B3000069B1344054A1360002000F077FD9DF8E2
:100B40001330184609B05DF804FB00BFCC0100204B
:100B500000B58BB005900491039202931F4B9B68E4
:100B6000079306AB19460298FFF79EFF0346002B3A
:100B700024D0069B023309930023089311E0089BBD
:100B80009B00039A1A44099B591C099107990B4031
:100B90001268124902339B000B445A60089B0133D0
:100BA0000893089A029B9A42E9D3069A079B0093FE
:100BB0001346029A04990598FFF71AFF074B93F81A
:100BC0001C34002B05D000BF00F064F80346002B56
:100BD000FAD100BF0BB05DF804FB00BFCC010020D0
:100BE00000B583B001900091002300220099019884
:100BF000FFF7AEFF00BF03B05DF804FB00B587B0A0
:100C0000039002910192019B059305AA0123029989
:100C10000398FFF79DFF00BF07B05DF804FB00B528
:100C200087B00390029101920093019B0493009B73
:100C3000059304AA022302990398FFF789FF00BFD6
:100C400007B05DF804FB00B589B0039002910192F2
:100C50000093019B0493009B05930A9B06930B9BB7
:100C6000079304AA042302990398FFF771FF00BFBA
:100C700009B05DF804FB0000054B5A68044B1B6883
:100C80009A420CBF01230023DBB21846704700BF15
:100C9000CC01002000B597B0FFF7EEFF0346002B14
:100CA00001D00023ACE19C4B0022C3F81824BFF311
:100CB0004F8F00BF984B5B681593974B9B680E93C3
:100CC000159A0E9B134002339B00934A134404333E
:100CD0001493002313930023129300230D931BE01E
:100CE000159B01331593149B5B88C3F389139BB247
:100CF0001A46149B1B88C3F389139BB213441A46EC
:100D0000159B13441593159A0E9B134002339B00B9
:100D1000814A134404331493149B1B7803F0030398
:100D2000DBB2002BDCD00023119311E0159B5A1C81
:100D300015920E9A1340119A920069460A44764918
:100D400002339B000B445B681360119B01331193CA
:100D5000119B012BEAD99DF8003003F00303DBB2AD
:100D6000022B40F09C80BDF80230C3F389139BB284
:100D70000B93BDF80230C3F389139BB2502B28BFED
:100D800050239BB20A930A9BC3F309039AB2BDF89E
:100D9000023062F38F13ADF802300A9B08330993D7
:100DA0009DF80030C3F3C203DBB20D9309995B4891
:100DB00001F081F91390139B002B00F0E080139851
:100DC00001F00AFA6946129B0822139801F0B0FA62
:100DD000129B08331293159BDA430E9B1340013389
:100DE0009B0008930A9A089B9A4242D9089B002BC1
:100DF00008D0159A0E9B134002339B00464A1344B9
:100E0000043300E0464B0693089B002B02D0089B5E
:100E1000DBB201E00A9BDBB28DF81730089B002B98
:100E200001D03F4B00E000230493089B002B06D029
:100E30000A9BDAB2089BDBB2D31ADBB200E00023D4
:100E40008DF80F309DF81720129B0699139801F02A
:100E50006FFA9DF81730129A13441293049B002BDB
:100E600016D09DF80F20129B0499139801F060FA98
:100E70000EE0159A0E9B134002339B00264A134442
:100E800004330793129B0A9A0799139801F050FABA
:100E90000B9B03339B08159A134415936FE09DF841
:100EA000003003F00303DBB2012B5AD1BDF8003050
:100EB000C3F38313DBB2062B28BF0623DAB2BDF8D7
:100EC000003062F38913ADF80030BDF80030C3F391
:100ED0008313DBB202330C939DF80030C3F3C203DB
:100EE000DBB20D930C9B9B0019460C4801F0E3F814
:100EF0001390139B002B42D0139801F06DF96946B3
:100F0000129B0822139801F013FA129B08331293D4
:100F1000002311931BE000BFCC010020D457000038
:100F2000D8010020159B5A1C15920E9A13400233CB
:100F30009B00354A1344191D129B0422139801F09B
:100F4000F7F9129B04331293119B01331193BDF8EF
:100F50000030C3F38313DBB21A46119B9342E1D3F3
:100F60000DE09DF8003003F00303DBB2032B06D144
:100F7000254BD3F81834002B01D1002340E0139BFC
:100F8000002B37D0204BD3F8103410931E4BD3F8DE
:100F90001834002B1AD0139801F02DF92AE0002301
:100FA0008DF83F301098FFF762FB0346002B02D00C
:100FB00001238DF83F309DF83F30002B03D013996B
:100FC0001098FFF71FFB109B5B681093109B002B82
:100FD000E5D1139801F00FF9002000F013FB0A4B44
:100FE000D3F81834002B02D1074A159B5360002018
:100FF00000F01CFBFFF740FE034683F00103DBB269
:10100000184617B05DF804FBCC01002000B585B090
:101010000023039322E0164BD3F8103402930123EC
:101020008DF807300EE00298FFF712FB03461A46D0
:10103000039B934203D100238DF8073005E0029B08
:101040005B680293029B002BEDD19DF80730002BCB
:1010500001D0039B07E0039B01330393039B092B00
:10106000D9DD4FF0FF33184605B05DF804FB00BF33
:10107000CC01002000B585B001900B468DF80330FF
:10108000FFF7C4FF0390039BB3F1FF3F01D1039B24
:101090001EE0039BDBB219460198FFF7CDFA0E4B19
:1010A000D3F81034002B07D10B4A019BC2F810343F
:1010B000019B00225A600AE0074BD3F810345A68AB
:1010C000019B5A60044BD3F81034019A5A60039B79
:1010D000184605B05DF804FBCC01002000B583B0D4
:1010E0000C4BD3F8103401930A4B012283F81C24D3
:1010F00008E00198FFF7B3FA0198FFF791FA019B16
:101100005B680193019B002BF3D100BF00BF03B0CC
:101110005DF804FBCC01002010B582B00190009175
:10112000019BDB7983F00103DBB2002B28D0019B0C
:101130001B7A002B12D0019B9B881A46019B9B793E
:1011400019461046FFF78EFB03461A460E4B53F81E
:1011500022301A460D49009800F0CEFB019B9B7986
:101160001A460B4B53F82240019B9B8800211846DE
:10117000FFF758FB034622460649009800F0BCFBE7
:1011800000BF02B010BD00BF7C000020BC580000B2
:1011900068000020C058000000B585B0039002919F
:1011A00013468DF80730039BDB7983F00103DBB234
:1011B000002B0FD0039B1B7A002B06D00D4B1B6816
:1011C0001A460D49029800F097FB0C49029800F06E
:1011D00093FB07E09DF80730002B03D007490298E6
:1011E00000F08AFB029800F065FB00BF05B05DF8D7
:1011F00004FB00BF7C000020BC580000CC5800005D
:1012000030B58BB007900691059204930E9B1B7B23
:101210008DF827300E9B00221A730E990498FFF761
:101220007BFF059B062B7FD801A252F823F000BF5D
:101230004D12000057120000671200007B120000E0
:1012400099120000C1120000F112000007990E98D7
:1012500000F052FB69E0069B1B681A4607990E983E
:1012600000F04AFB61E0069B1A68069B04331B688A
:1012700007990E9800F040FB57E0069B1A68069B02
:1012800004331968069B08331B6800930B460799C3
:101290000E9800F031FB48E0069B1968069B04336A
:1012A0001868069B08331B68069A0C321268019274
:1012B000009303460A4607990E9800F01DFB34E0A0
:1012C000069B1868069B04331C68069B08331B6842
:1012D000069A0C321268069910310968029101923F
:1012E00000932346024607990E9800F005FB1CE088
:1012F000069B1C68069B04331D68069B08331B680D
:10130000069A0C3212680699103109680698143052
:10131000006803900291019200932B4622460799A0
:101320000E9800F0E9FA00E000BF00220E99049840
:10133000FFF732FF0E9B9DF827201A7300BF0BB0FA
:1013400030BD00BF00B587B00390029101920093B9
:10135000029B082B5CD8009B1B7B8DF81330009BF5
:1013600000221A7300990198FFF7D6FE0023059317
:1013700014E0059A029B9A4209D2039A059B1344F2
:101380001B781A462449009800F0B6FA03E0234976
:10139000009800F0B1FA059B01330593059B072BDC
:1013A000E7D91F49009800F0A7FA0023059322E02F
:1013B000059A029B9A4217D2039A059B13441B7805
:1013C0008DF812309DF81230184604F0E7F8034605
:1013D000002B02D09DF8123000E02E231A4611494E
:1013E000009800F089FA03E00F49009800F084FAB1
:1013F000059B01330593059B072BD9D90122009941
:101400000198FFF7C9FE009B9DF813201A7300E0B6
:1014100000BF07B05DF804FBD0580000D8580000AA
:10142000DC580000E0580000E458000000B589B026
:10143000039002910192029B9BB2ADF81430019B84
:101440000693039B079305AB1A46002144F2010063
:1014500000F052F800BF09B05DF804FB86B00390BD
:101460000291019201238DF817309DF81730214A1F
:10147000039B13601F4A029B53601E4A019B9360AB
:10148000039B44F20102934213D0039B44F20202F5
:10149000934222D1019B174AD360164BDB681B880D
:1014A0001A46144B9A61134BDB685B68114AD3618F
:1014B00013E0019B0F4A13610E4B1B699B680D4A99
:1014C00053610C4B1B691B881A460A4B9A61094BE6
:1014D0001B695B68074AD36100BF72B600BF00BFDB
:1014E0009DF81730DBB2002BFAD162B600BF00BF07
:1014F00006B07047EC05002030B589B00590049126
:101500000392FFF7EBFD00BFFFF7C4FB0346002B80
:10151000FAD1059B44F20102934214D0059B44F298
:10152000020293422DD1039B0793234B1B881B047C
:1015300043F00100079B5B681A46079B1B881F4905
:10154000FFF76DFB28E0039B06931B4B1B881B04D6
:1015500043F00104069B9D68069B9B68184600F0BB
:10156000AFFF03461946069B5B681A46069B1B881D
:10157000019300920B462A4611492046FFF763FB70
:101580000AE00D4B1B881B0443F00103049A0D492C
:101590001846FFF733FB00BF0B4B1B6803F001033A
:1015A000002B00D0FFDE039A04990598FFF756FF41
:1015B00000BF09B030BD00BF00000020E8580000A7
:1015C000045900001C590000F0ED00E072B600BFA5
:1015D000034B1B680133024A136000BF704700BF12
:1015E0000C060020064B1B68013B054A1360044BA8
:1015F0001B68002B01D162B600BF00BF704700BF5F
:101600000C06002000B583B0019000F025F80346D9
:10161000012B03D00449432000F03BF8FFF7D6FF2D
:1016200000BF03B05DF804FB3459000000B583B07F
:1016300003468DF8073000F00FF80346012B03D066
:101640000449512000F025F8FFF7CCFF00BF03B09C
:101650005DF804FB3459000084B0EFF30583019377
:10166000019BC3F308030393039B002B0DD1EFF3FE
:1016700014830093009B0293029B03F00103002B51
:101680000CBF01230023DBB200E00123184604B0A5
:10169000704700B585B003460091ADF80630BDF83F
:1016A0000630ADF80830009B039302AB1A460021C8
:1016B00044F20200FFF720FF00BF05B05DF804FB15
:1016C00000B583B001900B468DF80330019B002BD1
:1016D00003D10849AF20FFF7DCFF019BDA689DF8D2
:1016E00003300199098A01FB03F31344184603B040
:1016F0005DF804FB8C59000000B583B001900091A7
:10170000019B002B03D10849BC20FFF7C2FF009BBF
:10171000019AD2689B1A019A128AB3FBF2F3DBB2E8
:10172000184603B05DF804FB8C59000000B585B085
:101730000190019B002B01D10E2348E0019B1B6807
:10174000002B03D12449C620FFF7A3FF019B5B6850
:10175000002B03D12049C720FFF79BFF019B9B680B
:10176000002B03D11C49C820FFF793FF019BDB68C6
:10177000002B03D11849C920FFF78BFF019B1B8A5F
:10178000002B03D11449CA20FFF783FF019B9A68FD
:10179000019B5B68D31A8DF80F30019B1B68019A7F
:1017A00052681A6007E0019B1A681368591C11609F
:1017B0009DF80F201A709DF80F305A1E8DF80F20DB
:1017C000002BF0D1019B1B6800221A7100231846E0
:1017D00005B05DF804FB00BF8C59000000B585B072
:1017E0000190019B002B03D11B49EC20FFF751FF17
:1017F000002303930020FFF705FF019B1B681A6875
:10180000019B5B689A421FD9019B1B681A68013AC9
:101810001A601B681B7819460198FFF751FF039067
:10182000019B9A68019B1B681B68D31A8DF80B30CB
:10183000019B1B681B799DF80B209A4204D9019BE0
:101840001B689DF80B201A710020FFF7EFFE039B29
:10185000184605B05DF804FB8C59000010B584B043
:1018600001900091019B002B04D111494FF4887025
:10187000FFF70FFF009B002B04D10D4940F2111020
:10188000FFF707FF009B03930020FFF7BBFE019BC0
:101890001B681C68621C1A6003990198FFF72CFFF3
:1018A000034623700020FFF7C1FE00BF04B010BD47
:1018B0008C59000000B583B00190019B002B03D12F
:1018C0000C493120FFF7E5FE019B9B68002B0CD0F3
:1018D000019B5B69019A1069019A1168019A9268EB
:1018E0009847019B00229A6000E000BF03B05DF8BA
:1018F00004FB00BFD45900000EB400B584B00190C1
:10190000019B002B03D118494220FFF7C2FE019B27
:101910005B69002B03D114494320FFF7BAFE019BFA
:101920001B68002B03D110494420FFF7B2FE019B36
:101930005B68002B03D10C494520FFF7AAFE059BED
:10194000002B0AD00023039306AB039303AB1A4684
:101950000599019800F0B0F900E000BF04B05DF80F
:1019600004EB03B0704700BFD459000000B583B04A
:1019700001900B468DF80330019B1A68019B9B6810
:10198000581C0199886013449DF803201A70019B2C
:101990009A68019B5B689A4202D30198FFF78AFF1D
:1019A00000BF03B05DF804FB00B587B0039002915F
:1019B0000192009300230593009B03F00103002B89
:1019C00024D00BE0029B01330293059B0133059366
:1019D0009DF8133019460398FFF7C8FF029B1B7848
:1019E0008DF813309DF81330002BEBD106E0019BEE
:1019F000013B019320210398FFF7B8FF019A059B53
:101A00009A422ED9019B002BF1D12AE0029B002B98
:101A10000BD0029803F0F0FD059006E0019B013B1E
:101A2000019320210398FFF7A1FF019A059B9A4299
:101A30000FD9019B002BF1D10BE0029B01330293E4
:101A4000059B013305939DF8133019460398FFF762
:101A50008DFF029B1B788DF813309DF81330002BFF
:101A6000EBD100BF07B05DF804FB000000B589B002
:101A70000390029101920093029B07930123069326
:101A800007E0079A019BB2FBF3F30793069B013330
:101A90000693079A019B9A42F3D2009A069B9A42B8
:101AA00001D9009B06930B9B03F00103002B22D16D
:101AB0000A9B002B1FD00B9B03F00203002B06D0C8
:101AC000009B002B03D130238DF8173002E0202338
:101AD0008DF8173008E00A9B013B0A939DF81730F8
:101AE00019460398FFF742FF0A9B002B03D0069A82
:101AF0000A9B9A42EFD301230793009B012B03D942
:101B0000009B013B009309E0029A079BB2FBF3F3B1
:101B10000493049A019B9A4200D205E0079B019A24
:101B200002FB03F30793E8E7029A079BB2FBF3F388
:101B30000493049B079A02FB03F3029AD31A0293BD
:101B4000154A049B13441B7819460398FFF70EFFB0
:101B5000079A019BB2FBF3F30793079B002BE3D19A
:101B60000B9B03F00103002B11D00A9B002B0ED01E
:101B700006E00A9B013B0A9320210398FFF7F6FE3B
:101B80000A9B002B03D0069A0A9B9A42F1D300BF0E
:101B900009B05DF804FB00BF5C5A000000B589B0D5
:101BA0000590049103920293049B002BB8BF5B4203
:101BB00006930123079307E0039B069A92FBF3F336
:101BC0000693079B01330793039B069A9A42F3DA25
:101BD000029A079B9A4201D9029B07930A9B002B0A
:101BE0000AD0049B002B04DB0B9B03F00403002BA7
:101BF00002D00A9B013B0A930B9B03F00203002BCC
:101C000002D0029B002B16D00B9B03F00103002B8C
:101C100011D10A9B002B0ED006E00A9B013B0A93D0
:101C200020210598FFF7A2FE0A9B002B03D0079AFC
:101C30000A9B9A42F1D3049B002B07DA049B5B4278
:101C400004932D210598FFF791FE08E00B9B03F00C
:101C50000403002B03D02B210598FFF787FE0B9B75
:101C600003F00203002B19D00B9B03F00103002BA0
:101C700014D1029B002B11D10A9B002B0ED006E041
:101C80000A9B013B0A9330210598FFF76FFE0A9BE0
:101C9000002B03D0079A0A9B9A42F1D304990B9B1D
:101CA00001930A9B0093029B039A0598FFF7DEFEBF
:101CB00000BF09B05DF804FB00B58FB0059004913A
:101CC0000392059B002B04D1AD494FF49F70FFF7A1
:101CD000E0FC059B5B69002B04D1A9494FF4A0707F
:101CE000FFF7D7FC059B1B68002B04D1A44940F2E9
:101CF0004110FFF7CEFC059B5B68002B04D1A04987
:101D00004FF4A170FFF7C5FC049B002B00F09381FA
:101D1000049B1B788DF83730049B013304939DF8A6
:101D20003730002B00F07E819DF83730252B40F0B6
:101D30006D8100230A9301230C93049B1B788DF87B
:101D400037309DF83730302B0DD0302B1BDC2B2B50
:101D500011D02D2B17D10A9B43F001030A93049B4A
:101D60000133049312E00A9B43F002030A93049B9D
:101D7000013304930AE00A9B43F004030A93049B93
:101D80000133049302E000230C9300BF0C9B002B53
:101D9000D3D1002309939DF837302A2B0CD1039B14
:101DA0001B68191D039A11601B68099A1344099353
:101DB000049B013304931AE0049B1B788DF83730A1
:101DC0009DF837302F2B12D99DF83730392B0ED88C
:101DD000049B01330493099A13469B0013445B0050
:101DE0001A469DF837301344303B0993D3E700235C
:101DF0000B93049B1B788DF837309DF837302E2BD2
:101E00001DD1049B01330493049B1B788DF837305C
:101E10009DF837302F2B12D99DF83730392B0ED83B
:101E2000049B013304930B9A13469B0013445B00FD
:101E30001A469DF837301344303B0B93E4E7049B7C
:101E40001B788DF837309DF837306C2B03D09DF818
:101E50003730682B07D1049B01330493049B1B7814
:101E60008DF83730EFE79DF83730252B00F0C48030
:101E7000252BC0F2C680782B00F3C380582BC0F20C
:101E8000C080583B202B00F2BC8001A252F823F006
:101E9000851F000003200000032000000320000035
:101EA00003200000032000000320000003200000A6
:101EB000032000000320000003200000151F000085
:101EC000371F000003200000032000000320000053
:101ED00003200000371F0000032000000320000043
:101EE0000320000003200000032000000320000066
:101EF000C51F00000320000003200000A91F0000F0
:101F0000032000005B1F00000320000003200000EE
:101F1000851F0000039B1B68191D039A11601B6835
:101F20000C930C9B8DF81F309DF81F3019460598B7
:101F3000FFF71CFD66E0039B1B68191D039A1160E7
:101F40001B680C930A9B0193099B00930B9B0A222D
:101F50000C990598FFF722FE54E0039B1B68191D9E
:101F6000039A11601B680C930C990A9B0193099BBF
:101F700000930B9B0A220598FFF778FD42E000BF13
:101F8000145A0000039B1B68191D039A11601B68FB
:101F90000C930C990A9B0193099B00930B9B1022B5
:101FA0000598FFF763FD2DE0039B1B68191D039A3D
:101FB00011601B6808930A9B099A08990598FFF716
:101FC000F3FC1FE0039B1B68191D039A11601B683B
:101FD0000C9330210598FFF7C9FC78210598FFF78D
:101FE000C5FC0C99002301930823009308231022B9
:101FF0000598FFF73BFD05E025210598FFF7B6FCA6
:1020000000E000BF049B0133049305E09DF83730E6
:1020100019460598FFF7AAFC049B1B78002B7FF458
:1020200077AE00E000BF059B1B7B002B04D005981A
:10203000FFF740FC00E000BF0FB05DF804FB00BFFD
:1020400010B487B001900091019B009A53E8004FB3
:1020500004EB020043E8000191F0000FF6D1059473
:1020600004900391049B184607B05DF8044B704739
:1020700010B487B001900091019B009A53E8004F83
:10208000A4EB020043E8000191F0000FF6D10594A3
:1020900004900391049B184607B05DF8044B704709
:1020A00000B583B001900198FFF740FB0346184646
:1020B00003B05DF804FB00B58BB001900091019B6B
:1020C0001B8A043B0793009A079B1344DA1C079B67
:1020D000B2FBF3F38DF81B300198FFF77FFB0590FF
:1020E000059B002B01D1002338E0059B00221A71CB
:1020F000059B01225A71079B9AB2059BDA80059BCA
:1021000009939DF81B30013B0493099B019A1A60C7
:10211000002308931DE00198FFF760FB0390039BE9
:10212000002B0ED0059B5B790133DAB2059B5A7107
:10213000099B039A1A60039B019A1A60039B0993F7
:1021400004E0059800F00EF8002307E0089B013337
:102150000893089A049B9A42DDD3059B18460BB05E
:102160005DF804FB00B58BB00190019B0793079BC2
:102170005B798DF81B30019B08939DF81B30013B68
:1021800005930023099305E0089B1B680893099BAE
:1021900001330993099A059B9A42F5D3089B1B6862
:1021A0000493019B0893002309930BE0089B1B6891
:1021B000039308990498FFF751FB039B0893099B2D
:1021C000013309939DF81B30099A9A42EED300BF60
:1021D00000BF0BB05DF804FB00B585B00190019B1A
:1021E0000393039B043301211846FFF729FF00BF27
:1021F00005B05DF804FB00B587B00190019B059325
:10220000059B043301211846FFF732FF0346039371
:1022100003AB0493049B1B78002B02D10198FFF7BA
:10222000A1FF00BF07B05DF804FB000000B58DB052
:102230000390029101920093039B0693069BDB8817
:102240000593039B0B93009B1A1D059BB2FBF3F3B5
:102250000A93009B0433059AB3FBF2F2059901FB44
:1022600002F29B1A0993009A019B1A44059B13449E
:10227000DA1C059BB2FBF3F38DF81330069B5B79F8
:102280009DF813209A420AD92849BA20FFF701FA8B
:1022900005E00B9B1B680B930A9B013B0A930A9B6F
:1022A000002BF6D100230893059A099BD31A0793B4
:1022B000079A019B934228BF134607932DE09DF890
:1022C0003830002B0BD0029A089BD0180B9A099B30
:1022D00013440433079A194603F065F90AE00B9A90
:1022E000099B1344181D029A089B1344079A194628
:1022F00003F059F9002309930B9B1B680B93019A78
:10230000079BD31A0193089A079B13440893059AD5
:10231000019B934228BF13460793019B002BCED10C
:1023200000BF00BF0DB05DF804FB00BF6C5A000099
:1023300000B587B0059004910392029300230093A7
:10234000029B039A04990598FFF770FF00BF07B03E
:102350005DF804FB00B587B00590049103920293E9
:1023600001230093029B039A04990598FFF75EFFEF
:1023700000BF07B05DF804FB82B003468DF807305C
:102380009DF8073003F01F0206499DF907305B09ED
:10239000012000FA02F2603341F8232000BF02B0AE
:1023A000704700BF00E100E000B583B00190019BE1
:1023B000002B03D106497220FFF76BF9019B002225
:1023C0001A60BFF35F8F00BF00BF03B05DF804FB6E
:1023D000185B000000B585B00020FFF713F9F1EE9F
:1023E000103A0193019B0393039B23F09F030293F5
:1023F000029BE1EE103A00BFBFF35F8F00BF2620C3
:10240000FFF7BAFF0020FFF711F9039B03F0070362
:10241000002B03D003497620FFF73BF900BF05B03E
:102420005DF804FB5C5B000008B5064B00221A70E7
:102430000548FFF7B9FF0549054800F017F80023E4
:10244000184608BD1406002010060020A85B0000F6
:102450001806002008B5FFF7BDFF20BF00BF40BF32
:1024600000BF20BF00BF00BF08BD000000B583B0A3
:1024700001900091019B002B03D110495020FFF7E0
:1024800008F9009B002B03D10C495120FFF701F9FB
:10249000019B009A1A60019B1B681A68019B5A6095
:1024A000019B5A68019B1B685B689A4202D1019BA1
:1024B00000225A6000BF03B05DF804FBB45B00006B
:1024C00000B585B00190019800F00EF80390039BD1
:1024D000002B01D0039B00E0024B184605B05DF8CD
:1024E00004FB00BF185C000086B00190164B0593FA
:1024F000164B04931FE0049A059BD31ADB10DA0FE6
:1025000013445B10DB00059A13440393039B1B6881
:102510000293029A019B9A4202D9039B04930AE018
:10252000029A019B9A4203D2039B0833059302E06F
:10253000039B5B6804E0059A049B9A42DBD300236B
:10254000184606B0704700BF345F000024600000EA
:1025500082B003468DF807309DF8073003F01F0264
:1025600005499DF907305B09012000FA02F241F8A4
:10257000232000BF02B0704700E100E082B00346B4
:102580008DF807309DF8073003F01F0206499DF9CA
:1025900007305B09012000FA02F2603341F8232082
:1025A00000BF02B0704700BF00E100E082B0034608
:1025B00000918DF807309DF90730002B0CDA009B55
:1025C000DAB20C499DF8073003F00F03043B5201C7
:1025D000D2B20B441A7609E0009BDAB206499DF9A3
:1025E00007305201D2B20B4483F8002300BF02B07F
:1025F000704700BF00ED00E000E100E000B583B0EF
:1026000003460A468DF8073013468DF806309DF8CC
:102610000630072B04D90D494FF49270FFF739F8B3
:102620009DF806209DF9073011461846FFF7BEFFBA
:102630009DF907301846FFF7A1FF9DF907301846AE
:10264000FFF786FF00BF03B05DF804FB24600000C5
:1026500082B00190019B03F18043184602B070479D
:1026600082B00190019B03F18043184602B070478D
:1026700000B583B00346ADF80630BDF80630184605
:10268000FFF7E6FF034600221A6000BF03B05DF8C3
:1026900004FB00B583B00346ADF80630BDF8063044
:1026A0001846FFF7DDFF03461B68002B14BF01230C
:1026B0000023DBB2184603B05DF804FB00B585B01B
:1026C0000346ADF80630BDF806301846FFF7E1FFC7
:1026D00003468DF80F309DF80F30002B04D0BDF865
:1026E00006301846FFF7C4FF9DF80F30184605B0B6
:1026F0005DF804FB4FF08043D3F80433184670476D
:1027000082B003468DF807309DF80730002B01D0CA
:10271000012300E000234FF08042C2F8783500BF6B
:1027200002B0704782B003468DF807300A4A9DF91F
:1027300007305B0952F823209DF8073003F01F0390
:10274000012101FA03F31340002B14BF01230023DE
:10275000DBB2184602B0704700E100E008B5002087
:10276000FFF7E0FF034683F00103DBB2002B03D049
:1027700007210020FFF742FF00BF08BD00B585B06C
:1027800001900F4B1B78002B01D0852314E0019B97
:10279000002B01D0019B00E00A4B0393039B1B78A5
:1027A000C3F30003DBB21846FFF7AAFFFFF7D6FF1B
:1027B000034B01221A700023184605B05DF804FB94
:1027C00020060020FC60000000B583B0FFF792FFF8
:1027D0000190019B03F00403002B12D04FF484708E
:1027E000FFF76CFF0346002B0BD0214B1B68002B1F
:1027F00004D1204940F26710FEF74BFF1C4B1B68C9
:102800009847019B03F02003002B13D04FF48A70EC
:10281000FFF754FF0346002B0CD0174B1B68002B0F
:1028200004D1144940F26F10FEF733FF124B1B68BE
:1028300000209847019B03F04003002B13D04FF476
:102840008C70FFF73BFF0346002B0CD00A4B1B6834
:10285000002B04D107494FF4BB70FEF71AFF064B5B
:102860001B680120984700BF03B05DF804FB00BF60
:1028700024060020B06000002806002082B0034635
:102880008DF807309DF80730044A012101FA03F35F
:10289000C2F8043500BF02B0704700BF00F001402D
:1028A00084B00346029101928DF80F3008499DF8DB
:1028B0000F30A233029A41F83320054A9DF80F30B9
:1028C000A233DB001344019A5A6000BF04B0704782
:1028D00000F0014082B003468DF807309DF80730C4
:1028E000012202FA03F3184602B0704700B583B024
:1028F00003468DF807309DF807301846FFF7EAFFCA
:102900000346C3F31303002B14BF01230023DBB2E0
:10291000184603B05DF804FB82B00190012318460D
:1029200002B0704700B583B003468DF807309DF8BC
:1029300007301846FFF7CEFF03461846FFF7ECFFB7
:102940000346184603B05DF804FB000000B583B0F1
:1029500003468DF807309DF807301846FFF7BAFF99
:102960000246064B1B681340002B14BF01230023B3
:10297000DBB2184603B05DF804FB00BF3006002050
:1029800000B583B003468DF807309DF80730184630
:10299000FFF7A0FF0246044B1B681343024A136073
:1029A00000BF03B05DF804FB3006002082B0084B86
:1029B0001B78002B05D1064B01221A7000230193CE
:1029C00001E085230193019B184602B0704700BFC8
:1029D0002C06002000B587B001900023059300234A
:1029E000049304230593244B049300238DF80F30A4
:1029F00037E00020FEF706FE9DF80F301846FFF77F
:102A000069FF0246049B1340002B15D09DF80F3040
:102A10001846FFF79BFF034683F00103DBB2002B50
:102A20000AD09DF80F301846FFF7AAFF019B9DF8CA
:102A30000F201A70002305930020FEF7F7FD059B79
:102A4000002B12D09DF80F301846FFF743FF0346C6
:102A5000DB43049A134004939DF80F3001338DF843
:102A60000F30049B002BC4D100E000BF059B18462B
:102A700007B05DF804FB00BFFFFF0F0000B587B093
:102A80000346029101928DF80F30029B002B01D179
:102A90000E232AE0019B002B01D10E2325E0002309
:102AA00005939DF80F301846FFF720FF034683F08B
:102AB0000103DBB2002B02D00723059314E09DF83D
:102AC0000F301846FFF742FF034683F00103DBB2E5
:102AD000002B02D00823059306E09DF80F30019AE1
:102AE00002991846FFF7DCFE059B184607B05DF813
:102AF00004FB00B585B003468DF80730002303932F
:102B00009DF807301846FFF70DFF034683F00103D9
:102B1000DBB2002B02D0072303931AE09DF80730A5
:102B20001846FFF7E3FE0346002B0DD09DF8073053
:102B30001846FFF70BFF034683F00103DBB2002BBF
:102B400002D00823039304E09DF807301846FFF7EE
:102B500095FE039B184605B05DF804FB82B0034662
:102B60008DF807309DF8073003F1804303F5E0430B
:102B700001221A6000BF02B0704782B003468DF890
:102B800007309DF8073003F1804303F5E043184612
:102B900002B0704782B00346ADF80630BDF806308B
:102BA00003F1804303F5E0431B68002B14BF0123AE
:102BB0000023DBB2184602B0704784B00346ADF87C
:102BC0000630BDF8063003F1804303F5E0430022F0
:102BD0001A60BDF8063003F1804303F5E0431B683B
:102BE0000393039B00BF04B07047000082B003460C
:102BF0008DF807300B468DF8063013468DF80530FA
:102C00000A499DF807309DF8052051331B010B44FC
:102C100004331A6005499DF807309DF806205133AA
:102C20001B010B441A6000BF02B0704700700040E7
:102C300082B00190034A019BC2F8043300BF02B086
:102C4000704700BF0070004082B00190034A019BB2
:102C5000C2F8083300BF02B0704700BF00700040E8
:102C6000024B0122C3F8002500BF704700700040EE
:102C7000024B0022C3F8002500BF704700700040DF
:102C800082B001900091054A019BC2F82C36034A9C
:102C9000009BC2F8303600BF02B0704700700040A1
:102CA00082B003468DF80730034A9DF80730C2F81A
:102CB000F03500BF02B070470070004082B003469C
:102CC0008DF80730034A9DF80730C2F8F43500BF8D
:102CD00002B0704700700040024BD3F8F435DBB20D
:102CE000184670470070004000B58DB04FF48270F8
:102CF000FFF750FF0346002B46D04FF48270FFF7DA
:102D00005CFF8C4B93F82E3083F00103DBB2002B79
:102D100004D1884B93F82F30002B35D000238DF849
:102D20001830844B5B680793824B1B899BB2ADF8CC
:102D30002030804BDB68002B03D17E4B00221A74BD
:102D400019E07C4B1A8B7B4B5A837A4BDB68794AB0
:102D50005360784B1A8B774B1A81764B0022DA60DE
:102D6000744B93F82E3083F00103DBB2002B02D0BA
:102D70000020FFF7F3FE6F4B1B6806AA104698472A
:102D80006C4B002283F82F206A4B93F82E30002BD7
:102D900062D04FF48070FFF7FDFE0346002B5BD03E
:102DA0004FF48070FFF709FF624B5A8B614B93F829
:102DB0002D309BB29A421CD95E4B5A8B5D4B93F8D7
:102DC0002D309BB2D31A9AB25A4B5A83594B5A6838
:102DD000584B1B899BB21946564B5B8BCB1A5B0039
:102DE0001344544A92F82D2011461846FFF748FF25
:102DF0002BE0504B5A8B4F4B93F82D309BB29A429D
:102E000014D14C4BDB68002B10D04A4B012283F8C5
:102E10002F20484B00225A83464BDB68454A92F8E4
:102E20002D2011461846FFF72BFF0EE0414B5A8B21
:102E3000404B93F82D309BB29A4206D13D4B012274
:102E400083F82F203B4B00225A834FF48270FFF708
:102E5000B4FE0420FFF782FE4FF48870FFF79AFE5D
:102E60000346002B0ED04FF48870FFF7A6FE314BBF
:102E700000221A7402238DF80C302E4B1B6803AA13
:102E8000104698474FF48A70FFF784FE0346002BE4
:102E900007D04FF48A70FFF790FE264B00221A7479
:102EA00044E0244B5B690B933DE00B9BB3FA83F347
:102EB0000A934FF000420A9B22FA03F3DB430B9A7A
:102EC00013400B930A9B9BB246339BB29B00ADF819
:102ED0002630BDF826301846FFF75CFE0346002B6F
:102EE00021D0BDF826301846FFF767FE01238DF884
:102EF0000030BDF82630A3F58C73DB08DBB28DF80B
:102F00000430BDF82630A3F58C7303F00403002BC6
:102F10000CBF01230023DBB28DF80530054B1B6885
:102F20006A46104698470B9B002BBED100BF0DB0E0
:102F30005DF804FB3406002000B585B001900091D7
:102F40002F4B93F82C30002B03D008230393039BC3
:102F500051E0009B002B03D107230393039B4AE01E
:102F6000019B002B01D1274B0193254A009B136045
:102F7000019B1B781846FFF793FE019B5B78184670
:102F8000FFF79CFE019BDA781D4B83F82E201C4B2B
:102F9000012283F82C201A4B00221A74184B0022AD
:102FA00083F82D20164B00225A61154B002283F81E
:102FB0002F206FF00040FFF747FE4FF48270FFF7BD
:102FC000FCFD4FF48070FFF7F8FD019B9B781946DC
:102FD0000720FFF713FB0220FFF72AFE084B93F8A8
:102FE0002E30002B02D00120FFF722FEFFF738FE23
:102FF00000230393039B184605B05DF804FB00BF54
:10300000340600209461000000B585B003460091AD
:103010008DF80730474B93F82C30002B04D14649EC
:103020004FF49C70FEF735FB9DF80730072B04D951
:10303000414940F23910FEF72CFBFFF74DFE0346E5
:10304000002B09D03B4B93F82D30002B04D03A498C
:1030500040F23B10FEF71DFB009BDB79092B03D8E8
:10306000009BDB79002B04D1334940F23D10FEF781
:1030700010FB009B1B7A092B04D92F4940F23F100B
:10308000FEF707FB2B4B1B7CDBB2002B03D011237D
:103090000393039B4AE0009B1B79002B03D0009B0A
:1030A0001B79012B01D1FFF7E3FD9DF80730214A81
:1030B0000C335B0013441B79002B07D11D4B93F895
:1030C0002D300133DAB21B4B83F82D209DF80730E9
:1030D000009AD179174A0C335B0013440A461A71DF
:1030E0009DF80730009A117A124A0C335B001344A2
:1030F0000A465A719DF807300099184601F0CCFC39
:10310000009BD979009B1A7A9DF807301846FFF783
:103110006DFD009B1B79002B03D0009B1B79012BBD
:1031200001D1FFF79DFD00230393039B184605B0D3
:103130005DF804FB340600204861000008B5074B29
:1031400093F82E30002B01D0002300E00423184612
:10315000FFF713FD0346184608BD00BF34060020E4
:1031600000B585B001900B46ADF802304C4B93F89A
:103170002C30002B04D14B4940F2D110FEF789FAD4
:10318000BDF80230464A92F82D2093FBF2F101FB84
:1031900002F29B1A002B04D042494FF4E970FEF76B
:1031A00078FA1220FFF750FD3D4B1B7CDBB2022B5F
:1031B00006D11220FFF73CFD11230393039B6BE024
:1031C000374B1B7CDBB2012B35D1354BDB68002B39
:1031D00006D00220FFF72CFD11230393039B5BE035
:1031E0002F4A019BD3602E4ABDF8023013832C4B2B
:1031F00093F82E3083F00103DBB2002B14D000BF14
:103200004FF48070FFF7C6FC034683F00103DBB286
:10321000002BF5D14FF48070FFF7CFFCBDF80230E2
:1032200019460198FFF72CFD0220FFF701FD00234E
:103230000393039B30E00220FFF7FAFC184B0122B6
:103240001A74174A019B5360154ABDF80230138166
:10325000134B0022DA60124B93F82E30002B0BD068
:103260000F4ABDF8023053830D4B93F82D301946A9
:103270000198FFF705FD0CE0BDF8023019460198F2
:10328000FFF7FEFC4FF48070FFF797FC0020FFF77C
:1032900065FC00230393039B184605B05DF804FB0F
:1032A000340600204861000082B001900B468DF882
:1032B00003309DF80330019A134401221A6000BFC5
:1032C00002B0704784B001900B46ADF80230BDF8F3
:1032D0000230019A134400221A60BDF80230019AAC
:1032E00013441B680393039B00BF04B0704782B074
:1032F00001900B46ADF80230BDF80230019A13443C
:103300001B68002B14BF01230023DBB2184602B058
:10331000704782B001900091019BD3F80022009B7E
:103320001A43019BC3F8002200BF02B0704782B06D
:1033300001900091019BD3F80022009BDB431A40CF
:10334000019BC3F8002200BF02B0704782B0019019
:103350000091019B009AC3F8042300BF02B070479C
:1033600082B001900091019B009AC3F8082300BF2E
:1033700002B0704782B001900091019BD3F8042302
:10338000009B1340002B14BF01230023DBB218461F
:1033900002B0704782B001900B468DF80330019B5C
:1033A000D3F8043523F003029DF8033003F0030340
:1033B0001A43019BC3F8042500BF02B0704782B0D6
:1033C00001900B468DF80330019BD3F8083523F0AC
:1033D00003029DF8033003F003031A43019BC3F873
:1033E000082500BF02B0704782B001900B468DF8EF
:1033F0000330019BD3F8103523F00F029DF8033002
:1034000003F00F031A43019BC3F8102500BF02B05D
:10341000704784B003900B4601928DF80B309DF8F5
:103420000B20039B02F5A872019943F8221000BFFC
:1034300004B0704782B00190019B9BB250339BB2A5
:103440009B009BB2184602B0704782B001904FF4C7
:103450008032019B02FA03F3184602B0704784B031
:103460000190019B1B0B8DF80F309DF90F30184612
:1034700004B0704710B588B0039002910192039B8D
:103480001B791A4613465B0013449B00844A13447D
:103490000793039B1B68834A934208D0039B1B68D6
:1034A000804A934203D180494B20FEF7F2F8039BF8
:1034B0001B687E4A934203D17B494C20FEF7E9F812
:1034C000039B1B687A4A934203D177494D20FEF74C
:1034D000E0F8039B1B68774A934203D172494F205F
:1034E000FEF7D7F8039B1B68734A934203D16E49DA
:1034F0005220FEF7CEF8029B002B03D16A495720D9
:10350000FEF7C7F8079B1B7A002B03D0082305930F
:10351000059BC2E0019B002B03D107230593059B6C
:10352000BBE0039B1B685F4A93420FD1029B9B78D1
:10353000012B64D0029B9B78002B60D0029B9B7870
:10354000022B5CD0029B9B78032B58D0039B1B68FB
:10355000564A93420FD1029B9B78012B4FD0029B7E
:103560009B78002B4BD0029B9B78022B47D0029B71
:103570009B78032B43D0039B1B684D4A93420FD18A
:10358000029B9B78012B3AD0029B9B78002B36D074
:10359000029B9B78022B32D0029B9B78032B2ED070
:1035A000039B1B68434A93420FD1029B9B78012BDC
:1035B00025D0029B9B78002B21D0029B9B78022B6D
:1035C0001DD0029B9B78032B19D0039B1B683A4AA2
:1035D00093420FD1029B9B78012B10D0029B9B78CA
:1035E000002B0CD0029B9B78022B08D0029B9B786F
:1035F000032B04D02C497020FEF74BF800E000BFED
:10360000079B019A1A60029B5A68079B5A60002325
:103610008DF81B3010E0039B1C689DF81B3018468A
:10362000FFF708FF034619462046FFF74BFE9DF8BB
:103630001B3001338DF81B30039B5B799DF81B20F9
:103640009A42E8D3039B1B681846FFF708FF03461E
:103650001A46029BDB7819461046FEF7CFFF039B04
:103660001A68029B5B7819461046FFF793FE039B8E
:103670001A68029B9B7819461046FFF7A0FE039B31
:103680001A68029B1B7819461046FFF7ADFE079B90
:1036900001221A7200230593059B184608B010BD3D
:1036A0006406002000800040A061000000900040FF
:1036B00000A0004000A0014000B0014000B583B070
:1036C0000190019B1B791946114A0B465B000B4484
:1036D0009B00134408331B78012B03D00D49A02015
:1036E000FDF7D7FF019B1B6800211846FFF7DCFDA3
:1036F000019B1B791946064A0B465B000B449B0055
:103700001344083302221A7000BF03B05DF804FBB3
:1037100064060020A061000000B587B0039001920C
:103720001A460B468DF80B3013468DF80A309DF87B
:103730000B301846FFF789FE05909DF80A30002BE4
:1037400006D0039B1B6805991846FFF7FFFD05E0AF
:10375000039B1B6805991846FFF702FE039B1B6835
:103760009DF80B10019A1846FFF753FE00BF07B0F3
:103770005DF804FB00B585B0039001921A460B4634
:103780008DF80B301346ADF80830039B18689DF890
:103790000B304FF480729A409DF80B30012101FAF2
:1037A00003F313431946FFF7C2FD039B1B68BDF8E3
:1037B000082011461846FFF7ACFD9DF818309DF81B
:1037C0000B10019A0398FFF7A7FF00BF05B05DF843
:1037D00004FB00B587B00390029113468DF80730C3
:1037E00000238DF8173030E09DF817301846FFF7AA
:1037F00021FE0346ADF814309DF817301846FFF748
:1038000024FE0490BDF8143019460398FFF76FFDAD
:103810000346002B14D004990398FFF7ABFD034631
:10382000002B0DD0BDF8143019460398FFF74AFD60
:10383000029B1B68029A5168BDF8142010469847F5
:103840009DF8173001338DF817309DF817209DF83B
:1038500007309A42C8D300BF00BF07B05DF804FB31
:1038600008B5042202490348FFF7B3FF00BF08BDB3
:10387000640600200080004082B003468DF80730C7
:103880009DF8073003F01F0206499DF907305B09D8
:10389000012000FA02F2203341F8232000BF02B0D9
:1038A000704700BF00E100E084B001900B46ADF826
:1038B0000230BDF80230019A134400221A60BDF8AC
:1038C0000230019A13441B680393039B00BF04B0AA
:1038D000704782B001900B46ADF80230BDF802305F
:1038E000019A13441B68002B14BF01230023DBB291
:1038F000184602B0704782B001900091019B009A77
:10390000C3F8042300BF02B0704782B00190009159
:10391000019BD3F80423009B1340002B14BF012309
:103920000023DBB2184602B0704782B001900091CC
:10393000019B009AC3F8082300BF02B0704784B00F
:103940000190019BD3F880340393019B039AC3F841
:103950008024039B184604B0704782B00190019BFD
:103960000422C3F8002500BF02B0704782B0019066
:10397000019B0022C3F8002500BF02B0704784B04D
:10398000039002910192039B019AC3F81425039BB3
:10399000029AC3F80C2500BF04B0704700B583B08D
:1039A00001904FF0FF324FF0FF310198FFF7E7FF32
:1039B00000BF03B05DF804FB82B00190019BD3F817
:1039C0000C35184602B0704782B00190019BD3F8C5
:1039D0001435184602B0704782B00190019BD3F8AD
:1039E0000835184602B0704782B00190019BD3F8A9
:1039F0001035184602B0704784B0039002910192CE
:103A0000039B029AC3F80825039B019AC3F810256B
:103A100000BF04B0704700B583B001904FF0FF3293
:103A20004FF0FF310198FFF7E7FF00BF03B05DF8EB
:103A300004FB82B00190019BD3F81835DBB2184625
:103A400002B0704782B001900B468DF803309DF8AC
:103A50000320019BC3F81C2500BF02B0704782B051
:103A600001900B468DF803309DF80330019A134402
:103A700001221A6000BF02B0704782B001900B466D
:103A80008DF8033013468DF802309DF803209DF821
:103A900002301343DBB21A46019BC3F86C2500BF0A
:103AA00002B0704782B001900091019B009AC3F868
:103AB000242500BF02B0704784B001900B46ADF8DA
:103AC0000230BDF80230019A134400221A60BDF89A
:103AD0000230019A13441B680393039B00BF04B098
:103AE000704782B001900B46ADF80230BDF802304D
:103AF000019A13441B68002B14BF01230023DBB27F
:103B0000184602B0704782B001900091019BD3F833
:103B10000022009BDB431A40019BC3F8002200BF38
:103B200002B0704782B001900091019B009AC3F8E7
:103B3000042300BF02B0704782B001900091019B46
:103B4000009AC3F8082300BF02B0704784B0019008
:103B5000019BD3F880340393019B039AC3F880241C
:103B6000039B184604B0704782B00190019B082265
:103B7000C3F8002500BF02B0704782B00190019BDE
:103B80000022C3F8002500BF02B0704784B0039044
:103B900002910192039B029AC3F80C25039B019AA0
:103BA000C3F8142500BF04B0704700B583B001907E
:103BB0004FF0FF324FF0FF310198FFF7E7FF00BFF2
:103BC00003B05DF804FB82B00190019BD3F80C3583
:103BD000184602B0704782B00190019BD3F81435AB
:103BE000184602B0704782B00190019BD3F80835A7
:103BF000184602B0704782B00190019BD3F810358F
:103C0000184602B0704784B0039002910192039B62
:103C1000029AC3F80825039B019AC3F8102500BF38
:103C200004B0704700B583B001904FF0FF324FF001
:103C3000FF310198FFF7E7FF00BF03B05DF804FB19
:103C400082B001900B468DF803309DF80330019A45
:103C5000134401221A6000BF02B0704782B0019085
:103C60000B468DF8033013468DF802309DF8032083
:103C70009DF802301343DBB21A46019BC3F86C2552
:103C800000BF02B0704782B001900091019B009A82
:103C9000C3F8242500BF02B0704784B0039002919E
:103CA00013468DF80730029A039BC3F844259DF80C
:103CB0000720039BC3F8482500BF04B0704782B0BB
:103CC0000190019BD3F84C35184602B0704782B082
:103CD0000190019BD3F83C35184602B0704700B5FF
:103CE00083B003468DF807309DF907301846FFF77B
:103CF000C3FD00BF03B05DF804FB84B00190019BDD
:103D00001B0B8DF80F309DF90F30184604B070472B
:103D100082B00190019B03F06043B3F1005F0CBFE0
:103D200001230023DBB2184602B0704700B583B010
:103D30000190019B1B681F2B04D905494FF4E870C3
:103D4000FDF7A7FC4FF0A043184603B05DF804FB55
:103D5000EC61000000B585B00190084611461A4696
:103D600003468DF803300B468DF8023013468DF86C
:103D7000013001AB1846FFF7D9FF03909DF80320EF
:103D80009DF802305B001A439DF801309B001A43F6
:103D90009DF818301B0242EA03019DF81C301B04F9
:103DA000019A1943039B02F5E07243F8221000BF09
:103DB00005B05DF804FB00B585B0039000230193C6
:103DC000002300930023012201210398FFF7C2FF83
:103DD00000BF05B05DF804FB00B585B003900B464D
:103DE0008DF80B309DF80B300022019200220092DA
:103DF000002200210398FFF7ADFF00BF05B05DF87A
:103E000004FB00B585B003900023019300230093C9
:103E10000023012200210398FFF79CFF00BF05B09B
:103E20005DF804FB00B585B0019001AB1846FFF7C3
:103E30007DFF0390019B012202FA03F319460398C8
:103E400000F004F800BF05B05DF804FB82B00190FB
:103E50000091019B009AC3F8082500BF02B070478B
:103E600000B583B001900091009B1B68B3F1FF3F48
:103E700009D0009B1B681846FFF7D4FF009B1B6806
:103E80001846FFF798FF009B5B68B3F1FF3F05D032
:103E9000009B5B6800211846FFF79EFF019B1B7982
:103EA000464A5B0113441C331B78002B41D0019B15
:103EB0001A68009B9B6919461046FFF7E4FE019BB8
:103EC0001868009B597D009B1B7D1A46FFF7C6FEB4
:103ED000019B1868009B1968009B5B681A46FFF7F6
:103EE00055FE009B1B7D012B64D1009B9B68B3F1A9
:103EF000FF3F05D0009B9B6800211846FFF76CFF31
:103F0000009BDB68B3F1FF3F09D0009BDB681846DC
:103F1000FFF788FF009BDB681846FFF74CFF019B0B
:103F20001868009BD968009B9B681A46FFF76BFED8
:103F300040E0019B1A68009B9B6919461046FFF7F9
:103F4000B1FD019B1868009B597D009B1B7D1A46A3
:103F5000FFF793FD019B1868009B1968009B5B6845
:103F60001A46FFF70CFD009B1B7D012B22D1009B05
:103F70009B68B3F1FF3F05D0009B9B68002118466A
:103F8000FFF72AFF009BDB68B3F1FF3F09D0009BDE
:103F9000DB681846FFF746FF009BDB681846FFF713
:103FA0000AFF019B1868009BD968009B9B681A4612
:103FB000FFF722FD00BF03B05DF804FB7006002090
:103FC00000B583B001900B468DF80330019B1B793F
:103FD0002D4A5B0113441C331B78002B2FD0019B0F
:103FE0001B684FF488711846FFF766FD019B1B683C
:103FF0004FF490711846FFF75FFD019B1B684FF46B
:1040000092711846FFF758FD019B1B684FF4A2718F
:104010001846FFF751FD019B1B681C491846FFF726
:1040200081FD019B1B681846FFF767FE03461A4691
:104030009DF8033019461046FEF7E0FA20E0019B98
:104040001B684FF48E711846FFF72EFC019B1B680E
:104050004FF4A2711846FFF727FC019B1B680C491F
:104060001846FFF748FC019B1B681846FFF745FE02
:1040700003461A469DF8033019461046FEF7BEFA6D
:1040800000BF03B05DF804FB7006002010030200BF
:104090008000020000B583B00190019B1B79154A96
:1040A0005B0113441C331B78002B0FD0019B1B6852
:1040B00011491846FFF740FD019B1B681846FFF7A2
:1040C0001CFE03461846FFF70AFE0EE0019B1B6824
:1040D0000A491846FFF729FC019B1B681846FFF7A1
:1040E0000CFE03461846FFF7FAFD00BF03B05DF86B
:1040F00004FB00BF700600201003020084020200CF
:1041000000B587B00190019B1B79364A5B011344CF
:104110001C331B78002B22D0019B1B681846FFF72D
:1041200052FD0590019B1B681846FFF754FD049053
:10413000019B1B681846FFF756FD0390019B1B6807
:104140001846FFF758FD0290019B1B681846FFF7C1
:104150002CFD019B1B681846FFF764FD21E0019BC5
:104160001B681846FFF728FC0590019B1B68184642
:10417000FFF72AFC0490019B1B681846FFF72CFCF4
:104180000390019B1B681846FFF72EFC0290019BD1
:104190001B681846FFF702FC019B1B681846FFF7D7
:1041A0003AFC059BB3F1FF3F02D00598FFF729FECB
:1041B000049BB3F1FF3F02D00498FFF722FE029B5D
:1041C000B3F1FF3F02D00298FFF71BFE039BB3F150
:1041D000FF3F02D00398FFF714FE00BF07B05DF861
:1041E00004FB00BF7006002000B583B00190019B66
:1041F0001B790B4A5B0113441C331B78002B05D041
:10420000019B1B681846FFF7AFFC04E0019B1B688D
:104210001846FFF7A2FB00BF03B05DF804FB00BF28
:104220007006002000B583B00190019B1B790B4AFA
:104230005B0113441C331B78002B05D0019B1B68CA
:104240001846FFF79AFC04E0019B1B681846FFF72D
:104250008DFB00BF03B05DF804FB00BF70060020BB
:1042600000B587B0039002910192029B002B04D10C
:1042700022494FF48870FDF70CFA039B1B795B0110
:104280001F4A1344059300230493059BDB7E002BF8
:1042900003D008230493049B2BE0029B5A7F059BC9
:1042A0001A7702990398FFF7DBFD059B019A5A6084
:1042B000029B1A69059B1A60059B5B68002B05D061
:1042C000029B1B7F19460398FFF77AFE0398FFF7BE
:1042D0008BFF059B0022DA75059B00221A76059B51
:1042E00000229A75059B0122DA76059B00229A76B8
:1042F000049B184607B05DF804FB00BF2C62000069
:104300007006002000B585B00190019B1B795B0110
:104310000C4A134403930198FFF784FF039B5B68E7
:10432000002B02D00198FFF7B5FE0198FFF7E8FED9
:10433000039B0022DA76039B00225A6000BF05B07F
:104340005DF804FB7006002000B585B00190009177
:104350004FF48E710198FFF7A7FA009B9B68009AB3
:10436000928A92B213441B788DF80F30009B9B8A7F
:104370009BB201339AB2009B9A829DF80F30194686
:104380000198FFF75FFB00BF05B05DF804FB00007C
:1043900000B585B00190019B1B795B01344A134441
:1043A000029300230393019B1B684FF48E71184600
:1043B000FFF77AFA019B1B6808211846FFF74FFBAD
:1043C000019B1B6802991846FFF7BEFF029B5B68C2
:1043D000002B48D11FE000BF019B1B684FF48E717A
:1043E0001846FFF776FA034683F00103DBB2002B91
:1043F00005D0029B9B8A9BB2B3F5807FECD1029BD8
:104400009B8A9BB2B3F5807F05D0019B1B68029904
:104410001846FFF799FF029B9B8A9AB2029B9B7DED
:104420009BB29A42D7D3029B9B8A9BB2B3F5807F03
:1044300002D10F23039313E000BF019B1B684FF4CD
:104440008E711846FFF745FA034683F00103DBB28D
:10445000002BF2D1019B1B680C211846FFF7FFFAD5
:10446000029B00229A75039B184605B05DF804FB79
:104470007006002000B587B00190019B1B795B019D
:104480002A4A1344049300230593019B1B684FF4AD
:1044900090711846FFF710FB019B1B684FF4AC713D
:1044A0001846FFF709FB019B1868049B9968049B59
:1044B0009B7D1A46FFF7F1FB019B1B6808211846FC
:1044C000FFF7BEFB049B5B68002B2AD1019B1B6896
:1044D0004FF490711846FFF704FB03468DF80F3038
:1044E000019B1B684FF4AC711846FFF7FAFA0346BC
:1044F0008DF80E309DF80F3083F00103DBB2002BF6
:1045000006D09DF80E3083F00103DBB2002BDDD125
:104510009DF80E30002B01D00F230593049B002241
:104520009A75059B184607B05DF804FB70060020DD
:1045300000B587B00390029113468DF80730039BB6
:104540001B795B012E4A13440493049BDB7E012BF1
:1045500004D02C494FF4CC70FDF79BF89DF8073040
:10456000002B04D1274940F29910FDF792F8029BE5
:10457000002B04D123494FF4CD70FDF78AF8039B3B
:104580001B791F4A5B0113441C331B78002B0CD092
:104590000298FFF7BDFB034683F00103DBB2002B5B
:1045A00003D010230593059B25E0039800F02CF819
:1045B0000346002B03D011230593059B1BE0049BAE
:1045C0009DF807209A75049B029A9A60049B00222A
:1045D0009A82039B1B790A4A5B0113441C331B78A4
:1045E000002B04D00398FFF745FF034603E0039830
:1045F000FFF7CEFE0346184607B05DF804FB00BF88
:10460000700600202C62000082B00190019B1B7993
:10461000064A5B01134416331B78002B14BF012399
:104620000023DBB2184602B0704700BF70060020BE
:1046300010B582B001900091009BDB7D002B08D16A
:104640004FF484710198FFF72FF90198FFF7F1F902
:1046500016E04FF484710198FFF726F9009BDB68A0
:10466000009A527ED2B29C180198FFF7E2F90346F5
:104670002370009B5B7EDBB20133DAB2009B5A767B
:1046800002B010BD00B589B003900B4601928DF8C1
:104690000B3001238DF810309DF80B308DF8183059
:1046A000019B0593039B5B68039A116804AA10465B
:1046B000984700BF09B05DF804FB00B587B00190D2
:1046C0000B468DF8033000238DF808309DF8033039
:1046D0008DF81030019B9B680393019B00229A7513
:1046E000019B5B68019A116802AA1046984700BFB7
:1046F00007B05DF804FB00B589B0019000914FF45C
:1047000000710198FFF701F90346002B39D04FF4EF
:1047100092710198FFF7DDF80346002B31D04FF47A
:1047200092710198FFF7C0F84FF401710198FFF7FB
:10473000FCF8009B9B7E83F00103DBB2002B03D0CF
:1047400004210198FFF78BF902238DF808300198B6
:10475000FFF7F5F803460593009BDB7D8DF81030DD
:10476000009BDB680393009B0022DA75009B00220C
:104770001A76009B5B68009A116802AA1046984757
:1047800056E004210198FFF7C0F80346002B4FD0F4
:104790004FF484710198FFF79CF80346002B47D033
:1047A00000990198FFF744FF009BDA7D009B5B7E38
:1047B000DBB29A423CD1009B1B7E002B1CD0009B9D
:1047C000DB680793009B5B7E8DF81B30009B1A7E95
:1047D000009BDA75009B1A69009BDA60009B00223F
:1047E0001A76009B00225A769DF81B30079A1946CC
:1047F0000098FFF747FF1BE0009B9B7E83F00103BF
:10480000DBB2002B03D004210198FFF728F94FF405
:1048100001710198FFF789F8009B0022DA75009B6F
:104820005B7ED9B2009BDB681A460098FFF72AFF2F
:104830004FF48E710198FFF74CF80346002B1BD004
:10484000009B9B8A9AB2009B9B7D9BB29A4204D2AA
:1048500000990198FFF778FD0EE04FF48E710198F2
:10486000FFF722F8009B9B7D002B05D0009B9B7DD2
:1048700019460098FFF721FF4FF4A2710198FFF746
:1048800028F80346002B1CD04FF4A2710198FFF7C3
:104890000BF8009B9B7E002B03D000210198FFF7B3
:1048A000DEF8009BDB7D002B0BD0009B0022DA752D
:1048B000009B5B7ED9B2009BDB681A460098FFF72D
:1048C000E1FE00BF09B05DF804FB00B589B00190BE
:1048D00000914FF492710198FFF703F90346002B02
:1048E00024D04FF492710198FFF7E6F802238DF877
:1048F00008300198FFF72AF9034605930198FFF75E
:10490000E6F90346DBB28DF81030009BDB680393B9
:10491000009B0022DA75009B00221A76009B5B68E0
:10492000009A116802AA1046984741E04FF4887136
:104930000198FFF7D6F80346002B39D04FF4887161
:104940000198FFF7B9F80198FFF7C1F903468DF810
:104950001F30009BDB7D9DF81F209A4228D1009BD1
:104960001B7E002B19D0009BDB6806932021019849
:10497000FFF7C9F8009B1A7E009BDA75009B1A6945
:10498000009BDA60009B00221A769DF81F30069A81
:1049900019460098FFF776FE0AE0009B0022DA75C0
:1049A000009BDA689DF81F3019460098FFF76AFEF1
:1049B0004FF4A2710198FFF794F80346002B16D02C
:1049C0004FF4A2710198FFF777F8009BDB7D002B75
:1049D0000DD0009B0022DA750198FFF778F90346A5
:1049E000D9B2009BDB681A460098FFF74BFE4FF4E4
:1049F00090710198FFF775F80346002B11D04FF422
:104A000090710198FFF758F8009B9B7D002B08D010
:104A10000198FFF754F90346DBB219460098FFF7F7
:104A20004CFE00BF09B05DF804FB000008B5074B61
:104A30001B7F002B04D005490548FFF746FF03E024
:104A400002490348FFF757FE00BF08BD700600206B
:104A50000020004082B003468DF807300B468DF8E9
:104A6000063013468DF805300A499DF807309DF849
:104A7000052051331B010B4404331A6005499DF88E
:104A800007309DF8062051331B010B441A6000BF0C
:104A900002B070470070004000B583B0034600913B
:104AA0008DF80730009B1B7803F00302009B5B78B6
:104AB0001B0103F030031A43009B9B781B0203F495
:104AC000E0631A43009BDB781B0303F480531A4313
:104AD000009B1B791B0403F4E0231A43009B5B79C2
:104AE0001B0503F4801342EA0301009B9B791B061C
:104AF00003F080720A489DF807300A431B01034403
:104B000003F5A3631A60009BD979009B1A7A9DF87C
:104B100007301846FFF79EFF00BF03B05DF804FBA7
:104B20000070004082B001900B46ADF80230BDF835
:104B30000230019A1344184602B0704782B00190C7
:104B4000019BD3F81035DBB2184602B0704782B033
:104B50000190019B9BB250339BB29B009BB21846C5
:104B600002B0704700B585B001900B468DF8033058
:104B70009DF803300393019B094A934204D90949E4
:104B800040F26920FCF785FD019B4FF47A5203FB4C
:104B900002F2039B22FA03F3184605B05DF804FB0A
:104BA000931804007862000010B582B00190009163
:104BB000019B5B791A46009B934204D3094940F25A
:104BC0007510FCF766FD019B1C680098FFF7BFFF9E
:104BD000034619462046FFF7A5FF0346184602B0D4
:104BE00010BD00BFB462000000B583B00190009119
:104BF000019B1B681846FFF7A1FF03461946009862
:104C0000FFF7B0FF0346184603B05DF804FB82B01F
:104C100003460091ADF8063000BF02B070470000B7
:104C200000B58DB0FDF7C2FE0B900B9B0A930A9B5B
:104C3000002B04D0314A5B210A98FCF7F7FB0023D4
:104C40008DF8083000238DF8093000238DF80A30E4
:104C500007238DF80B300023039303238DF80A30CC
:104C600002AB274A19462748FEF704FC0B900B9B22
:104C70000993099B002B04D0204A60210998FCF776
:104C8000D5FB4FF4C8711F48FFF7AEFF0890002313
:104C900000930123089A00211A48FEF76BFD19487A
:104CA000FEF70CFD00211748FFF77EFF0790FEF787
:104CB00045FA06901448FDF78DFE0B900B9B05936B
:104CC000059B002B04D00D4A71210598FCF7AEFB23
:104CD0000D4B1B78069A07991846FDF7CFFE0B90EF
:104CE0000B9B0493049B002B04D0044A7621049868
:104CF000FCF79CFB00BF0DB05DF804FBF462000004
:104D00000F4C000078630000A406002000B583B0BB
:104D1000094B1B781846FDF7ECFE0190019B0093B0
:104D2000009B002B04D0054A7E210098FCF77EFBF7
:104D300000BF03B05DF804FBA4060020F46200008D
:104D400000B587B00190019B1B78002B39D1019BE6
:104D50005B6805211846FEF703FA0490049B039351
:104D6000039B002B04D0194A89210398FCF75EFBB2
:104D7000174B1B881B0443F00303164A126816499D
:104D80001846FBF73BFF0023059312E0104B1B88EE
:104D90001B0443F00300019B5A68059B5B0013440E
:104DA000B3F900301A460D49FBF728FF059B013384
:104DB0000593059B042BE9DD064B1B680133054A6F
:104DC000136000BF07B05DF804FB00BFF462000091
:104DD00000000020A8060020346300004C6300009F
:104DE00000B589B0224A6B4607CA03C31A7021492D
:104DF0000020FEF7A1F80790079B0693069B002B67
:104E000004D01D4A9E210698FCF710FB6B461946FC
:104E10000020FEF7F9F80790079B0593059B002BF0
:104E200004D0154AA1210598FCF700FB0521134881
:104E3000FEF796F90790079B0493049B002B04D080
:104E40000D4AA4210498FCF7F1FA05210C48FEF75D
:104E500087F90790079B0393039B002B04D0064A16
:104E6000A7210398FCF7E2FA00BF09B05DF804FB44
:104E700050630000414D0000F462000090060020E5
:104E80009A06002000B587B00020FBF73FFC059094
:104E9000059B0493049B002B04D01D4AB221049867
:104EA000FCF7C4FAFBF790FB0020FDF767FC0590C8
:104EB000059B0393039B002B04D0154AB72103984D
:104EC000FCF7B4FAFDF7B0FA0290029B0193019B44
:104ED000002B04D00E4ABA210198FCF7A7FA0D4B1B
:104EE0001B881B0443F003030B491846FBF778FEAD
:104EF000FFF776FFFFF794FEFFF708FFFDF7AAFA2A
:104F000000BFFBF7C7FE0346002BFAD1F6E700BF50
:104F1000F4620000000000205C630000BFF34F8FCC
:104F200000BF074BDB6803F4E0620549054B134300
:104F3000CB60BFF34F8F00BF00BF00BFFCE700BFD7
:104F400000ED00E00400FA05024B034A1A6000BFBE
:104F5000704700BFA00000200090D00308B500F00B
:104F60005DF90346002B06D09B4B1B681B0A9B4A2E
:104F700003F01F03136000F07DF90346002B02D0FD
:104F8000974B984A1A6000F091F90346002B06D01F
:104F9000954B1B685B0B954A03F00703136000F009
:104FA000B1F90346002B05D0914BDB68904A23F002
:104FB0008073D36000F0C2F90346002B0ED04FF08F
:104FC00080430022C3F80C214FF080430022C3F835
:104FD00010214FF080430022C3F8382500F0DAF9A1
:104FE0000346002B02D0834B03221A6000F0EEF937
:104FF0000346002B0BD0804B05221A607F4B012209
:105000001A607F4B00221A607E4B3F221A6000F02C
:10501000F9F90346002B76D04FF080537A4AD3F843
:105020000434C2F820354FF08053774AD3F808345F
:10503000C2F824354FF08053734AD3F80C34C2F8C9
:1050400028354FF08053704AD3F81034C2F82C350D
:105050004FF080536C4AD3F81434C2F830354FF017
:105060008053694AD3F81834C2F834354FF080536E
:10507000654AD3F81C34C2F840354FF08053624A79
:10508000D3F82034C2F844354FF080535E4AD3F849
:105090002434C2F848354FF080535B4AD3F82834A3
:1050A000C2F84C354FF08053574AD3F82C34C2F82D
:1050B00050354FF08053544AD3F83034C2F8543549
:1050C0004FF08053504AD3F83434C2F860354FF073
:1050D00080534D4AD3F83834C2F864354FF08053CA
:1050E000494AD3F83C34C2F868354FF08053464AF9
:1050F000D3F84034C2F86C354FF08053424AD3F8AD
:105100004434C2F8703500F099F90346002B05D0FD
:105110003E4B1B683E4A03F04F03136000F0BAF9A0
:105120000346002B0DD04FF08043D3F8003403F03A
:105130000103002B05D04FF080436FF00102C3F84C
:105140000024344BD3F88830324A43F47003C2F859
:105150008830BFF34F8F00BFBFF36F8F00BF4FF09A
:105160001023D3F80032002B05DB4FF01023D3F8C7
:105170000432002B2BDA284B0122C3F8042500BF90
:10518000254BD3F80034002BFAD04FF01023152212
:10519000C3F8002200BF204BD3F80034002BFAD014
:1051A0004FF010231522C3F8042200BF1A4BD3F886
:1051B0000034002BFAD0184B0022C3F8042500BF9E
:1051C000154BD3F80034002BFAD0FFF7A7FEFFF7FA
:1051D000BBFE00BF08BD00BF2403001040350140E6
:1051E00074C007400DF0ADBA440200103C05004009
:1051F000F0ED00E0A0050040105600408856004049
:10520000185600401456004000C0004058020010DC
:10521000E40E004000ED00E000E00140124B1B688E
:10522000DBB2062B1DD1114B1B6803F00F03002BC3
:1052300017D10F4B1B6803F0F003302B01D1012372
:1052400010E00B4B1B6803F0F003402B01D101234E
:1052500008E0074B1B6803F0F003502B01D101233A
:1052600000E0002318467047E00F00F0E40F00F064
:10527000E80F00F00A4B1B68DBB2062B0DD1094B7F
:105280001B6803F00F03002B07D1074B1B6803F0CB
:10529000F003302B01D1012300E0002318467047B2
:1052A000E00F00F0E40F00F0E80F00F0124B1B6875
:1052B000DBB2062B1DD1114B1B6803F00F03002B33
:1052C00017D10F4B1B6803F0F003302B01D10123E2
:1052D00010E00B4B1B6803F0F003402B01D10123BE
:1052E00008E0074B1B6803F0F003502B01D10123AA
:1052F00000E0002318467047E00F00F0E40F00F0D4
:10530000E80F00F00A4B1B68DBB2062B0DD1094BEE
:105310001B6803F00F03002B07D1074B1B6803F03A
:10532000F003302B01D1012300E000231846704721
:10533000E00F00F0E40F00F0E80F00F0124B1B68E4
:10534000DBB2062B1DD1114B1B6803F00F03002BA2
:1053500017D10F4B1B6803F0F003302B01D1012351
:1053600010E00B4B1B6803F0F003402B01D101232D
:1053700008E0074B1B6803F0F003502B01D1012319
:1053800000E0002318467047E00F00F0E40F00F043
:10539000E80F00F00A4B1B68DBB2062B0DD1094B5E
:1053A0001B6803F00F03002B07D1074B1B6803F0AA
:1053B000F003302B01D1012300E000231846704791
:1053C000E00F00F0E40F00F0E80F00F00A4B1B685C
:1053D000DBB2062B0DD1094B1B6803F00F03002B2A
:1053E00007D1074B1B6803F0F003302B01D10123D9
:1053F00000E0002318467047E00F00F0E40F00F0D3
:10540000E80F00F00A4B1B68DBB2062B0DD1094BED
:105410001B6803F00F03002B07D1074B1B6803F039
:10542000F003502B01D1012300E000231846704700
:10543000E00F00F0E40F00F0E80F00F0124B1B68E3
:10544000DBB2062B1DD1114B1B6803F00F03002BA1
:1054500017D10F4B1B6803F0F003302B01D1012350
:1054600010E00B4B1B6803F0F003402B01D101232C
:1054700008E0074B1B6803F0F003502B01D1012318
:1054800000E0002318467047E00F00F0E40F00F042
:10549000E80F00F0124B1B68DBB2062B1DD1114B3D
:1054A0001B6803F00F03002B17D10F4B1B6803F091
:1054B000F003302B01D1012310E00B4B1B6803F0EC
:1054C000F003402B01D1012308E0074B1B6803F0D8
:1054D000F003502B01D1012300E000231846704750
:1054E000E00F00F0E40F00F0E80F00F07F2805D88F
:1054F000034B185C034B5B5C1840704700207047FF
:105500008C6300000C640000A0F16103192B98BFAC
:1055100020387047A0F14103192B98BF2030704705
:105520007F2805D8034B185C034B5B5C1840704721
:10553000002070478C6300000C640000A0F1610340
:10554000192B98BF20387047A0F14103192B98BF41
:10555000203070477F299ABF017001206FF02E0024
:1055600070475AB10A787F2A0AD800B10260002138
:1055700019605960501A18BF012070470020704709
:105580006FF02E007047000008B5034B5B689B6806
:105590001B68984708BD00BFA400002008B509217A
:1055A000FFF7F2FF08BD844640EA010313F0030F42
:1055B00018D18446202A0BD32DE9F007B1E8F8076B
:1055C000A0E8F807A2F12002202AF7D2BDE8F007F0
:1055D000042A07D351F8043B40F8043BA2F104022B
:1055E000042AF7D2002A05D011F8013B00F8013B4C
:1055F000013AF9D16046704700F1010110F0030F44
:1056000011D010F8012B002A23D010F0030F0AD07C
:1056100010F8012B002A1CD010F0030F03D010F853
:10562000012B002A15D02DE970004FF001324FF008
:10563000803350F8044BA4EB020525EA04051D4015
:1056400000D1F6E7A0F1040070BC10F8012B002A8D
:08565000FBD1A0EB0100704743
:10565800F457000000000300845900000000000017
:105668000061000000000000505B00000000000026
:105678004061000000000000986100000000000088
:08568800246200000000000094
:10569000000000000000000000000000000000000A
:1056A00000000000000000000000000000000000FA
:1056B00000000000000000000000000000000000EA
:1056C00000000000000000000000000000000000DA
:1056D00000000000000000000000000000000000CA
:0456E00000000000C6
:1056E400433A5C55736572735C74686572755C44A7
:1056F40065736B746F705C6E52465C6E52465C638D
:105704006F6D706F6E656E74735C6C6962726172DA
:105714006965735C6578706572696D656E74616CDA
:105724005F6C6F675C7372635C6E72665F6C6F67ED
:105734005F6261636B656E645F756172742E630092
:10574400FFFFFFFFFFFFFFFFFFFFFFFFFFFFFFFF65
:1057540000000000000000000000D6010701000066
:1057640065050000990500008D050000433A5C556D
:10577400736572735C74686572755C4465736B748D
:105784006F705C6E52465C6E52465C636F6D706FF8
:105794006E656E74735C6C69627261726965735C68
:1057A4006578706572696D656E74616C5F6C6F6746
:1057B4005C7372635C6E72665F6C6F675F64656670
:1057C40061756C745F6261636B656E64732E6300F4
:1057D400C4010020FC00002004010020040100207A
:1057E400180000004F766572666C6F770000000049
:1057F40061707000433A5C55736572735C746865DC
:1058040072755C4465736B746F705C6E52465C6E4B
:1058140052465C636F6D706F6E656E74735C6C6919
:10582400627261726965735C6578706572696D65D1
:105834006E74616C5F6C6F675C7372635C6E7266CE
:105844005F6C6F675F66726F6E74656E642E630063
:105854006572726F720000007761726E696E670024
:10586400696E666F00000000646562756700000081
:105874001B5B306D000000001B5B313B33306D005F
:105884001B5B313B33316D001B5B313B33326D00AD
:105894001B5B313B33336D001B5B313B33346D0099
:1058A4001B5B313B33356D001B5B313B33366D0085
:1058B4001B5B313B33376D00257300003C25733E81
:1058C4002025733A200000000D0A00002025303204
:1058D40078000000202020007C00000025630000E8
:1058E40020000000415353455254494F4E20464135
:1058F400494C45442061742025733A257500000005
:105904004552524F52202575205B25735D206174EA
:105914002025733A25750000554E4B4E4F574E20A7
:105924004641554C54206174203078253038580055
:10593400433A5C55736572735C74686572755C4454
:1059440065736B746F705C6E52465C6E52465C633A
:105954006F6D706F6E656E74735C6C696272617288
:105964006965735C7574696C5C6170705F7574698A
:105974006C5F706C6174666F726D2E630000000062
:1059840062616C6C6F630000433A5C5573657273BB
:105994005C74686572755C4465736B746F705C6E7F
:1059A40052465C6E52465C636F6D706F6E656E74CA
:1059B400735C6C69627261726965735C62616C6C60
:1059C4006F635C6E72665F62616C6C6F632E630002
:1059D400433A5C55736572735C74686572755C44B4
:1059E40065736B746F705C6E52465C6E52465C6598
:1059F400787465726E616C5C667072696E74665CF4
:105A04006E72665F667072696E74662E6300000063
:105A1400433A5C55736572735C74686572755C4473
:105A240065736B746F705C6E52465C6E52465C6557
:105A3400787465726E616C5C667072696E74665CB3
:105A44006E72665F667072696E74665F666F726DA1
:105A540061742E6300000000303132333435363740
:105A64003839414243444546433A5C557365727341
:105A74005C74686572755C4465736B746F705C6E9E
:105A840052465C6E52465C636F6D706F6E656E74E9
:105A9400735C6C69627261726965735C6578706568
:105AA40072696D656E74616C5F6D656D6F626A5C61
:105AB4006E72665F6D656D6F626A2E630000000032
:105AC4002E2E2F2E2E2F2E2E2F2E2E2F2E2E2F2EED
