:020000021000EC
:1020000000000120392201009122010095420100C7
:102010009522010097220100992201000000000092
:102020000000000000000000000000009B220100F2
:102030009D220100000000009F220100A12201005A
:10204000A5220100A722010059600100AB22010076
:10205000AD220100AF220100A9570100B322010007
:10206000B5220100B7220100B9220100BB22010004
:10207000BD220100BF220100C1220100C3220100D4
:10208000C5220100D53E0100C9220100CB2201007A
:10209000153F0100CF220100BD750100D3220100D0
:1020A000D5220100D7220100D9220100DB22010044
:1020B000DD220100DF220100A3220100A322010092
:1020C000E1220100E3220100E5220100E7220100F4
:0C20D000E9220100EB220100ED220100DA
:1020DC00354936480A1A02D0072291438D463449B5
:1020EC0034480A1A06D00722914381F30988022248
:1020FC0082F3148830483149314A00F044F83148B1
:10210C003149324A00F03FF831483249324A00F046
:10211C003AF832483249334A00F035F832483349FC
:10212C00334A00F030F833483349344A00F02BF886
:10213C0033483449344A00F026F8344834490022F4
:10214C0000F02CF833483449002200F027F83348CB
:10215C003349091A082902DB002202604160314A26
:10216C0090471F481F49884205D00268043003B4C9
:10217C00904703BCF7E700208646EC460020002180
:10218C00294A9047FEE7884207D0521A05D00378B7
:10219C0001300B700131013AF9D17047884202D0FD
:1021AC0002700130FAE770470000012000F80020AF
:1021BC000000012000000120EC8A0100E00B00204F
:1021CC00500C0020F0220100F02201002E780100BA
:1021DC00EC8A0100E00B0020E00B0020E07801000D
:1021EC00E0780100E0780100E0780100E07801007F
:1021FC00E0780100E0780100E0780100EC8A010051
:10220C005C8B0100500C0020500C0020500C002066
:10221C0050140020501400205014002050140020A2
:10222C00501600205D220100696B01000F484FF031
:10223C000701884385460E4880470E48016841F4E3
:10224C0070010160BFF34F8FBFF36F8FFFF740BF7B
:10225C0009480A490A4A884207D0521A05D003781D
:10226C0001300B700131013AF9D1704700000120A7
:10227C00C96B010088ED00E080780100800B002024
:10228C00E00B0020FEE7FEE7FEE7FEE7FEE7FEE7D9
:10229C00FEE7FEE7FEE7FEE7FEE7FEE7FEE7FEE70A
:1022AC00FEE7FEE7FEE7FEE7FEE7FEE7FEE7FEE7FA
:1022BC00FEE7FEE7FEE7FEE7FEE7FEE7FEE7FEE7EA
:1022CC00FEE7FEE7FEE7FEE7FEE7FEE7FEE7FEE7DA
:1022DC00FEE7FEE7FEE7FEE7FEE7FEE7FEE7FEE7CA
:0422EC00FEE700BF4A
:1022F00000B583B001900091019B1B681B68009999
:102300000198984700BF03B05DF804FB00B583B0A7
:102310000190019B1B685B680198984700BF03B060
:102320005DF804FB82B00190019B01225A7200BF4C
:1023300002B0704782B00190019B5B7A184602B0F0
:10234000704710B487B001900091019B009A53E848
:10235000004F44EA020043E8000191F0000FF6D17B
:10236000059404900391049B184607B05DF8044B54
:10237000704710B487B001900091019B009A53E818
:10238000004F04EA020043E8000191F0000FF6D18B
:10239000059404900391059B184607B05DF8044B23
:1023A000704700B583B0019001210198FFF7C9FF84
:1023B0000346184603B05DF804FB00B583B00190F6
:1023C00000210198FFF7D5FF0346184603B05DF8DA
:1023D00004FB000000B587B001901F4BFF229A60FC
:1023E0001D4B00221A601C4B00225A601A4B00221F
:1023F000C3F81824184B0022C3F81424164B0022EB
:1024000083F81C24154802F08FF90490049B002BDC
:1024100001D0049B1CE0124A124BD31ADB08039331
:10242000002305930FE0059A13465B0013449B00BD
:102430001A460D4B13440293059B9AB2029B1A80D5
:10244000059B01330593059A039B9A42EBD3002326
:10245000184607B05DF804FB200D0020E07801006D
:102460007878010038780100800B0020024A034B85
:10247000D31ADB08184670477878010038780100D5
:1024800000B589B04148FFF78CFF4148FFF789FF4D
:10249000404B5B6807933F4B9B680493079A049BF0
:1024A000134002339B003B4A1344043306931BE062
:1024B000079B01330793069B5B88C3F389139BB289
:1024C0001A46069B1B88C3F389139BB213441A4612
:1024D000079B13440793079A049B134002339B0006
:1024E0002C4A134404330693069B1B7803F0030322
:1024F000DBB2002BDCD00023059311E0079B5A1CB4
:102500000792049A1340059A920069460A442149A9
:1025100002339B000B445B681360059B01330593FA
:10252000059B012BEAD99DF80030C3F30103DBB210
:10253000012B0CD0022B14D1BDF80230C3F3891348
:102540009BB203339B08079A134407930FE0BDF82F
:102550000030C3F38313DBB21A46079B134407937F
:1025600005E00D4940F24D1001F08CFF00BF084816
:10257000FFF723FF0390039B002B02D0054A079B24
:10258000536000BF09B05DF804FB00BF38110020A4
:1025900034110020200D00200479010010B586B010
:1025A0000390029101920093039B1B0CADF816302F
:1025B000BDF81640FFF75AFF03469C4204D3234957
:1025C0004FF4B27001F05EFF009B5A1C089B134051
:1025D000BDF816201E4902339B000B445A60009A36
:1025E000089B134002339B00194A1344043304939D
:1025F000039B1B0903F00103D9B2049A137861F31A
:1026000082031370039B03F00703D9B2049A137873
:1026100061F3C5031370019B03F00F03D9B2049A51
:10262000138861F389131380029BC3F31501049A85
:10263000136861F39F231360049A1378012161F3F7
:102640000103137000BF06B010BD00BF0479010084
:10265000200D002000B58BB001900091019B02334A
:1026600008930223079301238DF81B3000238DF874
:102670000F300DF10F03184601F0A2FD214B1A682F
:10268000009B1A601F4B9A681E4B59681D4B1B68B4
:10269000CB1A134401330993089A079B13440593FB
:1026A0000BE0FFF7EDFE174B9A68164B5968154B78
:1026B0001B68CB1A134401330993059A099B9A426C
:1026C000EFD8104B1A680F4B9B68134002339B00E6
:1026D0000C4A134404330493049A137843F003031D
:1026E0001370084B1A68089B1344064A13609DF840
:1026F0000F30184601F07AFD9DF81B3018460BB0DC
:102700005DF804FB200D002000B58BB0059004910E
:10271000039202931F4B9B68079306AB19460298DE
:10272000FFF798FF0346002B24D0069B0233099342
:102730000023089311E0089B9B00039A1A44099B0D
:10274000591C099107990B401268124902339B00EA
:102750000B445A60089B01330893089A029B9A42E3
:10276000E9D3069A079B00931346029A04990598A9
:10277000FFF714FF074B93F81C34002B05D000BF64
:1027800000F07AF80346002BFAD100BF0BB05DF8D9
:1027900004FB00BF200D002000B583B00190009124
:1027A0000023002200990198FFF7AEFF00BF03B09D
:1027B0005DF804FB00B587B0039002910192019B84
:1027C000059305AA012302990398FFF79DFF00BF17
:1027D00007B05DF804FB00B587B003900291019249
:1027E0000093019B0493009B059304AA0223029982
:1027F0000398FFF789FF00BF07B05DF804FB00B541
:1028000089B00390029101920093019B0593009B74
:1028100006930A9B079305AA032302990398FFF7DF
:1028200073FF00BF09B05DF804FB00B589B00390E9
:10283000029101920093019B0493009B05930A9BD4
:1028400006930B9B079304AA042302990398FFF7AE
:102850005BFF00BF09B05DF804FB0000054B5A6840
:10286000044B1B689A420CBF01230023DBB21846BD
:10287000704700BF200D002000B599B0FFF7EEFFB4
:102880000346002B01D00023B3E19C4B0022C3F888
:102890001824BFF34F8F00BF984B5B681793974B7B
:1028A0009B681093179A109B134002339B00934A26
:1028B0001344043316930023159300231493002329
:1028C0000F931BE0179B01331793169B5B88C3F391
:1028D00089139BB21A46169B1B88C3F389139BB2BC
:1028E00013441A46179B13441793179A109B1340CF
:1028F00002339B00814A134404331693169B1B78C2
:1029000003F00303DBB2002BDCD00023139311E0B0
:10291000179B5A1C1792109A1340139A920002A9FF
:102920000A44764902339B000B445B681360139B97
:1029300001331393139B012BEAD99DF8083003F060
:102940000303DBB2022B40F09C80BDF80A30C3F3D6
:1029500089139BB20D93BDF80A30C3F389139BB260
:10296000502B28BF50239BB20C930C9BC3F309033D
:102970009AB2BDF80A3062F38F13ADF80A300C9B9F
:1029800008330B939DF80830C3F3C203DBB20F93F7
:102990000B995B4801F0D3FE1590159B002B00F0BE
:1029A000E080159801F05CFF02A9149B082215989D
:1029B00002F002F8149B08331493179BDA43109B20
:1029C000134001339B000A930C9A0A9B9A4242D906
:1029D0000A9B002B08D0179A109B134002339B00D0
:1029E000464A1344043300E0464B08930A9B002BED
:1029F00002D00A9BDBB201E00C9BDBB28DF81F30EA
:102A00000A9B002B01D03F4B00E0002306930A9B5A
:102A1000002B06D00C9BDAB20A9BDBB2D31ADBB2D6
:102A200000E000238DF817309DF81F20149B0899B3
:102A3000159801F0C1FF9DF81F30149A13441493A8
:102A4000069B002B16D09DF81720149B069915980D
:102A500001F0B2FF0EE0179A109B134002339B0067
:102A6000264A134404330993149B0C9A0999159828
:102A700001F0A2FF0D9B03339B08179A1344179391
:102A80006FE09DF8083003F00303DBB2012B5AD14D
:102A9000BDF80830C3F38313DBB2062B28BF06232F
:102AA000DAB2BDF8083062F38913ADF80830BDF82A
:102AB0000830C3F38313DBB202330E939DF8083062
:102AC000C3F3C203DBB20F930E9B9B0019460C4865
:102AD00001F035FE1590159B002B42D0159801F0A2
:102AE000BFFE02A9149B0822159801F065FF149BF4
:102AF00008331493002313931BE000BF200D002024
:102B0000E07801002C0D0020179B5A1C1792109A98
:102B1000134002339B00394A1344191D149B0422AD
:102B2000159801F049FF149B04331493139B013350
:102B30001393BDF80830C3F38313DBB21A46139B1B
:102B40009342E1D30DE09DF8083003F00303DBB2BC
:102B5000032B06D1294BD3F81834002B01D10023C5
:102B600047E0159B002B3ED0244BD3F81034129332
:102B7000224BD3F81834002B1AD0159801F07FFEA1
:102B800031E000238DF847301298FFF7D3FB03465E
:102B9000002B02D001238DF847309DF84730002BE1
:102BA00003D015991298FFF7A3FB129B5B68129351
:102BB000129B002BE5D1159801F061FE00238DF8E2
:102BC00007300DF10703184601F0FAFA0B4BD3F862
:102BD0001834002B02D1094A179B53609DF8073027
:102BE000184601F003FBFFF739FE034683F00103AB
:102BF000DBB2184619B05DF804FB00BF200D0020C1
:102C000000B583B00C4BD3F8103401930A4B01226A
:102C100083F81C2408E00198FFF784FB0198FFF774
:102C200075FB019B5B680193019B002BF3D100BFF7
:102C300000BF03B05DF804FB200D002000B583B099
:102C40000190019B1B681F2B04D905494FF4E870C4
:102C500001F018FC4FF0A043184603B05DF804FBE8
:102C60006079010000B585B00190084611461A460A
:102C700003468DF803300B468DF8023013468DF86D
:102C8000013001AB1846FFF7D9FF03909DF80320F0
:102C90009DF802305B001A439DF801309B001A43F7
:102CA0009DF818301B0242EA03019DF81C301B04FA
:102CB000019A1943039B02F5E07243F8221000BF0A
:102CC00005B05DF804FB00B585B0039000230193C7
:102CD000002300930023012201210398FFF7C2FF84
:102CE00000BF05B05DF804FB00B585B0019001ABF5
:102CF0001846FFF7A3FF0390019B012202FA03F39A
:102D00001946039800F069F800BF05B05DF804FBB0
:102D100000B585B0019001AB1846FFF78FFF039017
:102D2000019B012202FA03F31946039800F05FF8B1
:102D300000BF05B05DF804FB00B585B0019001ABA4
:102D40001846FFF77BFF0390039BD3F804350293EB
:102D5000029BDA43019B012101FA03F31A40039B12
:102D6000C3F80825019B01229A40029B1A40039B4D
:102D7000C3F80C2500BF05B05DF804FB00B583B0B7
:102D800001900091009B002B03D10198FFF7C0FF39
:102D900002E00198FFF7A8FF00BF03B05DF804FB55
:102DA00000B585B0019001AB1846FFF747FF0390CF
:102DB000039800F00AF80246019B22FA03F303F09D
:102DC0000103184605B05DF804FB82B00190019B39
:102DD000D3F80435184602B0704782B001900091D4
:102DE000019B009AC3F8082500BF02B0704782B06B
:102DF00001900091019B009AC3F80C2500BF02B01E
:102E00007047000000B585B00190019B032B03D9EA
:102E10001149372001F036FB104A019B13441B78FF
:102E20001846FFF7BDFF0346002B14BF0123002304
:102E30008DF80F309DF80F30002B14BF01230023B5
:102E4000DBB283F00103DBB203F00103DBB218460F
:102E500005B05DF804FB00BF9C790100D879010042
:102E600000B583B00190019B032B03D907493E2095
:102E700001F008FB064A019B13441B780021184609
:102E8000FFF77CFF00BF03B05DF804FB9C790100F5
:102E9000D879010000B583B00190019B032B03D9C1
:102EA0000749442001F0EEFA064A019B13441B78BF
:102EB00001211846FFF762FF00BF03B05DF804FB75
:102EC0009C790100D879010000B583B000230193FB
:102ED00005E00198FFF7DEFF019B01330193019BA1
:102EE000032BF6D900BF00BF03B05DF804FB00B5AB
:102EF00083B00023019305E00198FFF7B1FF019B28
:102F000001330193019B032BF6D900BF00BF03B02F
:102F10005DF804FB00B583B00190019B032B03D93E
:102F200007495C2001F0AEFA064A019B13441B7866
:102F30001846FFF701FF00BF03B05DF804FB00BFB8
:102F40009C790100D879010000B583B0002301937A
:102F500009E0094A019B13441B781846FFF7B3FEAA
:102F6000019B01330193019B032BF2D9FFF7ACFFC7
:102F700000BF03B05DF804FBD879010084B0019074
:102F80004FF0FF330293002303930DE00A4A039BA3
:102F900013441B781A46019B934202D1039B029370
:102FA00005E0039B01330393039B032BEED9029BA4
:102FB000184604B0704700BFDC79010000B589B045
:102FC000019000238DF81F3051E02E4B1A689DF8B8
:102FD0001F30DB0013440693069B1B781A4601231F
:102FE00093400593284B1A68059B1340002B39D05A
:102FF000059BDA43244B1B681340234A1360069B4E
:103000001B78184602F0B6FB03468DF81330069B7A
:103010001B781A46012393401A461C4B1B68134029
:103020009DF81320069909788A4093421AD19DF899
:103030001330069A5278012A0CBF01220022D2B224
:1030400093420CBF01230023DBB20393069B5B6812
:10305000002B07D0069B5B68069A12780399C9B2C9
:10306000104698479DF81F3001338DF81F30084BEC
:103070001B789DF81F209A42A7D300BF00BF09B05C
:103080005DF804FB40110020701100206C1100203D
:103090004411002000B585B001900B468DF8033037
:1030A0000122019B02FA03F303931E4B184600F022
:1030B000CDFF0290029B002B30D11B4B1A68039B63
:1030C0001340002B22D1019802F054FB0346002B41
:1030D00006D0164B1A68039B1343144A136006E08C
:1030E000039BDA43114B1B681340104A13600E4BCD
:1030F0001A68039B13430C4A13600A480C4B1B6865
:103100000022194600F070FF029008E0039BDA43AA
:10311000054B1B681340044A136000E000BF05B074
:103120005DF804FB4C110020701100206C11002090
:103130004811002000B589B003900B4601928DF82C
:103140000B30019B042B01D8072351E002F01AFA3F
:10315000034683F00103DBB2002B07D002F0CAF96B
:103160000790079B002B01D0079B41E0224A039B5D
:103170001360224A9DF80B301370214A019B1360A3
:10318000204B00221A60204B00221A6023E09DF899
:103190000B30DB00039A1344069303238DF814309D
:1031A00000238DF8153000238DF8163000238DF89C
:1031B0001730069B9B788DF81530069B1B781846B8
:1031C00005AB124A194602F0E9F90790079B002B5C
:1031D00001D0079B0CE09DF80B305A1E8DF80B2098
:1031E000002BD4D10A4A00210A4800F0CDFE034644
:1031F000184609B05DF804FB40110020441100207E
:10320000481100206C110020701100209530010041
:10321000BD2F0100E079010000B583B0114B1B68A0
:10322000002B03D11049B62001F02CF900230193A3
:103230000CE00C4B1A68019BDB0013441B78012146
:10324000184602F00FFA019B01330193074B1B78DC
:103250001A46019B9342ECD30023184603B05DF855
:1032600004FB00BF40110020E4790100441100205C
:1032700000B589B0039002910192029B9BB2ADF818
:103280001430019B0693039B079305AB1A4600215C
:1032900044F2010000F052F800BF09B05DF804FBF1
:1032A00086B003900291019201238DF817309DF8AA
:1032B0001730214A039B13601F4A029B53601E4A2A
:1032C000019B9360039B44F20102934213D0039B42
:1032D00044F20202934222D1019B174AD360164B5B
:1032E000DB681B881A46144B9A61134BDB685B68DA
:1032F000114AD36113E0019B0F4A13610E4B1B6906
:103300009B680D4A53610C4B1B691B881A460A4B7C
:103310009A61094B1B695B68074AD36100BF72B6AB
:1033200000BF00BF9DF81730DBB2002BFAD162B6A8
:1033300000BF00BF06B070477411002030B589B0DF
:10334000059004910392FFF75BFC00BFFFF794FA2E
:103350000346002BFAD1059B44F2020293422BD084
:10336000059B44F20202934254D8059B44F20102A9
:10337000934231D0059B44F2010293424AD8059B07
:10338000012B05D0059B41F2010293420AD041E096
:103390002D4B1B881B0443F001032C491846FFF7F3
:1033A000FBF942E0284B1B881B0443F0010328492A
:1033B0001846FFF7F1F938E0039B0793224B1B886F
:1033C0001B0443F00100079B5B681A46079B1B88A0
:1033D0002049FFF700FA28E0039B06931A4B1B884D
:1033E0001B0443F00104069B9D68069B9B681846DE
:1033F00001F0BCFC03461946069B5B681A46069B17
:103400001B88019300920B462A4613492046FFF77A
:103410000CFA0AE00C4B1B881B0443F00103049ACE
:103420000E491846FFF7C6F900BF0D4B1B6803F0A5
:103430000103002B00D0FFDE039A04990598FFF7E3
:103440002FFF00BF09B030BD800B00202C7A010097
:103450004C7A0100707A01008C7A0100A47A010094
:10346000F0ED00E082B003468DF807309DF807309C
:1034700003F01F0205499DF907305B09012000FA9E
:1034800002F241F8232000BF02B0704700E100E0E3
:1034900082B003468DF807309DF8073003F01F0215
:1034A00006499DF907305B09012000FA02F220333A
:1034B00041F8232000BF02B0704700BF00E100E0E8
:1034C00082B003468DF807309DF8073003F01F02E5
:1034D00006499DF907305B09012000FA02F24033EA
:1034E00041F8232000BF02B0704700BF00E100E0B8
:1034F00082B003468DF807309DF8073003F01F02B5
:1035000006499DF907305B09012000FA02F2603399
:1035100041F8232000BF02B0704700BF00E100E087
:1035200082B0034600918DF807309DF90730002BDB
:103530000CDA009BDAB20C499DF8073003F00F0358
:10354000043B5201D2B20B441A7609E0009BDAB276
:1035500006499DF907305201D2B20B4483F800238B
:1035600000BF02B0704700BF00ED00E000E100E0E6
:1035700084B00190244B0393019B002B40D0234B3C
:103580001A680399019B00BF00BF00BF00BF00BFC6
:1035900000BF00BF00BF8A422FD000BF00BF00BFE6
:1035A00000BF00BF00BF00BF00BF00BF00BF00BF23
:1035B00000BF00BF00BF00BF00BF00BF00BF00BF13
:1035C00000BF00BF00BF00BF00BF00BF00BF00BF03
:1035D00000BF00BF00BF00BF00BF00BF00BF00BFF3
:1035E00000BF00BF00BF00BF00BF00BF00BF00BFE3
:1035F00000BF00BF00BF00BF00BF013BC3D10193AC
:1036000000BF04B0704700BF0024F4004C0C002041
:1036100000B583B00190064A019BC2F80835072126
:103620001120FFF77DFF00BF03B05DF804FB00BF72
:103630000010014008B50D4B4FF48032C3F844230D
:103640000A4B4FF48032C3F804231120FFF750FFD8
:103650001120FFF707FF054B01221A602F20FFF70B
:1036600087FF034B01221A7000BF08BD0010014004
:10367000B212002008B51120FFF70AFF0E4B4FF4DD
:103680008032C3F848230C4B4FF48032C3F8082330
:10369000094B01225A602F20FFF76AFF064B0122D7
:1036A0009A60064B00221A602F20FFF761FF044B3F
:1036B00000221A7000BF08BD00100140A4120020B3
:1036C000B2120020024BD3F804351846704700BFF1
:1036D0000010014082B001900091019A009BD31A22
:1036E00023F07F43184602B07047000082B001907B
:1036F000034A019BC2F8403500BF02B0704700BFCB
:103700000010014086B00190284B1B68002B03D1AC
:10371000264A019B136045E0019B1A68234B1B68F6
:103720001B689A4210D8214B1B681968019B1A68C4
:103730001E4B1B688A1A1A601C4B1A68019BDA61BF
:103740001A4A019B13602DE0019B1B680393174BE2
:103750001B680593154B1B68049309E0049B1B68C9
:10376000039AD31A0393049B0593049BDB69049388
:10377000049B002B04D0049B1B68039A9A42EDD84B
:10378000049B002B05D0049B1A68039BD21A049B50
:103790001A60019B039A1A60019B049ADA61059BE7
:1037A000019ADA6100BF06B0704700BFA012002086
:1037B00000B587B001902A4B1B680393284B1B6808
:1037C0000593059B049308E0049A019B9A4208D054
:1037D000049B0593049BDB690493049B002BF3D1AA
:1037E00000E000BF049B002B01D1002333E0059AC9
:1037F000049B9A4214D11A4B1B68DB69184A136068
:10380000174B1B68002B0BD1164B01229A60164BED
:1038100000221A60154B01221A702F20FFF7A8FE14
:10382000049B1B680293049BDA69059BDA61059B84
:10383000DB690493049B002B05D0049B1A68029B50
:103840001A44049B1A60064B1B68039A9A4214BFE1
:1038500001230023DBB2184607B05DF804FB00BF6C
:10386000A012002000100140A4120020B31200207A
:1038700008B51120FFF724FE00BF08BD08B51420CD
:10388000FFF71EFE00BF08BD00B583B00190019B8D
:103890005B69019A92691046984700BF03B05DF8D2
:1038A00004FB000000B585B02B4B1B68002B4ED0ED
:1038B00000230193FFF706FF0246284B1B681946B9
:1038C0001046FFF707FF0290234B1B6803931DE090
:1038D000039B1B68029A9A421CD3039B1B68029AA3
:1038E000D31A0293039B1B68019A13440193039B11
:1038F0000093039BDB690393009B1B7C002B05D08B
:10390000009B00221A740098FFF7BEFF039B002B58
:10391000DED100E000BF124B1A78124B1B789A429E
:103920000CD1104B1B780133DAB20E4B1A700D4BD1
:103930001B78022B02D10B4B00221A70094B1B780B
:103940001946094A019B42F82130FFF797FF00BF53
:1039500005B05DF804FB00BFA0120020A4120020F7
:10396000B0120020B1120020A812002082B00190F5
:10397000184B1A78184B1B789A4223D0154B1B789A
:103980000133DAB2134B1A70124B1B78022B02D19F
:10399000104B00221A700F4B1B781A460F4B53F82E
:1039A0002220019B1A60019B1A680D4B1B6813446F
:1039B0000B4A13600A4B1B6823F07F43084A1360CD
:1039C000012303E0019B00221A600023184602B085
:1039D000704700BFB0120020B1120020A8120020D2
:1039E000A412002088B00390029101920023079353
:1039F00038E0204B1B680693069B1B68039A9A428B
:103A000006D2069B1A68039BD21A069B1A602EE008
:103A1000069B1B68039AD31A0393069B1B68079A9D
:103A200013440793069B00221A60124B1B680593F0
:103A3000069BDB690F4A1360069BDB68002B11D0E5
:103A4000029A079B134423F07F42069B5A60069B11
:103A5000DA68069B9A60019B1A68069BDA61019BF3
:103A6000059A1A60034B1B68002BC2D100BF00BF30
:103A700008B07047A012002000B589B00190002363
:103A80008DF81F30664B1B680593AAE0019B002B45
:103A900005D0019B0693069BDB69019361E0614BB6
:103AA0001B781A4613465B001344DB005D4A13443F
:103AB000043304935B4B1B780133DAB2594B1A7011
:103AC000584B1A78574B9B789A4202D1554B00229B
:103AD0001A70049B5B680693049B1B78032B1ED013
:103AE000032B7EDC012B1FD0022B7AD1049B5B6859
:103AF0001846FFF75DFE0346002B02D001238DF828
:103B00001F30069B00221A746BE0454B1B68039321
:103B1000039B00221A74039BDB69414A1360404BEC
:103B20001B68002BF1D15CE000BF069B1B7C002BC7
:103B300000D056E0049B9A68069B5A60049BDA68A2
:103B4000069B9A60049B1A69069BDA60049B5A697B
:103B5000069B9A61344B1B78002B02D0069B0022F7
:103B60005A60069B5A68314B1B68D31A23F07F4377
:103B70002F4A93420ED8069B5B682C4A1268114666
:103B80001846FFF7A7FD0246069B9B681A44069B52
:103B90001A6017E0254B1A68069B5B6819461046A9
:103BA000FFF798FD0290069B9B68029A9A4206D204
:103BB000069B9A68029BD21A069B1A6002E0069B3B
:103BC00000221A60069B00225A60069B00229A601F
:103BD000069B01221A74069B0022DA610698FFF701
:103BE00091FD019B002B7FF451AF0E4B1A780D4BCA
:103BF0005B789A427FF44AAF9DF81F30002B04D1C6
:103C0000074B1B68059A9A4201D0012300E000236C
:103C100003F00103DBB2184609B05DF804FB00BFF6
:103C2000A012002094110020B3120020A412002042
:103C3000FEFF7F0010B588B00190274B1B68002B5A
:103C400044D0254B1B681B680793FFF73BFD06908C
:103C5000224B1B68059305990698FFF73BFD034629
:103C6000033304931E4B1B7883F00103DBB2002B5C
:103C700001D0FFF7DFFC049A079B934238BF13463D
:103C8000059A13440593059B23F07F4305930598FC
:103C9000FFF72CFDFFF716FD039006990398FFF739
:103CA00019FD0346DC1C06990598FFF713FD034632
:103CB0009C420DD9FFF706FD03461846FFF716FD97
:103CC0002F20FFF755FCFFF7D3FD01E0FFF7D2FCF3
:103CD00000BF08B010BD00BFA0120020A412002039
:103CE000B212002000B587B00023019300238DF8A5
:103CF0001730194B1B680493184B1B6803936B46D2
:103D00001846FFF733FE03468DF80B309DF80B3055
:103D1000002B08D0009B01AA04991846FFF762FE09
:103D200001238DF81730019B1846FFF7A5FE0346C7
:103D3000002B02D001238DF817309DF81730002B8F
:103D400002D00398FFF776FF054B00221A7000BFE0
:103D500007B05DF804FB00BFA4120020A0120020F1
:103D6000B312002082B003468DF80730034A9DF855
:103D70000730537000BF02B0704700BF941100209D
:103D800084B00190144B5B7801338DF80F30124BE7
:103D90009B789DF80F209A4202D100238DF80F30B6
:103DA0000D4B1B789DF80F209A4201D100230FE0A4
:103DB000019B9DF80F201A70074B5B781A4613463B
:103DC0005B001344DB00044A134404330293029B58
:103DD000184604B0704700BF9411002000B589B0A8
:103DE00003900291019200930023079300238DF822
:103DF00016300DF11603184600F0E2F90DF1170325
:103E00001846FFF7BDFF0690069B002B02D1042346
:103E1000079318E0069B01221A70069B039A5A60CA
:103E2000FFF750FC0246069B9A60069B029ADA60F6
:103E3000069B019A1A61069B009A5A619DF81730F9
:103E40001846FFF78FFF9DF81630184600F0CEF9A0
:103E5000079B002B01D1FFF711FD079B184609B006
:103E60005DF804FB00B587B001900B468DF8033078
:103E70000023059300238DF80E300DF10E03184634
:103E800000F09EF90DF10F031846FFF779FF04903B
:103E9000049B002B02D1042305930BE0049B9DF8A7
:103EA00003201A70049B019A5A609DF80F3018463F
:103EB000FFF758FF9DF80E30184600F097F9059B64
:103EC000002B01D1FFF7DAFC059B184607B05DF81F
:103ED00004FB000008B50E4B0022C3F840210C4B38
:103EE0000022C3F844210A4B0022C3F84821084BA2
:103EF0000022C3F84C21064B0022C3F80021044BDA
:103F00000022C3F80421FFF7CDFC00BF08BD00BFAD
:103F10000010014008B5FFF7E5FE00BF08BD000036
:103F200008B5FFF7A7FB134B00221A70114B0022B4
:103F30005A70104B0B229A700F4B00221A600F4BD5
:103F400000221A700E4B00221A701420FFF7D0FACC
:103F500007211420FFF7E4FA1420FFF783FA00206A
:103F6000FFF756FBFFF7AEFB0346064A136000233C
:103F7000184608BD94110020A0120020B0120020A5
:103F8000B1120020A412002086B003900B460192CB
:103F90008DF80B30134B9B78002B01D108231EE0CA
:103FA000019B002B01D1072319E0039B002B01D1BA
:103FB000072314E0039B1B681B7C002B01D0082304
:103FC0000DE0039B1B680593059B00221A74059B5B
:103FD0009DF80B205A74059B019A5A6100231846DC
:103FE00006B070479411002000B587B0039002918D
:103FF0000192039B0593144B9B78002B01D108235E
:104000001EE0039B002B01D1082319E0029B042B27
:1040100001D8072314E0059B5B69002B01D108231D
:104020000EE0059B5B7C012B01D1029B00E000238D
:104030000493019B049A02990598FFF7CFFE03466B
:10404000184607B05DF804FB9411002000B585B058
:104050000190019B03930D4B9B78002B01D108230A
:1040600010E0019B002B03D0039B5B69002B01D167
:10407000082307E0039B00221A7402210398FFF72C
:10408000F1FE0346184605B05DF804FB94110020CC
:1040900082B003468DF807309DF90730002B0BDA0C
:1040A0000B4A9DF8073003F00F03043B13441B7EBB
:1040B000DBB25B09DBB208E0064A9DF90730134426
:1040C00093F80033DBB25B09DBB2184602B07047ED
:1040D00000ED00E000E100E082B0EFF31083009318
:1040E000009B019372B600BF019B184602B0704757
:1040F00062B600BF00BF704700B585B00190FFF702
:10410000EBFF0390164B9B68002B1BD1144B012235
:104110009A60144BD3F88020134B1340104A13605D
:10412000104B114AC3F880200E4BD3F884300C4A50
:1041300053600C4B4FF0FF32C3F88420019B0022E8
:104140001A7002E0019B01221A70039B002B01D11F
:10415000FFF7CEFF0023184605B05DF804FB00BF53
:10416000B412002000E100E0FC06FFBD00B585B000
:1041700003468DF80730104B9B68002B16D09DF836
:104180000730002B12D1FFF7A7FF03900B4A0A4B11
:104190001B681360094A084B5B685360064B00229A
:1041A0009A60039B002B01D1FFF7A2FF0023184662
:1041B00005B05DF804FB00BFB412002000E100E090
:1041C00000B583B0019000F02BF80346012B03D01B
:1041D0000549432000F056F90198FFF78DFF00BF15
:1041E00003B05DF804FB00BFBC7A010000B583B0EA
:1041F00003468DF8073000F013F80346012B03D077
:104200000649512000F03EF99DF807301846FFF7A7
:10421000ADFF00BF03B05DF804FB00BFBC7A010036
:1042200084B0EFF305830193019BC3F30803039369
:10423000039B002B0DD1EFF314830093009B02939B
:10424000029B03F00103002B0CBF01230023DBB210
:1042500000E00123184604B0704700B585B0EFF3C5
:1042600005830193019BC3F308030393039B002B76
:104270000AD0039B103B0293029B5BB21846FFF7E8
:1042800007FF0346DBB200E00F23184605B05DF8D8
:1042900004FB00001EF0040F1CBFEFF309800AE0CE
:1042A000EFF308800849094A884201D8904202D8B1
:1042B0008D464FF000006B46854608B5044B984785
:1042C000BDE808409D4670470000012000F800202E
:1042D0001943010000BF00BFBFF34F8F00BF074B62
:1042E000DB6803F4E0620549054B1343CB60BFF381
:1042F0004F8F00BF00BF00BFFCE700BF00ED00E034
:104300000400FA0500B583B00190FFF7E5FF00BF98
:1043100003B05DF804FB000010B588B00390FEF711
:104320006FFC00BFFEF7A8FA0346002BFAD1039BEF
:104330000693494B9B6A0593484B1B881B0443F02B
:104340000100069B9B691A464549FEF733FA434B29
:104350001B881B0443F00100069B1968069B5C68E0
:10436000069B9B68069AD2680192009323460A46F0
:104370003C49FEF75AFA394B1B881B0443F00100F5
:10438000069B1A69069B5969069BDB6900930B46DD
:104390003549FEF734FA304BDB6A03F00203002B99
:1043A00008D02E4B1B881B0443F001032F491846ED
:1043B000FEF7F2F9002307931EE00122079B02FAA1
:1043C00003F31A46059B1340002B12D0284A079B83
:1043D00052F82330002B0CD0204B1B881B0443F0D9
:1043E0000100234A079B52F823301A462149FEF761
:1043F000E1F9079B01330793079B192BDDD9059B37
:1044000003F08003002B0AD0144B1B881B0443F0DD
:104410000103114A526B18491846FEF7CBF9059B68
:1044200003F40043002B0AD00C4B1B881B0443F001
:104430000103094A926B11491846FEF7BBF9104B6C
:104440001B6803F00103002B00D0FFDE0398FFF789
:1044500059FF00BF08B010BD00ED00E0A40B002024
:10446000187B0100307B0100687B0100907B01001C
:10447000E00B0020D47B0100E07B0100007C010008
:10448000F0ED00E000B585B003460091ADF80630D0
:10449000BDF80630ADF80830009B039302AB1A4616
:1044A000002144F20200FEF749FF00BF05B05DF8AD
:1044B00004FB000000B583B001900B468DF803307B
:1044C000019B002B03D10849AF20FFF7DBFF019BC5
:1044D000DA689DF803300199098A01FB03F313445C
:1044E000184603B05DF804FBF880010000B583B006
:1044F00001900091019B002B03D10849BC20FFF7DC
:10450000C1FF009B019AD2689B1A019A128AB3FBE1
:10451000F2F3DBB2184603B05DF804FBF88001004B
:1045200000B585B00190019B002B01D10E2348E01E
:10453000019B1B68002B03D12449C620FFF7A2FF73
:10454000019B5B68002B03D12049C720FFF79AFF2E
:10455000019B9B68002B03D11C49C820FFF792FFE9
:10456000019BDB68002B03D11849C920FFF78AFFA4
:10457000019B1B8A002B03D11449CA20FFF782FF3D
:10458000019B9A68019B5B68D31A8DF80F30019BE1
:104590001B68019A52681A6007E0019B1A68136849
:1045A000591C11609DF80F201A709DF80F305A1E8B
:1045B0008DF80F20002BF0D1019B1B6800221A718F
:1045C0000023184605B05DF804FB00BFF880010029
:1045D00000B585B00190019B002B03D11F49EC2051
:1045E000FFF750FF0023039300238DF80A300DF1ED
:1045F0000A031846FFF7E4FD019B1B681A68019B3C
:104600005B689A421FD9019B1B681A68013A1A60BD
:104610001B681B7819460198FFF74CFF0390019B1C
:104620009A68019B1B681B68D31A8DF80B30019B9D
:104630001B681B799DF80B209A4204D9019B1B68CB
:104640009DF80B201A719DF80A301846FFF7CEFD31
:10465000039B184605B05DF804FB00BFF88001001D
:1046600010B584B001900091019B002B04D1154935
:104670004FF48870FFF706FF009B002B04D111490F
:1046800040F21110FFF7FEFE009B039300238DF80C
:104690000B300DF10B031846FFF792FD019B1B68D1
:1046A0001C68621C1A6003990198FFF71FFF0346FC
:1046B00023709DF80B301846FFF798FD00BF04B03B
:1046C00010BD00BFF880010010B487B001900091C8
:1046D000019B009A53E8004F04EB020043E80001FD
:1046E00091F0000FF6D1059404900391049B1846B5
:1046F00007B05DF8044B704710B487B0019000918B
:10470000019B009A53E8004FA4EB020043E800012C
:1047100091F0000FF6D1059404900391049B184684
:1047200007B05DF8044B704700B583B00190019865
:10473000FFF7F6FE0346184603B05DF804FB00B52C
:104740008BB001900091019B1B8A043B0793009A58
:10475000079B1344DA1C079BB2FBF3F38DF81B3065
:104760000198FFF735FF0590059B002B01D1002331
:1047700038E0059B00221A71059B01225A71079BA4
:104780009AB2059BDA80059B09939DF81B30013B8B
:104790000493099B019A1A60002308931DE0019875
:1047A000FFF716FF0390039B002B0ED0059B5B7950
:1047B0000133DAB2059B5A71099B039A1A60039B75
:1047C000019A1A60039B099304E0059800F00EF823
:1047D000002307E0089B01330893089A049B9A4240
:1047E000DDD3059B18460BB05DF804FB00B58BB01C
:1047F0000190019B0793079B5B798DF81B30019B10
:1048000008939DF81B30013B05930023099305E0B5
:10481000089B1B680893099B01330993099A059B20
:104820009A42F5D3089B1B680493019B08930023CD
:1048300009930BE0089B1B68039308990498FFF702
:104840000FFF039B0893099B013309939DF81B30CD
:10485000099A9A42EED300BF00BF0BB05DF804FB8B
:1048600000B585B00190019B0393039B04330121A4
:104870001846FFF729FF00BF05B05DF804FB00B53F
:1048800087B00190019B0593059B043301211846D5
:10489000FFF732FF0346039303AB0493049B1B789B
:1048A000002B02D10198FFF7A1FF00BF07B05DF810
:1048B00004FB000000B58DB00390029101920093BB
:1048C000039B0693069BDB880593039B0B93009B3E
:1048D0001A1D059BB2FBF3F30A93009B0433059A60
:1048E000B3FBF2F2059901FB02F29B1A0993009ABD
:1048F000019B1A44059B1344DA1C059BB2FBF3F39E
:104900008DF81330069B5B799DF813209A420AD9E3
:104910002849BA20FFF7B6FD05E00B9B1B680B93F7
:104920000A9B013B0A930A9B002BF6D100230893B4
:10493000059A099BD31A0793079A019B934228BFB4
:10494000134607932DE09DF83830002B0BD0029AC8
:10495000089BD0180B9A099B13440433079A1946F5
:1049600002F009FF0AE00B9A099B1344181D029AF2
:10497000089B1344079A194602F0FDFE0023099391
:104980000B9B1B680B93019A079BD31A0193089A00
:10499000079B13440893059A019B934228BF134633
:1049A0000793019B002BCED100BF00BF0DB05DF877
:1049B00004FB00BF4081010000B587B00590049161
:1049C0000392029300230093029B039A0499059893
:1049D000FFF770FF00BF07B05DF804FB82B003462D
:1049E0008DF807309DF8073003F01F0206499DF946
:1049F00007305B09012000FA02F2603341F82320FE
:104A000000BF02B0704700BF00E100E000B583B016
:104A10000190019B002B03D106497220FFF732FD64
:104A2000019B00221A60BFF35F8F00BF00BF03B07D
:104A30005DF804FBF081010041DF704700BF1846BC
:104A400000B585B000238DF803300DF1030318463F
:104A5000FFF7B6FBF1EE103A0193019B0393039B22
:104A600023F09F030293029BE1EE103A00BFBFF3D5
:104A70005F8F00BF2620FFF7B1FF9DF80330184677
:104A8000FFF7B4FB039B03F00703002B03D004499B
:104A90007620FFF7F7FC00BF05B05DF804FB00BF10
:104AA0003882010000B583B00190019B1B681F2B69
:104AB00004D905494FF4E870FFF7E4FC4FF0A04338
:104AC000184603B05DF804FB8482010000B585B090
:104AD0000190084611461A4603468DF803300B46EE
:104AE0008DF8023013468DF8013001AB1846FFF700
:104AF000D9FF03909DF803209DF802305B001A4314
:104B00009DF801309B001A439DF818301B0242EAC1
:104B100003019DF81C301B04019A1943039B02F505
:104B2000E07243F8221000BF05B05DF804FB00B549
:104B300085B00390002301930023009300230122FA
:104B400001210398FFF7C2FF00BF05B05DF804FB29
:104B500000B585B0019001AB1846FFF7A3FF0390A5
:104B6000019B012202FA03F31946039800F018F89A
:104B700000BF05B05DF804FB00B585B0019001AB46
:104B80001846FFF78FFF0390019B012202FA03F3FF
:104B90001946039800F00EF800BF05B05DF804FB5D
:104BA00082B001900091019B009AC3F8082500BFD4
:104BB00002B0704782B001900091019B009AC3F847
:104BC0000C2500BF02B0704708B51820FFF7D4FFCE
:104BD0001820FFF7ACFF00BF08BD000008B5FFF7C5
:104BE0003CFB0346052B04D806494FF48970FFF7B8
:104BF00049FC054B1B69044A43F01003136100BFD5
:104C000008BD00BF3882010000ED00E008B5084B88
:104C100000221A700748FFF7F9FE0749074800F01D
:104C200049F8FFF7DBFFFFF7CFFF0023184608BD69
:104C3000C4120020C0120020C0820100C81200204F
:104C400000B583B0FFF7FCFE00238DF803300DF1B3
:104C500003031846FFF7B4FA1820FFF779FF02F0B4
:104C60007FFC0346002B0ED0FFF7E6FE0190019B70
:104C7000002B0ED0019B022B0BD00C4940F2591097
:104C8000FFF700FC05E020BF00BF40BF00BF20BF12
:104C900000BF1820FFF770FF9DF803301846FFF79C
:104CA000A5FA00BF03B05DF804FB00BF3882010025
:104CB00000BF704700B583B001900091019B002BAD
:104CC00003D110495020FFF7DDFB009B002B03D1DF
:104CD0000C495120FFF7D6FB019B009A1A60019BFB
:104CE0001B681A68019B5A60019B5A68019B1B68EC
:104CF0005B689A4202D1019B00225A6000BF03B058
:104D00005DF804FBCC82010000B583B00190019BEB
:104D1000002B03D114496320FFF7B4FB019B1B68F0
:104D2000002B03D110496420FFF7ACFB019B5B68AB
:104D3000002B14D0019B5B681A46019B1B689B6883
:104D400013441A46019B5A60019B5A68019B1B68D9
:104D50005B689A4204D1019B00225A6000E000BFC8
:104D600003B05DF804FB00BFCC82010000B585B044
:104D70000190019800F00EF80390039B002B01D0E6
:104D8000039B00E0024B184605B05DF804FB00BF32
:104D90003083010086B00190164B0593164B0493A7
:104DA0001FE0049A059BD31ADB10DA0F13445B1043
:104DB000DB00059A13440393039B1B680293029A3A
:104DC000019B9A4202D9039B04930AE0029A019B39
:104DD0009A4203D2039B0833059302E0039B5B686E
:104DE00004E0059A049B9A42DBD30023184606B0E0
:104DF000704700BF4C8601003C87010082B003462B
:104E00008DF807309DF8073003F01F0205499DF922
:104E100007305B09012000FA02F241F8232000BFAD
:104E200002B0704700E100E082B003468DF8073021
:104E30009DF8073003F01F0206499DF907305B0912
:104E4000012000FA02F2603341F8232000BF02B0D3
:104E5000704700BF00E100E082B0034600918DF88A
:104E600007309DF90730002B0CDA009BDAB20C49B1
:104E70009DF8073003F00F03043B5201D2B20B44FC
:104E80001A7609E0009BDAB206499DF90730520113
:104E9000D2B20B4483F8002300BF02B0704700BFBA
:104EA00000ED00E000E100E000B583B003460A46F3
:104EB0008DF8073013468DF806309DF80630012B2B
:104EC00003D99DF80630032B0CD99DF80630042B2E
:104ED00003D99DF80630072B04D90D494FF4927081
:104EE000FFF7D0FA9DF806209DF9073011461846C5
:104EF000FFF7B2FF9DF907301846FFF795FF9DF9C0
:104F000007301846FFF77AFF00BF03B05DF804FBD7
:104F10003C87010000B583B00346ADF80630BDF80C
:104F20000630184600F026F803461B68012B0CBF1C
:104F300001230023DBB2184603B05DF804FB00B583
:104F400085B00346ADF80630BDF80630184600F0CF
:104F500011F803461A4600231360BDF806301846C0
:104F600000F008F803461B680393039B00BF05B0DD
:104F70005DF804FB82B00346ADF80630BDF806309C
:104F800003F1804303F5C043184602B070470000A8
:104F900082B00190034A019BC2F8043300BF02B003
:104FA000704700BF0060004082B00190034BD3F80F
:104FB0000423019B1340184602B070470060004074
:104FC00082B00190084A019B03F5A27352F8233086
:104FD000054943F00102019B03F5A27341F8232028
:104FE00000BF02B0704700BF0060004084B0039073
:104FF000029113468DF80730144A039B03F5A27300
:1050000052F82330114923F4473323F44073039AB1
:1050100002F5A27241F822300C4A039B03F5A273F9
:1050200052F82320029B1B0203F4F8519DF807302D
:105030001B0403F440330B4304491A43039B03F559
:10504000A27341F8232000BF04B070470060004005
:1050500082B00190054A019B03F5A27352F82330F8
:105060001B0A03F01F03184602B07047006000409F
:1050700082B00190064A019B03F5A27352F82330D7
:105080001B0C03F00303DBB2184602B0704700BFED
:105090000060004000B583B00190019B1B681F2B8E
:1050A00004D905494FF4E870FFF7ECF94FF0A0433D
:1050B000184603B05DF804FB8C87010000B585B08D
:1050C0000190084611461A4603468DF803300B46F8
:1050D0008DF8023013468DF8013001AB1846FFF70A
:1050E000D9FF03909DF803209DF802305B001A431E
:1050F0009DF801309B001A439DF818301B0242EACC
:1051000003019DF81C301B04019A1943039B02F50F
:10511000E07243F8221000BF05B05DF804FB00B553
:1051200085B003900B468DF80B309DF80B300022B4
:10513000019200220092002200210398FFF7BEFF97
:1051400000BF05B05DF804FB00B585B0019001AB70
:105150001846FFF79FFF0390019A039B02F5E07248
:1051600053F8223023F002030293019A039B02F5C5
:10517000E072029943F8221000BF05B05DF804FB0D
:1051800000B585B001900B468DF8033001AB184691
:10519000FFF780FF0390019A039B02F5E07253F83A
:1051A0002230019A23F44031039B02F5E07243F868
:1051B0002210019A039B02F5E07253F822309DF809
:1051C000032012041146019A1943039B02F5E07271
:1051D00043F8221000BF05B05DF804FB00B585B0B0
:1051E000019001AB1846FFF755FF0390039800F0BC
:1051F00020F80246019B22FA03F303F0010318464C
:1052000005B05DF804FB00B585B0019001AB184610
:10521000FFF740FF0390019A039B02F5E07253F8F9
:1052200022301B0C03F00303DBB2184605B05DF817
:1052300004FB82B00190019BD3F81035184602B0F0
:105240007047000000B587B00390029101924FF0C3
:10525000A0430493039A029B1344012B04D91249DF
:105260004FF43A70FFF70EF9039B059311E0059B8D
:105270009B0006AA134453F8083C1846FFF7D9FFD1
:105280000246019B1A60019B04330193059B013385
:105290000593039A029B1344059A9A42E7D300BFF1
:1052A00000BF07B05DF804FB8C87010084B001905B
:1052B0000091009B0393019BDB080293019B03F089
:1052C000070301930122019B02FA03F30399029A57
:1052D0000A4412781340184604B0704784B0019015
:1052E0000091009B0393019BDB080293019B03F059
:1052F00007030193039A029B13441B785AB20121BE
:10530000019B01FA03F35BB2134359B2039A029B68
:105310001344CAB21A7000BF04B0704782B0019043
:105320000C4A019B1344303393F90030002B09DB06
:10533000084A019B1344303393F90030072B01DCFA
:10534000012300E0002303F00103DBB2184602B0A2
:10535000704700BFD012002082B00190064A019B26
:105360001344303393F90030072BCCBF01230023C3
:10537000DBB2184602B07047D012002082B0019014
:10538000064A019B1344303393F90030DB43DBB210
:10539000DB09DBB2184602B0704700BFD012002014
:1053A00084B00390029101928DF80330029B59B2B0
:1053B0000E4A039B134430330A461A700B49029B72
:1053C000019A41F823209DF8033083F00103DBB2FA
:1053D000002B08D0029B083B039A51B2034A1344A6
:1053E0000A4683F8502000BF04B07047D012002056
:1053F00082B00190044A019B13443033FF221A709B
:1054000000BF02B0704700BFD012002082B00190F0
:10541000044A019B1344303393F90030184602B01C
:10542000704700BFD012002082B00190034A019B58
:1054300052F82330184602B0704700BFD012002047
:1054400000B589B00390029113468DF80730FF2311
:105450008DF81F309DF80730002B01D0002300E0AD
:10546000082305939DF80730002B01D0082300E0A6
:105470000C230493059B069314E00F4A069B52F8F5
:105480002330B3F1FF3F0AD19DF80730029A069905
:105490000398FFF785FF069B8DF81F3006E0069BFB
:1054A00001330693069A049B9A42E6D39DF91F3076
:1054B000184609B05DF804FBD012002082B0034604
:1054C0008DF807309DF80730094A4FF0FF3142F858
:1054D00023109DF80730072B07D99DF80730083BAC
:1054E000034A1344FF2283F8502000BF02B07047E4
:1054F000D012002000B583B0214B93F85430002B1C
:1055000003D008230093009B36E000238DF807307A
:1055100009E09DF807301846FFF76AFF9DF807304D
:1055200001338DF807309DF807301F2BF1D9002388
:105530008DF8073009E09DF807301846FFF7BEFFE9
:105540009DF8073001338DF807309DF807300B2B9D
:10555000F1D907210620FFF7A7FC4FF4BE70FFF733
:10556000EEFC4FF00040FFF713FD054B012283F8DE
:10557000542000230093009B184603B05DF804FB01
:10558000D0120020044B93F85430002B14BF012399
:105590000023DBB218467047D012002000B587B058
:1055A000039002910192039B1F2B04D92B4940F2D7
:1055B000F710FEF767FF002305930398FFF7DEFE61
:1055C0000346002B02D00823059341E0029BDB78C1
:1055D0001A4601990398FFF733FF03468DF81330FD
:1055E0009DF91330B3F1FF3F30D0029B9B78002B25
:1055F00003D00398FFF7A8FD05E0029B5B781946EE
:105600000398FFF78CFD029BDB78002B08D09DF9F7
:105610001300029B1B781A460399FFF7E7FC17E07B
:105620009DF91330083B0E4A134493F95010029B26
:105630001B789B015AB29DF91330083B0A4351B2C3
:10564000074A13440A4683F8502001E004230593D7
:10565000059B184607B05DF804FB00BFD08701002A
:10566000D012002000B589B001900B468DF80330B0
:10567000019B1F2B04D93D4940F22520FEF702FF74
:105680000198FFF77BFE0346002B04D1374940F217
:105690002620FEF7F7FE0198FFF75EFE0346002B7B
:1056A0002FD00198FFF7B2FE0346083B304A13445F
:1056B00093F950308DF80F309DF80F309B098DF81D
:1056C0000E309DF80E30032B0BD10198FFF786FDAD
:1056D0000346002B01D0032300E002238DF81F3086
:1056E00008E09DF80E30012B01D1022300E00323D6
:1056F0008DF81F309DF81F3019460198FFF740FDC7
:1057000030E00198FFF70AFE0346002B2AD00198EB
:10571000FFF77CFE03460693069B9BB240339BB289
:105720009B00ADF81630069B1846FFF749FCBDF804
:1057300016301846FFF703FC9DF80330002B11D0FC
:105740000198FFF763FE03461846FFF76DFE0490CD
:10575000049B002B06D00122069B02FA03F3184695
:10576000FFF716FC00BF09B05DF804FBD08701000D
:10577000D012002000B583B00190019B1F2B04D9EB
:10578000084940F27220FEF77DFE0198FFF726FDE2
:105790000346002B14BF01230023DBB2184603B0DD
:1057A0005DF804FBD087010000B595B0002310938D
:1057B000002303934FF48073ADF84C300123129310
:1057C00000230F9321E0BDF84C301846FFF7A2FBF1
:1057D0000346002B0ED01298FFF7E6FB0346002B82
:1057E00008D0BDF84C301846FFF7A9FB109A129B61
:1057F00013431093129B5B001293BDF84C3004339B
:10580000ADF84C300F9B01330F930F9B072BDAD968
:105810004FF4BE70FFF77EFB0346002B0DD04FF414
:10582000BE70FFF78CFB109B43F00043109303AB5B
:105830001A4601210020FFF705FD109BDBB2002B6B
:1058400029D00123129300230F9321E0129A109B79
:105850001340002B16D00F98FFF7FAFB0D900F980E
:10586000FFF706FC03468DF833300F98FFF7DCFD99
:105870000B900B9B002B05D09DF833200B9B114602
:105880000D989847129B5B0012930F9B01330F9367
:105890000F9B072BDAD9109B002B80F2EE800023A0
:1058A0008DF84F3000230293002311930AE0119BDF
:1058B0009B0014AA13444FF0FF3243F84C2C119B69
:1058C00001331193119B002BF1D000238DF84F3041
:1058D00000230F9378E06B4A0F9B1344503393F9E6
:1058E00000308DF82B309DF82B3023F0C003099346
:1058F000644A0F9B1344503393F90030B3F1FF3FD8
:105900005FD001AB19460998FFF7D0FC0346002B86
:1059100057D09DF82B309B098DF823300998FFF75D
:1059200075FD03461846FFF77FFD0790079B002B88
:1059300003D19DF82330032B43D19DF82330032B53
:1059400004D102AB19460998FFF7C8FC0998FFF784
:105950005AFC03468DF81B3003AB19460998FFF734
:10596000A5FC0590059B002B03D09DF81B30022B56
:1059700006D0059B002B24D19DF81B30032B20D192
:105980009DF82330032B13D19DF81B30022B01D13E
:10599000032300E002238DF813309DF813301946DD
:1059A0000998FFF7EDFB9DF84F3001338DF84F302C
:1059B000079B002B05D09DF82320079B11460998D3
:1059C00098470F9B01330F930F9B032B83D99DF8AF
:1059D0004F30002B4CD001238DF83B306B461A46DC
:1059E00001210020FFF72EFC0023119314E0119BEE
:1059F0009B0014AA134453F8502C119B9B0014A92C
:105A00000B4453F8443C9A4203D000238DF83B30BA
:105A100005E0119B01331193119B002BE7D09DF8FA
:105A20003B30002B03D000238DF84F3020E00023C3
:105A300011931AE0119B9B0014AA134453F8502CA5
:105A4000119B9B0014A90B4443F8442C119B9B0011
:105A500014AA134453F8482C119B9B0014A90B441F
:105A600043F84C2C119B01331193119B002BE1D077
:105A70009DF84F30002B7FF428AF00BF15B05DF8C4
:105A800004FB00BFD012002084B001900B46ADF89B
:105A90000230BDF80230019A134400221A60BDF8AA
:105AA0000230019A13441B680393039B00BF04B0A8
:105AB000704782B001900B46ADF80230BDF802305D
:105AC000019A13441B68002B14BF01230023DBB28F
:105AD000184602B0704782B001900091019BD3F844
:105AE0000423009B1340002B14BF01230023DBB2CF
:105AF000184602B0704782B001900091019B009A55
:105B0000C3F8082300BF02B0704784B00190019B26
:105B1000D3F880340393019B039AC3F88024039B3A
:105B2000184604B0704782B00190019BD3F8183535
:105B3000DBB2184602B0704782B001900B468DF878
:105B400003309DF80320019BC3F81C2500BF02B061
:105B5000704782B001900B468DF803309DF80330FA
:105B6000019A134401221A6000BF02B0704784B04A
:105B700001900B46ADF80230BDF80230019A134493
:105B800000221A60BDF80230019A13441B68039387
:105B9000039B00BF04B0704782B001900B46ADF884
:105BA0000230BDF80230019A13441B68002B14BF69
:105BB00001230023DBB2184602B0704782B0019087
:105BC0000091019BD3F80022009BDB431A40019B0C
:105BD000C3F8002200BF02B0704784B00190019B5F
:105BE000D3F880340393019B039AC3F88024039B6A
:105BF000184604B0704782B00190019BD3F84C3531
:105C0000184602B0704782B00190019BD3F83C3532
:105C1000184602B0704700B585B0019000914FF46E
:105C20008E710198FFF730FF009B9B68009A928A63
:105C300092B213441B788DF80F30009B9B8A9BB265
:105C400001339AB2009B9A829DF80F301946019851
:105C5000FFF772FF00BF05B05DF804FB10B582B01E
:105C600001900091009BDB7D002B08D14FF48471E3
:105C70000198FFF709FF0198FFF755FF16E04FF471
:105C800084710198FFF700FF009BDB68009A527E49
:105C9000D2B29C180198FFF746FF03462370009B81
:105CA0005B7EDBB20133DAB2009B5A7602B010BDE4
:105CB00000B589B003900B4601928DF80B3001239B
:105CC0008DF810309DF80B308DF81830019B05933E
:105CD000039B5B68039A116804AA1046984700BFAB
:105CE00009B05DF804FB00B587B001900B468DF854
:105CF000033000238DF808309DF803308DF8103004
:105D0000019B9B680393019B00229A75019B5B6832
:105D1000019A116802AA1046984700BF07B05DF8C3
:105D200004FB00B589B0019000914FF40071019817
:105D3000FFF7D1FE0346002B39D04FF49271019842
:105D4000FFF7B7FE0346002B31D04FF49271019854
:105D5000FFF79AFE4FF401710198FFF7CCFE009B0C
:105D60009B7E83F00103DBB2002B03D0042101985A
:105D7000FFF7EFFE02238DF808300198FFF7C5FE0C
:105D800003460593009BDB7D8DF81030009BDB689C
:105D90000393009B0022DA75009B00221A76009B79
:105DA0005B68009A116802AA1046984756E00421E1
:105DB0000198FFF790FE0346002B4FD04FF48471FB
:105DC0000198FFF776FE0346002B47D00099019813
:105DD000FFF744FF009BDA7D009B5B7EDBB29A42BB
:105DE0003CD1009B1B7E002B1CD0009BDB680793E3
:105DF000009B5B7E8DF81B30009B1A7E009BDA7542
:105E0000009B1A69009BDA60009B00221A76009BB7
:105E100000225A769DF81B30079A19460098FFF722
:105E200047FF1BE0009B9B7E83F00103DBB2002B4E
:105E300003D004210198FFF78CFE4FF40171019803
:105E4000FFF759FE009B0022DA75009B5B7ED9B2FA
:105E5000009BDB681A460098FFF72AFF4FF48E710B
:105E60000198FFF726FE0346002B1BD0009B9B8A60
:105E70009AB2009B9B7D9BB29A4204D200990198F2
:105E8000FFF7C9FE0EE04FF48E710198FFF7FCFD9D
:105E9000009B9B7D002B05D0009B9B7D19460098A5
:105EA000FFF721FF4FF4A2710198FFF702FE0346AE
:105EB000002B1CD04FF4A2710198FFF7E5FD009B69
:105EC0009B7E002B03D000210198FFF742FE009B30
:105ED000DB7D002B0BD0009B0022DA75009B5B7EE4
:105EE000D9B2009BDB681A460098FFF7E1FE00BFBD
:105EF00009B05DF804FB00B589B0019000914FF442
:105F000092710198FFF748FE0346002B24D04FF40E
:105F100092710198FFF72BFE02238DF8083001984B
:105F2000FFF75BFE034605930198FFF76CFE0346FF
:105F3000DBB28DF81030009BDB680393009B0022DE
:105F4000DA75009B00221A76009B5B68009A116844
:105F500002AA1046984741E04FF488710198FFF774
:105F60001BFE0346002B39D04FF488710198FFF7D0
:105F7000FEFD0198FFF747FE03468DF81F30009B9A
:105F8000DB7D9DF81F209A4228D1009B1B7E002BB1
:105F900019D0009BDB68069320210198FFF70EFEC5
:105FA000009B1A7E009BDA75009B1A69009BDA60E1
:105FB000009B00221A769DF81F30069A1946009819
:105FC000FFF776FE0AE0009B0022DA75009BDA6894
:105FD0009DF81F3019460098FFF76AFE4FF4A27132
:105FE0000198FFF7D9FD0346002B16D04FF4A2719C
:105FF0000198FFF7BCFD009BDB7D002B0DD0009BC3
:106000000022DA750198FFF7FEFD0346D9B2009B26
:10601000DB681A460098FFF74BFE4FF49071019829
:10602000FFF7BAFD0346002B11D04FF49071019891
:10603000FFF79DFD009B9B7D002B08D00198FFF78B
:10604000DAFD0346DBB219460098FFF74CFE00BFAD
:1060500009B05DF804FB000008B5074B1B7F002B5F
:1060600004D005490548FFF746FF03E0024903480D
:10607000FFF757FE00BF08BD281300200020004096
:10608000C2DF704700BF1846CDDF704700BF18461B
:10609000D1DF704700BF1846D3DF704700BF1846F6
:1060A00000B585B00190019B1878019B5978019B40
:1060B0009A7A019B9B78FFF7E3FF0390039B002BE9
:1060C00001D0039B31E0019B1878019BD988019B8B
:1060D0005A79019B1B79FFF7DFFF0390039B002B8D
:1060E00001D0039B21E0019B1A78019BDB781946C4
:1060F0001046FFF7C9FF0390039B002B01D0039BC1
:1061000013E0019B9B7803F00103002B0CD1019B52
:106110001B89002B08D0019B1A78019B1B8919460B
:106120001046FFF7B5FF0390039B184605B05DF8D6
:1061300004FB000000B587B003460A468DF807301F
:1061400013468DF8063000238DF817300023049392
:106150009DF807301846FCF711FF0490049B032BB1
:1061600061D89DF80630022B52D0022B5EDC002B4A
:1061700031D0012B5AD13649049A13465B0013449F
:106180000B441B788DF817303149049A13465B0095
:1061900013440B4401331B78002B0ED02D4B2E4A99
:1061A0004FF400411846FDF71FFF0390039B002B9F
:1061B00003D1294A9DF8073013702549049A1346E4
:1061C0005B0013440B4402331978244A049B1344A4
:1061D0000A461A702AE01F4B1846FDF737FF1F4A80
:1061E000049B134419781A48049A13465B0013441D
:1061F000034402331B78994217D11549049A134678
:106200005B0013440B4402331B788DF817300CE00D
:106210000F49049A13465B0013440B4401331B7867
:106220008DF8173002E000BF00E000BF9DF8173086
:10623000002B09D00A4B1B68002B05D0084B1B68AC
:106240009DF817201046984700BF07B05DF804FB83
:1062500098130020A4130020C4130020C8130020AA
:106260009413002000B583B00190019B1B7802219C
:106270001846FFF75FFF00BF03B05DF804FB0000A6
:1062800000B583B00C4B1B78002B0FD0002301937B
:1062900008E0019B022B02D00198FCF7FBFD019B5B
:1062A00001330193019B032BF3D901E0FCF70CFEB2
:1062B00000BF03B05DF804FB501300202DE9D04F60
:1062C00092B003468DF83F300023119300231093C2
:1062D000C94B1B78002B04D0C74A00231370FFF76B
:1062E000CFFF9DF83F30172B00F2398201A252F800
:1062F00023F000BF55630100636301006363010085
:10630000FF6301009B64010017650100AB6501009C
:10631000CB650100DB650100056601002366010015
:10632000416601005F6601006D6601006D66010057
:106330006D6601006D6601006D6601000167010078
:106340000F670100236701003767010051670100F3
:1063500051670100FFF794FFA84A9DF83F30137082
:10636000FEE10020FCF74EFD0346002B0DD000207F
:10637000FCF790FD9DF83F30022B02D14FF4E16312
:1063800001E04FF47A6310930BE00020FCF768FD06
:106390009DF83F30022B01D1C82301E04FF4C873B0
:1063A0001093964A9DF83F301370954C109B002235
:1063B000009301924FF000024FF00003DDE9006707
:1063C0003946CB03314643EA51433146CA0312F5FD
:1063D000FA71029143F1000303934FF47A724FF084
:1063E0000003DDE9020101F05FF902460B461346A6
:1063F000002219462046FDF7F7FD1190B0E100207C
:10640000FCF700FD0346002B0DD00020FCF742FDF9
:106410009DF83F30032B02D14FF4487301E04FF455
:106420007A6310930BE00020FCF71AFD9DF83F30D3
:10643000032B01D1C82301E04FF4C87310936F4AB6
:106440009DF83F3013706E4C109B00220493059210
:106450004FF000024FF00003DDE904673946CB033B
:10646000314643EA51433146CA0312F5FA710691A7
:1064700043F1000307934FF47A724FF00003DDE914
:10648000060101F011F902460B4613460022194697
:106490002046FDF7A9FD119062E10020FCF7B2FC57
:1064A0000346002B06D00020FCF7F4FC4FF47A637F
:1064B000109305E00020FCF7D3FC4FF4C873109351
:1064C0004E4A9DF83F3013704D4C109B00229A4667
:1064D00093464FF000024FF000034FEACB3343EAFC
:1064E0005A434FEACA3212F5FA71089143F1000398
:1064F00009934FF47A724FF00003DDE9080101F0CF
:10650000D3F802460B461346002219462046FDF7F3
:106510006BFD119024E10020FCF774FC0346002B76
:106520000CD00020FCF7B6FC9DF83F30052B01D1C4
:10653000C82301E04FF47A6310930BE00020FCF7CE
:106540008FFC9DF83F30052B01D1C82301E04FF4AB
:10655000C8731093294A9DF83F301370284C109B44
:106560000022984691464FF000024FF000034FEA98
:10657000C93343EA58434FEAC83212F5FA710A9117
:1065800043F100030B934FF47A724FF00003DDE9FF
:106590000A0101F089F802460B461346002219460B
:1065A0002046FDF721FD1190DAE00020FCF7B2FC57
:1065B000124A9DF83F301370114B002240F6CD4136
:1065C0001846FDF711FD1190CAE00020FCF748FCC9
:1065D0000A4A9DF83F301370C2E0074B01221A703F
:1065E0000120FCF797FC064B002240F6CD411846EF
:1065F000FDF7FAFC1190B3E0491300204813002086
:1066000054130020594B01221A700120FCF782FC20
:10661000574B00224FF480411846FDF7E5FC1190DE
:106620009EE0524B01221A700120FCF773FC504B84
:10663000002240F6CD411846FDF7D6FC11908FE0C0
:106640004A4B01221A700120FCF764FC484B0022DF
:106650004FF480411846FDF7C7FC119080E0FCF72D
:1066600046FC444A9DF83F30137079E0424B18468F
:10667000FDF7ECFC11909DF83F30C3F1110310932E
:10668000109B002B35D0119B002B32D1109B012B7E
:1066900028D9394C109B9BB21A46C82302FB03F33E
:1066A000DA171E4617464FF000024FF00003FB03B7
:1066B00043EA5643F20312F5FA710C9143F10003D9
:1066C0000D934FF47A724FF00003DDE90C0100F0F6
:1066D000EBFF02460B461346002219462046FDF703
:1066E00083FC11900220FCF7BBFB244B01221A70A3
:1066F00036E00220FCF7CEFB204B00221A702FE080
:10670000FFF7BEFD1B4A9DF83F30137028E0FFF7EE
:10671000B7FD0020FCF7A4FB164A9DF83F3013702C
:106720001EE0FFF7ADFD0120FCF79AFB114A9DF832
:106730003F30137014E0FFF7A3FD0020FCF790FB3F
:106740000120FCF78DFB0B4A9DF83F30137007E0EA
:10675000FCF7CDFB074A9DF83F30137000E000BF07
:10676000119B184612B0BDE8D08F00BF491300201E
:1067700054130020481300207413002050130020ED
:1067800000B583B00190074B1B6803F00103002B99
:1067900004D0054B1B781846FFF790FD00BF03B0EF
:1067A0005DF804FB4C1300204813002000B583B0B3
:1067B00001900220FCF7AEFB00BF03B05DF804FBC4
:1067C00000B585B003468DF8073000230393084BCE
:1067D0001B6803F00103002B05D09DF80730184615
:1067E000FFF76CFD0390039B184605B05DF804FBB2
:1067F0004C13002000B585B0019000910023039355
:10680000294A019B1360294A009B1360019B03F0F6
:106810000203002B2AD00023029308E00122012169
:10682000029800F053F80390029B01330293029BFD
:10683000032B02D8039B002BF0D0039B002B06D127
:1068400040F2666204211A48FCF774FC0390039B33
:10685000002B02D1FCF7E0FC0390039B002B05D139
:10686000144A00211448FDF78FFB0390019B03F0AD
:106870000103002B01D0FCF767FB039B002B05D124
:106880000E4A00210E48FDF77FFB0390039B002B6F
:1068900005D10C4A01210C48FDF776FB0390039BC0
:1068A000184605B05DF804FB4C130020941300203B
:1068B000BC88010065620100B888010081670100A1
:1068C000B0880100AD670100B488010084B0019078
:1068D0000B468DF8033013468DF8023000230393E6
:1068E000019B032B3CD89DF80230012B0BD19DF866
:1068F0000330012B04D1019BDBB20E33DBB200E08D
:1069000000238DF802309DF80330022B0FD0022BAC
:1069100023DC002B16D0012B1FD11449019A1346FA
:106920005B0013440B449DF802201A701AE00F49D3
:10693000019A13465B0013440B4401339DF8022077
:106940001A700FE00949019A13465B0013440B4487
:1069500002339DF802201A7004E00723039301E03C
:1069600007230393039B184604B070479813002035
:10697000C4DF704700BF1846C7DF704700BF184626
:1069800000B585B06B4608220021184600F01CFFB8
:106990000F4B1B788DF807306B461A4608210020F4
:1069A000FFF7EAFF0390039B0293029B002B04D0A6
:1069B000084A64210298FCF75BFC054B1B78013305
:1069C000DAB2034B1A7000BF05B05DF804FB00BFDC
:1069D000480C0020DC88010000B585B001900091D2
:1069E000FEF766F9019B93F82C30002B15D1019B23
:1069F00093F82D30032B12D1FFF7C2FF0820FFF7C9
:106A0000DFFE0390039B0293029B002B09D0074AF1
:106A10007C210298FCF72CFC03E000BF02E000BFE1
:106A200000E000BF00BF05B05DF804FBDC8801009A
:106A300000B587B00020FBF7CDFC0590059B0493C3
:106A4000049B002B04D0194A8C210498FCF710FCFD
:106A5000FDF766FA0590059B0393039B002B04D07A
:106A6000124A8F210398FCF703FC00210120FFF755
:106A7000C1FE0590059B0293029B002B04D00B4A9C
:106A800093210298FCF7F4FBFEF7C0F80590059BF4
:106A90000193019B002B04D0044A96210198FCF736
:106AA000E7FB00BF07B05DF804FB00BFDC88010016
:106AB00000B585B000F00EFD0390039B0293029B8E
:106AC000002B04D00F4A9E210298FCF7D1FB00F066
:106AD00047FD0346002B03D10A49A020FDF7D2FC55
:106AE00000F08CFD0390039B0193019B002B04D0CD
:106AF000044AA3210198FCF7BBFB00BF05B05DF879
:106B000004FB00BFDC88010000B587B0144A6B4667
:106B100007CA83E807006B461846FFF7C1FA0590DD
:106B2000059B0493049B002B04D00E4AB8210498C3
:106B3000FCF79EFBFFF724FF00210020FFF718FF62
:106B40000590059B0393039B002B04D0054ABF21AE
:106B50000398FCF78DFB00BF07B05DF804FB00BF96
:106B600020890100DC88010008B5FFF761FFFFF70D
:106B70009FFFFFF7C9FF00BFFBF77EFE0346002B18
:106B8000FAD1FEF75DF8F6E7BFF34F8F00BF074B72
:106B9000DB6803F4E0620549054B1343CB60BFF3A8
:106BA0004F8F00BF00BF00BFFCE700BF00ED00E05B
:106BB0000400FA05024B034A1A6000BF704700BF89
:106BC0004C0C00200090D00308B500F05DF903469E
:106BD000002B06D09B4B1B681B0A9B4A03F01F032C
:106BE000136000F07DF90346002B02D0974B984AC2
:106BF0001A6000F091F90346002B06D0954B1B68F4
:106C00005B0B954A03F00703136000F0B1F90346EC
:106C1000002B05D0914BDB68904A23F08073D36042
:106C200000F0C2F90346002B0ED04FF08043002243
:106C3000C3F80C214FF080430022C3F810214FF01D
:106C400080430022C3F8382500F0DAF90346002B10
:106C500002D0834B03221A6000F0EEF90346002BAA
:106C60000BD0804B05221A607F4B01221A607F4BAC
:106C700000221A607E4B3F221A6000F0F9F90346A9
:106C8000002B76D04FF080537A4AD3F80434C2F800
:106C900020354FF08053774AD3F80834C2F82435B2
:106CA0004FF08053734AD3F80C34C2F828354FF0B4
:106CB0008053704AD3F81034C2F82C354FF080530B
:106CC0006C4AD3F81434C2F830354FF08053694A17
:106CD000D3F81834C2F834354FF08053654AD3F8EE
:106CE0001C34C2F840354FF08053624AD3F8203448
:106CF000C2F844354FF080535E4AD3F82434C2F8CA
:106D000048354FF080535B4AD3F82834C2F84C35ED
:106D10004FF08053574AD3F82C34C2F850354FF017
:106D20008053544AD3F83034C2F854354FF080536E
:106D3000504AD3F83434C2F860354FF080534D4A8E
:106D4000D3F83834C2F864354FF08053494AD3F849
:106D50003C34C2F868354FF08053464AD3F840348B
:106D6000C2F86C354FF08053424AD3F84434C2F82D
:106D7000703500F099F90346002B05D03E4B1B6897
:106D80003E4A03F04F03136000F0BAF90346002BAC
:106D90000DD04FF08043D3F8003403F00103002BF3
:106DA00005D04FF080436FF00102C3F80024344B4C
:106DB000D3F88830324A43F47003C2F88830BFF306
:106DC0004F8F00BFBFF36F8F00BF4FF01023D3F87A
:106DD0000032002B05DB4FF01023D3F80432002BD8
:106DE0002BDA284B0122C3F8042500BF254BD3F82A
:106DF0000034002BFAD04FF010231522C3F80022E4
:106E000000BF204BD3F80034002BFAD04FF01023F2
:106E10001522C3F8042200BF1A4BD3F80034002B0C
:106E2000FAD0184B0022C3F8042500BF154BD3F845
:106E30000034002BFAD0FFF7A7FEFFF7BBFE00BF20
:106E400008BD00BF240300104035014074C0074056
:106E50000DF0ADBA440200103C050040F0ED00E03A
:106E6000A0050040105600408856004018560040CB
:106E70001456004000C0004058020010E40E0040CC
:106E800000ED00E000E00140124B1B68DBB2062B76
:106E90001DD1114B1B6803F00F03002B17D10F4BB3
:106EA0001B6803F0F003302B01D1012310E00B4BE2
:106EB0001B6803F0F003402B01D1012308E0074BCE
:106EC0001B6803F0F003502B01D1012300E00023E5
:106ED00018467047E00F00F0E40F00F0E80F00F0F4
:106EE0000A4B1B68DBB2062B0DD1094B1B6803F064
:106EF0000F03002B07D1074B1B6803F0F003302B67
:106F000001D1012300E0002318467047E00F00F094
:106F1000E40F00F0E80F00F0124B1B68DBB2062B09
:106F20001DD1114B1B6803F00F03002B17D10F4B22
:106F30001B6803F0F003302B01D1012310E00B4B51
:106F40001B6803F0F003402B01D1012308E0074B3D
:106F50001B6803F0F003502B01D1012300E0002354
:106F600018467047E00F00F0E40F00F0E80F00F063
:106F70000A4B1B68DBB2062B0DD1094B1B6803F0D3
:106F80000F03002B07D1074B1B6803F0F003302BD6
:106F900001D1012300E0002318467047E00F00F004
:106FA000E40F00F0E80F00F0124B1B68DBB2062B79
:106FB0001DD1114B1B6803F00F03002B17D10F4B92
:106FC0001B6803F0F003302B01D1012310E00B4BC1
:106FD0001B6803F0F003402B01D1012308E0074BAD
:106FE0001B6803F0F003502B01D1012300E00023C4
:106FF00018467047E00F00F0E40F00F0E80F00F0D3
:107000000A4B1B68DBB2062B0DD1094B1B6803F042
:107010000F03002B07D1074B1B6803F0F003302B45
:1070200001D1012300E0002318467047E00F00F073
:10703000E40F00F0E80F00F00A4B1B68DBB2062BF0
:107040000DD1094B1B6803F00F03002B07D1074B31
:107050001B6803F0F003302B01D1012300E0002373
:1070600018467047E00F00F0E40F00F0E80F00F062
:107070000A4B1B68DBB2062B0DD1094B1B6803F0D2
:107080000F03002B07D1074B1B6803F0F003502BB5
:1070900001D1012300E0002318467047E00F00F003
:1070A000E40F00F0E80F00F0124B1B68DBB2062B78
:1070B0001DD1114B1B6803F00F03002B17D10F4B91
:1070C0001B6803F0F003302B01D1012310E00B4BC0
:1070D0001B6803F0F003402B01D1012308E0074BAC
:1070E0001B6803F0F003502B01D1012300E00023C3
:1070F00018467047E00F00F0E40F00F0E80F00F0D2
:10710000124B1B68DBB2062B1DD1114B1B6803F021
:107110000F03002B17D10F4B1B6803F0F003302B2C
:1071200001D1012310E00B4B1B6803F0F003402B4F
:1071300001D1012308E0074B1B6803F0F003502B3B
:1071400001D1012300E0002318467047E00F00F052
:10715000E40F00F0E80F00F082B003468DF807302E
:107160009DF8073003F01F0205499DF907305B09C0
:10717000012000FA02F241F8232000BF02B070475C
:1071800000E100E082B0034600918DF807309DF9E0
:107190000730002B0CDA009BDAB20C499DF807305F
:1071A00003F00F03043B5201D2B20B441A7609E0FC
:1071B000009BDAB206499DF907305201D2B20B4466
:1071C00083F8002300BF02B0704700BF00ED00E06D
:1071D00000E100E082B003468DF807309DF90730EA
:1071E000002B0BDA0B4A9DF8073003F00F03043B2A
:1071F00013441B7EDBB25B09DBB208E0064A9DF953
:107200000730134493F80033DBB25B09DBB2184656
:1072100002B0704700ED00E000E100E000B583B08F
:107220000190019B002B03D10449C420FDF72AF9EA
:10723000019B5B68184603B05DF804FB2C890100D4
:1072400010DF704700BF184682B003468DF8073044
:107250009DF907301F2B0CDC9DF907300F4A22FAED
:1072600003F303F00103002B14BF01230023DBB25F
:1072700010E09DF907303F2B0BDC9DF90730203BD8
:10728000012202FA03F3002B14BF01230023DBB217
:1072900000E00123184602B0704700BFFC06FFBDA6
:1072A00082B00190019B072B07D8EC22019B42FA88
:1072B00003F303F00103002B01D1002300E00123BD
:1072C000184602B07047000000B583B003468DF841
:1072D00007309DF907301846FFF7B6FF0346002B2D
:1072E00002D142F201032EE09DF907301846FFF764
:1072F00071FF03461846FFF7D3FF0346002B02D168
:1073000042F202031FE0124B9B68002B15D09DF93F
:1073100007305B090E4A52F823209DF8073003F02E
:107320001F03012101FA03F319469DF907305B0998
:107330000A43074941F8232004E09DF90730184625
:10734000FFF70AFF0023184603B05DF804FB00BFF7
:10735000B412002000B583B0034600918DF80730C9
:107360009DF907301846FFF76FFF0346002B02D147
:1073700042F201030FE00098FFF792FF0346002B53
:1073800002D142F2020306E09DF907300099184647
:10739000FFF7F8FE0023184603B05DF804FB000079
:1073A00000B587B003468DF8073002AB1449184684
:1073B000FDF780FC17E002AB1846FFF72FFF0590A2
:1073C000059B1B680493059B59689DF80720049B47
:1073D000104698470346002B01D111230BE002AB66
:1073E0001846FDF791FC02AB1846FFF717FF03465E
:1073F000002BE0D10023184607B05DF804FB00BF66
:10740000008A010000B587B003468DF8073002AB53
:1074100011491846FDF74EFC12E002AB1846FFF783
:10742000FDFE0590059B1B680493059B59689DF81C
:107430000720049B1046984702AB1846FDF764FCF2
:1074400002AB1846FFF7EAFE0346002BE5D100BF6A
:1074500000BF07B05DF804FB0C8A010000B583B0E3
:107460001620FFF731FF0190019B0093009B002B3A
:1074700004D0044A99210098FBF7FAFE00BF03B03C
:107480005DF804FB8C89010000B585B0072116204A
:10749000FFF760FF0390039B0293029B002B04D035
:1074A0000B4AB8210298FBF7E3FE07211520FFF7EE
:1074B00051FF0390039B0193019B002B04D0044ACE
:1074C000BA210198FBF7D4FE00BF05B05DF804FBBC
:1074D0008C89010000B583B01B4B1B78002B01D0B9
:1074E00008232DE0194B01221A700020FFF758FFE6
:1074F0000346112B01D1002322E00020FFF782FF79
:10750000134B1B6800936B46124A13491846FFF74A
:1075100097FE0190019B002B01D0019B10E00A4BCC
:1075200001221A70094B00221A700C4B00221A70AB
:10753000FFF7AAFFFFF792FF0120FFF763FF002389
:10754000184603B05DF804FBCC130020CE130020D6
:10755000FC890100D48901003D330100CD130020D6
:10756000014B1B7818467047CC13002000B585B03E
:107570006B4611491846FDF79DFB10E06B46184617
:10758000FFF74CFE0390039B1B680293039B5A6812
:10759000029B104698476B461846FDF7B5FB6B46B5
:1075A0001846FFF73BFE0346002BE7D100BF00BFA4
:1075B00005B05DF804FB00BF188A010008B5FFF7AD
:1075C000D5FF00BF08BD000000B583B00190019B4E
:1075D000002B03D10449C420FCF754FF019B5B68D6
:1075E000184603B05DF804FB248A0100C1DF704730
:1075F00000BF1846FADF704700BF184600B585B0D7
:10760000074A6B4607CA83E807006B461846FFF730
:10761000F1FF0390039B184605B05DF804FB00BF23
:10762000888A010000B595B0019003AA03AB03F16D
:107630002D0103AB2C331846FFF7D8FF1390139B93
:10764000002B03D0139B052B20D124E00FAB144952
:107650001846FDF72FFB11E00FAB1846FFF7B4FFFC
:107660001290129B1B681193129B596803AA119BDD
:10767000104698470FAB1846FDF746FB0FAB184670
:10768000FFF7A2FF0346002BE6D1CEE7054A812192
:107690001398FBF7EDFD00BF15B05DF804FB00BFCC
:1076A000E08A0100948A010053EA020C61D02DE9BE
:1076B000F04BB3FA83F51E0007BFB2FA82F502FA67
:1076C00005F403FA05F41646C5F120051EBF22FA9B
:1076D00005F73C43203556EA044C4FEA144418BFE2
:1076E0000134A3464FF00009C846904271EB030CE9
:1076F00039D3094207BFB0FA80F700FA07F6B1FAAA
:1077000081F701FA07F6C7F120071EBF20FA07FC30
:1077100046EA0C062037B6FBFBFC7F1B103F07F048
:107720001F04C4F120060CFA04F42CFA06F644BF38
:1077300034460026202FA4BF2646002454EA060C17
:1077400008BF012418EB040849EB0609A4FB027CDE
:10775000C01B06FB02CC04FB03CC71EB0C01904276
:1077600071EB030CC5D20B46024649464046BDE8C4
:10777000F08BB2FBF3F2844640EA010313F0030FEF
:1077800018D18446202A0BD32DE9F007B1E8F80779
:10779000A0E8F807A2F12002202AF7D2BDE8F007FE
:1077A000042A07D351F8043B40F8043BA2F1040239
:1077B000042AF7D2002A05D011F8013B00F8013B5A
:1077C000013AF9D1604670478446002A2DD010F066
:1077D000030F04D000F8011B013A26D0F7E7C9B225
:1077E00041EA012141EA0141202A12D3A2F12002FB
:1077F0002DE9F0030B460C460D460E460F46884613
:107800008946A0E8FA03203AFBD2BDE8F003203213
:107810000BD0042A05D340F8041B043A05D0042AEF
:0E782000F9D200F8011B013AFBD16046704717
:08783000D9690100000000000D
:107838000079010000000300F08001000000000052
:10784800C8870100000000000C7B01000000030055
:1078580084890100000003007C8A01000000030005
:107868002C820100000000005C880100000000007C
:0878780025760100000000006C
:1078800000000000000000000000000000000000F8
:1078900000000000000000000000000000000000E8
:1078A00000000000000000000000000000000000D8
:1078B00000000000000000000000000000000000C8
:1078C00000000000000000000000000000000000B8
:1078D00000000000000000000000000000000000A8
:1078E000180D0020500C0020580C0020580C0020CF
:1078F000180000004F766572666C6F77000000001C
:1079000061707000433A5C55736572735C746865AE
:1079100072755C4465736B746F705C6E52465C6E1E
:1079200052465C636F6D706F6E656E74735C6C69EC
:10793000627261726965735C6578706572696D65A4
:107940006E74616C5F6C6F675C7372635C6E7266A1
:107950005F6C6F675F66726F6E74656E642E630036
:107960002E2E2F2E2E2F2E2E2F2E2E2F2E2E2F2E32
:107970002E2F2E2E2F636F6D706F6E656E74732FAA
:10798000647269766572735F6E72662F68616C2FC0
:107990006E72665F6770696F2E680000433A5C55CF
:1079A000736572735C74686572755C4465736B743F
:1079B0006F705C6E52465C6E52465C636F6D706FAA
:1079C0006E656E74735C626F617264735C626F612A
:1079D0007264732E63000000111213140D0E0F1049
:1079E0004C110020433A5C55736572735C74686592
:1079F00072755C4465736B746F705C6E52465C6E3E
:107A000052465C636F6D706F6E656E74735C6C690B
:107A1000627261726965735C627574746F6E5C61C9
:107A200070705F627574746F6E2E6300534F4654AE
:107A30004445564943453A20415353455254494FD2
:107A40004E204641494C454400000000534F4654E7
:107A50004445564943453A20494E56414C494420F5
:107A60004D454D4F5259204143434553530000006B
:107A7000415353455254494F4E204641494C454489
:107A80002061742025733A25750000004552524F3D
:107A900052202575205B25735D2061742025733A83
:107AA00025750000554E4B4E4F574E204641554CC4
:107AB000542061742030782530385800433A5C55A2
:107AC000736572735C74686572755C4465736B741E
