:020000040000FA
:10000000E822002049020000510200001502000011
:1000100055020000570200005902000000000000D5
:100020000000000000000000000000005B02000073
:100030005D020000000000005F020000610200009D
:10004000630200006302000063020000630200001C
:100050006302000063020000550300006302000019
:1000600063020000630200006302000063020000FC
:1000700063020000630200006302000063020000EC
:1000800063020000550500006302000063020000E7
:1000900079050000630200007D0500006302000096
:1000A00063020000630200006302000063020000BC
:1000B0006302000063020000000000000000000076
:1000C000630200006302000063020000630200009C
:1000D00063020000630200006302000000000000F1
:1000E0000000000000000000000000000000000010
:1000F0000000000000000000000000000000000000
:1001000000000000000000000000000000000000EF
:1001100000000000000000000000000000000000DF
:1001200000000000000000000000000000000000CF
:1001300000000000000000000000000000000000BF
:1001400000000000000000000000000000000000AF
:10015000000000000000000000000000000000009F
:10016000000000000000000000000000000000008F
:10017000000000000000000000000000000000007F
:10018000000000000000000000000000000000006F
:10019000000000000000000000000000000000005F
:1001A000000000000000000000000000000000004F
:1001B000000000000000000000000000000000003F
:1001C000000000000000000000000000000000002F
:1001D000000000000000000000000000000000001F
:1001E000000000000000000000000000000000000F
:1001F00000000000000000000000000000000000FF
:10020000DFF80CD000F094F8004800475D130000C0
:10021000E8220020094B1EF0040F1CBFEFF30980F9
:100220001847EFF308800649064A884201D89042F1
:1002300002D88D464FF0000018470000C9040000A6
:10024000E8220020E80200200648804706480047D0
:10025000FEE7FEE7FEE7FEE7FEE7FEE7FEE7FEE776
:10026000FEE7FEE781050000010200002DE9F05FD6
:100270000546002092469B46884606468146402415
:100280001BE0284641464746224600F041F85346C7
:100290005A46C01A914110D311461846224600F022
:1002A00028F82D1A67EB01084F462246012000214D
:1002B00000F01FF817EB00094E41201EA4F10104C5
:1002C000DFDC484631462A464346BDE8F09FD2B2BD
:1002D00001E000F8012B491EFBD270470022F6E72F
:1002E00010B513460A4604461946FFF7F0FF2046AC
:1002F00010BD202A04DB203A00FA02F100207047EA
:100300009140C2F1200320FA03F319439040704753
:10031000202A04DB203A21FA02F00021704721FA5A
:1003200002F3D040C2F120029140084319467047C1
:10033000064C074D06E0E06840F0010394E8070032
:1003400098471034AC42F6D3FFF75EFF281E00003A
:10035000481E00002DE9F04700268CB0DFF86091C0
:10036000B0464FF48075012437460696284601F0C2
:100370004BFA38B1D9F80403204203D0284601F0E3
:1003800039FA26432D1D64007F1CADB2082FEDD332
:100390004FF4BE74204601F037FA48B1204601F010
:1003A00029FA46F0004606AA0121002001F00EFAC3
:1003B000444D16F0FF0F15D00127002437420DD011
:1003C00009EB8401D1F81005D1F81015C0F3042011
:1003D00055F82420C1F3014102B190477F00641C0D
:1003E000082CEBD3002E67DA4FF0FF30CDE9088000
:1003F00000263446281910F8507F90F9000027F0A5
:10040000C008401C44D009A9404600F0FFFF58B383
:100410004FEA9719404600F029FE55F820701FB1A9
:10042000B9F1030F03D00FE0B9F1030F30D108A8E1
:100430004FEAD80208F00703815C4FF0010C0CFA78
:1004400003FC41EA0C0181544FF0A04101EB88000C
:10045000D0F8000706A9C0F3014A404600F0D6FFD5
:1004600018B1BAF1020F03D012E0BAF1030F0FD1A5
:10047000B9F1030F08D1BAF1020F1BD00221404697
:1004800001F088F9761CF6B217B149464046B847E4
:10049000641C042CAED3002E0ED06A46012100202D
:1004A00001F094F906990098884205D006900898C2
:1004B00009909DE70321E2E70CB0BDE8F08700005A
:1004C00000600040C800002000F000F8BFF34F8F2C
:1004D00005480168054A01F4E06111430160BFF37A
:1004E0004F8F00BFFDE700000CED00E00400FA05AF
:1004F00000F01F02012191404009800000F1E0203E
:10050000C0F88012704700F01F020121914040099D
:10051000800000F1E020C0F80011704700F01F02D9
:10052000012191404009800000F1E020C0F8001254
:1005300070474907090E002806DA00F00F0000F1A5
:10054000E02080F8141D704700F1E02080F80014CE
:100550007047000007480021C0F84011C0F844115E
:10056000C0F84811C0F84C11C0F80011C0F80411CF
:1005700001F090BB0010014001F0DABA01F0F0B9CF
:10058000F0B5AE480023021D01780125101D4FF083
:10059000805406290BD11678360708D10678C6F3A1
:1005A0000316032E06D0042E04D0052E02D00629F1
:1005B00007D00EE0B4F82463A14FC6F304263E60D2
:1005C00002E01678360704D10678C6F30316032E28
:1005D00002D0062904D00FE09B4F9A4E7E670EE0B2
:1005E0001678360708D10678C6F30316032E06D010
:1005F000042E04D0052E02D0062907D00EE0D4F830
:100600004462924FC6F342363E6002E016783607E7
:1006100004D10678C6F30316032E02D0062906D0AD
:1006200011E08B4E376827F0807737600EE0167840
:10063000360708D10678C6F30316032E06D0042E1B
:1006400004D0052E02D006290AD011E04FF08046D2
:10065000C6F80C31C6F810317C4E361F336002E00C
:100660001678360704D10678C6F30316032E02D097
:10067000062905D00CE0754F032664373E600AE07A
:100680001678360704D10678C6F30316032E02D077
:1006900006290DD014E06F4F05263E606D4E78366A
:1006A00035606C4E083633603F263F1D3E6002E0E9
:1006B0001678360704D10678C6F30316052E02D045
:1006C000062957D062E0644E3668644F3E60624E41
:1006D000361D36683F1D3E605F4E083636683F1D4A
:1006E0003E605D4E0C3636683F1D3E605A4E1036F9
:1006F00036683F1D3E60584E143636683F1D3E60DA
:10070000554E18363668554F20373E60524E1C36CF
:1007100036683F1D3E60504E203636683F1D3E60B5
:100720004D4E243636683F1D3E604B4E28363668A7
:100730003F1D3E60484E2C3636683F1D3E60464E9B
:1007400030363668454F40373E60434E3436366863
:100750003F1D3E60404E383636683F1D3E603E4E7F
:100760003C3636683F1D3E603B4E403636683F1D86
:100770003E6002E01678360708D10678C6F3031605
:10078000032E06D0042E04D0052E02D0062907D051
:1007900019E0D4F85812324A01F04F01116002E01A
:1007A000117809070FD10078C0F30310032803D094
:1007B000042801D0052806D12A480168C90702D0BB
:1007C0006FF00101016022487438016841F4700142
:1007D0000160BFF34F8FBFF36F8F4FF01021D1F83F
:1007E0000002002803DBD1F80402002822DA1E4AA6
:1007F00015601E480468002CFCD01524C1F8004286
:100800000568002DFCD0C1F8044201680029FCD025
:10081000136001680029FCD0BFF34F8F0C48F038FB
:100820000168134A01F4E06111430160BFF34F8F87
:1008300000BFFDE710490F480860F0BDE00F00F071
:10084000403501400DF0ADBA00C007403C05004006
:10085000FCED00E0105600400404001020C50040EC
:10086000E40E00400004004004E5014000E40140C3
:100870000400FA050090D0035800002002E008C8E8
:10088000121F08C1002AFAD170477047002001E00A
:1008900001C1121F002AFBD170470000012120284E
:1008A00003DA81400548014003E0402802DA20389D
:1008B000814009B10120704700207047FC06FFBD50
:1008C000082806D20121814011F0EC0F01D001204F
:1008D000704700207047022000F096B910B504461A
:1008E0008378827A41780078C2DF002813D1237997
:1008F0006279E1882078D3DF00280CD1E178207874
:10090000CDDF002807D1A178C90704D121890029AA
:1009100001D02078D1DF10BD1CB504460222082189
:100920006846FFF7D4FC94F82C00002813D194F803
:100930002D0080280FD160784E280CD1E27807482E
:10094000012122B9002202604260826822B18268DD
:10095000012A00D1C1601CBD8160FBE700000020BE
:100960001CB500220192032300928DF805108DF82A
:1009700000308DF801208DF8070008216A4600201C
:10098000C7DF002801D000F063F81CBD70B500245B
:10099000064D06E06868012110F8340000F0E6FD1D
:1009A000641C28788442F5D3002070BD2400002008
:1009B000F8B515460C460646052A01D20720F8BDB3
:1009C00000F0BAFE18B900F089FE0028F7D11049EE
:1009D00000204E600C70C1E902500E4D08610DE020
:1009E00006EBC4006968009181788DF801100078E9
:1009F000094A694600F00CFE0028E0D1641EE4B20A
:100A0000EED2BDE8F840054A0021024800F02CB8BB
:100A1000240000207C1D0000C911000029110000E5
:100A200009480068C00700D000BEBFF34F8F0648DA
:100A3000E4380168054A01F4E06111430160BFF345
:100A40004F8F00BFFDE70000F0ED00E00400FA0565
:100A50000EB500210091CDE901106A4644F2010073
:100A6000FFF7DEFF0EBD0000084B9B7823B12AB1D3
:100A700020B10068037C1BB1082070470720704735
:100A800000230374417442611846704740010020FE
:100A900070B500F0B7FF104800240B2104704470BB
:100AA0000E4D817014206C602C706C70FFF720FD6F
:100AB00007211420FFF73DFD1420FFF724FD08480F
:100AC000046007211120FFF734FD0548001F00686E
:100AD000A860002070BD0000400100203800002008
:100AE000081501402DE9FC47DFF8789099F80230AD
:100AF00073B368B3052902D20720BDE8FC874369B8
:100B000033B3437C012B25D00027044600258846BB
:100B100016468DF80050684600F038F801A801F03C
:100B2000F3F8C8B1012101700F4944600968C0E9B8
:100B30000218C0E904769DF8040089F801009DF8C8
:100B4000000000F047F81420FFF7E8FC2846D4E73F
:100B50000820D2E70F46D8E704259DF8000000F0F2
:100B600039F8F3E74001002004150140064989786F
:100B700039B130B1416921B100210174022101F084
:100B800065B80820704700004001002030B5EFF341
:100B9000108172B60D4A9468012324B103700029B4
:100BA00000D162B630BD93604FF0E023D3F880519E
:100BB000074C25401560C3F88041D3F88441546048
:100BC0005A17C3F8842100220270E8E74C02002083
:100BD000FC06FFBD0B498A68002A11D000280FD1FE
:100BE000EFF3108072B60B684FF0E022C2F80031CC
:100BF0004B68C2F8043100228A60002800D162B636
:100C0000704700004C02002007490B5C4FF0A041E8
:100C1000D1F804250120984020EA0203C1F80835E4
:100C20001040C1F80C057047441D00000249085CE3
:100C3000012100F0C0BD0000441D00000249085C15
:100C4000002100F0B8BD0000441D00000649095C09
:100C50004FF0A040D0F80405C84010F0010000D0CB
:100C6000012080F001007047441D00007CB5002485
:100C7000084E25460122305D00950023114601955E
:100C800000F064FD641C042CF4D3BDE87C4000F04B
:100C900003B80000441D000010B500242046FFF7F3
:100CA000C5FF641C042CF9D310BD10B500242046E8
:100CB000FFF7C4FF641C042CF9D310BD10B5024625
:100CC000064B4FF0FF3000215C5C944201D1084696
:100CD00010BD491C0429F7D310BD0000481D0000B9
:100CE0002DE9F0470D468146FFF7E8FF044604284A
:100CF00036D2DFF874801B481C4EA8F10C0725B3D0
:100D0000012D0ED0022D2BD104EB44003044457848
:100D1000002D25D0B968002922D02846BDE8F0472B
:100D2000084704EB4401755C0E44717849B10E4AE2
:100D30004FF40041093A8068FFF7D4FE08B987F8FC
:100D40000390B17808F80410E2E78068FFF70EFF1F
:100D500004EB4401314418F804008D78A842D7D040
:100D6000BDE8F0874C1D0000200000209C00002002
:100D700070B50023042810D20D4D00EB4004012A69
:100D800002D101290CD00022094E00EB4000304472
:100D900061B1012906D0022906D00723184670BD8B
:100DA0000E30C2B22A55F9E74270F7E78270F5E7D4
:100DB0009C00002070B506461E480024C0E9016171
:100DC000B00720D50025012211462846FFF7D0FFA5
:100DD0006D1C0446042D02D2002CF4D013E094B90B
:100DE00040F2666204211448FFF7E2FD04000AD1D4
:100DF000FFF7CCFD040006D10F48104A0021001F68
:100E0000FFF732FE0446F00701D0FFF72FFF74B959
:100E100009480B4A00210C38FFF726FE040006D1D2
:100E20000548084A01210838FFF71EFE04462046FF
:100E300070BD000014000020581D000001100000CB
:100E400051120000D70800002DE9F05F6A4C0546FA
:100E500000266078B34618B184F801B000F0E0F9DC
:100E6000664F4FF47A694FF4C87A4FF00108182D95
:100E700062D2DFE805F0AC0C0C31404D62676B7458
:100E80006B74BE7D7D7D7D7DACAFB2B5BEBE0020F6
:100E9000FFF7DCFE00284FF0000008D0FFF7C6FE89
:100EA000022D02D14FF4E16008E0484606E0FFF76A
:100EB000C5FE022D01D1C82000E05046410CC00300
:100EC0004FF4FA72801841F100012570520000239E
:100ED000FFF7CCF901462AE00020FFF7B7FE002813
:100EE0004FF0000004D0FFF7A1FE4FF44870E5E793
:100EF000FFF7A4FEDFE70020FFF7A8FE00284FF071
:100F0000000002D0FFF792FECFE7FFF797FED4E78D
:100F10000020FFF79BFE00284FF0000002D0FFF7F3
:100F200085FE01E0FFF78AFE257041F69A11002246
:100F30003868FFF7D7FD064646E00020FFF764FE5D
:100F4000257008E0002051E025703DE084F8018024
:100F50000120FFF759FE002240F6CD41E8E784F872
:100F600001800120FFF750FE00224FF48041DFE7AF
:100F70007868FFF7FBFD0646D5F1110000D02EB1D1
:100F80000220FFF753FE84F802B01DE0012816D9B5
:100F900080B2C8214843C117C90341EA5041C00388
:100FA0004FF4FA72801841F1000152000023FFF75C
:100FB0005DF9014600227868FFF794FD064602209D
:100FC000FFF73CFE84F802803046BDE8F09F00F059
:100FD00027F9B9E700F024F9B4E700F021F904E0BB
:100FE00000F01EF90020FFF729FE0120FFF726FE82
:100FF000AAE7FFF75AFEA7E7140000204C1D0000E7
:1010000000780221FFF76CBE05494FF0FF32082837
:1010100041F8202002D3084480F84820704700009F
:10102000C8000020F0B54FF0FF3512B100230826AC
:1010300001E008230C260C4C05E000BF54F8237097
:101040007F1C04D05B1CB342F8D32846F0BD2618A1
:101050005DB286F8305044F82310002AF5D1E1182B
:1010600081F84800F1E70000C80000200249084468
:1010700090F9300070470000C80000202DE9F05FB3
:1010800026484168F1B3DFF898B00E688146DBF876
:10109000004087688078E11B21F07F45ED1CB0B9E6
:1010A000DFF880804FF48030C8F84403C8F80403A8
:1010B0001120FFF71DFA1120FFF725FA4FF0010A62
:1010C000C8F800A02F2000F0EFF989F802A0B5427F
:1010D00000D23546124BE8193C3320F07F401860AF
:1010E000DBF800105A46091B21F07F41001B20F05D
:1010F0007F40C91C81420FD9106818602F2000F072
:10110000D3F900E004E0BDE8F05F1120FFF706BA74
:10111000BDE8F05F00F076BCBDE8F09F380000202D
:1011200004150140001001402DE9F0410026012581
:10113000144C22E06068226900EBC607387805FA93
:1011400000F1114217D08A43226100F0BDFA024635
:101150003878E36805FA00F1194002FA00F3994281
:1011600009D17978012901D0012100E00021514005
:101170007A6802B19047761CF6B220788642D9D3BD
:10118000BDE8F081240000200E4910B50A784C78A3
:101190000023A24212D0521CD2B20A70022A00D1FD
:1011A0000B70084A0B780C3252F8232002608868D2
:1011B000104420F07F408860012010BD03600020B3
:1011C00010BD0000380000202DE9F041124E074606
:1011D0000125BD403068FFF7C9FC00280DD10F4C38
:1011E0002069284207D1384600F06EFA0028E068EE
:1011F00005D0284304E0A8432061BDE8F081A8435E
:10120000E060206928432061A1683068BDE8F041B2
:101210000022FFF767BC00007C1D000024000020B6
:101220000A4810B5807860B1002401E0022C06D095
:101230002046FFF7FBFC641C042CF7D310BD0324ED
:10124000F6E7BDE81040FFF727BD000014000020BE
:1012500003480179C90702D00078FFF7F5BD704750
:10126000140000202DE9F047394E002780463D4606
:10127000DFF8E090D6F804A057E003D00446D0F899
:101280001C8035E099F8002002EB4201521CD2B2DA
:1012900089F8002009EBC10199F80230091D9A4232
:1012A00001D189F8005048680A780446012A12D012
:1012B000022A02D0032A3BD108E000F097FC00B1DB
:1012C0000127257434E00574C06900E070680028C7
:1012D000F9D170602CE0207C50BB88686060C868E1
:1012E000A0600869E0604869A061F07800B16560BD
:1012F0006268B168184B501A20F07F40984202D2C1
:10130000A168084406E0881AA16820F07F40814265
:1013100002D9081A206000E0256065600120A56000
:1013200020742046E56100F043FCB8F10000A4D130
:1013300099F8001099F801008142A3D117B971689A
:10134000514502D00120BDE8F0870020FBE70000F6
:101350003800002040010020FFFF7F0086B00322FC
:10136000082103A8FEF7B3FFFFF792FB08B1FFF7D0
:101370006FFB00210120FFF71DFD08B1FFF768FB9F
:1013800000F04AFA08B1FFF763FB00F09DFA08B1DC
:10139000FFF75EFB00F068FA08B1FFF759FB194A46
:1013A00007CA8DE807006846FFF798FA08B1FFF70B
:1013B0004FFB00210846C4DF08B1FFF749FB0821B5
:1013C00003AA0020C7DF104C00264CF25035A0685D
:1013D0000128FCD16068022800D166602068401CAA
:1013E00020606068401C6060284600F017F8E068E4
:1013F0000128ECD160680228E9D121692068FFF753
:10140000AFFAE4E7381D000000000020C20800F039
:1014100007030120895C98400840704700283ED0AF
:101420001F49204A096800BF00BF00BF00BF00BFBE
:1014300000BF00BF00BF91422FD000BF00BF00BF60
:1014400000BF00BF00BF00BF00BF00BF00BF00BFA4
:1014500000BF00BF00BF00BF00BF00BF00BF00BF94
:1014600000BF00BF00BF00BF00BF00BF00BF00BF84
:1014700000BF00BF00BF00BF00BF00BF00BF00BF74
:1014800000BF00BF00BF00BF00BF00BF00BF00BF64
:1014900000BF00BF00BF00BF00BF0138C3D170470D
:1014A000580000200024F40000283ED01F49204AA4
:1014B000096800BF00BF00BF00BF00BF00BF00BF82
:1014C00000BF91422FD000BF00BF00BF00BF00BFD0
:1014D00000BF00BF00BF00BF00BF00BF00BF00BF14
:1014E00000BF00BF00BF00BF00BF00BF00BF00BF04
:1014F00000BF00BF00BF00BF00BF00BF00BF00BFF4
:1015000000BF00BF00BF00BF00BF00BF00BF00BFE3
:1015100000BF00BF00BF00BF00BF00BF00BF00BFD3
:1015200000BF00BF00BF0138C3D170475800002082
:101530000024F4004907090E002806DA00F00F0223
:1015400002F1E02282F8141D03E000F1E02282F8AB
:10155000001400F01F02012191404009800000F1B9
:10156000E020C0F88012C0F8001170472DE9F0416A
:101570008846054600F02EFA234E002828461AD049
:10158000FFF774FD304490F848008009032802D02A
:1015900001280ED007E04FF0A040D0F81005E84039
:1015A00010F0010F05D003212846BDE8F04100F0FE
:1015B000F1B80221F8E700F019FA002822D02846F5
:1015C000FFF754FD04464FF4807000EB84000F4F8A
:1015D00081B207EB8400D0F8102542F00102C0F878
:1015E0001025084600F006F9B8F1000F0AD0284689
:1015F000FFF73CFD56F82000002803D00120A04052
:10160000C7F80403BDE8F081C80000200060004076
:101610002DE9FC41DFF8A480044608EB0400002714
:1016200090F930001346C0170E46401C01D0082721
:1016300041E0F27819462046FFF7F4FC0546401CCD
:1016400038D0B07850B14FF0A04000EB8400D0F813
:10165000001721F00201C0F8001707E0002173789D
:10166000204600910A46019100F082F8F078C0B15E
:101670001348317800EB8500D0F81025114B1A4043
:10168000C0F810254FF4F8524FF4403302EA042218
:1016900003EA01410A43D0F810150A43C0F81025A7
:1016A00009E008EB0500327810F8481F41EA821182
:1016B000017000E004273846BDE8FC81C800002026
:1016C00000600040FFE0FCFF4FF0A041D1F8101592
:1016D000C14011F0010000D00120704770B5144DD9
:1016E00095F8540008B1082070BD0020411E2A184A
:1016F000401CC0B282F830102028F8D300242046C5
:10170000FFF782FC641CE4B20C2CF8D307210620FE
:10171000FFF710FF4FF4BE7000F06CF805494FF072
:101720000040C1F80403012085F85400002070BD7A
:10173000C800002000600040034890F854000028D2
:1017400000D0012070470000C800002070B541EAB9
:101750004201DDE904564FF0A04441EA830141EA29
:10176000052104EB800041EA0641C0F8001770BD76
:1017700070B541EA4201DDE904564FF0A04441EA68
:10178000830141EA052104EB800041EA0641C0F8EB
:10179000001770BD4FF0A04202EB8000D0F8002788
:1017A00022F44032C0F80027D0F8002742EA014175
:1017B000C0F80017704701224FF0A043824011B1DA
:1017C000C3F808257047C3F80C25704718B5084BB7
:1017D0006C4601441B68009306E000BF54F82030BB
:1017E000D3F81035401C08C28142F7D818BD00005C
:1017F000781D0000034908B5084400210160006815
:10180000009008BD0060004002494058012800D007
:1018100000207047006000400E4910B5002048705D
:10182000091D0860BFF35F8F0B490C4800F0AAF850
:101830000B48016841F0100101604FF0A0414FF0EA
:101840008070C1F80C0507490320C1F8000700208B
:1018500010BD00004C0000209C1D0000580200201C
:1018600010ED00E0600000500EB5034A07CA8DE895
:1018700007006846FADF0EBD1C1E000030B58FB0B1
:101880000DF12D040BAD6A4621462846C1DF30B16B
:10189000052814D00FB0BDE83040FFF7D9B809498A
:1018A0000CA800F06FF806E0D0E9003168469847D0
:1018B0000CA800F07EF80E980028E4D0F4E70FB0F2
:1018C00030BD0000101E000038B5184C207808B15B
:1018D000082038BD0125A570002000F0D3F811289C
:1018E00021D0002000F0E6F8114812A21B49006840
:1018F0000090684610DF0028EBD12570A070607062
:101900000721162000F09CF808B1FFF7A1F8072185
:10191000152000F095F808B1FFF79AF800F0E0F80C
:10192000012000F0C7F8002038BD0000540000205E
:10193000B81D0000333833312D353231642D376412
:1019400066392D323464382D656666332D3436376A
:10195000622D323235662D6130306500210A00007B
:101960000EB50749684600F00DF805E0D0E9001013
:101970008847684600F01DF802980028F6D10EBD91
:10198000D41D0000016009684160AFF3008010B50C
:10199000D0E900215368994201D1002104E0D1E946
:1019A0000034A34202D01946816010BD0831416065
:1019B000F0E7816800290BD0026892680A448260CF
:1019C00041684B689A4203D108314160FFF7DFBF9D
:1019D000704700000449084490F93000082801DBF2
:1019E0000120704700207047C800002004490844C7
:1019F00090F93000082801D201207047002070477C
:101A0000C800002070B5012670044FF0E0210025C9
:101A1000C1F88001084C4010C4F84803C4F808031A
:101A200066602F20FFF740FDA660044C2F20A560C4
:101A3000FFF73AFDA57070BD00100140380000208E
:101A400070B50D460446FEF729FF70B12846FEF733
:101A500037FF68B16807000E002C0CDA04F00F01A4
:101A600001F1E02181F8140D09E042F2010070BD9E
:101A700042F2020070BD04F1E02484F8000400206A
:101A800070BD00003EB5044609496846FFF77AFF7D
:101A900008E000BFD0E900212046904730B16846F9
:101AA000FFF787FF02980028F4D13EBD11203EBD0C
:101AB000BC1D00003EB5044608496846FFF762FFBA
:101AC00007E000BFD0E90021204690476846FFF7B5
:101AD00070FF02980028F5D13EBD0000C81D00002F
:101AE00010B51620FEF7DAFE80B10F4890F800041A
:101AF0004009FEF7E5FE60B10C4882684FF48001B2
:101B00006AB1016841F48001016010BD42F2010038
:101B100001E042F20200BDE81040FEF799BF4FF02D
:101B2000E020C0F8001110BD16E000E04C020020DB
:101B30002DE9F84F1D4C00256846D4E901A6FFF7B2
:101B400023FB002738B30023009A61681CE0D1F81A
:101B500000C00846944503D9ACEB02020A6015E0C8
:101B6000A2EB0C0263440760D0F80CC0C169814647
:101B7000BCF1000F08D006EB030828F07F48C0E94D
:101B8000018CC9F81C5005460029E0D12846616047
:101B9000FFF768FB03E02846FFF764FB10B15046EF
:101BA000FFF76CFAE770BDE8F88F000038000020FE
:101BB0000D4B10B5596831B102680C68A24204D8C7
:101BC000A21A0A60C161586010BD0B4603E00B46C3
:101BD000C969121B21B10C689442F8D3A41A0C6095
:101BE0000260C161D86110BD380000202DE9F041CC
:101BF000144E77683D462C4603E0844204D02546C7
:101C0000E469002CF9D11BE0D4B1A5420BD1F869ED
:101C1000706040B90C49012088600021B160F0700B
:101C20002F20FFF741FC2168E069E86110B10268EC
:101C3000114401607068874202D00120BDE8F08144
:101C40000020FBE738000020001001407CB506466C
:101C500000240D468DF800406846FEF797FF01A866
:101C600000F052F870B10570094946609DF8040013
:101C700048709DF80000FEF7ADFF1420FEF74EFC03
:101C800020467CBD04249DF80000FEF7A3FFF7E783
:101C9000400100202DE9F041194D6C68002C2CD03A
:101CA000184800270068A968B846401A20F07F4607
:101CB0002068B0420CD82146361A0744E469087CF3
:101CC00020B181F81080886949698847002CEFD1DC
:101CD00029786878814206D1401CC0B26870022819
:101CE00001D185F80180064869780C3040F82170F0
:101CF000BDE8F0411420FEF711BCBDE8F081000002
:101D000038000020041501400A494A788B78521C9B
:101D1000D2B2934200D100220B78934201D100202D
:101D200070470270487800EB400001EBC000001DD6
:101D30007047000040010020002000420202020023
:101D400044040000111213140D0E0F105C0000204B
:101D50007C000020A80000200D000300E10C000022
:101D60000E000300E10C00000F000300E10C000076
:101D700010000300E10C00000000005020010020D2
:101D80000300000000000000000000000000000050
:101D9000000000000000000000000000841D0000A2
:101DA0009C1D000004000000000000000000000076
:101DB000000000000000000001000007A81D000056
:101DC000B81D000008000000E01D0000F01D00002C
:101DD00008000000F01D0000001E000008000000C8
:101DE00000000000000000000000000000000000F3
:101DF000501E0000581E00000000000000000000FF
:101E00000000000000000000481E0000501E0000FE
:101E1000001E0000101E000008000000010020004D
:101E20006402002080000000581E00000000002016
:101E30005C0000007C080000B41E00005C00002074
:101E40008C2200008C08000019090000000000002E
:101E50007D180000000000000000000000000000ED
:101E60000000000000000000000000000000000072
:101E70000000000000000000000000000000000062
:101E80000000000000000000000000000000000052
:101E90000000000000000000000000000000000042
:101EA0000000000000000000000000000000000032
:041EB0000090D003CB
:0400000500000201F4
:00000001FF
